{
  "contractName": "Admin",
  "abi": [
    {
      "inputs": [],
      "stateMutability": "nonpayable",
      "type": "constructor"
    },
    {
      "anonymous": false,
      "inputs": [
        {
          "indexed": true,
          "internalType": "address",
          "name": "oldAdmin",
          "type": "address"
        },
        {
          "indexed": true,
          "internalType": "address",
          "name": "newAdmin",
          "type": "address"
        }
      ],
      "name": "AdminSet",
      "type": "event"
    },
    {
      "inputs": [
        {
          "internalType": "address",
          "name": "newAdmin",
          "type": "address"
        }
      ],
      "name": "changeAdmin",
      "outputs": [],
      "stateMutability": "nonpayable",
      "type": "function"
    },
    {
      "inputs": [],
      "name": "getAdmin",
      "outputs": [
        {
          "internalType": "address",
          "name": "",
          "type": "address"
        }
      ],
      "stateMutability": "view",
      "type": "function"
    },
    {
      "inputs": [],
      "name": "checkAdmin",
      "outputs": [
        {
          "internalType": "bool",
          "name": "",
          "type": "bool"
        }
      ],
      "stateMutability": "view",
      "type": "function"
    }
  ],
  "bytecode": "0x608060405234801561001057600080fd5b50336000806101000a81548173ffffffffffffffffffffffffffffffffffffffff021916908373ffffffffffffffffffffffffffffffffffffffff16021790555060008054906101000a900473ffffffffffffffffffffffffffffffffffffffff1673ffffffffffffffffffffffffffffffffffffffff16600073ffffffffffffffffffffffffffffffffffffffff167fbf265e8326285a2747e33e54d5945f7111f2b5edb826eb8c08d4677779b3ff9760405160405180910390a36103cc806100db6000396000f3fe608060405234801561001057600080fd5b50600436106100415760003560e01c80636e9960c3146100465780638f28397014610064578063ab15022614610080575b600080fd5b61004e61009e565b60405161005b919061026a565b60405180910390f35b61007e600480360381019061007991906102b6565b6100c7565b005b6100886101d2565b60405161009591906102fe565b60405180910390f35b60008060009054906101000a900473ffffffffffffffffffffffffffffffffffffffff16905090565b600115156100d36101d2565b151514610115576040517f08c379a000000000000000000000000000000000000000000000000000000000815260040161010c90610376565b60405180910390fd5b8073ffffffffffffffffffffffffffffffffffffffff1660008054906101000a900473ffffffffffffffffffffffffffffffffffffffff1673ffffffffffffffffffffffffffffffffffffffff167fbf265e8326285a2747e33e54d5945f7111f2b5edb826eb8c08d4677779b3ff9760405160405180910390a3806000806101000a81548173ffffffffffffffffffffffffffffffffffffffff021916908373ffffffffffffffffffffffffffffffffffffffff16021790555050565b60008060009054906101000a900473ffffffffffffffffffffffffffffffffffffffff1673ffffffffffffffffffffffffffffffffffffffff163373ffffffffffffffffffffffffffffffffffffffff1614905090565b600073ffffffffffffffffffffffffffffffffffffffff82169050919050565b600061025482610229565b9050919050565b61026481610249565b82525050565b600060208201905061027f600083018461025b565b92915050565b600080fd5b61029381610249565b811461029e57600080fd5b50565b6000813590506102b08161028a565b92915050565b6000602082840312156102cc576102cb610285565b5b60006102da848285016102a1565b91505092915050565b60008115159050919050565b6102f8816102e3565b82525050565b600060208201905061031360008301846102ef565b92915050565b600082825260208201905092915050565b7f43616c6c6572206973206e6f742041646d696e00000000000000000000000000600082015250565b6000610360601383610319565b915061036b8261032a565b602082019050919050565b6000602082019050818103600083015261038f81610353565b905091905056fea2646970667358221220a4beb380756ca89d0f2d0f2aabae9158dc759a48f79582a6d68c20937ea7285564736f6c634300080c0033",
  "immutableReferences": {},
  "source": "// SPDX-License-Identifier: GPL-3.0\n\npragma solidity >=0.8.0;\n\ncontract Admin {\n    address private admin;\n\n    event AdminSet(address indexed oldAdmin, address indexed newAdmin);\n\n    modifier isAdmin() {\n        require(checkAdmin() == true, \"Caller is not Admin\");\n        _;\n    }\n\n    constructor() {\n        admin = msg.sender;\n        emit AdminSet(address(0), admin);\n    }\n\n    function changeAdmin(address newAdmin) public isAdmin {\n        emit AdminSet(admin, newAdmin);\n        admin = newAdmin;\n    }\n\n    function getAdmin() external view returns (address) {\n        return admin;\n    }\n\n    function checkAdmin() public view returns (bool) {\n        return msg.sender == admin;\n    }\n}\n",
  "sourcePath": "/Users/minh/Projects/Funix/pricing-chain/contracts/Admin.sol",
  "compiler": {
    "name": "solc",
    "version": "0.8.12+commit.f00d7308.Emscripten.clang"
  },
  "schemaVersion": "3.4.5",
  "updatedAt": "2022-03-15T14:31:28.663Z",
  "devdoc": {
    "kind": "dev",
    "methods": {},
    "version": 1
  },
  "userdoc": {
    "kind": "user",
    "methods": {},
    "version": 1
  }
}