{
  "contractName": "Admin",
  "abi": [
    {
      "inputs": [],
      "stateMutability": "nonpayable",
      "type": "constructor"
    },
    {
      "anonymous": false,
      "inputs": [
        {
          "indexed": true,
          "internalType": "address",
          "name": "oldAdmin",
          "type": "address"
        },
        {
          "indexed": true,
          "internalType": "address",
          "name": "newAdmin",
          "type": "address"
        }
      ],
      "name": "AdminSet",
      "type": "event"
    },
    {
      "inputs": [
        {
          "internalType": "address",
          "name": "newAdmin",
          "type": "address"
        }
      ],
      "name": "changeAdmin",
      "outputs": [],
      "stateMutability": "nonpayable",
      "type": "function"
    },
    {
      "inputs": [],
      "name": "getAdmin",
      "outputs": [
        {
          "internalType": "address",
          "name": "",
          "type": "address"
        }
      ],
      "stateMutability": "view",
      "type": "function"
    }
  ],
  "bytecode": "0x608060405234801561001057600080fd5b50336000806101000a81548173ffffffffffffffffffffffffffffffffffffffff021916908373ffffffffffffffffffffffffffffffffffffffff16021790555060008054906101000a900473ffffffffffffffffffffffffffffffffffffffff1673ffffffffffffffffffffffffffffffffffffffff16600073ffffffffffffffffffffffffffffffffffffffff167fbf265e8326285a2747e33e54d5945f7111f2b5edb826eb8c08d4677779b3ff9760405160405180910390a361036d806100db6000396000f3fe608060405234801561001057600080fd5b50600436106100365760003560e01c80636e9960c31461003b5780638f28397014610059575b600080fd5b610043610075565b6040516100509190610241565b60405180910390f35b610073600480360381019061006e919061028d565b61009e565b005b60008060009054906101000a900473ffffffffffffffffffffffffffffffffffffffff16905090565b600115156100aa6101a9565b1515146100ec576040517f08c379a00000000000000000000000000000000000000000000000000000000081526004016100e390610317565b60405180910390fd5b8073ffffffffffffffffffffffffffffffffffffffff1660008054906101000a900473ffffffffffffffffffffffffffffffffffffffff1673ffffffffffffffffffffffffffffffffffffffff167fbf265e8326285a2747e33e54d5945f7111f2b5edb826eb8c08d4677779b3ff9760405160405180910390a3806000806101000a81548173ffffffffffffffffffffffffffffffffffffffff021916908373ffffffffffffffffffffffffffffffffffffffff16021790555050565b60008060009054906101000a900473ffffffffffffffffffffffffffffffffffffffff1673ffffffffffffffffffffffffffffffffffffffff163373ffffffffffffffffffffffffffffffffffffffff1614905090565b600073ffffffffffffffffffffffffffffffffffffffff82169050919050565b600061022b82610200565b9050919050565b61023b81610220565b82525050565b60006020820190506102566000830184610232565b92915050565b600080fd5b61026a81610220565b811461027557600080fd5b50565b60008135905061028781610261565b92915050565b6000602082840312156102a3576102a261025c565b5b60006102b184828501610278565b91505092915050565b600082825260208201905092915050565b7f43616c6c6572206973206e6f742041646d696e00000000000000000000000000600082015250565b60006103016013836102ba565b915061030c826102cb565b602082019050919050565b60006020820190508181036000830152610330816102f4565b905091905056fea2646970667358221220e6738723f700f7ca553a079bbb5964915b2ccffc206e79b228324680b3e25b6064736f6c634300080d0033",
  "immutableReferences": {},
  "source": "// SPDX-License-Identifier: GPL-3.0\n\npragma solidity >=0.8.0;\n\ncontract Admin {\n    address private admin;\n\n    event AdminSet(address indexed oldAdmin, address indexed newAdmin);\n\n    modifier isAdmin() {\n        require(checkAdmin() == true, \"Caller is not Admin\");\n        _;\n    }\n\n    modifier isNotAdmin() {\n        require(checkAdmin() == false, \"Caller is Admin\");\n        _;\n    }\n\n    constructor() {\n        admin = msg.sender;\n        emit AdminSet(address(0), admin);\n    }\n\n    function changeAdmin(address newAdmin) public isAdmin {\n        emit AdminSet(admin, newAdmin);\n        admin = newAdmin;\n    }\n\n    function getAdmin() external view returns (address) {\n        return admin;\n    }\n\n    function checkAdmin() internal view returns (bool) {\n        return msg.sender == admin;\n    }\n}\n",
  "sourcePath": "/Users/minh/Projects/Funix/pricing-chain/contracts/Admin.sol",
  "compiler": {
    "name": "solc",
    "version": "0.8.13+commit.abaa5c0e.Emscripten.clang"
  },
  "schemaVersion": "3.4.5",
  "updatedAt": "2022-03-27T08:47:18.668Z",
  "devdoc": {
    "kind": "dev",
    "methods": {},
    "version": 1
  },
  "userdoc": {
    "kind": "user",
    "methods": {},
    "version": 1
  }
}