{
  "contractName": "Main",
  "abi": [
    {
      "inputs": [],
      "stateMutability": "nonpayable",
      "type": "constructor"
    },
    {
      "anonymous": false,
      "inputs": [
        {
          "indexed": true,
          "internalType": "address",
          "name": "oldAdmin",
          "type": "address"
        },
        {
          "indexed": true,
          "internalType": "address",
          "name": "newAdmin",
          "type": "address"
        }
      ],
      "name": "AdminSet",
      "type": "event"
    },
    {
      "inputs": [
        {
          "internalType": "address",
          "name": "newAdmin",
          "type": "address"
        }
      ],
      "name": "changeAdmin",
      "outputs": [],
      "stateMutability": "nonpayable",
      "type": "function"
    },
    {
      "inputs": [],
      "name": "checkAdmin",
      "outputs": [
        {
          "internalType": "bool",
          "name": "",
          "type": "bool"
        }
      ],
      "stateMutability": "view",
      "type": "function"
    },
    {
      "inputs": [],
      "name": "getAdmin",
      "outputs": [
        {
          "internalType": "address",
          "name": "",
          "type": "address"
        }
      ],
      "stateMutability": "view",
      "type": "function"
    },
    {
      "stateMutability": "payable",
      "type": "receive"
    },
    {
      "inputs": [
        {
          "internalType": "string",
          "name": "_name",
          "type": "string"
        },
        {
          "internalType": "string",
          "name": "_description",
          "type": "string"
        },
        {
          "internalType": "string[]",
          "name": "_images",
          "type": "string[]"
        },
        {
          "internalType": "uint256",
          "name": "_timeout",
          "type": "uint256"
        }
      ],
      "name": "initSession",
      "outputs": [],
      "stateMutability": "payable",
      "type": "function"
    },
    {
      "inputs": [
        {
          "internalType": "uint256",
          "name": "_sessionIndex",
          "type": "uint256"
        }
      ],
      "name": "closeSession",
      "outputs": [],
      "stateMutability": "nonpayable",
      "type": "function"
    },
    {
      "inputs": [
        {
          "internalType": "uint256",
          "name": "_sessionIndex",
          "type": "uint256"
        },
        {
          "internalType": "uint256",
          "name": "_finalPrice",
          "type": "uint256"
        }
      ],
      "name": "setFinalPrice",
      "outputs": [],
      "stateMutability": "nonpayable",
      "type": "function"
    },
    {
      "inputs": [],
      "name": "getSessions",
      "outputs": [
        {
          "internalType": "contract Session[]",
          "name": "",
          "type": "address[]"
        }
      ],
      "stateMutability": "view",
      "type": "function"
    },
    {
      "inputs": [
        {
          "internalType": "uint256",
          "name": "_sessionIndex",
          "type": "uint256"
        },
        {
          "internalType": "string",
          "name": "_name",
          "type": "string"
        },
        {
          "internalType": "string",
          "name": "_description",
          "type": "string"
        },
        {
          "internalType": "string[]",
          "name": "_images",
          "type": "string[]"
        }
      ],
      "name": "updateSession",
      "outputs": [],
      "stateMutability": "nonpayable",
      "type": "function"
    },
    {
      "inputs": [
        {
          "internalType": "uint256",
          "name": "_sessionIndex",
          "type": "uint256"
        },
        {
          "internalType": "uint256",
          "name": "_price",
          "type": "uint256"
        }
      ],
      "name": "submitPrice",
      "outputs": [],
      "stateMutability": "nonpayable",
      "type": "function"
    },
    {
      "inputs": [],
      "name": "getParticipantList",
      "outputs": [
        {
          "components": [
            {
              "internalType": "string",
              "name": "email",
              "type": "string"
            },
            {
              "internalType": "string",
              "name": "name",
              "type": "string"
            },
            {
              "internalType": "address",
              "name": "account",
              "type": "address"
            },
            {
              "internalType": "uint256",
              "name": "deviation",
              "type": "uint256"
            },
            {
              "internalType": "uint256",
              "name": "sessionsCount",
              "type": "uint256"
            },
            {
              "internalType": "uint256",
              "name": "index",
              "type": "uint256"
            }
          ],
          "internalType": "struct Participant[]",
          "name": "",
          "type": "tuple[]"
        }
      ],
      "stateMutability": "view",
      "type": "function"
    },
    {
      "inputs": [
        {
          "internalType": "string",
          "name": "_email",
          "type": "string"
        },
        {
          "internalType": "string",
          "name": "_name",
          "type": "string"
        }
      ],
      "name": "register",
      "outputs": [],
      "stateMutability": "nonpayable",
      "type": "function"
    },
    {
      "inputs": [
        {
          "internalType": "address",
          "name": "_account",
          "type": "address"
        }
      ],
      "name": "getParticipantDetail",
      "outputs": [
        {
          "components": [
            {
              "internalType": "string",
              "name": "email",
              "type": "string"
            },
            {
              "internalType": "string",
              "name": "name",
              "type": "string"
            },
            {
              "internalType": "address",
              "name": "account",
              "type": "address"
            },
            {
              "internalType": "uint256",
              "name": "deviation",
              "type": "uint256"
            },
            {
              "internalType": "uint256",
              "name": "sessionsCount",
              "type": "uint256"
            },
            {
              "internalType": "uint256",
              "name": "index",
              "type": "uint256"
            }
          ],
          "internalType": "struct Participant",
          "name": "",
          "type": "tuple"
        }
      ],
      "stateMutability": "view",
      "type": "function"
    },
    {
      "inputs": [],
      "name": "getCurrentParticiapntDetail",
      "outputs": [
        {
          "components": [
            {
              "internalType": "string",
              "name": "email",
              "type": "string"
            },
            {
              "internalType": "string",
              "name": "name",
              "type": "string"
            },
            {
              "internalType": "address",
              "name": "account",
              "type": "address"
            },
            {
              "internalType": "uint256",
              "name": "deviation",
              "type": "uint256"
            },
            {
              "internalType": "uint256",
              "name": "sessionsCount",
              "type": "uint256"
            },
            {
              "internalType": "uint256",
              "name": "index",
              "type": "uint256"
            }
          ],
          "internalType": "struct Participant",
          "name": "",
          "type": "tuple"
        }
      ],
      "stateMutability": "view",
      "type": "function"
    },
    {
      "inputs": [],
      "name": "signIn",
      "outputs": [
        {
          "internalType": "bool",
          "name": "",
          "type": "bool"
        }
      ],
      "stateMutability": "view",
      "type": "function"
    },
    {
      "inputs": [
        {
          "internalType": "string",
          "name": "_email",
          "type": "string"
        },
        {
          "internalType": "string",
          "name": "_name",
          "type": "string"
        }
      ],
      "name": "updateParticipantInfo",
      "outputs": [],
      "stateMutability": "nonpayable",
      "type": "function"
    },
    {
      "inputs": [
        {
          "internalType": "address",
          "name": "_account",
          "type": "address"
        }
      ],
      "name": "increaseParticipantSessionCount",
      "outputs": [],
      "stateMutability": "nonpayable",
      "type": "function"
    },
    {
      "inputs": [
        {
          "internalType": "address",
          "name": "_account",
          "type": "address"
        },
        {
          "internalType": "uint256",
          "name": "_deviation",
          "type": "uint256"
        }
      ],
      "name": "updateParticipantDeviation",
      "outputs": [],
      "stateMutability": "nonpayable",
      "type": "function"
    },
    {
      "inputs": [
        {
          "internalType": "address",
          "name": "account",
          "type": "address"
        }
      ],
      "name": "isSignIn",
      "outputs": [
        {
          "internalType": "bool",
          "name": "",
          "type": "bool"
        }
      ],
      "stateMutability": "view",
      "type": "function"
    },
    {
      "inputs": [],
      "name": "checkRole",
      "outputs": [
        {
          "internalType": "uint256",
          "name": "",
          "type": "uint256"
        }
      ],
      "stateMutability": "view",
      "type": "function"
    }
  ],
  "bytecode": "0x60806040526000600355600060065534801561001a57600080fd5b50336000806101000a81548173ffffffffffffffffffffffffffffffffffffffff021916908373ffffffffffffffffffffffffffffffffffffffff16021790555060008054906101000a900473ffffffffffffffffffffffffffffffffffffffff1673ffffffffffffffffffffffffffffffffffffffff16600073ffffffffffffffffffffffffffffffffffffffff167fbf265e8326285a2747e33e54d5945f7111f2b5edb826eb8c08d4677779b3ff9760405160405180910390a361499b806100e56000396000f3fe608060405260043610620001335760003560e01c8063985fddea11620000af578063ab150226116200006d578063ab15022614620003d6578063b3b548eb1462000406578063d716c5491462000434578063e425349e1462000478578063ed214fff14620004a6576200013b565b8063985fddea14620002e45780639e4cda431462000304578063a3bfdf471462000334578063a79ddddc1462000362578063a961cb9c1462000392576200013b565b806367677ce511620000fd57806367677ce514620001fc5780636e9960c3146200022a5780638f283970146200025a5780639214613c1462000288578063937f4a2614620002b6576200013b565b80630482aa8214620001405780633ffbd47f146200017057806351650ecb146200019e57806361503e4514620001cc576200013b565b366200013b57005b600080fd5b3480156200014d57600080fd5b5062000158620004d6565b60405162000167919062001a2d565b60405180910390f35b3480156200017d57600080fd5b506200019c600480360381019062000196919062001bc0565b62000522565b005b348015620001ab57600080fd5b50620001ca6004803603810190620001c4919062001caa565b62000743565b005b348015620001d957600080fd5b50620001e462000852565b604051620001f3919062001e04565b60405180910390f35b3480156200020957600080fd5b5062000228600480360381019062000222919062001f55565b620008e2565b005b3480156200023757600080fd5b5062000242620009ef565b60405162000251919062002035565b60405180910390f35b3480156200026757600080fd5b5062000286600480360381019062000280919062001caa565b62000a18565b005b3480156200029557600080fd5b50620002b46004803603810190620002ae919062001bc0565b62000b28565b005b348015620002c357600080fd5b50620002e26004803603810190620002dc919062002052565b62000db3565b005b620003026004803603810190620002fc919062002099565b62000e6d565b005b3480156200031157600080fd5b506200031c62000fdf565b6040516200032b919062002185565b60405180910390f35b3480156200034157600080fd5b506200036060048036038101906200035a9190620021a2565b62000ff1565b005b3480156200036f57600080fd5b506200037a620010ea565b60405162000389919062002325565b60405180910390f35b3480156200039f57600080fd5b50620003be6004803603810190620003b8919062001caa565b62001104565b604051620003cd919062002185565b60405180910390f35b348015620003e357600080fd5b50620003ee6200119f565b604051620003fd919062002185565b60405180910390f35b3480156200041357600080fd5b506200043260048036038101906200042c919062002349565b620011f6565b005b3480156200044157600080fd5b506200046060048036038101906200045a919062001caa565b620013f5565b6040516200046f919062002325565b60405180910390f35b3480156200048557600080fd5b50620004a460048036038101906200049e919062002349565b620015f8565b005b348015620004b357600080fd5b50620004be620016ff565b604051620004cd9190620024fc565b60405180910390f35b600060011515620004e66200119f565b15151415620004f957600190506200051f565b600115156200050762000fdf565b151514156200051a57600290506200051f565b600090505b90565b60006040518060c001604052808481526020018381526020013373ffffffffffffffffffffffffffffffffffffffff1681526020016001815260200160008152602001600654815250905060048190806001815401808255809150506001900390600052602060002090600602016000909190919091506000820151816000019080519060200190620005b792919062001908565b506020820151816001019080519060200190620005d692919062001908565b5060408201518160020160006101000a81548173ffffffffffffffffffffffffffffffffffffffff021916908373ffffffffffffffffffffffffffffffffffffffff160217905550606082015181600301556080820151816004015560a08201518160050155505080600560003373ffffffffffffffffffffffffffffffffffffffff1673ffffffffffffffffffffffffffffffffffffffff16815260200190815260200160002060008201518160000190805190602001906200069c92919062001908565b506020820151816001019080519060200190620006bb92919062001908565b5060408201518160020160006101000a81548173ffffffffffffffffffffffffffffffffffffffff021916908373ffffffffffffffffffffffffffffffffffffffff160217905550606082015181600301556080820151816004015560a082015181600501559050506006600081548092919062000739906200254f565b9190505550505050565b60006001600560008473ffffffffffffffffffffffffffffffffffffffff1673ffffffffffffffffffffffffffffffffffffffff168152602001908152602001600020600401546200079691906200259d565b905080600560008473ffffffffffffffffffffffffffffffffffffffff1673ffffffffffffffffffffffffffffffffffffffff16815260200190815260200160002060040181905550806004600560008573ffffffffffffffffffffffffffffffffffffffff1673ffffffffffffffffffffffffffffffffffffffff1681526020019081526020016000206005015481548110620008395762000838620025fa565b5b9060005260206000209060060201600401819055505050565b60606001805480602002602001604051908101604052809291908181526020018280548015620008d857602002820191906000526020600020905b8160009054906101000a900473ffffffffffffffffffffffffffffffffffffffff1673ffffffffffffffffffffffffffffffffffffffff16815260200190600101908083116200088d575b5050505050905090565b60011515620008f06200119f565b15151462000935576040517f08c379a00000000000000000000000000000000000000000000000000000000081526004016200092c906200268a565b60405180910390fd5b600184815481106200094c576200094b620025fa565b5b9060005260206000200160009054906101000a900473ffffffffffffffffffffffffffffffffffffffff1673ffffffffffffffffffffffffffffffffffffffff16631d7e99c58484846040518463ffffffff1660e01b8152600401620009b593929190620027bd565b600060405180830381600087803b158015620009d057600080fd5b505af1158015620009e5573d6000803e3d6000fd5b5050505050505050565b60008060009054906101000a900473ffffffffffffffffffffffffffffffffffffffff16905090565b6001151562000a266200119f565b15151462000a6b576040517f08c379a000000000000000000000000000000000000000000000000000000000815260040162000a62906200268a565b60405180910390fd5b8073ffffffffffffffffffffffffffffffffffffffff1660008054906101000a900473ffffffffffffffffffffffffffffffffffffffff1673ffffffffffffffffffffffffffffffffffffffff167fbf265e8326285a2747e33e54d5945f7111f2b5edb826eb8c08d4677779b3ff9760405160405180910390a3806000806101000a81548173ffffffffffffffffffffffffffffffffffffffff021916908373ffffffffffffffffffffffffffffffffffffffff16021790555050565b3373ffffffffffffffffffffffffffffffffffffffff16600560003373ffffffffffffffffffffffffffffffffffffffff1673ffffffffffffffffffffffffffffffffffffffff16815260200190815260200160002060020160009054906101000a900473ffffffffffffffffffffffffffffffffffffffff1673ffffffffffffffffffffffffffffffffffffffff161462000bfb576040517f08c379a000000000000000000000000000000000000000000000000000000000815260040162000bf2906200285f565b60405180910390fd5b81600560003373ffffffffffffffffffffffffffffffffffffffff1673ffffffffffffffffffffffffffffffffffffffff168152602001908152602001600020600001908051906020019062000c5392919062001908565b5080600560003373ffffffffffffffffffffffffffffffffffffffff1673ffffffffffffffffffffffffffffffffffffffff168152602001908152602001600020600101908051906020019062000cac92919062001908565b50816004600560003373ffffffffffffffffffffffffffffffffffffffff1673ffffffffffffffffffffffffffffffffffffffff168152602001908152602001600020600501548154811062000d075762000d06620025fa565b5b9060005260206000209060060201600001908051906020019062000d2d92919062001908565b50806004600560003373ffffffffffffffffffffffffffffffffffffffff1673ffffffffffffffffffffffffffffffffffffffff168152602001908152602001600020600501548154811062000d885762000d87620025fa565b5b9060005260206000209060060201600101908051906020019062000dae92919062001908565b505050565b80600560008473ffffffffffffffffffffffffffffffffffffffff1673ffffffffffffffffffffffffffffffffffffffff16815260200190815260200160002060030181905550806004600560008573ffffffffffffffffffffffffffffffffffffffff1673ffffffffffffffffffffffffffffffffffffffff168152602001908152602001600020600501548154811062000e545762000e53620025fa565b5b9060005260206000209060060201600301819055505050565b6001151562000e7b6200119f565b15151462000ec0576040517f08c379a000000000000000000000000000000000000000000000000000000000815260040162000eb7906200268a565b60405180910390fd5b600030858585853460405162000ed69062001999565b62000ee79695949392919062002881565b604051809103906000f08015801562000f04573d6000803e3d6000fd5b5090506001819080600181540180825580915050600190039060005260206000200160009091909190916101000a81548173ffffffffffffffffffffffffffffffffffffffff021916908373ffffffffffffffffffffffffffffffffffffffff1602179055508060026000600354815260200190815260200160002060006101000a81548173ffffffffffffffffffffffffffffffffffffffff021916908373ffffffffffffffffffffffffffffffffffffffff1602179055506003600081548092919062000fd3906200254f565b91905055505050505050565b600062000fec3362001104565b905090565b6001151562000fff6200119f565b15151462001044576040517f08c379a00000000000000000000000000000000000000000000000000000000081526004016200103b906200268a565b60405180910390fd5b600181815481106200105b576200105a620025fa565b5b9060005260206000200160009054906101000a900473ffffffffffffffffffffffffffffffffffffffff1673ffffffffffffffffffffffffffffffffffffffff166343d726d66040518163ffffffff1660e01b8152600401600060405180830381600087803b158015620010ce57600080fd5b505af1158015620010e3573d6000803e3d6000fd5b5050505050565b620010f4620019a7565b620010ff33620013f5565b905090565b60008073ffffffffffffffffffffffffffffffffffffffff16600560008473ffffffffffffffffffffffffffffffffffffffff1673ffffffffffffffffffffffffffffffffffffffff16815260200190815260200160002060020160009054906101000a900473ffffffffffffffffffffffffffffffffffffffff1673ffffffffffffffffffffffffffffffffffffffff1614159050919050565b60008060009054906101000a900473ffffffffffffffffffffffffffffffffffffffff1673ffffffffffffffffffffffffffffffffffffffff163373ffffffffffffffffffffffffffffffffffffffff1614905090565b620012013362001104565b62001243576040517f08c379a00000000000000000000000000000000000000000000000000000000081526004016200123a9062002953565b60405180910390fd5b60001515600183815481106200125e576200125d620025fa565b5b9060005260206000200160009054906101000a900473ffffffffffffffffffffffffffffffffffffffff1673ffffffffffffffffffffffffffffffffffffffff1663c2b6b58c6040518163ffffffff1660e01b8152600401602060405180830381865afa158015620012d4573d6000803e3d6000fd5b505050506040513d601f19601f82011682018060405250810190620012fa9190620029a6565b1515146200133f576040517f08c379a0000000000000000000000000000000000000000000000000000000008152600401620013369062002a28565b60405180910390fd5b60018281548110620013565762001355620025fa565b5b9060005260206000200160009054906101000a900473ffffffffffffffffffffffffffffffffffffffff1673ffffffffffffffffffffffffffffffffffffffff16633b9af89b33836040518363ffffffff1660e01b8152600401620013bd92919062002a4a565b600060405180830381600087803b158015620013d857600080fd5b505af1158015620013ed573d6000803e3d6000fd5b505050505050565b620013ff620019a7565b600560008373ffffffffffffffffffffffffffffffffffffffff1673ffffffffffffffffffffffffffffffffffffffff1681526020019081526020016000206040518060c00160405290816000820180546200145b9062002aa6565b80601f0160208091040260200160405190810160405280929190818152602001828054620014899062002aa6565b8015620014da5780601f10620014ae57610100808354040283529160200191620014da565b820191906000526020600020905b815481529060010190602001808311620014bc57829003601f168201915b50505050508152602001600182018054620014f59062002aa6565b80601f0160208091040260200160405190810160405280929190818152602001828054620015239062002aa6565b8015620015745780601f10620015485761010080835404028352916020019162001574565b820191906000526020600020905b8154815290600101906020018083116200155657829003601f168201915b505050505081526020016002820160009054906101000a900473ffffffffffffffffffffffffffffffffffffffff1673ffffffffffffffffffffffffffffffffffffffff1673ffffffffffffffffffffffffffffffffffffffff16815260200160038201548152602001600482015481526020016005820154815250509050919050565b60011515620016066200119f565b1515146200164b576040517f08c379a000000000000000000000000000000000000000000000000000000000815260040162001642906200268a565b60405180910390fd5b60018281548110620016625762001661620025fa565b5b9060005260206000200160009054906101000a900473ffffffffffffffffffffffffffffffffffffffff1673ffffffffffffffffffffffffffffffffffffffff16637abb4416826040518263ffffffff1660e01b8152600401620016c7919062001a2d565b600060405180830381600087803b158015620016e257600080fd5b505af1158015620016f7573d6000803e3d6000fd5b505050505050565b60606004805480602002602001604051908101604052809291908181526020016000905b82821015620018ff57838290600052602060002090600602016040518060c0016040529081600082018054620017599062002aa6565b80601f0160208091040260200160405190810160405280929190818152602001828054620017879062002aa6565b8015620017d85780601f10620017ac57610100808354040283529160200191620017d8565b820191906000526020600020905b815481529060010190602001808311620017ba57829003601f168201915b50505050508152602001600182018054620017f39062002aa6565b80601f0160208091040260200160405190810160405280929190818152602001828054620018219062002aa6565b8015620018725780601f10620018465761010080835404028352916020019162001872565b820191906000526020600020905b8154815290600101906020018083116200185457829003601f168201915b505050505081526020016002820160009054906101000a900473ffffffffffffffffffffffffffffffffffffffff1673ffffffffffffffffffffffffffffffffffffffff1673ffffffffffffffffffffffffffffffffffffffff16815260200160038201548152602001600482015481526020016005820154815250508152602001906001019062001723565b50505050905090565b828054620019169062002aa6565b90600052602060002090601f0160209004810192826200193a576000855562001986565b82601f106200195557805160ff191683800117855562001986565b8280016001018555821562001986579182015b828111156200198557825182559160200191906001019062001968565b5b509050620019959190620019f3565b5090565b611e898062002add83390190565b6040518060c001604052806060815260200160608152602001600073ffffffffffffffffffffffffffffffffffffffff1681526020016000815260200160008152602001600081525090565b5b8082111562001a0e576000816000905550600101620019f4565b5090565b6000819050919050565b62001a278162001a12565b82525050565b600060208201905062001a44600083018462001a1c565b92915050565b6000604051905090565b600080fd5b600080fd5b600080fd5b600080fd5b6000601f19601f8301169050919050565b7f4e487b7100000000000000000000000000000000000000000000000000000000600052604160045260246000fd5b62001ab38262001a68565b810181811067ffffffffffffffff8211171562001ad55762001ad462001a79565b5b80604052505050565b600062001aea62001a4a565b905062001af8828262001aa8565b919050565b600067ffffffffffffffff82111562001b1b5762001b1a62001a79565b5b62001b268262001a68565b9050602081019050919050565b82818337600083830152505050565b600062001b5962001b538462001afd565b62001ade565b90508281526020810184848401111562001b785762001b7762001a63565b5b62001b8584828562001b33565b509392505050565b600082601f83011262001ba55762001ba462001a5e565b5b813562001bb784826020860162001b42565b91505092915050565b6000806040838503121562001bda5762001bd962001a54565b5b600083013567ffffffffffffffff81111562001bfb5762001bfa62001a59565b5b62001c098582860162001b8d565b925050602083013567ffffffffffffffff81111562001c2d5762001c2c62001a59565b5b62001c3b8582860162001b8d565b9150509250929050565b600073ffffffffffffffffffffffffffffffffffffffff82169050919050565b600062001c728262001c45565b9050919050565b62001c848162001c65565b811462001c9057600080fd5b50565b60008135905062001ca48162001c79565b92915050565b60006020828403121562001cc35762001cc262001a54565b5b600062001cd38482850162001c93565b91505092915050565b600081519050919050565b600082825260208201905092915050565b6000819050602082019050919050565b6000819050919050565b600062001d3362001d2d62001d278462001c45565b62001d08565b62001c45565b9050919050565b600062001d478262001d12565b9050919050565b600062001d5b8262001d3a565b9050919050565b62001d6d8162001d4e565b82525050565b600062001d81838362001d62565b60208301905092915050565b6000602082019050919050565b600062001da78262001cdc565b62001db3818562001ce7565b935062001dc08362001cf8565b8060005b8381101562001df757815162001ddb888262001d73565b975062001de88362001d8d565b92505060018101905062001dc4565b5085935050505092915050565b6000602082019050818103600083015262001e20818462001d9a565b905092915050565b62001e338162001a12565b811462001e3f57600080fd5b50565b60008135905062001e538162001e28565b92915050565b600067ffffffffffffffff82111562001e775762001e7662001a79565b5b602082029050602081019050919050565b600080fd5b600062001ea462001e9e8462001e59565b62001ade565b9050808382526020820190506020840283018581111562001eca5762001ec962001e88565b5b835b8181101562001f1857803567ffffffffffffffff81111562001ef35762001ef262001a5e565b5b80860162001f02898262001b8d565b8552602085019450505060208101905062001ecc565b5050509392505050565b600082601f83011262001f3a5762001f3962001a5e565b5b813562001f4c84826020860162001e8d565b91505092915050565b6000806000806080858703121562001f725762001f7162001a54565b5b600062001f828782880162001e42565b945050602085013567ffffffffffffffff81111562001fa65762001fa562001a59565b5b62001fb48782880162001b8d565b935050604085013567ffffffffffffffff81111562001fd85762001fd762001a59565b5b62001fe68782880162001b8d565b925050606085013567ffffffffffffffff8111156200200a576200200962001a59565b5b620020188782880162001f22565b91505092959194509250565b6200202f8162001c65565b82525050565b60006020820190506200204c600083018462002024565b92915050565b600080604083850312156200206c576200206b62001a54565b5b60006200207c8582860162001c93565b92505060206200208f8582860162001e42565b9150509250929050565b60008060008060808587031215620020b657620020b562001a54565b5b600085013567ffffffffffffffff811115620020d757620020d662001a59565b5b620020e58782880162001b8d565b945050602085013567ffffffffffffffff81111562002109576200210862001a59565b5b620021178782880162001b8d565b935050604085013567ffffffffffffffff8111156200213b576200213a62001a59565b5b620021498782880162001f22565b92505060606200215c8782880162001e42565b91505092959194509250565b60008115159050919050565b6200217f8162002168565b82525050565b60006020820190506200219c600083018462002174565b92915050565b600060208284031215620021bb57620021ba62001a54565b5b6000620021cb8482850162001e42565b91505092915050565b600081519050919050565b600082825260208201905092915050565b60005b8381101562002210578082015181840152602081019050620021f3565b8381111562002220576000848401525b50505050565b60006200223382620021d4565b6200223f8185620021df565b935062002251818560208601620021f0565b6200225c8162001a68565b840191505092915050565b620022728162001c65565b82525050565b620022838162001a12565b82525050565b600060c0830160008301518482036000860152620022a8828262002226565b91505060208301518482036020860152620022c4828262002226565b9150506040830151620022db604086018262002267565b506060830151620022f0606086018262002278565b50608083015162002305608086018262002278565b5060a08301516200231a60a086018262002278565b508091505092915050565b6000602082019050818103600083015262002341818462002289565b905092915050565b6000806040838503121562002363576200236262001a54565b5b6000620023738582860162001e42565b9250506020620023868582860162001e42565b9150509250929050565b600081519050919050565b600082825260208201905092915050565b6000819050602082019050919050565b600060c0830160008301518482036000860152620023db828262002226565b91505060208301518482036020860152620023f7828262002226565b91505060408301516200240e604086018262002267565b50606083015162002423606086018262002278565b50608083015162002438608086018262002278565b5060a08301516200244d60a086018262002278565b508091505092915050565b6000620024668383620023bc565b905092915050565b6000602082019050919050565b6000620024888262002390565b6200249481856200239b565b935083602082028501620024a885620023ac565b8060005b85811015620024ea5784840389528151620024c8858262002458565b9450620024d5836200246e565b925060208a01995050600181019050620024ac565b50829750879550505050505092915050565b600060208201905081810360008301526200251881846200247b565b905092915050565b7f4e487b7100000000000000000000000000000000000000000000000000000000600052601160045260246000fd5b60006200255c8262001a12565b91507fffffffffffffffffffffffffffffffffffffffffffffffffffffffffffffffff82141562002592576200259162002520565b5b600182019050919050565b6000620025aa8262001a12565b9150620025b78362001a12565b9250827fffffffffffffffffffffffffffffffffffffffffffffffffffffffffffffffff03821115620025ef57620025ee62002520565b5b828201905092915050565b7f4e487b7100000000000000000000000000000000000000000000000000000000600052603260045260246000fd5b600082825260208201905092915050565b7f43616c6c6572206973206e6f742041646d696e00000000000000000000000000600082015250565b60006200267260138362002629565b91506200267f826200263a565b602082019050919050565b60006020820190508181036000830152620026a58162002663565b9050919050565b6000620026b982620021d4565b620026c5818562002629565b9350620026d7818560208601620021f0565b620026e28162001a68565b840191505092915050565b600081519050919050565b600082825260208201905092915050565b6000819050602082019050919050565b600062002727838362002226565b905092915050565b6000602082019050919050565b60006200274982620026ed565b620027558185620026f8565b935083602082028501620027698562002709565b8060005b85811015620027ab578484038952815162002789858262002719565b945062002796836200272f565b925060208a019950506001810190506200276d565b50829750879550505050505092915050565b60006060820190508181036000830152620027d98186620026ac565b90508181036020830152620027ef8185620026ac565b905081810360408301526200280581846200273c565b9050949350505050565b7f596f7520617265206e6f7420616c6c6f77656400000000000000000000000000600082015250565b60006200284760138362002629565b915062002854826200280f565b602082019050919050565b600060208201905081810360008301526200287a8162002838565b9050919050565b600060c08201905062002898600083018962002024565b8181036020830152620028ac8188620026ac565b90508181036040830152620028c28187620026ac565b90508181036060830152620028d881866200273c565b9050620028e9608083018562001a1c565b620028f860a083018462001a1c565b979650505050505050565b7f4e6f7420616c6c6f776564206361757365206e6f74207369676e656420696e00600082015250565b60006200293b601f8362002629565b9150620029488262002903565b602082019050919050565b600060208201905081810360008301526200296e816200292c565b9050919050565b620029808162002168565b81146200298c57600080fd5b50565b600081519050620029a08162002975565b92915050565b600060208284031215620029bf57620029be62001a54565b5b6000620029cf848285016200298f565b91505092915050565b7f53657373696f6e20697320636c6f7365642e0000000000000000000000000000600082015250565b600062002a1060128362002629565b915062002a1d82620029d8565b602082019050919050565b6000602082019050818103600083015262002a438162002a01565b9050919050565b600060408201905062002a61600083018562002024565b62002a70602083018462001a1c565b9392505050565b7f4e487b7100000000000000000000000000000000000000000000000000000000600052602260045260246000fd5b6000600282049050600182168062002abf57607f821691505b6020821081141562002ad65762002ad562002a77565b5b5091905056fe60806040526000600a5560405162001e8938038062001e8983398181016040528101906200002e9190620005c6565b856000806101000a81548173ffffffffffffffffffffffffffffffffffffffff021916908373ffffffffffffffffffffffffffffffffffffffff1602179055506000600c60006101000a81548160ff02191690836001811115620000975762000096620006bf565b5b02179055508460019080519060200190620000b492919062000108565b508360029080519060200190620000cd92919062000108565b50806006819055508260039080519060200190620000ed92919062000199565b50816005819055504260078190555050505050505062000753565b82805462000116906200071d565b90600052602060002090601f0160209004810192826200013a576000855562000186565b82601f106200015557805160ff191683800117855562000186565b8280016001018555821562000186579182015b828111156200018557825182559160200191906001019062000168565b5b50905062000195919062000200565b5090565b828054828255906000526020600020908101928215620001ed579160200282015b82811115620001ec578251829080519060200190620001db92919062000108565b5091602001919060010190620001ba565b5b509050620001fc91906200021f565b5090565b5b808211156200021b57600081600090555060010162000201565b5090565b5b8082111562000243576000818162000239919062000247565b5060010162000220565b5090565b50805462000255906200071d565b6000825580601f106200026957506200028a565b601f01602090049060005260206000209081019062000289919062000200565b5b50565b6000604051905090565b600080fd5b600080fd5b600073ffffffffffffffffffffffffffffffffffffffff82169050919050565b6000620002ce82620002a1565b9050919050565b620002e081620002c1565b8114620002ec57600080fd5b50565b6000815190506200030081620002d5565b92915050565b600080fd5b600080fd5b6000601f19601f8301169050919050565b7f4e487b7100000000000000000000000000000000000000000000000000000000600052604160045260246000fd5b6200035b8262000310565b810181811067ffffffffffffffff821117156200037d576200037c62000321565b5b80604052505050565b6000620003926200028d565b9050620003a0828262000350565b919050565b600067ffffffffffffffff821115620003c357620003c262000321565b5b620003ce8262000310565b9050602081019050919050565b60005b83811015620003fb578082015181840152602081019050620003de565b838111156200040b576000848401525b50505050565b6000620004286200042284620003a5565b62000386565b9050828152602081018484840111156200044757620004466200030b565b5b62000454848285620003db565b509392505050565b600082601f83011262000474576200047362000306565b5b81516200048684826020860162000411565b91505092915050565b600067ffffffffffffffff821115620004ad57620004ac62000321565b5b602082029050602081019050919050565b600080fd5b6000620004da620004d4846200048f565b62000386565b905080838252602082019050602084028301858111156200050057620004ff620004be565b5b835b818110156200054e57805167ffffffffffffffff81111562000529576200052862000306565b5b8086016200053889826200045c565b8552602085019450505060208101905062000502565b5050509392505050565b600082601f83011262000570576200056f62000306565b5b815162000582848260208601620004c3565b91505092915050565b6000819050919050565b620005a0816200058b565b8114620005ac57600080fd5b50565b600081519050620005c08162000595565b92915050565b60008060008060008060c08789031215620005e657620005e562000297565b5b6000620005f689828a01620002ef565b965050602087015167ffffffffffffffff8111156200061a57620006196200029c565b5b6200062889828a016200045c565b955050604087015167ffffffffffffffff8111156200064c576200064b6200029c565b5b6200065a89828a016200045c565b945050606087015167ffffffffffffffff8111156200067e576200067d6200029c565b5b6200068c89828a0162000558565b93505060806200069f89828a01620005af565b92505060a0620006b289828a01620005af565b9150509295509295509295565b7f4e487b7100000000000000000000000000000000000000000000000000000000600052602160045260246000fd5b7f4e487b7100000000000000000000000000000000000000000000000000000000600052602260045260246000fd5b600060028204905060018216806200073657607f821691505b602082108114156200074d576200074c620006ee565b5b50919050565b61172680620007636000396000f3fe608060405234801561001057600080fd5b50600436106100625760003560e01c80631d7e99c5146100675780633b9af89b1461008357806343d726d61461009f5780637a8cf8c7146100a95780637abb4416146100da578063c2b6b58c146100f6575b600080fd5b610081600480360381019061007c9190610f17565b610114565b005b61009d60048036038101906100989190611052565b6101ec565b005b6100a761055d565b005b6100c360048036038101906100be9190611092565b610620565b6040516100d19291906110ce565b60405180910390f35b6100f460048036038101906100ef91906110f7565b6106dd565b005b6100fe610941565b60405161010b919061113f565b60405180910390f35b60008054906101000a900473ffffffffffffffffffffffffffffffffffffffff1673ffffffffffffffffffffffffffffffffffffffff163373ffffffffffffffffffffffffffffffffffffffff16146101a2576040517f08c379a0000000000000000000000000000000000000000000000000000000008152600401610199906111b7565b60405180910390fd5b82600190805190602001906101b8929190610b70565b5081600290805190602001906101cf929190610b70565b5080600390805190602001906101e6929190610bf6565b50505050565b60008054906101000a900473ffffffffffffffffffffffffffffffffffffffff1673ffffffffffffffffffffffffffffffffffffffff163373ffffffffffffffffffffffffffffffffffffffff161461027a576040517f08c379a0000000000000000000000000000000000000000000000000000000008152600401610271906111b7565b60405180910390fd5b600073ffffffffffffffffffffffffffffffffffffffff16600b60008473ffffffffffffffffffffffffffffffffffffffff1673ffffffffffffffffffffffffffffffffffffffff16815260200190815260200160002060000160009054906101000a900473ffffffffffffffffffffffffffffffffffffffff1673ffffffffffffffffffffffffffffffffffffffff161461051157600060405180606001604052808473ffffffffffffffffffffffffffffffffffffffff168152602001838152602001600a548152509050806009600a548154811061035e5761035d6111d7565b5b906000526020600020906003020160008201518160000160006101000a81548173ffffffffffffffffffffffffffffffffffffffff021916908373ffffffffffffffffffffffffffffffffffffffff160217905550602082015181600101556040820151816002015590505080600b60008573ffffffffffffffffffffffffffffffffffffffff1673ffffffffffffffffffffffffffffffffffffffff16815260200190815260200160002060008201518160000160006101000a81548173ffffffffffffffffffffffffffffffffffffffff021916908373ffffffffffffffffffffffffffffffffffffffff1602179055506020820151816001015560408201518160020155905050600a600081548092919061047b90611235565b919050555060008054906101000a900473ffffffffffffffffffffffffffffffffffffffff1673ffffffffffffffffffffffffffffffffffffffff166351650ecb846040518263ffffffff1660e01b81526004016104d9919061128d565b600060405180830381600087803b1580156104f357600080fd5b505af1158015610507573d6000803e3d6000fd5b5050505050610559565b80600b60008473ffffffffffffffffffffffffffffffffffffffff1673ffffffffffffffffffffffffffffffffffffffff168152602001908152602001600020600101819055505b5050565b60008054906101000a900473ffffffffffffffffffffffffffffffffffffffff1673ffffffffffffffffffffffffffffffffffffffff163373ffffffffffffffffffffffffffffffffffffffff16146105eb576040517f08c379a00000000000000000000000000000000000000000000000000000000081526004016105e2906111b7565b60405180910390fd5b6001600c60006101000a81548160ff02191690836001811115610611576106106112a8565b5b021790555061061e610a26565b565b60008060008060009054906101000a900473ffffffffffffffffffffffffffffffffffffffff1673ffffffffffffffffffffffffffffffffffffffff1663d716c549856040518263ffffffff1660e01b815260040161067f919061128d565b6000604051808303816000875af115801561069e573d6000803e3d6000fd5b505050506040513d6000823e3d601f19601f820116820180604052508101906106c79190611486565b9050806060015181608001519250925050915091565b60008054906101000a900473ffffffffffffffffffffffffffffffffffffffff1673ffffffffffffffffffffffffffffffffffffffff163373ffffffffffffffffffffffffffffffffffffffff161461076b576040517f08c379a0000000000000000000000000000000000000000000000000000000008152600401610762906111b7565b60405180910390fd5b8060088190555060005b600a54811161093d57600060098281548110610794576107936111d7565b5b90600052602060002090600302016040518060600160405290816000820160009054906101000a900473ffffffffffffffffffffffffffffffffffffffff1673ffffffffffffffffffffffffffffffffffffffff1673ffffffffffffffffffffffffffffffffffffffff16815260200160018201548152602001600282015481525050905060008160000151905060008061082e83610620565b91509150600060648761084f87602001518a61084a91906114cf565b610b4e565b6108599190611532565b6108639190611563565b9050600060018361087491906115bd565b8284866108819190611563565b61088b91906115bd565b6108959190611532565b905060008054906101000a900473ffffffffffffffffffffffffffffffffffffffff1673ffffffffffffffffffffffffffffffffffffffff1663937f4a2686836040518363ffffffff1660e01b81526004016108f2929190611613565b600060405180830381600087803b15801561090c57600080fd5b505af1158015610920573d6000803e3d6000fd5b50505050505050505050808061093590611235565b915050610775565b5050565b60008060009054906101000a900473ffffffffffffffffffffffffffffffffffffffff1673ffffffffffffffffffffffffffffffffffffffff163373ffffffffffffffffffffffffffffffffffffffff16146109d2576040517f08c379a00000000000000000000000000000000000000000000000000000000081526004016109c9906111b7565b60405180910390fd5b6001808111156109e5576109e46112a8565b5b600c60009054906101000a900460ff166001811115610a0757610a066112a8565b5b1480610a21575042600554600754610a1f91906115bd565b115b905090565b60008060008092505b600a548311610b3757600060098481548110610a4e57610a4d6111d7565b5b90600052602060002090600302016040518060600160405290816000820160009054906101000a900473ffffffffffffffffffffffffffffffffffffffff1673ffffffffffffffffffffffffffffffffffffffff1673ffffffffffffffffffffffffffffffffffffffff1681526020016001820154815260200160028201548152505090506000816000015190506000610ae782610620565b5090508085610af691906115bd565b9450806064610b0591906114cf565b8360200151610b149190611563565b84610b1f91906115bd565b93505050508280610b2f90611235565b935050610a2f565b8181610b439190611532565b600481905550505050565b600080821215610b675781610b6290611646565b610b69565b815b9050919050565b828054610b7c906116be565b90600052602060002090601f016020900481019282610b9e5760008555610be5565b82601f10610bb757805160ff1916838001178555610be5565b82800160010185558215610be5579182015b82811115610be4578251825591602001919060010190610bc9565b5b509050610bf29190610c56565b5090565b828054828255906000526020600020908101928215610c45579160200282015b82811115610c44578251829080519060200190610c34929190610b70565b5091602001919060010190610c16565b5b509050610c529190610c73565b5090565b5b80821115610c6f576000816000905550600101610c57565b5090565b5b80821115610c935760008181610c8a9190610c97565b50600101610c74565b5090565b508054610ca3906116be565b6000825580601f10610cb55750610cd4565b601f016020900490600052602060002090810190610cd39190610c56565b5b50565b6000604051905090565b600080fd5b600080fd5b600080fd5b600080fd5b6000601f19601f8301169050919050565b7f4e487b7100000000000000000000000000000000000000000000000000000000600052604160045260246000fd5b610d3e82610cf5565b810181811067ffffffffffffffff82111715610d5d57610d5c610d06565b5b80604052505050565b6000610d70610cd7565b9050610d7c8282610d35565b919050565b600067ffffffffffffffff821115610d9c57610d9b610d06565b5b610da582610cf5565b9050602081019050919050565b82818337600083830152505050565b6000610dd4610dcf84610d81565b610d66565b905082815260208101848484011115610df057610def610cf0565b5b610dfb848285610db2565b509392505050565b600082601f830112610e1857610e17610ceb565b5b8135610e28848260208601610dc1565b91505092915050565b600067ffffffffffffffff821115610e4c57610e4b610d06565b5b602082029050602081019050919050565b600080fd5b6000610e75610e7084610e31565b610d66565b90508083825260208201905060208402830185811115610e9857610e97610e5d565b5b835b81811015610edf57803567ffffffffffffffff811115610ebd57610ebc610ceb565b5b808601610eca8982610e03565b85526020850194505050602081019050610e9a565b5050509392505050565b600082601f830112610efe57610efd610ceb565b5b8135610f0e848260208601610e62565b91505092915050565b600080600060608486031215610f3057610f2f610ce1565b5b600084013567ffffffffffffffff811115610f4e57610f4d610ce6565b5b610f5a86828701610e03565b935050602084013567ffffffffffffffff811115610f7b57610f7a610ce6565b5b610f8786828701610e03565b925050604084013567ffffffffffffffff811115610fa857610fa7610ce6565b5b610fb486828701610ee9565b9150509250925092565b600073ffffffffffffffffffffffffffffffffffffffff82169050919050565b6000610fe982610fbe565b9050919050565b610ff981610fde565b811461100457600080fd5b50565b60008135905061101681610ff0565b92915050565b6000819050919050565b61102f8161101c565b811461103a57600080fd5b50565b60008135905061104c81611026565b92915050565b6000806040838503121561106957611068610ce1565b5b600061107785828601611007565b92505060206110888582860161103d565b9150509250929050565b6000602082840312156110a8576110a7610ce1565b5b60006110b684828501611007565b91505092915050565b6110c88161101c565b82525050565b60006040820190506110e360008301856110bf565b6110f060208301846110bf565b9392505050565b60006020828403121561110d5761110c610ce1565b5b600061111b8482850161103d565b91505092915050565b60008115159050919050565b61113981611124565b82525050565b60006020820190506111546000830184611130565b92915050565b600082825260208201905092915050565b7f4f6e6c7920706172656e7420636f6e747261637420697320616c6c6f77000000600082015250565b60006111a1601d8361115a565b91506111ac8261116b565b602082019050919050565b600060208201905081810360008301526111d081611194565b9050919050565b7f4e487b7100000000000000000000000000000000000000000000000000000000600052603260045260246000fd5b7f4e487b7100000000000000000000000000000000000000000000000000000000600052601160045260246000fd5b60006112408261101c565b91507fffffffffffffffffffffffffffffffffffffffffffffffffffffffffffffffff82141561127357611272611206565b5b600182019050919050565b61128781610fde565b82525050565b60006020820190506112a2600083018461127e565b92915050565b7f4e487b7100000000000000000000000000000000000000000000000000000000600052602160045260246000fd5b600080fd5b600080fd5b60005b838110156112ff5780820151818401526020810190506112e4565b8381111561130e576000848401525b50505050565b600061132761132284610d81565b610d66565b90508281526020810184848401111561134357611342610cf0565b5b61134e8482856112e1565b509392505050565b600082601f83011261136b5761136a610ceb565b5b815161137b848260208601611314565b91505092915050565b60008151905061139381610ff0565b92915050565b6000815190506113a881611026565b92915050565b600060c082840312156113c4576113c36112d7565b5b6113ce60c0610d66565b9050600082015167ffffffffffffffff8111156113ee576113ed6112dc565b5b6113fa84828501611356565b600083015250602082015167ffffffffffffffff81111561141e5761141d6112dc565b5b61142a84828501611356565b602083015250604061143e84828501611384565b604083015250606061145284828501611399565b606083015250608061146684828501611399565b60808301525060a061147a84828501611399565b60a08301525092915050565b60006020828403121561149c5761149b610ce1565b5b600082015167ffffffffffffffff8111156114ba576114b9610ce6565b5b6114c6848285016113ae565b91505092915050565b60006114da8261101c565b91506114e58361101c565b9250828210156114f8576114f7611206565b5b828203905092915050565b7f4e487b7100000000000000000000000000000000000000000000000000000000600052601260045260246000fd5b600061153d8261101c565b91506115488361101c565b92508261155857611557611503565b5b828204905092915050565b600061156e8261101c565b91506115798361101c565b9250817fffffffffffffffffffffffffffffffffffffffffffffffffffffffffffffffff04831182151516156115b2576115b1611206565b5b828202905092915050565b60006115c88261101c565b91506115d38361101c565b9250827fffffffffffffffffffffffffffffffffffffffffffffffffffffffffffffffff0382111561160857611607611206565b5b828201905092915050565b6000604082019050611628600083018561127e565b61163560208301846110bf565b9392505050565b6000819050919050565b60006116518261163c565b91507f800000000000000000000000000000000000000000000000000000000000000082141561168457611683611206565b5b816000039050919050565b7f4e487b7100000000000000000000000000000000000000000000000000000000600052602260045260246000fd5b600060028204905060018216806116d657607f821691505b602082108114156116ea576116e961168f565b5b5091905056fea2646970667358221220feb0718127b1211510b42c420c57f7040c43125a6fa8c951eeb6b1cafead6a6b64736f6c634300080c0033a26469706673582212205801a67dc56da454ec5c524aa76be73b3f4b42f823fa2e86515f71ccbf9636db64736f6c634300080c0033",
  "immutableReferences": {},
  "source": "// SPDX-License-Identifier: GPL-3.0\n\npragma solidity >=0.8.0;\n\nimport \"./Session.sol\";\nimport \"./Admin.sol\";\nimport \"./Type.sol\";\n\ncontract Main is Admin {\n    Session[] private sessionList;\n    mapping(uint256 => Session) private sessionMap;\n    uint256 sessionIndex = 0;\n\n    Participant[] private participantList;\n    mapping(address => Participant) private participantMap;\n    uint256 participantIndex = 0;\n\n    modifier isParticipant() {\n        require(isSignIn(msg.sender), \"Not allowed cause not signed in\");\n        _;\n    }\n\n    // modifier isValidSession(uint index) {\n    //     require(sessionMap[index].parentContract == address(this),\"Only valid session can call\");\n    //     _;\n    // }\n\n    constructor() {}\n\n    function initSession(\n        string memory _name,\n        string memory _description,\n        string[] memory _images,\n        uint256 _timeout\n    ) public payable isAdmin {\n        Session session = new Session(\n            address(this),\n            _name,\n            _description,\n            _images,\n            _timeout,\n            msg.value\n        );\n        sessionList.push(session);\n        sessionMap[sessionIndex] = session;\n        sessionIndex++;\n    }\n\n    function closeSession(uint256 _sessionIndex) public isAdmin {\n        sessionList[_sessionIndex].close();\n    }\n\n    function setFinalPrice(uint256 _sessionIndex, uint256 _finalPrice)\n        public\n        isAdmin\n    {\n        sessionList[_sessionIndex].updateFinalPrice(_finalPrice);\n    }\n\n    function getSessions() public view returns (Session[] memory) {\n        return sessionList;\n    }\n\n    function updateSession(\n        uint256 _sessionIndex,\n        string memory _name,\n        string memory _description,\n        string[] memory _images\n    ) public isAdmin {\n        sessionList[_sessionIndex].update(_name, _description, _images);\n    }\n\n    function submitPrice(uint256 _sessionIndex, uint256 _price)\n        public\n        isParticipant\n    {\n        require(\n            sessionList[_sessionIndex].isClosed() == false,\n            \"Session is closed.\"\n        );\n        //require session is not closed.\n\n        sessionList[_sessionIndex].submitPrice(msg.sender, _price);\n    }\n\n    function getParticipantList() public view returns (Participant[] memory) {\n        return participantList;\n    }\n\n    function register(string memory _email, string memory _name) public {\n        Participant memory participant = Participant(\n            _email,\n            _name,\n            msg.sender,\n            1,\n            0,\n            participantIndex\n        );\n        participantList.push(participant);\n        participantMap[msg.sender] = participant;\n        participantIndex++;\n    }\n\n    function getParticipantDetail(address _account)\n        public\n        view\n        returns (Participant memory)\n    {\n        return participantMap[_account];\n    }\n\n    function getCurrentParticiapntDetail()\n        public\n        view\n        returns (Participant memory)\n    {\n        return getParticipantDetail(msg.sender);\n    }\n\n    function signIn() public view returns (bool) {\n        return isSignIn(msg.sender);\n    }\n\n    function updateParticipantInfo(string memory _email, string memory _name)\n        public\n    {\n        require(\n            participantMap[msg.sender].account == msg.sender,\n            \"You are not allowed\"\n        );\n        participantMap[msg.sender].email = _email;\n        participantMap[msg.sender].name = _name;\n        participantList[participantMap[msg.sender].index].email = _email;\n        participantList[participantMap[msg.sender].index].name = _name;\n    }\n\n    function increaseParticipantSessionCount(address _account) public {\n        uint256 newCount = participantMap[_account].sessionsCount + 1;\n        participantMap[_account].sessionsCount = newCount;\n        participantList[participantMap[_account].index]\n            .sessionsCount = newCount;\n    }\n\n    function updateParticipantDeviation(address _account, uint256 _deviation)\n        public\n    {\n        participantMap[_account].deviation = _deviation;\n        participantList[participantMap[_account].index].deviation = _deviation;\n    }\n\n    function isSignIn(address account) public view returns (bool) {\n        return participantMap[account].account != address(0);\n    }\n\n    function checkRole() public view returns (uint256) {\n        if (checkAdmin() == true) return 1;\n        if (signIn() == true) return 2;\n        return 0;\n    }\n\n    receive() external payable {}\n}\n",
  "sourcePath": "/Users/minh/Projects/Funix/pricing-chain/contracts/Main.sol",
  "compiler": {
    "name": "solc",
    "version": "0.8.12+commit.f00d7308.Emscripten.clang"
  },
  "schemaVersion": "3.4.5",
  "updatedAt": "2022-03-16T10:48:14.218Z",
  "devdoc": {
    "kind": "dev",
    "methods": {},
    "version": 1
  },
  "userdoc": {
    "kind": "user",
    "methods": {},
    "version": 1
  }
}