{
  "contractName": "Main",
  "abi": [
    {
      "inputs": [],
      "stateMutability": "nonpayable",
      "type": "constructor"
    },
    {
      "anonymous": false,
      "inputs": [
        {
          "indexed": true,
          "internalType": "address",
          "name": "oldAdmin",
          "type": "address"
        },
        {
          "indexed": true,
          "internalType": "address",
          "name": "newAdmin",
          "type": "address"
        }
      ],
      "name": "AdminSet",
      "type": "event"
    },
    {
      "inputs": [
        {
          "internalType": "address",
          "name": "newAdmin",
          "type": "address"
        }
      ],
      "name": "changeAdmin",
      "outputs": [],
      "stateMutability": "nonpayable",
      "type": "function"
    },
    {
      "inputs": [],
      "name": "getAdmin",
      "outputs": [
        {
          "internalType": "address",
          "name": "",
          "type": "address"
        }
      ],
      "stateMutability": "view",
      "type": "function",
      "constant": true
    },
    {
      "stateMutability": "payable",
      "type": "receive",
      "payable": true
    },
    {
      "inputs": [
        {
          "internalType": "string",
          "name": "_name",
          "type": "string"
        },
        {
          "internalType": "string",
          "name": "_description",
          "type": "string"
        },
        {
          "internalType": "string[]",
          "name": "_images",
          "type": "string[]"
        },
        {
          "internalType": "uint256",
          "name": "_timeout",
          "type": "uint256"
        }
      ],
      "name": "initSession",
      "outputs": [],
      "stateMutability": "payable",
      "type": "function",
      "payable": true
    },
    {
      "inputs": [
        {
          "internalType": "uint256",
          "name": "_sessionIndex",
          "type": "uint256"
        }
      ],
      "name": "closeSession",
      "outputs": [],
      "stateMutability": "nonpayable",
      "type": "function"
    },
    {
      "inputs": [
        {
          "internalType": "uint256",
          "name": "_sessionIndex",
          "type": "uint256"
        },
        {
          "internalType": "uint256",
          "name": "_finalPrice",
          "type": "uint256"
        }
      ],
      "name": "setFinalPrice",
      "outputs": [],
      "stateMutability": "nonpayable",
      "type": "function"
    },
    {
      "inputs": [],
      "name": "getSessions",
      "outputs": [
        {
          "components": [
            {
              "internalType": "uint256",
              "name": "id",
              "type": "uint256"
            },
            {
              "internalType": "string",
              "name": "name",
              "type": "string"
            },
            {
              "internalType": "string",
              "name": "description",
              "type": "string"
            },
            {
              "internalType": "string[]",
              "name": "images",
              "type": "string[]"
            },
            {
              "internalType": "uint256",
              "name": "timeout",
              "type": "uint256"
            },
            {
              "internalType": "enum SessionState",
              "name": "state",
              "type": "uint8"
            },
            {
              "internalType": "uint256",
              "name": "proposePrice",
              "type": "uint256"
            },
            {
              "internalType": "uint256",
              "name": "finalPrice",
              "type": "uint256"
            }
          ],
          "internalType": "struct SessionInfo[]",
          "name": "",
          "type": "tuple[]"
        }
      ],
      "stateMutability": "view",
      "type": "function",
      "constant": true
    },
    {
      "inputs": [
        {
          "internalType": "uint256",
          "name": "_sessionIndex",
          "type": "uint256"
        },
        {
          "internalType": "string",
          "name": "_name",
          "type": "string"
        },
        {
          "internalType": "string",
          "name": "_description",
          "type": "string"
        },
        {
          "internalType": "string[]",
          "name": "_images",
          "type": "string[]"
        }
      ],
      "name": "updateSession",
      "outputs": [],
      "stateMutability": "nonpayable",
      "type": "function"
    },
    {
      "inputs": [
        {
          "internalType": "uint256",
          "name": "_sessionIndex",
          "type": "uint256"
        },
        {
          "internalType": "uint256",
          "name": "_price",
          "type": "uint256"
        }
      ],
      "name": "submitPrice",
      "outputs": [],
      "stateMutability": "nonpayable",
      "type": "function"
    },
    {
      "inputs": [
        {
          "internalType": "uint256",
          "name": "_sessionIndex",
          "type": "uint256"
        }
      ],
      "name": "getSessionProposePrice",
      "outputs": [
        {
          "internalType": "uint256",
          "name": "",
          "type": "uint256"
        }
      ],
      "stateMutability": "view",
      "type": "function",
      "constant": true
    },
    {
      "inputs": [],
      "name": "getParticipantList",
      "outputs": [
        {
          "components": [
            {
              "internalType": "string",
              "name": "email",
              "type": "string"
            },
            {
              "internalType": "string",
              "name": "name",
              "type": "string"
            },
            {
              "internalType": "address",
              "name": "account",
              "type": "address"
            },
            {
              "internalType": "uint256",
              "name": "deviation",
              "type": "uint256"
            },
            {
              "internalType": "uint256",
              "name": "sessionsCount",
              "type": "uint256"
            },
            {
              "internalType": "uint256",
              "name": "index",
              "type": "uint256"
            }
          ],
          "internalType": "struct Participant[]",
          "name": "",
          "type": "tuple[]"
        }
      ],
      "stateMutability": "view",
      "type": "function",
      "constant": true
    },
    {
      "inputs": [
        {
          "internalType": "string",
          "name": "_email",
          "type": "string"
        },
        {
          "internalType": "string",
          "name": "_name",
          "type": "string"
        }
      ],
      "name": "register",
      "outputs": [],
      "stateMutability": "nonpayable",
      "type": "function"
    },
    {
      "inputs": [
        {
          "internalType": "address",
          "name": "_participantAddr",
          "type": "address"
        }
      ],
      "name": "getParticipantDetail",
      "outputs": [
        {
          "components": [
            {
              "internalType": "string",
              "name": "email",
              "type": "string"
            },
            {
              "internalType": "string",
              "name": "name",
              "type": "string"
            },
            {
              "internalType": "address",
              "name": "account",
              "type": "address"
            },
            {
              "internalType": "uint256",
              "name": "deviation",
              "type": "uint256"
            },
            {
              "internalType": "uint256",
              "name": "sessionsCount",
              "type": "uint256"
            },
            {
              "internalType": "uint256",
              "name": "index",
              "type": "uint256"
            }
          ],
          "internalType": "struct Participant",
          "name": "",
          "type": "tuple"
        }
      ],
      "stateMutability": "view",
      "type": "function",
      "constant": true
    },
    {
      "inputs": [],
      "name": "getCurrentParticiapntDetail",
      "outputs": [
        {
          "components": [
            {
              "internalType": "string",
              "name": "email",
              "type": "string"
            },
            {
              "internalType": "string",
              "name": "name",
              "type": "string"
            },
            {
              "internalType": "address",
              "name": "account",
              "type": "address"
            },
            {
              "internalType": "uint256",
              "name": "deviation",
              "type": "uint256"
            },
            {
              "internalType": "uint256",
              "name": "sessionsCount",
              "type": "uint256"
            },
            {
              "internalType": "uint256",
              "name": "index",
              "type": "uint256"
            }
          ],
          "internalType": "struct Participant",
          "name": "",
          "type": "tuple"
        }
      ],
      "stateMutability": "view",
      "type": "function",
      "constant": true
    },
    {
      "inputs": [
        {
          "internalType": "string",
          "name": "_email",
          "type": "string"
        },
        {
          "internalType": "string",
          "name": "_name",
          "type": "string"
        }
      ],
      "name": "updateParticipantInfo",
      "outputs": [],
      "stateMutability": "nonpayable",
      "type": "function"
    },
    {
      "inputs": [
        {
          "internalType": "address",
          "name": "_account",
          "type": "address"
        }
      ],
      "name": "isSignIn",
      "outputs": [
        {
          "internalType": "bool",
          "name": "",
          "type": "bool"
        }
      ],
      "stateMutability": "view",
      "type": "function",
      "constant": true
    },
    {
      "inputs": [],
      "name": "checkRole",
      "outputs": [
        {
          "internalType": "uint256",
          "name": "",
          "type": "uint256"
        }
      ],
      "stateMutability": "view",
      "type": "function",
      "constant": true
    },
    {
      "inputs": [
        {
          "internalType": "address",
          "name": "_participantAddr",
          "type": "address"
        }
      ],
      "name": "increaseParticipantSessionCount",
      "outputs": [],
      "stateMutability": "nonpayable",
      "type": "function"
    },
    {
      "inputs": [
        {
          "internalType": "address",
          "name": "_participantAddr",
          "type": "address"
        },
        {
          "internalType": "uint256",
          "name": "_deviation",
          "type": "uint256"
        }
      ],
      "name": "updateParticipantDeviation",
      "outputs": [],
      "stateMutability": "nonpayable",
      "type": "function"
    }
  ],
  "bytecode": "0x60806040526000600355600060065534801561001a57600080fd5b50336000806101000a81548173ffffffffffffffffffffffffffffffffffffffff021916908373ffffffffffffffffffffffffffffffffffffffff16021790555060008054906101000a900473ffffffffffffffffffffffffffffffffffffffff1673ffffffffffffffffffffffffffffffffffffffff16600073ffffffffffffffffffffffffffffffffffffffff167fbf265e8326285a2747e33e54d5945f7111f2b5edb826eb8c08d4677779b3ff9760405160405180910390a361565b806100e56000396000f3fe608060405260043610620001275760003560e01c8063937f4a2611620000a3578063a961cb9c116200006d578063a961cb9c146200039a578063b3b548eb14620003de578063d716c549146200040c578063e425349e1462000450578063ed214fff146200047e576200012f565b8063937f4a2614620002ee578063985fddea146200031c578063a3bfdf47146200033c578063a79ddddc146200036a576200012f565b806361503e4511620000f157806361503e45146200020457806367677ce514620002345780636e9960c314620002625780638f28397014620002925780639214613c14620002c0576200012f565b80630482aa821462000134578063095e6d3614620001645780633ffbd47f14620001a857806351650ecb14620001d6576200012f565b366200012f57005b600080fd5b3480156200014157600080fd5b506200014c620004ae565b6040516200015b919062001d15565b60405180910390f35b3480156200017157600080fd5b506200019060048036038101906200018a919062001d77565b620004f8565b6040516200019f919062001d15565b60405180910390f35b348015620001b557600080fd5b50620001d46004803603810190620001ce919062001f0b565b620005b4565b005b348015620001e357600080fd5b50620002026004803603810190620001fc919062001ff5565b620007d5565b005b3480156200021157600080fd5b506200021c620008e4565b6040516200022b9190620023b9565b60405180910390f35b3480156200024157600080fd5b506200026060048036038101906200025a9190620024d9565b62000aca565b005b3480156200026f57600080fd5b506200027a62000bd7565b604051620002899190620025b9565b60405180910390f35b3480156200029f57600080fd5b50620002be6004803603810190620002b8919062001ff5565b62000c00565b005b348015620002cd57600080fd5b50620002ec6004803603810190620002e6919062001f0b565b62000d10565b005b348015620002fb57600080fd5b506200031a6004803603810190620003149190620025d6565b62000f9b565b005b6200033a60048036038101906200033491906200261d565b62001055565b005b3480156200034957600080fd5b5062000368600480360381019062000362919062001d77565b620011c7565b005b3480156200037757600080fd5b5062000382620012c0565b60405162000391919062002799565b60405180910390f35b348015620003a757600080fd5b50620003c66004803603810190620003c0919062001ff5565b6200132d565b604051620003d59190620027da565b60405180910390f35b348015620003eb57600080fd5b506200040a6004803603810190620004049190620027f7565b620013c8565b005b3480156200041957600080fd5b5062000438600480360381019062000432919062001ff5565b620015c7565b60405162000447919062002799565b60405180910390f35b3480156200045d57600080fd5b506200047c6004803603810190620004769190620027f7565b620017ca565b005b3480156200048b57600080fd5b5062000496620018d1565b604051620004a59190620029aa565b60405180910390f35b600060011515620004be62001b2d565b151503620004d05760019050620004f5565b60011515620004de62001b84565b151503620004f05760029050620004f5565b600090505b90565b600060018281548110620005115762000510620029ce565b5b9060005260206000200160009054906101000a900473ffffffffffffffffffffffffffffffffffffffff1673ffffffffffffffffffffffffffffffffffffffff16637278f4d86040518163ffffffff1660e01b8152600401602060405180830381865afa15801562000587573d6000803e3d6000fd5b505050506040513d601f19601f82011682018060405250810190620005ad919062002a14565b9050919050565b60006040518060c001604052808481526020018381526020013373ffffffffffffffffffffffffffffffffffffffff16815260200160018152602001600081526020016006548152509050600481908060018154018082558091505060019003906000526020600020906006020160009091909190915060008201518160000190805190602001906200064992919062001b96565b5060208201518160010190805190602001906200066892919062001b96565b5060408201518160020160006101000a81548173ffffffffffffffffffffffffffffffffffffffff021916908373ffffffffffffffffffffffffffffffffffffffff160217905550606082015181600301556080820151816004015560a08201518160050155505080600560003373ffffffffffffffffffffffffffffffffffffffff1673ffffffffffffffffffffffffffffffffffffffff16815260200190815260200160002060008201518160000190805190602001906200072e92919062001b96565b5060208201518160010190805190602001906200074d92919062001b96565b5060408201518160020160006101000a81548173ffffffffffffffffffffffffffffffffffffffff021916908373ffffffffffffffffffffffffffffffffffffffff160217905550606082015181600301556080820151816004015560a0820151816005015590505060066000815480929190620007cb9062002a75565b9190505550505050565b60006001600560008473ffffffffffffffffffffffffffffffffffffffff1673ffffffffffffffffffffffffffffffffffffffff1681526020019081526020016000206004015462000828919062002ac2565b905080600560008473ffffffffffffffffffffffffffffffffffffffff1673ffffffffffffffffffffffffffffffffffffffff16815260200190815260200160002060040181905550806004600560008573ffffffffffffffffffffffffffffffffffffffff1673ffffffffffffffffffffffffffffffffffffffff1681526020019081526020016000206005015481548110620008cb57620008ca620029ce565b5b9060005260206000209060060201600401819055505050565b606060008060035467ffffffffffffffff81111562000908576200090762001dc4565b5b6040519080825280602002602001820160405280156200094557816020015b6200093162001c27565b815260200190600190039081620009275790505b509050600091505b60035482101562000ac257600060018381548110620009715762000970620029ce565b5b9060005260206000200160009054906101000a900473ffffffffffffffffffffffffffffffffffffffff16905060008060008060008060008773ffffffffffffffffffffffffffffffffffffffff16635a9b0b896040518163ffffffff1660e01b8152600401600060405180830381865afa158015620009f5573d6000803e3d6000fd5b505050506040513d6000823e3d601f19601f8201168201806040525081019062000a20919062002c8d565b965096509650965096509650965060006040518061010001604052808c815260200189815260200188815260200187815260200186815260200185600181111562000a705762000a6f620021c7565b5b8152602001848152602001838152509050808a8c8151811062000a985762000a97620029ce565b5b6020026020010181905250505050505050505050818062000ab99062002a75565b9250506200094d565b809250505090565b6001151562000ad862001b2d565b15151462000b1d576040517f08c379a000000000000000000000000000000000000000000000000000000000815260040162000b149062002dfe565b60405180910390fd5b6001848154811062000b345762000b33620029ce565b5b9060005260206000200160009054906101000a900473ffffffffffffffffffffffffffffffffffffffff1673ffffffffffffffffffffffffffffffffffffffff16631d7e99c58484846040518463ffffffff1660e01b815260040162000b9d9392919062002ef3565b600060405180830381600087803b15801562000bb857600080fd5b505af115801562000bcd573d6000803e3d6000fd5b5050505050505050565b60008060009054906101000a900473ffffffffffffffffffffffffffffffffffffffff16905090565b6001151562000c0e62001b2d565b15151462000c53576040517f08c379a000000000000000000000000000000000000000000000000000000000815260040162000c4a9062002dfe565b60405180910390fd5b8073ffffffffffffffffffffffffffffffffffffffff1660008054906101000a900473ffffffffffffffffffffffffffffffffffffffff1673ffffffffffffffffffffffffffffffffffffffff167fbf265e8326285a2747e33e54d5945f7111f2b5edb826eb8c08d4677779b3ff9760405160405180910390a3806000806101000a81548173ffffffffffffffffffffffffffffffffffffffff021916908373ffffffffffffffffffffffffffffffffffffffff16021790555050565b3373ffffffffffffffffffffffffffffffffffffffff16600560003373ffffffffffffffffffffffffffffffffffffffff1673ffffffffffffffffffffffffffffffffffffffff16815260200190815260200160002060020160009054906101000a900473ffffffffffffffffffffffffffffffffffffffff1673ffffffffffffffffffffffffffffffffffffffff161462000de3576040517f08c379a000000000000000000000000000000000000000000000000000000000815260040162000dda9062002f95565b60405180910390fd5b81600560003373ffffffffffffffffffffffffffffffffffffffff1673ffffffffffffffffffffffffffffffffffffffff168152602001908152602001600020600001908051906020019062000e3b92919062001b96565b5080600560003373ffffffffffffffffffffffffffffffffffffffff1673ffffffffffffffffffffffffffffffffffffffff168152602001908152602001600020600101908051906020019062000e9492919062001b96565b50816004600560003373ffffffffffffffffffffffffffffffffffffffff1673ffffffffffffffffffffffffffffffffffffffff168152602001908152602001600020600501548154811062000eef5762000eee620029ce565b5b9060005260206000209060060201600001908051906020019062000f1592919062001b96565b50806004600560003373ffffffffffffffffffffffffffffffffffffffff1673ffffffffffffffffffffffffffffffffffffffff168152602001908152602001600020600501548154811062000f705762000f6f620029ce565b5b9060005260206000209060060201600101908051906020019062000f9692919062001b96565b505050565b80600560008473ffffffffffffffffffffffffffffffffffffffff1673ffffffffffffffffffffffffffffffffffffffff16815260200190815260200160002060030181905550806004600560008573ffffffffffffffffffffffffffffffffffffffff1673ffffffffffffffffffffffffffffffffffffffff16815260200190815260200160002060050154815481106200103c576200103b620029ce565b5b9060005260206000209060060201600301819055505050565b600115156200106362001b2d565b151514620010a8576040517f08c379a00000000000000000000000000000000000000000000000000000000081526004016200109f9062002dfe565b60405180910390fd5b6000308585858534604051620010be9062001c81565b620010cf9695949392919062002fb7565b604051809103906000f080158015620010ec573d6000803e3d6000fd5b5090506001819080600181540180825580915050600190039060005260206000200160009091909190916101000a81548173ffffffffffffffffffffffffffffffffffffffff021916908373ffffffffffffffffffffffffffffffffffffffff1602179055508060026000600354815260200190815260200160002060006101000a81548173ffffffffffffffffffffffffffffffffffffffff021916908373ffffffffffffffffffffffffffffffffffffffff16021790555060036000815480929190620011bb9062002a75565b91905055505050505050565b60011515620011d562001b2d565b1515146200121a576040517f08c379a0000000000000000000000000000000000000000000000000000000008152600401620012119062002dfe565b60405180910390fd5b60018181548110620012315762001230620029ce565b5b9060005260206000200160009054906101000a900473ffffffffffffffffffffffffffffffffffffffff1673ffffffffffffffffffffffffffffffffffffffff166343d726d66040518163ffffffff1660e01b8152600401600060405180830381600087803b158015620012a457600080fd5b505af1158015620012b9573d6000803e3d6000fd5b5050505050565b620012ca62001c8f565b60001515620012d862001b2d565b1515146200131d576040517f08c379a0000000000000000000000000000000000000000000000000000000008152600401620013149062003089565b60405180910390fd5b6200132833620015c7565b905090565b60008073ffffffffffffffffffffffffffffffffffffffff16600560008473ffffffffffffffffffffffffffffffffffffffff1673ffffffffffffffffffffffffffffffffffffffff16815260200190815260200160002060020160009054906101000a900473ffffffffffffffffffffffffffffffffffffffff1673ffffffffffffffffffffffffffffffffffffffff1614159050919050565b620013d3336200132d565b62001415576040517f08c379a00000000000000000000000000000000000000000000000000000000081526004016200140c90620030fb565b60405180910390fd5b600015156001838154811062001430576200142f620029ce565b5b9060005260206000200160009054906101000a900473ffffffffffffffffffffffffffffffffffffffff1673ffffffffffffffffffffffffffffffffffffffff1663c2b6b58c6040518163ffffffff1660e01b8152600401602060405180830381865afa158015620014a6573d6000803e3d6000fd5b505050506040513d601f19601f82011682018060405250810190620014cc91906200314e565b15151462001511576040517f08c379a00000000000000000000000000000000000000000000000000000000081526004016200150890620031d0565b60405180910390fd5b60018281548110620015285762001527620029ce565b5b9060005260206000200160009054906101000a900473ffffffffffffffffffffffffffffffffffffffff1673ffffffffffffffffffffffffffffffffffffffff16633b9af89b33836040518363ffffffff1660e01b81526004016200158f929190620031f2565b600060405180830381600087803b158015620015aa57600080fd5b505af1158015620015bf573d6000803e3d6000fd5b505050505050565b620015d162001c8f565b600560008373ffffffffffffffffffffffffffffffffffffffff1673ffffffffffffffffffffffffffffffffffffffff1681526020019081526020016000206040518060c00160405290816000820180546200162d906200324e565b80601f01602080910402602001604051908101604052809291908181526020018280546200165b906200324e565b8015620016ac5780601f106200168057610100808354040283529160200191620016ac565b820191906000526020600020905b8154815290600101906020018083116200168e57829003601f168201915b50505050508152602001600182018054620016c7906200324e565b80601f0160208091040260200160405190810160405280929190818152602001828054620016f5906200324e565b8015620017465780601f106200171a5761010080835404028352916020019162001746565b820191906000526020600020905b8154815290600101906020018083116200172857829003601f168201915b505050505081526020016002820160009054906101000a900473ffffffffffffffffffffffffffffffffffffffff1673ffffffffffffffffffffffffffffffffffffffff1673ffffffffffffffffffffffffffffffffffffffff16815260200160038201548152602001600482015481526020016005820154815250509050919050565b60011515620017d862001b2d565b1515146200181d576040517f08c379a0000000000000000000000000000000000000000000000000000000008152600401620018149062002dfe565b60405180910390fd5b60018281548110620018345762001833620029ce565b5b9060005260206000200160009054906101000a900473ffffffffffffffffffffffffffffffffffffffff1673ffffffffffffffffffffffffffffffffffffffff1663bb55f25c826040518263ffffffff1660e01b815260040162001899919062001d15565b600060405180830381600087803b158015620018b457600080fd5b505af1158015620018c9573d6000803e3d6000fd5b505050505050565b606060011515620018e162001b2d565b15151462001926576040517f08c379a00000000000000000000000000000000000000000000000000000000081526004016200191d9062002dfe565b60405180910390fd5b6004805480602002602001604051908101604052809291908181526020016000905b8282101562001b2457838290600052602060002090600602016040518060c00160405290816000820180546200197e906200324e565b80601f0160208091040260200160405190810160405280929190818152602001828054620019ac906200324e565b8015620019fd5780601f10620019d157610100808354040283529160200191620019fd565b820191906000526020600020905b815481529060010190602001808311620019df57829003601f168201915b5050505050815260200160018201805462001a18906200324e565b80601f016020809104026020016040519081016040528092919081815260200182805462001a46906200324e565b801562001a975780601f1062001a6b5761010080835404028352916020019162001a97565b820191906000526020600020905b81548152906001019060200180831162001a7957829003601f168201915b505050505081526020016002820160009054906101000a900473ffffffffffffffffffffffffffffffffffffffff1673ffffffffffffffffffffffffffffffffffffffff1673ffffffffffffffffffffffffffffffffffffffff16815260200160038201548152602001600482015481526020016005820154815250508152602001906001019062001948565b50505050905090565b60008060009054906101000a900473ffffffffffffffffffffffffffffffffffffffff1673ffffffffffffffffffffffffffffffffffffffff163373ffffffffffffffffffffffffffffffffffffffff1614905090565b600062001b91336200132d565b905090565b82805462001ba4906200324e565b90600052602060002090601f01602090048101928262001bc8576000855562001c14565b82601f1062001be357805160ff191683800117855562001c14565b8280016001018555821562001c14579182015b8281111562001c1357825182559160200191906001019062001bf6565b5b50905062001c23919062001cdb565b5090565b60405180610100016040528060008152602001606081526020016060815260200160608152602001600081526020016000600181111562001c6d5762001c6c620021c7565b5b815260200160008152602001600081525090565b6123a2806200328483390190565b6040518060c001604052806060815260200160608152602001600073ffffffffffffffffffffffffffffffffffffffff1681526020016000815260200160008152602001600081525090565b5b8082111562001cf657600081600090555060010162001cdc565b5090565b6000819050919050565b62001d0f8162001cfa565b82525050565b600060208201905062001d2c600083018462001d04565b92915050565b6000604051905090565b600080fd5b600080fd5b62001d518162001cfa565b811462001d5d57600080fd5b50565b60008135905062001d718162001d46565b92915050565b60006020828403121562001d905762001d8f62001d3c565b5b600062001da08482850162001d60565b91505092915050565b600080fd5b600080fd5b6000601f19601f8301169050919050565b7f4e487b7100000000000000000000000000000000000000000000000000000000600052604160045260246000fd5b62001dfe8262001db3565b810181811067ffffffffffffffff8211171562001e205762001e1f62001dc4565b5b80604052505050565b600062001e3562001d32565b905062001e43828262001df3565b919050565b600067ffffffffffffffff82111562001e665762001e6562001dc4565b5b62001e718262001db3565b9050602081019050919050565b82818337600083830152505050565b600062001ea462001e9e8462001e48565b62001e29565b90508281526020810184848401111562001ec35762001ec262001dae565b5b62001ed084828562001e7e565b509392505050565b600082601f83011262001ef05762001eef62001da9565b5b813562001f0284826020860162001e8d565b91505092915050565b6000806040838503121562001f255762001f2462001d3c565b5b600083013567ffffffffffffffff81111562001f465762001f4562001d41565b5b62001f548582860162001ed8565b925050602083013567ffffffffffffffff81111562001f785762001f7762001d41565b5b62001f868582860162001ed8565b9150509250929050565b600073ffffffffffffffffffffffffffffffffffffffff82169050919050565b600062001fbd8262001f90565b9050919050565b62001fcf8162001fb0565b811462001fdb57600080fd5b50565b60008135905062001fef8162001fc4565b92915050565b6000602082840312156200200e576200200d62001d3c565b5b60006200201e8482850162001fde565b91505092915050565b600081519050919050565b600082825260208201905092915050565b6000819050602082019050919050565b6200205e8162001cfa565b82525050565b600081519050919050565b600082825260208201905092915050565b60005b83811015620020a057808201518184015260208101905062002083565b83811115620020b0576000848401525b50505050565b6000620020c38262002064565b620020cf81856200206f565b9350620020e181856020860162002080565b620020ec8162001db3565b840191505092915050565b600081519050919050565b600082825260208201905092915050565b6000819050602082019050919050565b6000620021318383620020b6565b905092915050565b6000602082019050919050565b60006200215382620020f7565b6200215f818562002102565b935083602082028501620021738562002113565b8060005b85811015620021b5578484038952815162002193858262002123565b9450620021a08362002139565b925060208a0199505060018101905062002177565b50829750879550505050505092915050565b7f4e487b7100000000000000000000000000000000000000000000000000000000600052602160045260246000fd5b600281106200220a5762002209620021c7565b5b50565b60008190506200221d82620021f6565b919050565b60006200222f826200220d565b9050919050565b620022418162002222565b82525050565b60006101008301600083015162002262600086018262002053565b50602083015184820360208601526200227c8282620020b6565b91505060408301518482036040860152620022988282620020b6565b91505060608301518482036060860152620022b4828262002146565b9150506080830151620022cb608086018262002053565b5060a0830151620022e060a086018262002236565b5060c0830151620022f560c086018262002053565b5060e08301516200230a60e086018262002053565b508091505092915050565b600062002323838362002247565b905092915050565b6000602082019050919050565b6000620023458262002027565b62002351818562002032565b935083602082028501620023658562002043565b8060005b85811015620023a7578484038952815162002385858262002315565b945062002392836200232b565b925060208a0199505060018101905062002369565b50829750879550505050505092915050565b60006020820190508181036000830152620023d5818462002338565b905092915050565b600067ffffffffffffffff821115620023fb57620023fa62001dc4565b5b602082029050602081019050919050565b600080fd5b6000620024286200242284620023dd565b62001e29565b905080838252602082019050602084028301858111156200244e576200244d6200240c565b5b835b818110156200249c57803567ffffffffffffffff81111562002477576200247662001da9565b5b80860162002486898262001ed8565b8552602085019450505060208101905062002450565b5050509392505050565b600082601f830112620024be57620024bd62001da9565b5b8135620024d084826020860162002411565b91505092915050565b60008060008060808587031215620024f657620024f562001d3c565b5b6000620025068782880162001d60565b945050602085013567ffffffffffffffff8111156200252a576200252962001d41565b5b620025388782880162001ed8565b935050604085013567ffffffffffffffff8111156200255c576200255b62001d41565b5b6200256a8782880162001ed8565b925050606085013567ffffffffffffffff8111156200258e576200258d62001d41565b5b6200259c87828801620024a6565b91505092959194509250565b620025b38162001fb0565b82525050565b6000602082019050620025d06000830184620025a8565b92915050565b60008060408385031215620025f057620025ef62001d3c565b5b6000620026008582860162001fde565b9250506020620026138582860162001d60565b9150509250929050565b600080600080608085870312156200263a576200263962001d3c565b5b600085013567ffffffffffffffff8111156200265b576200265a62001d41565b5b620026698782880162001ed8565b945050602085013567ffffffffffffffff8111156200268d576200268c62001d41565b5b6200269b8782880162001ed8565b935050604085013567ffffffffffffffff811115620026bf57620026be62001d41565b5b620026cd87828801620024a6565b9250506060620026e08782880162001d60565b91505092959194509250565b620026f78162001fb0565b82525050565b600060c08301600083015184820360008601526200271c8282620020b6565b91505060208301518482036020860152620027388282620020b6565b91505060408301516200274f6040860182620026ec565b50606083015162002764606086018262002053565b50608083015162002779608086018262002053565b5060a08301516200278e60a086018262002053565b508091505092915050565b60006020820190508181036000830152620027b58184620026fd565b905092915050565b60008115159050919050565b620027d481620027bd565b82525050565b6000602082019050620027f16000830184620027c9565b92915050565b6000806040838503121562002811576200281062001d3c565b5b6000620028218582860162001d60565b9250506020620028348582860162001d60565b9150509250929050565b600081519050919050565b600082825260208201905092915050565b6000819050602082019050919050565b600060c0830160008301518482036000860152620028898282620020b6565b91505060208301518482036020860152620028a58282620020b6565b9150506040830151620028bc6040860182620026ec565b506060830151620028d1606086018262002053565b506080830151620028e6608086018262002053565b5060a0830151620028fb60a086018262002053565b508091505092915050565b60006200291483836200286a565b905092915050565b6000602082019050919050565b600062002936826200283e565b62002942818562002849565b93508360208202850162002956856200285a565b8060005b8581101562002998578484038952815162002976858262002906565b945062002983836200291c565b925060208a019950506001810190506200295a565b50829750879550505050505092915050565b60006020820190508181036000830152620029c6818462002929565b905092915050565b7f4e487b7100000000000000000000000000000000000000000000000000000000600052603260045260246000fd5b60008151905062002a0e8162001d46565b92915050565b60006020828403121562002a2d5762002a2c62001d3c565b5b600062002a3d84828501620029fd565b91505092915050565b7f4e487b7100000000000000000000000000000000000000000000000000000000600052601160045260246000fd5b600062002a828262001cfa565b91507fffffffffffffffffffffffffffffffffffffffffffffffffffffffffffffffff820362002ab75762002ab662002a46565b5b600182019050919050565b600062002acf8262001cfa565b915062002adc8362001cfa565b9250827fffffffffffffffffffffffffffffffffffffffffffffffffffffffffffffffff0382111562002b145762002b1362002a46565b5b828201905092915050565b600062002b3662002b308462001e48565b62001e29565b90508281526020810184848401111562002b555762002b5462001dae565b5b62002b6284828562002080565b509392505050565b600082601f83011262002b825762002b8162001da9565b5b815162002b9484826020860162002b1f565b91505092915050565b600062002bb462002bae84620023dd565b62001e29565b9050808382526020820190506020840283018581111562002bda5762002bd96200240c565b5b835b8181101562002c2857805167ffffffffffffffff81111562002c035762002c0262001da9565b5b80860162002c12898262002b6a565b8552602085019450505060208101905062002bdc565b5050509392505050565b600082601f83011262002c4a5762002c4962001da9565b5b815162002c5c84826020860162002b9d565b91505092915050565b6002811062002c7357600080fd5b50565b60008151905062002c878162002c65565b92915050565b600080600080600080600060e0888a03121562002caf5762002cae62001d3c565b5b600088015167ffffffffffffffff81111562002cd05762002ccf62001d41565b5b62002cde8a828b0162002b6a565b975050602088015167ffffffffffffffff81111562002d025762002d0162001d41565b5b62002d108a828b0162002b6a565b965050604088015167ffffffffffffffff81111562002d345762002d3362001d41565b5b62002d428a828b0162002c32565b955050606062002d558a828b01620029fd565b945050608062002d688a828b0162002c76565b93505060a062002d7b8a828b01620029fd565b92505060c062002d8e8a828b01620029fd565b91505092959891949750929550565b600082825260208201905092915050565b7f43616c6c6572206973206e6f742041646d696e00000000000000000000000000600082015250565b600062002de660138362002d9d565b915062002df38262002dae565b602082019050919050565b6000602082019050818103600083015262002e198162002dd7565b9050919050565b600062002e2d8262002064565b62002e39818562002d9d565b935062002e4b81856020860162002080565b62002e568162001db3565b840191505092915050565b600082825260208201905092915050565b600062002e7f82620020f7565b62002e8b818562002e61565b93508360208202850162002e9f8562002113565b8060005b8581101562002ee1578484038952815162002ebf858262002123565b945062002ecc8362002139565b925060208a0199505060018101905062002ea3565b50829750879550505050505092915050565b6000606082019050818103600083015262002f0f818662002e20565b9050818103602083015262002f25818562002e20565b9050818103604083015262002f3b818462002e72565b9050949350505050565b7f596f7520617265206e6f7420616c6c6f77656400000000000000000000000000600082015250565b600062002f7d60138362002d9d565b915062002f8a8262002f45565b602082019050919050565b6000602082019050818103600083015262002fb08162002f6e565b9050919050565b600060c08201905062002fce6000830189620025a8565b818103602083015262002fe2818862002e20565b9050818103604083015262002ff8818762002e20565b905081810360608301526200300e818662002e72565b90506200301f608083018562001d04565b6200302e60a083018462001d04565b979650505050505050565b7f43616c6c65722069732041646d696e0000000000000000000000000000000000600082015250565b600062003071600f8362002d9d565b91506200307e8262003039565b602082019050919050565b60006020820190508181036000830152620030a48162003062565b9050919050565b7f4e6f7420616c6c6f776564206361757365206e6f74207369676e656420696e00600082015250565b6000620030e3601f8362002d9d565b9150620030f082620030ab565b602082019050919050565b600060208201905081810360008301526200311681620030d4565b9050919050565b6200312881620027bd565b81146200313457600080fd5b50565b60008151905062003148816200311d565b92915050565b60006020828403121562003167576200316662001d3c565b5b6000620031778482850162003137565b91505092915050565b7f53657373696f6e20697320636c6f7365642e0000000000000000000000000000600082015250565b6000620031b860128362002d9d565b9150620031c58262003180565b602082019050919050565b60006020820190508181036000830152620031eb81620031a9565b9050919050565b6000604082019050620032096000830185620025a8565b62003218602083018462001d04565b9392505050565b7f4e487b7100000000000000000000000000000000000000000000000000000000600052602260045260246000fd5b600060028204905060018216806200326757607f821691505b6020821081036200327d576200327c6200321f565b5b5091905056fe60806040526000600a55604051620023a2380380620023a283398181016040528101906200002e9190620005c6565b856000806101000a81548173ffffffffffffffffffffffffffffffffffffffff021916908373ffffffffffffffffffffffffffffffffffffffff1602179055506000600c60006101000a81548160ff02191690836001811115620000975762000096620006bf565b5b02179055508460019080519060200190620000b492919062000108565b508360029080519060200190620000cd92919062000108565b50806006819055508260039080519060200190620000ed92919062000199565b50816005819055504260078190555050505050505062000752565b82805462000116906200071d565b90600052602060002090601f0160209004810192826200013a576000855562000186565b82601f106200015557805160ff191683800117855562000186565b8280016001018555821562000186579182015b828111156200018557825182559160200191906001019062000168565b5b50905062000195919062000200565b5090565b828054828255906000526020600020908101928215620001ed579160200282015b82811115620001ec578251829080519060200190620001db92919062000108565b5091602001919060010190620001ba565b5b509050620001fc91906200021f565b5090565b5b808211156200021b57600081600090555060010162000201565b5090565b5b8082111562000243576000818162000239919062000247565b5060010162000220565b5090565b50805462000255906200071d565b6000825580601f106200026957506200028a565b601f01602090049060005260206000209081019062000289919062000200565b5b50565b6000604051905090565b600080fd5b600080fd5b600073ffffffffffffffffffffffffffffffffffffffff82169050919050565b6000620002ce82620002a1565b9050919050565b620002e081620002c1565b8114620002ec57600080fd5b50565b6000815190506200030081620002d5565b92915050565b600080fd5b600080fd5b6000601f19601f8301169050919050565b7f4e487b7100000000000000000000000000000000000000000000000000000000600052604160045260246000fd5b6200035b8262000310565b810181811067ffffffffffffffff821117156200037d576200037c62000321565b5b80604052505050565b6000620003926200028d565b9050620003a0828262000350565b919050565b600067ffffffffffffffff821115620003c357620003c262000321565b5b620003ce8262000310565b9050602081019050919050565b60005b83811015620003fb578082015181840152602081019050620003de565b838111156200040b576000848401525b50505050565b6000620004286200042284620003a5565b62000386565b9050828152602081018484840111156200044757620004466200030b565b5b62000454848285620003db565b509392505050565b600082601f83011262000474576200047362000306565b5b81516200048684826020860162000411565b91505092915050565b600067ffffffffffffffff821115620004ad57620004ac62000321565b5b602082029050602081019050919050565b600080fd5b6000620004da620004d4846200048f565b62000386565b905080838252602082019050602084028301858111156200050057620004ff620004be565b5b835b818110156200054e57805167ffffffffffffffff81111562000529576200052862000306565b5b8086016200053889826200045c565b8552602085019450505060208101905062000502565b5050509392505050565b600082601f83011262000570576200056f62000306565b5b815162000582848260208601620004c3565b91505092915050565b6000819050919050565b620005a0816200058b565b8114620005ac57600080fd5b50565b600081519050620005c08162000595565b92915050565b60008060008060008060c08789031215620005e657620005e562000297565b5b6000620005f689828a01620002ef565b965050602087015167ffffffffffffffff8111156200061a57620006196200029c565b5b6200062889828a016200045c565b955050604087015167ffffffffffffffff8111156200064c576200064b6200029c565b5b6200065a89828a016200045c565b945050606087015167ffffffffffffffff8111156200067e576200067d6200029c565b5b6200068c89828a0162000558565b93505060806200069f89828a01620005af565b92505060a0620006b289828a01620005af565b9150509295509295509295565b7f4e487b7100000000000000000000000000000000000000000000000000000000600052602160045260246000fd5b7f4e487b7100000000000000000000000000000000000000000000000000000000600052602260045260246000fd5b600060028204905060018216806200073657607f821691505b6020821081036200074c576200074b620006ee565b5b50919050565b611c4080620007626000396000f3fe608060405234801561001057600080fd5b50600436106100885760003560e01c80637278f4d81161005b5780637278f4d8146100f35780637a8cf8c714610111578063bb55f25c14610142578063c2b6b58c1461015e57610088565b80631d7e99c51461008d5780633b9af89b146100a957806343d726d6146100c55780635a9b0b89146100cf575b600080fd5b6100a760048036038101906100a291906111fd565b61017c565b005b6100c360048036038101906100be9190611338565b610254565b005b6100cd6105cb565b005b6100d761068e565b6040516100ea9796959493929190611592565b60405180910390f35b6100fb6108ba565b6040516101089190611616565b60405180910390f35b61012b60048036038101906101269190611631565b6108c4565b60405161013992919061165e565b60405180910390f35b61015c60048036038101906101579190611687565b610981565b005b610166610be6565b60405161017391906116cf565b60405180910390f35b60008054906101000a900473ffffffffffffffffffffffffffffffffffffffff1673ffffffffffffffffffffffffffffffffffffffff163373ffffffffffffffffffffffffffffffffffffffff161461020a576040517f08c379a000000000000000000000000000000000000000000000000000000000815260040161020190611736565b60405180910390fd5b8260019080519060200190610220929190610e56565b508160029080519060200190610237929190610e56565b50806003908051906020019061024e929190610edc565b50505050565b60008054906101000a900473ffffffffffffffffffffffffffffffffffffffff1673ffffffffffffffffffffffffffffffffffffffff163373ffffffffffffffffffffffffffffffffffffffff16146102e2576040517f08c379a00000000000000000000000000000000000000000000000000000000081526004016102d990611736565b60405180910390fd5b600073ffffffffffffffffffffffffffffffffffffffff16600b60008473ffffffffffffffffffffffffffffffffffffffff1673ffffffffffffffffffffffffffffffffffffffff16815260200190815260200160002060000160009054906101000a900473ffffffffffffffffffffffffffffffffffffffff1673ffffffffffffffffffffffffffffffffffffffff160361057f57600060405180606001604052808473ffffffffffffffffffffffffffffffffffffffff168152602001838152602001600a548152509050600981908060018154018082558091505060019003906000526020600020906003020160009091909190915060008201518160000160006101000a81548173ffffffffffffffffffffffffffffffffffffffff021916908373ffffffffffffffffffffffffffffffffffffffff1602179055506020820151816001015560408201518160020155505080600b60008573ffffffffffffffffffffffffffffffffffffffff1673ffffffffffffffffffffffffffffffffffffffff16815260200190815260200160002060008201518160000160006101000a81548173ffffffffffffffffffffffffffffffffffffffff021916908373ffffffffffffffffffffffffffffffffffffffff1602179055506020820151816001015560408201518160020155905050600a60008154809291906104e990611785565b919050555060008054906101000a900473ffffffffffffffffffffffffffffffffffffffff1673ffffffffffffffffffffffffffffffffffffffff166351650ecb846040518263ffffffff1660e01b815260040161054791906117dc565b600060405180830381600087803b15801561056157600080fd5b505af1158015610575573d6000803e3d6000fd5b50505050506105c7565b80600b60008473ffffffffffffffffffffffffffffffffffffffff1673ffffffffffffffffffffffffffffffffffffffff168152602001908152602001600020600101819055505b5050565b60008054906101000a900473ffffffffffffffffffffffffffffffffffffffff1673ffffffffffffffffffffffffffffffffffffffff163373ffffffffffffffffffffffffffffffffffffffff1614610659576040517f08c379a000000000000000000000000000000000000000000000000000000000815260040161065090611736565b60405180910390fd5b6001600c60006101000a81548160ff0219169083600181111561067f5761067e61151b565b5b021790555061068c610cda565b565b6060806060600080600080600160026003600554600c60009054906101000a900460ff166004546008548680546106c490611826565b80601f01602080910402602001604051908101604052809291908181526020018280546106f090611826565b801561073d5780601f106107125761010080835404028352916020019161073d565b820191906000526020600020905b81548152906001019060200180831161072057829003601f168201915b5050505050965085805461075090611826565b80601f016020809104026020016040519081016040528092919081815260200182805461077c90611826565b80156107c95780601f1061079e576101008083540402835291602001916107c9565b820191906000526020600020905b8154815290600101906020018083116107ac57829003601f168201915b5050505050955084805480602002602001604051908101604052809291908181526020016000905b8282101561089d57838290600052602060002001805461081090611826565b80601f016020809104026020016040519081016040528092919081815260200182805461083c90611826565b80156108895780601f1061085e57610100808354040283529160200191610889565b820191906000526020600020905b81548152906001019060200180831161086c57829003601f168201915b5050505050815260200190600101906107f1565b505050509450965096509650965096509650965090919293949596565b6000600454905090565b60008060008060009054906101000a900473ffffffffffffffffffffffffffffffffffffffff1673ffffffffffffffffffffffffffffffffffffffff1663d716c549856040518263ffffffff1660e01b815260040161092391906117dc565b6000604051808303816000875af1158015610942573d6000803e3d6000fd5b505050506040513d6000823e3d601f19601f8201168201806040525081019061096b91906119d3565b9050806060015181608001519250925050915091565b60008054906101000a900473ffffffffffffffffffffffffffffffffffffffff1673ffffffffffffffffffffffffffffffffffffffff163373ffffffffffffffffffffffffffffffffffffffff1614610a0f576040517f08c379a0000000000000000000000000000000000000000000000000000000008152600401610a0690611736565b60405180910390fd5b8060088190555060005b600a54811015610be257600060098281548110610a3957610a38611a1c565b5b90600052602060002090600302016040518060600160405290816000820160009054906101000a900473ffffffffffffffffffffffffffffffffffffffff1673ffffffffffffffffffffffffffffffffffffffff1673ffffffffffffffffffffffffffffffffffffffff168152602001600182015481526020016002820154815250509050600081600001519050600080610ad3836108c4565b915091506000606487610af487602001518a610aef9190611a4b565b610e34565b610afe9190611aae565b610b089190611adf565b90506000600183610b199190611b39565b828486610b269190611adf565b610b309190611b39565b610b3a9190611aae565b905060008054906101000a900473ffffffffffffffffffffffffffffffffffffffff1673ffffffffffffffffffffffffffffffffffffffff1663937f4a2686836040518363ffffffff1660e01b8152600401610b97929190611b8f565b600060405180830381600087803b158015610bb157600080fd5b505af1158015610bc5573d6000803e3d6000fd5b505050505050505050508080610bda90611785565b915050610a19565b5050565b60008060009054906101000a900473ffffffffffffffffffffffffffffffffffffffff1673ffffffffffffffffffffffffffffffffffffffff163373ffffffffffffffffffffffffffffffffffffffff1614610c77576040517f08c379a0000000000000000000000000000000000000000000000000000000008152600401610c6e90611736565b60405180910390fd5b600060055414158015610cd55750600180811115610c9857610c9761151b565b5b600c60009054906101000a900460ff166001811115610cba57610cb961151b565b5b1480610cd4575042600554600754610cd29190611b39565b115b5b905090565b600080600a5403610cf2576000600481905550610e31565b600080600092505b600a54831015610e0357600060098481548110610d1a57610d19611a1c565b5b90600052602060002090600302016040518060600160405290816000820160009054906101000a900473ffffffffffffffffffffffffffffffffffffffff1673ffffffffffffffffffffffffffffffffffffffff1673ffffffffffffffffffffffffffffffffffffffff1681526020016001820154815260200160028201548152505090506000816000015190506000610db3826108c4565b5090508085610dc29190611b39565b9450806064610dd19190611a4b565b8360200151610de09190611adf565b84610deb9190611b39565b93505050508280610dfb90611785565b935050610cfa565b81600a546064610e139190611adf565b610e1d9190611a4b565b81610e289190611aae565b60048190555050505b50565b600080821215610e4d5781610e4890611bc2565b610e4f565b815b9050919050565b828054610e6290611826565b90600052602060002090601f016020900481019282610e845760008555610ecb565b82601f10610e9d57805160ff1916838001178555610ecb565b82800160010185558215610ecb579182015b82811115610eca578251825591602001919060010190610eaf565b5b509050610ed89190610f3c565b5090565b828054828255906000526020600020908101928215610f2b579160200282015b82811115610f2a578251829080519060200190610f1a929190610e56565b5091602001919060010190610efc565b5b509050610f389190610f59565b5090565b5b80821115610f55576000816000905550600101610f3d565b5090565b5b80821115610f795760008181610f709190610f7d565b50600101610f5a565b5090565b508054610f8990611826565b6000825580601f10610f9b5750610fba565b601f016020900490600052602060002090810190610fb99190610f3c565b5b50565b6000604051905090565b600080fd5b600080fd5b600080fd5b600080fd5b6000601f19601f8301169050919050565b7f4e487b7100000000000000000000000000000000000000000000000000000000600052604160045260246000fd5b61102482610fdb565b810181811067ffffffffffffffff8211171561104357611042610fec565b5b80604052505050565b6000611056610fbd565b9050611062828261101b565b919050565b600067ffffffffffffffff82111561108257611081610fec565b5b61108b82610fdb565b9050602081019050919050565b82818337600083830152505050565b60006110ba6110b584611067565b61104c565b9050828152602081018484840111156110d6576110d5610fd6565b5b6110e1848285611098565b509392505050565b600082601f8301126110fe576110fd610fd1565b5b813561110e8482602086016110a7565b91505092915050565b600067ffffffffffffffff82111561113257611131610fec565b5b602082029050602081019050919050565b600080fd5b600061115b61115684611117565b61104c565b9050808382526020820190506020840283018581111561117e5761117d611143565b5b835b818110156111c557803567ffffffffffffffff8111156111a3576111a2610fd1565b5b8086016111b089826110e9565b85526020850194505050602081019050611180565b5050509392505050565b600082601f8301126111e4576111e3610fd1565b5b81356111f4848260208601611148565b91505092915050565b60008060006060848603121561121657611215610fc7565b5b600084013567ffffffffffffffff81111561123457611233610fcc565b5b611240868287016110e9565b935050602084013567ffffffffffffffff81111561126157611260610fcc565b5b61126d868287016110e9565b925050604084013567ffffffffffffffff81111561128e5761128d610fcc565b5b61129a868287016111cf565b9150509250925092565b600073ffffffffffffffffffffffffffffffffffffffff82169050919050565b60006112cf826112a4565b9050919050565b6112df816112c4565b81146112ea57600080fd5b50565b6000813590506112fc816112d6565b92915050565b6000819050919050565b61131581611302565b811461132057600080fd5b50565b6000813590506113328161130c565b92915050565b6000806040838503121561134f5761134e610fc7565b5b600061135d858286016112ed565b925050602061136e85828601611323565b9150509250929050565b600081519050919050565b600082825260208201905092915050565b60005b838110156113b2578082015181840152602081019050611397565b838111156113c1576000848401525b50505050565b60006113d282611378565b6113dc8185611383565b93506113ec818560208601611394565b6113f581610fdb565b840191505092915050565b600081519050919050565b600082825260208201905092915050565b6000819050602082019050919050565b600082825260208201905092915050565b600061144882611378565b611452818561142c565b9350611462818560208601611394565b61146b81610fdb565b840191505092915050565b6000611482838361143d565b905092915050565b6000602082019050919050565b60006114a282611400565b6114ac818561140b565b9350836020820285016114be8561141c565b8060005b858110156114fa57848403895281516114db8582611476565b94506114e68361148a565b925060208a019950506001810190506114c2565b50829750879550505050505092915050565b61151581611302565b82525050565b7f4e487b7100000000000000000000000000000000000000000000000000000000600052602160045260246000fd5b6002811061155b5761155a61151b565b5b50565b600081905061156c8261154a565b919050565b600061157c8261155e565b9050919050565b61158c81611571565b82525050565b600060e08201905081810360008301526115ac818a6113c7565b905081810360208301526115c081896113c7565b905081810360408301526115d48188611497565b90506115e3606083018761150c565b6115f06080830186611583565b6115fd60a083018561150c565b61160a60c083018461150c565b98975050505050505050565b600060208201905061162b600083018461150c565b92915050565b60006020828403121561164757611646610fc7565b5b6000611655848285016112ed565b91505092915050565b6000604082019050611673600083018561150c565b611680602083018461150c565b9392505050565b60006020828403121561169d5761169c610fc7565b5b60006116ab84828501611323565b91505092915050565b60008115159050919050565b6116c9816116b4565b82525050565b60006020820190506116e460008301846116c0565b92915050565b7f4f6e6c7920706172656e7420636f6e747261637420697320616c6c6f77000000600082015250565b6000611720601d83611383565b915061172b826116ea565b602082019050919050565b6000602082019050818103600083015261174f81611713565b9050919050565b7f4e487b7100000000000000000000000000000000000000000000000000000000600052601160045260246000fd5b600061179082611302565b91507fffffffffffffffffffffffffffffffffffffffffffffffffffffffffffffffff82036117c2576117c1611756565b5b600182019050919050565b6117d6816112c4565b82525050565b60006020820190506117f160008301846117cd565b92915050565b7f4e487b7100000000000000000000000000000000000000000000000000000000600052602260045260246000fd5b6000600282049050600182168061183e57607f821691505b602082108103611851576118506117f7565b5b50919050565b600080fd5b600080fd5b600061187461186f84611067565b61104c565b9050828152602081018484840111156118905761188f610fd6565b5b61189b848285611394565b509392505050565b600082601f8301126118b8576118b7610fd1565b5b81516118c8848260208601611861565b91505092915050565b6000815190506118e0816112d6565b92915050565b6000815190506118f58161130c565b92915050565b600060c0828403121561191157611910611857565b5b61191b60c061104c565b9050600082015167ffffffffffffffff81111561193b5761193a61185c565b5b611947848285016118a3565b600083015250602082015167ffffffffffffffff81111561196b5761196a61185c565b5b611977848285016118a3565b602083015250604061198b848285016118d1565b604083015250606061199f848285016118e6565b60608301525060806119b3848285016118e6565b60808301525060a06119c7848285016118e6565b60a08301525092915050565b6000602082840312156119e9576119e8610fc7565b5b600082015167ffffffffffffffff811115611a0757611a06610fcc565b5b611a13848285016118fb565b91505092915050565b7f4e487b7100000000000000000000000000000000000000000000000000000000600052603260045260246000fd5b6000611a5682611302565b9150611a6183611302565b925082821015611a7457611a73611756565b5b828203905092915050565b7f4e487b7100000000000000000000000000000000000000000000000000000000600052601260045260246000fd5b6000611ab982611302565b9150611ac483611302565b925082611ad457611ad3611a7f565b5b828204905092915050565b6000611aea82611302565b9150611af583611302565b9250817fffffffffffffffffffffffffffffffffffffffffffffffffffffffffffffffff0483118215151615611b2e57611b2d611756565b5b828202905092915050565b6000611b4482611302565b9150611b4f83611302565b9250827fffffffffffffffffffffffffffffffffffffffffffffffffffffffffffffffff03821115611b8457611b83611756565b5b828201905092915050565b6000604082019050611ba460008301856117cd565b611bb1602083018461150c565b9392505050565b6000819050919050565b6000611bcd82611bb8565b91507f80000000000000000000000000000000000000000000000000000000000000008203611bff57611bfe611756565b5b81600003905091905056fea26469706673582212206a65f7e508dbd4861e1245838fbe3d5bd67d9fcf6fb52bbbf2f3b7cb7068c67964736f6c634300080d0033a264697066735822122003073f28971009a19b20d4635c005d740f9697cc0c0ee7af0402149ef88b16e364736f6c634300080d0033",
  "immutableReferences": {},
  "source": "// SPDX-License-Identifier: GPL-3.0\n\npragma solidity >=0.8.0;\n\nimport \"./Session.sol\";\nimport \"./Admin.sol\";\nimport \"./Type.sol\";\n\ncontract Main is Admin {\n    Session[] private sessionList;\n    mapping(uint256 => Session) private sessionMap;\n    uint256 sessionIndex = 0;\n\n    Participant[] private participantList;\n    mapping(address => Participant) private participantMap;\n    uint256 participantIndex = 0;\n\n    modifier isParticipant() {\n        require(isSignIn(msg.sender), \"Not allowed cause not signed in\");\n        _;\n    }\n\n    constructor() {}\n\n    function initSession(\n        string memory _name,\n        string memory _description,\n        string[] memory _images,\n        uint256 _timeout\n    ) public payable isAdmin {\n        Session session = new Session(\n            address(this),\n            _name,\n            _description,\n            _images,\n            _timeout,\n            msg.value\n        );\n        sessionList.push(session);\n        sessionMap[sessionIndex] = session;\n        sessionIndex++;\n    }\n\n    function closeSession(uint256 _sessionIndex) public isAdmin {\n        sessionList[_sessionIndex].close();\n    }\n\n    function setFinalPrice(uint256 _sessionIndex, uint256 _finalPrice)\n        public\n        isAdmin\n    {\n        sessionList[_sessionIndex].setFinalPrice(_finalPrice);\n    }\n\n    function getSessions() public view returns (SessionInfo[] memory) {\n        uint256 i;\n        SessionInfo[] memory result = new SessionInfo[](sessionIndex);\n\n        for (i = 0; i < sessionIndex; i++) {\n            Session currentSession = sessionList[i];\n            (\n                string memory name,\n                string memory description,\n                string[] memory images,\n                uint256 timeout,\n                SessionState state,\n                uint256 proposePrice,\n                uint256 finalPrice\n            ) = currentSession.getInfo();\n            SessionInfo memory info = SessionInfo(\n                i,\n                name,\n                description,\n                images,\n                timeout,\n                state,\n                proposePrice,\n                finalPrice\n            );\n            result[i] = info;\n        }\n\n        return result;\n    }\n\n    function updateSession(\n        uint256 _sessionIndex,\n        string memory _name,\n        string memory _description,\n        string[] memory _images\n    ) public isAdmin {\n        sessionList[_sessionIndex].update(_name, _description, _images);\n    }\n\n    function submitPrice(uint256 _sessionIndex, uint256 _price)\n        public\n        isParticipant\n    {\n        require(\n            sessionList[_sessionIndex].isClosed() == false,\n            \"Session is closed.\"\n        );\n        //require session is not closed.\n\n        sessionList[_sessionIndex].submitPrice(msg.sender, _price);\n    }\n\n    function getSessionProposePrice(uint256 _sessionIndex)\n        public\n        view\n        returns (uint256)\n    {\n        return sessionList[_sessionIndex].getProposePrice();\n    }\n\n    function getParticipantList()\n        public\n        view\n        isAdmin\n        returns (Participant[] memory)\n    {\n        return participantList;\n    }\n\n    function register(string memory _email, string memory _name) public {\n        Participant memory participant = Participant(\n            _email,\n            _name,\n            msg.sender,\n            1,\n            0,\n            participantIndex\n        );\n        participantList.push(participant);\n        participantMap[msg.sender] = participant;\n        participantIndex++;\n    }\n\n    function getParticipantDetail(address _participantAddr)\n        public\n        view\n        returns (Participant memory)\n    {\n        return participantMap[_participantAddr];\n    }\n\n    function getCurrentParticiapntDetail()\n        public\n        view\n        isNotAdmin\n        returns (Participant memory)\n    {\n        return getParticipantDetail(msg.sender);\n    }\n\n    function updateParticipantInfo(string memory _email, string memory _name)\n        public\n    {\n        require(\n            participantMap[msg.sender].account == msg.sender,\n            \"You are not allowed\"\n        );\n        participantMap[msg.sender].email = _email;\n        participantMap[msg.sender].name = _name;\n        participantList[participantMap[msg.sender].index].email = _email;\n        participantList[participantMap[msg.sender].index].name = _name;\n    }\n\n    function isSignIn(address _account) public view returns (bool) {\n        return participantMap[_account].account != address(0);\n    }\n\n    function checkRole() public view returns (uint256) {\n        if (checkAdmin() == true) return 1;\n        if (signIn() == true) return 2;\n        return 0;\n    }\n\n    function signIn() internal view returns (bool) {\n        return isSignIn(msg.sender);\n    }\n\n    function increaseParticipantSessionCount(address _participantAddr)\n        external\n    {\n        uint256 newCount = participantMap[_participantAddr].sessionsCount + 1;\n        participantMap[_participantAddr].sessionsCount = newCount;\n        participantList[participantMap[_participantAddr].index]\n            .sessionsCount = newCount;\n    }\n\n    function updateParticipantDeviation(\n        address _participantAddr,\n        uint256 _deviation\n    ) external {\n        participantMap[_participantAddr].deviation = _deviation;\n        participantList[participantMap[_participantAddr].index]\n            .deviation = _deviation;\n    }\n\n    receive() external payable {}\n}\n",
  "sourcePath": "/Users/minh/Projects/Funix/pricing-chain/contracts/Main.sol",
  "compiler": {
    "name": "solc",
    "version": "0.8.13+commit.abaa5c0e.Emscripten.clang"
  },
  "schemaVersion": "3.4.5",
  "updatedAt": "2022-03-24T16:16:31.007Z",
  "networkType": "ethereum",
  "devdoc": {
    "kind": "dev",
    "methods": {},
    "version": 1
  },
  "userdoc": {
    "kind": "user",
    "methods": {},
    "version": 1
  }
}