{
  "contractName": "Main",
  "abi": [
    {
      "inputs": [],
      "stateMutability": "nonpayable",
      "type": "constructor"
    },
    {
      "anonymous": false,
      "inputs": [
        {
          "indexed": true,
          "internalType": "address",
          "name": "oldAdmin",
          "type": "address"
        },
        {
          "indexed": true,
          "internalType": "address",
          "name": "newAdmin",
          "type": "address"
        }
      ],
      "name": "AdminSet",
      "type": "event"
    },
    {
      "inputs": [
        {
          "internalType": "address",
          "name": "newAdmin",
          "type": "address"
        }
      ],
      "name": "changeAdmin",
      "outputs": [],
      "stateMutability": "nonpayable",
      "type": "function"
    },
    {
      "inputs": [],
      "name": "checkAdmin",
      "outputs": [
        {
          "internalType": "bool",
          "name": "",
          "type": "bool"
        }
      ],
      "stateMutability": "view",
      "type": "function",
      "constant": true
    },
    {
      "inputs": [],
      "name": "getAdmin",
      "outputs": [
        {
          "internalType": "address",
          "name": "",
          "type": "address"
        }
      ],
      "stateMutability": "view",
      "type": "function",
      "constant": true
    },
    {
      "stateMutability": "payable",
      "type": "receive",
      "payable": true
    },
    {
      "inputs": [
        {
          "internalType": "string",
          "name": "_name",
          "type": "string"
        },
        {
          "internalType": "string",
          "name": "_description",
          "type": "string"
        },
        {
          "internalType": "string[]",
          "name": "_images",
          "type": "string[]"
        },
        {
          "internalType": "uint256",
          "name": "_timeout",
          "type": "uint256"
        }
      ],
      "name": "initSession",
      "outputs": [],
      "stateMutability": "payable",
      "type": "function",
      "payable": true
    },
    {
      "inputs": [
        {
          "internalType": "uint256",
          "name": "_sessionIndex",
          "type": "uint256"
        }
      ],
      "name": "closeSession",
      "outputs": [],
      "stateMutability": "nonpayable",
      "type": "function"
    },
    {
      "inputs": [
        {
          "internalType": "uint256",
          "name": "_sessionIndex",
          "type": "uint256"
        },
        {
          "internalType": "uint256",
          "name": "_finalPrice",
          "type": "uint256"
        }
      ],
      "name": "setFinalPrice",
      "outputs": [],
      "stateMutability": "nonpayable",
      "type": "function"
    },
    {
      "inputs": [],
      "name": "getSessions",
      "outputs": [
        {
          "components": [
            {
              "internalType": "uint256",
              "name": "id",
              "type": "uint256"
            },
            {
              "internalType": "string",
              "name": "name",
              "type": "string"
            },
            {
              "internalType": "string",
              "name": "description",
              "type": "string"
            },
            {
              "internalType": "string[]",
              "name": "images",
              "type": "string[]"
            },
            {
              "internalType": "uint256",
              "name": "timeout",
              "type": "uint256"
            },
            {
              "internalType": "enum SessionState",
              "name": "state",
              "type": "uint8"
            },
            {
              "internalType": "uint256",
              "name": "proposePrice",
              "type": "uint256"
            },
            {
              "internalType": "uint256",
              "name": "finalPrice",
              "type": "uint256"
            }
          ],
          "internalType": "struct SessionInfo[]",
          "name": "",
          "type": "tuple[]"
        }
      ],
      "stateMutability": "view",
      "type": "function",
      "constant": true
    },
    {
      "inputs": [
        {
          "internalType": "uint256",
          "name": "_sessionIndex",
          "type": "uint256"
        },
        {
          "internalType": "string",
          "name": "_name",
          "type": "string"
        },
        {
          "internalType": "string",
          "name": "_description",
          "type": "string"
        },
        {
          "internalType": "string[]",
          "name": "_images",
          "type": "string[]"
        }
      ],
      "name": "updateSession",
      "outputs": [],
      "stateMutability": "nonpayable",
      "type": "function"
    },
    {
      "inputs": [
        {
          "internalType": "uint256",
          "name": "_sessionIndex",
          "type": "uint256"
        },
        {
          "internalType": "uint256",
          "name": "_price",
          "type": "uint256"
        }
      ],
      "name": "submitPrice",
      "outputs": [],
      "stateMutability": "nonpayable",
      "type": "function"
    },
    {
      "inputs": [],
      "name": "getParticipantList",
      "outputs": [
        {
          "components": [
            {
              "internalType": "string",
              "name": "email",
              "type": "string"
            },
            {
              "internalType": "string",
              "name": "name",
              "type": "string"
            },
            {
              "internalType": "address",
              "name": "account",
              "type": "address"
            },
            {
              "internalType": "uint256",
              "name": "deviation",
              "type": "uint256"
            },
            {
              "internalType": "uint256",
              "name": "sessionsCount",
              "type": "uint256"
            },
            {
              "internalType": "uint256",
              "name": "index",
              "type": "uint256"
            }
          ],
          "internalType": "struct Participant[]",
          "name": "",
          "type": "tuple[]"
        }
      ],
      "stateMutability": "view",
      "type": "function",
      "constant": true
    },
    {
      "inputs": [
        {
          "internalType": "string",
          "name": "_email",
          "type": "string"
        },
        {
          "internalType": "string",
          "name": "_name",
          "type": "string"
        }
      ],
      "name": "register",
      "outputs": [],
      "stateMutability": "nonpayable",
      "type": "function"
    },
    {
      "inputs": [
        {
          "internalType": "address",
          "name": "_account",
          "type": "address"
        }
      ],
      "name": "getParticipantDetail",
      "outputs": [
        {
          "components": [
            {
              "internalType": "string",
              "name": "email",
              "type": "string"
            },
            {
              "internalType": "string",
              "name": "name",
              "type": "string"
            },
            {
              "internalType": "address",
              "name": "account",
              "type": "address"
            },
            {
              "internalType": "uint256",
              "name": "deviation",
              "type": "uint256"
            },
            {
              "internalType": "uint256",
              "name": "sessionsCount",
              "type": "uint256"
            },
            {
              "internalType": "uint256",
              "name": "index",
              "type": "uint256"
            }
          ],
          "internalType": "struct Participant",
          "name": "",
          "type": "tuple"
        }
      ],
      "stateMutability": "view",
      "type": "function",
      "constant": true
    },
    {
      "inputs": [],
      "name": "getCurrentParticiapntDetail",
      "outputs": [
        {
          "components": [
            {
              "internalType": "string",
              "name": "email",
              "type": "string"
            },
            {
              "internalType": "string",
              "name": "name",
              "type": "string"
            },
            {
              "internalType": "address",
              "name": "account",
              "type": "address"
            },
            {
              "internalType": "uint256",
              "name": "deviation",
              "type": "uint256"
            },
            {
              "internalType": "uint256",
              "name": "sessionsCount",
              "type": "uint256"
            },
            {
              "internalType": "uint256",
              "name": "index",
              "type": "uint256"
            }
          ],
          "internalType": "struct Participant",
          "name": "",
          "type": "tuple"
        }
      ],
      "stateMutability": "view",
      "type": "function",
      "constant": true
    },
    {
      "inputs": [],
      "name": "signIn",
      "outputs": [
        {
          "internalType": "bool",
          "name": "",
          "type": "bool"
        }
      ],
      "stateMutability": "view",
      "type": "function",
      "constant": true
    },
    {
      "inputs": [
        {
          "internalType": "string",
          "name": "_email",
          "type": "string"
        },
        {
          "internalType": "string",
          "name": "_name",
          "type": "string"
        }
      ],
      "name": "updateParticipantInfo",
      "outputs": [],
      "stateMutability": "nonpayable",
      "type": "function"
    },
    {
      "inputs": [
        {
          "internalType": "address",
          "name": "_account",
          "type": "address"
        }
      ],
      "name": "increaseParticipantSessionCount",
      "outputs": [],
      "stateMutability": "nonpayable",
      "type": "function"
    },
    {
      "inputs": [
        {
          "internalType": "address",
          "name": "_account",
          "type": "address"
        },
        {
          "internalType": "uint256",
          "name": "_deviation",
          "type": "uint256"
        }
      ],
      "name": "updateParticipantDeviation",
      "outputs": [],
      "stateMutability": "nonpayable",
      "type": "function"
    },
    {
      "inputs": [
        {
          "internalType": "address",
          "name": "account",
          "type": "address"
        }
      ],
      "name": "isSignIn",
      "outputs": [
        {
          "internalType": "bool",
          "name": "",
          "type": "bool"
        }
      ],
      "stateMutability": "view",
      "type": "function",
      "constant": true
    },
    {
      "inputs": [],
      "name": "checkRole",
      "outputs": [
        {
          "internalType": "uint256",
          "name": "",
          "type": "uint256"
        }
      ],
      "stateMutability": "view",
      "type": "function",
      "constant": true
    }
  ],
  "bytecode": "0x60806040526000600355600060065534801561001a57600080fd5b50336000806101000a81548173ffffffffffffffffffffffffffffffffffffffff021916908373ffffffffffffffffffffffffffffffffffffffff16021790555060008054906101000a900473ffffffffffffffffffffffffffffffffffffffff1673ffffffffffffffffffffffffffffffffffffffff16600073ffffffffffffffffffffffffffffffffffffffff167fbf265e8326285a2747e33e54d5945f7111f2b5edb826eb8c08d4677779b3ff9760405160405180910390a36153f1806100e56000396000f3fe608060405260043610620001335760003560e01c8063985fddea11620000af578063ab150226116200006d578063ab15022614620003d6578063b3b548eb1462000406578063d716c5491462000434578063e425349e1462000478578063ed214fff14620004a6576200013b565b8063985fddea14620002e45780639e4cda431462000304578063a3bfdf471462000334578063a79ddddc1462000362578063a961cb9c1462000392576200013b565b806367677ce511620000fd57806367677ce514620001fc5780636e9960c3146200022a5780638f283970146200025a5780639214613c1462000288578063937f4a2614620002b6576200013b565b80630482aa8214620001405780633ffbd47f146200017057806351650ecb146200019e57806361503e4514620001cc576200013b565b366200013b57005b600080fd5b3480156200014d57600080fd5b5062000158620004d6565b60405162000167919062001bdf565b60405180910390f35b3480156200017d57600080fd5b506200019c600480360381019062000196919062001d72565b62000522565b005b348015620001ab57600080fd5b50620001ca6004803603810190620001c4919062001e5c565b62000743565b005b348015620001d957600080fd5b50620001e462000852565b604051620001f3919062002220565b60405180910390f35b3480156200020957600080fd5b5062000228600480360381019062000222919062002371565b62000a3a565b005b3480156200023757600080fd5b506200024262000b47565b60405162000251919062002451565b60405180910390f35b3480156200026757600080fd5b5062000286600480360381019062000280919062001e5c565b62000b70565b005b3480156200029557600080fd5b50620002b46004803603810190620002ae919062001d72565b62000c80565b005b348015620002c357600080fd5b50620002e26004803603810190620002dc91906200246e565b62000f0b565b005b620003026004803603810190620002fc9190620024b5565b62000fc5565b005b3480156200031157600080fd5b506200031c62001137565b6040516200032b9190620025a1565b60405180910390f35b3480156200034157600080fd5b506200036060048036038101906200035a9190620025be565b62001149565b005b3480156200036f57600080fd5b506200037a62001242565b6040516200038991906200269d565b60405180910390f35b3480156200039f57600080fd5b50620003be6004803603810190620003b8919062001e5c565b6200125c565b604051620003cd9190620025a1565b60405180910390f35b348015620003e357600080fd5b50620003ee620012f7565b604051620003fd9190620025a1565b60405180910390f35b3480156200041357600080fd5b506200043260048036038101906200042c9190620026c1565b6200134e565b005b3480156200044157600080fd5b506200046060048036038101906200045a919062001e5c565b6200154d565b6040516200046f91906200269d565b60405180910390f35b3480156200048557600080fd5b50620004a460048036038101906200049e9190620026c1565b62001750565b005b348015620004b357600080fd5b50620004be62001857565b604051620004cd919062002874565b60405180910390f35b600060011515620004e6620012f7565b15151415620004f957600190506200051f565b600115156200050762001137565b151514156200051a57600290506200051f565b600090505b90565b60006040518060c001604052808481526020018381526020013373ffffffffffffffffffffffffffffffffffffffff1681526020016001815260200160008152602001600654815250905060048190806001815401808255809150506001900390600052602060002090600602016000909190919091506000820151816000019080519060200190620005b792919062001a60565b506020820151816001019080519060200190620005d692919062001a60565b5060408201518160020160006101000a81548173ffffffffffffffffffffffffffffffffffffffff021916908373ffffffffffffffffffffffffffffffffffffffff160217905550606082015181600301556080820151816004015560a08201518160050155505080600560003373ffffffffffffffffffffffffffffffffffffffff1673ffffffffffffffffffffffffffffffffffffffff16815260200190815260200160002060008201518160000190805190602001906200069c92919062001a60565b506020820151816001019080519060200190620006bb92919062001a60565b5060408201518160020160006101000a81548173ffffffffffffffffffffffffffffffffffffffff021916908373ffffffffffffffffffffffffffffffffffffffff160217905550606082015181600301556080820151816004015560a08201518160050155905050600660008154809291906200073990620028c7565b9190505550505050565b60006001600560008473ffffffffffffffffffffffffffffffffffffffff1673ffffffffffffffffffffffffffffffffffffffff1681526020019081526020016000206004015462000796919062002915565b905080600560008473ffffffffffffffffffffffffffffffffffffffff1673ffffffffffffffffffffffffffffffffffffffff16815260200190815260200160002060040181905550806004600560008573ffffffffffffffffffffffffffffffffffffffff1673ffffffffffffffffffffffffffffffffffffffff168152602001908152602001600020600501548154811062000839576200083862002972565b5b9060005260206000209060060201600401819055505050565b606060008060035467ffffffffffffffff81111562000876576200087562001c2b565b5b604051908082528060200260200182016040528015620008b357816020015b6200089f62001af1565b815260200190600190039081620008955790505b509050600091505b60035482101562000a3257600060018381548110620008df57620008de62002972565b5b9060005260206000200160009054906101000a900473ffffffffffffffffffffffffffffffffffffffff16905060008060008060008060008773ffffffffffffffffffffffffffffffffffffffff16635a9b0b896040518163ffffffff1660e01b8152600401600060405180830381865afa15801562000963573d6000803e3d6000fd5b505050506040513d6000823e3d601f19601f820116820180604052508101906200098e919062002b26565b965096509650965096509650965060006040518061010001604052806003548152602001898152602001888152602001878152602001868152602001856001811115620009e057620009df6200202e565b5b8152602001848152602001838152509050808a8c8151811062000a085762000a0762002972565b5b6020026020010181905250505050505050505050818062000a2990620028c7565b925050620008bb565b809250505090565b6001151562000a48620012f7565b15151462000a8d576040517f08c379a000000000000000000000000000000000000000000000000000000000815260040162000a849062002c97565b60405180910390fd5b6001848154811062000aa45762000aa362002972565b5b9060005260206000200160009054906101000a900473ffffffffffffffffffffffffffffffffffffffff1673ffffffffffffffffffffffffffffffffffffffff16631d7e99c58484846040518463ffffffff1660e01b815260040162000b0d9392919062002d8c565b600060405180830381600087803b15801562000b2857600080fd5b505af115801562000b3d573d6000803e3d6000fd5b5050505050505050565b60008060009054906101000a900473ffffffffffffffffffffffffffffffffffffffff16905090565b6001151562000b7e620012f7565b15151462000bc3576040517f08c379a000000000000000000000000000000000000000000000000000000000815260040162000bba9062002c97565b60405180910390fd5b8073ffffffffffffffffffffffffffffffffffffffff1660008054906101000a900473ffffffffffffffffffffffffffffffffffffffff1673ffffffffffffffffffffffffffffffffffffffff167fbf265e8326285a2747e33e54d5945f7111f2b5edb826eb8c08d4677779b3ff9760405160405180910390a3806000806101000a81548173ffffffffffffffffffffffffffffffffffffffff021916908373ffffffffffffffffffffffffffffffffffffffff16021790555050565b3373ffffffffffffffffffffffffffffffffffffffff16600560003373ffffffffffffffffffffffffffffffffffffffff1673ffffffffffffffffffffffffffffffffffffffff16815260200190815260200160002060020160009054906101000a900473ffffffffffffffffffffffffffffffffffffffff1673ffffffffffffffffffffffffffffffffffffffff161462000d53576040517f08c379a000000000000000000000000000000000000000000000000000000000815260040162000d4a9062002e2e565b60405180910390fd5b81600560003373ffffffffffffffffffffffffffffffffffffffff1673ffffffffffffffffffffffffffffffffffffffff168152602001908152602001600020600001908051906020019062000dab92919062001a60565b5080600560003373ffffffffffffffffffffffffffffffffffffffff1673ffffffffffffffffffffffffffffffffffffffff168152602001908152602001600020600101908051906020019062000e0492919062001a60565b50816004600560003373ffffffffffffffffffffffffffffffffffffffff1673ffffffffffffffffffffffffffffffffffffffff168152602001908152602001600020600501548154811062000e5f5762000e5e62002972565b5b9060005260206000209060060201600001908051906020019062000e8592919062001a60565b50806004600560003373ffffffffffffffffffffffffffffffffffffffff1673ffffffffffffffffffffffffffffffffffffffff168152602001908152602001600020600501548154811062000ee05762000edf62002972565b5b9060005260206000209060060201600101908051906020019062000f0692919062001a60565b505050565b80600560008473ffffffffffffffffffffffffffffffffffffffff1673ffffffffffffffffffffffffffffffffffffffff16815260200190815260200160002060030181905550806004600560008573ffffffffffffffffffffffffffffffffffffffff1673ffffffffffffffffffffffffffffffffffffffff168152602001908152602001600020600501548154811062000fac5762000fab62002972565b5b9060005260206000209060060201600301819055505050565b6001151562000fd3620012f7565b15151462001018576040517f08c379a00000000000000000000000000000000000000000000000000000000081526004016200100f9062002c97565b60405180910390fd5b60003085858585346040516200102e9062001b4b565b6200103f9695949392919062002e50565b604051809103906000f0801580156200105c573d6000803e3d6000fd5b5090506001819080600181540180825580915050600190039060005260206000200160009091909190916101000a81548173ffffffffffffffffffffffffffffffffffffffff021916908373ffffffffffffffffffffffffffffffffffffffff1602179055508060026000600354815260200190815260200160002060006101000a81548173ffffffffffffffffffffffffffffffffffffffff021916908373ffffffffffffffffffffffffffffffffffffffff160217905550600360008154809291906200112b90620028c7565b91905055505050505050565b600062001144336200125c565b905090565b6001151562001157620012f7565b1515146200119c576040517f08c379a0000000000000000000000000000000000000000000000000000000008152600401620011939062002c97565b60405180910390fd5b60018181548110620011b357620011b262002972565b5b9060005260206000200160009054906101000a900473ffffffffffffffffffffffffffffffffffffffff1673ffffffffffffffffffffffffffffffffffffffff166343d726d66040518163ffffffff1660e01b8152600401600060405180830381600087803b1580156200122657600080fd5b505af11580156200123b573d6000803e3d6000fd5b5050505050565b6200124c62001b59565b62001257336200154d565b905090565b60008073ffffffffffffffffffffffffffffffffffffffff16600560008473ffffffffffffffffffffffffffffffffffffffff1673ffffffffffffffffffffffffffffffffffffffff16815260200190815260200160002060020160009054906101000a900473ffffffffffffffffffffffffffffffffffffffff1673ffffffffffffffffffffffffffffffffffffffff1614159050919050565b60008060009054906101000a900473ffffffffffffffffffffffffffffffffffffffff1673ffffffffffffffffffffffffffffffffffffffff163373ffffffffffffffffffffffffffffffffffffffff1614905090565b62001359336200125c565b6200139b576040517f08c379a0000000000000000000000000000000000000000000000000000000008152600401620013929062002f22565b60405180910390fd5b6000151560018381548110620013b657620013b562002972565b5b9060005260206000200160009054906101000a900473ffffffffffffffffffffffffffffffffffffffff1673ffffffffffffffffffffffffffffffffffffffff1663c2b6b58c6040518163ffffffff1660e01b8152600401602060405180830381865afa1580156200142c573d6000803e3d6000fd5b505050506040513d601f19601f8201168201806040525081019062001452919062002f75565b15151462001497576040517f08c379a00000000000000000000000000000000000000000000000000000000081526004016200148e9062002ff7565b60405180910390fd5b60018281548110620014ae57620014ad62002972565b5b9060005260206000200160009054906101000a900473ffffffffffffffffffffffffffffffffffffffff1673ffffffffffffffffffffffffffffffffffffffff16633b9af89b33836040518363ffffffff1660e01b81526004016200151592919062003019565b600060405180830381600087803b1580156200153057600080fd5b505af115801562001545573d6000803e3d6000fd5b505050505050565b6200155762001b59565b600560008373ffffffffffffffffffffffffffffffffffffffff1673ffffffffffffffffffffffffffffffffffffffff1681526020019081526020016000206040518060c0016040529081600082018054620015b39062003075565b80601f0160208091040260200160405190810160405280929190818152602001828054620015e19062003075565b8015620016325780601f10620016065761010080835404028352916020019162001632565b820191906000526020600020905b8154815290600101906020018083116200161457829003601f168201915b505050505081526020016001820180546200164d9062003075565b80601f01602080910402602001604051908101604052809291908181526020018280546200167b9062003075565b8015620016cc5780601f10620016a057610100808354040283529160200191620016cc565b820191906000526020600020905b815481529060010190602001808311620016ae57829003601f168201915b505050505081526020016002820160009054906101000a900473ffffffffffffffffffffffffffffffffffffffff1673ffffffffffffffffffffffffffffffffffffffff1673ffffffffffffffffffffffffffffffffffffffff16815260200160038201548152602001600482015481526020016005820154815250509050919050565b600115156200175e620012f7565b151514620017a3576040517f08c379a00000000000000000000000000000000000000000000000000000000081526004016200179a9062002c97565b60405180910390fd5b60018281548110620017ba57620017b962002972565b5b9060005260206000200160009054906101000a900473ffffffffffffffffffffffffffffffffffffffff1673ffffffffffffffffffffffffffffffffffffffff16637abb4416826040518263ffffffff1660e01b81526004016200181f919062001bdf565b600060405180830381600087803b1580156200183a57600080fd5b505af11580156200184f573d6000803e3d6000fd5b505050505050565b60606004805480602002602001604051908101604052809291908181526020016000905b8282101562001a5757838290600052602060002090600602016040518060c0016040529081600082018054620018b19062003075565b80601f0160208091040260200160405190810160405280929190818152602001828054620018df9062003075565b8015620019305780601f10620019045761010080835404028352916020019162001930565b820191906000526020600020905b8154815290600101906020018083116200191257829003601f168201915b505050505081526020016001820180546200194b9062003075565b80601f0160208091040260200160405190810160405280929190818152602001828054620019799062003075565b8015620019ca5780601f106200199e57610100808354040283529160200191620019ca565b820191906000526020600020905b815481529060010190602001808311620019ac57829003601f168201915b505050505081526020016002820160009054906101000a900473ffffffffffffffffffffffffffffffffffffffff1673ffffffffffffffffffffffffffffffffffffffff1673ffffffffffffffffffffffffffffffffffffffff1681526020016003820154815260200160048201548152602001600582015481525050815260200190600101906200187b565b50505050905090565b82805462001a6e9062003075565b90600052602060002090601f01602090048101928262001a92576000855562001ade565b82601f1062001aad57805160ff191683800117855562001ade565b8280016001018555821562001ade579182015b8281111562001add57825182559160200191906001019062001ac0565b5b50905062001aed919062001ba5565b5090565b60405180610100016040528060008152602001606081526020016060815260200160608152602001600081526020016000600181111562001b375762001b366200202e565b5b815260200160008152602001600081525090565b61231080620030ac83390190565b6040518060c001604052806060815260200160608152602001600073ffffffffffffffffffffffffffffffffffffffff1681526020016000815260200160008152602001600081525090565b5b8082111562001bc057600081600090555060010162001ba6565b5090565b6000819050919050565b62001bd98162001bc4565b82525050565b600060208201905062001bf6600083018462001bce565b92915050565b6000604051905090565b600080fd5b600080fd5b600080fd5b600080fd5b6000601f19601f8301169050919050565b7f4e487b7100000000000000000000000000000000000000000000000000000000600052604160045260246000fd5b62001c658262001c1a565b810181811067ffffffffffffffff8211171562001c875762001c8662001c2b565b5b80604052505050565b600062001c9c62001bfc565b905062001caa828262001c5a565b919050565b600067ffffffffffffffff82111562001ccd5762001ccc62001c2b565b5b62001cd88262001c1a565b9050602081019050919050565b82818337600083830152505050565b600062001d0b62001d058462001caf565b62001c90565b90508281526020810184848401111562001d2a5762001d2962001c15565b5b62001d3784828562001ce5565b509392505050565b600082601f83011262001d575762001d5662001c10565b5b813562001d6984826020860162001cf4565b91505092915050565b6000806040838503121562001d8c5762001d8b62001c06565b5b600083013567ffffffffffffffff81111562001dad5762001dac62001c0b565b5b62001dbb8582860162001d3f565b925050602083013567ffffffffffffffff81111562001ddf5762001dde62001c0b565b5b62001ded8582860162001d3f565b9150509250929050565b600073ffffffffffffffffffffffffffffffffffffffff82169050919050565b600062001e248262001df7565b9050919050565b62001e368162001e17565b811462001e4257600080fd5b50565b60008135905062001e568162001e2b565b92915050565b60006020828403121562001e755762001e7462001c06565b5b600062001e858482850162001e45565b91505092915050565b600081519050919050565b600082825260208201905092915050565b6000819050602082019050919050565b62001ec58162001bc4565b82525050565b600081519050919050565b600082825260208201905092915050565b60005b8381101562001f0757808201518184015260208101905062001eea565b8381111562001f17576000848401525b50505050565b600062001f2a8262001ecb565b62001f36818562001ed6565b935062001f4881856020860162001ee7565b62001f538162001c1a565b840191505092915050565b600081519050919050565b600082825260208201905092915050565b6000819050602082019050919050565b600062001f98838362001f1d565b905092915050565b6000602082019050919050565b600062001fba8262001f5e565b62001fc6818562001f69565b93508360208202850162001fda8562001f7a565b8060005b858110156200201c578484038952815162001ffa858262001f8a565b9450620020078362001fa0565b925060208a0199505060018101905062001fde565b50829750879550505050505092915050565b7f4e487b7100000000000000000000000000000000000000000000000000000000600052602160045260246000fd5b600281106200207157620020706200202e565b5b50565b600081905062002084826200205d565b919050565b6000620020968262002074565b9050919050565b620020a88162002089565b82525050565b600061010083016000830151620020c9600086018262001eba565b5060208301518482036020860152620020e3828262001f1d565b91505060408301518482036040860152620020ff828262001f1d565b915050606083015184820360608601526200211b828262001fad565b915050608083015162002132608086018262001eba565b5060a08301516200214760a08601826200209d565b5060c08301516200215c60c086018262001eba565b5060e08301516200217160e086018262001eba565b508091505092915050565b60006200218a8383620020ae565b905092915050565b6000602082019050919050565b6000620021ac8262001e8e565b620021b8818562001e99565b935083602082028501620021cc8562001eaa565b8060005b858110156200220e5784840389528151620021ec85826200217c565b9450620021f98362002192565b925060208a01995050600181019050620021d0565b50829750879550505050505092915050565b600060208201905081810360008301526200223c81846200219f565b905092915050565b6200224f8162001bc4565b81146200225b57600080fd5b50565b6000813590506200226f8162002244565b92915050565b600067ffffffffffffffff82111562002293576200229262001c2b565b5b602082029050602081019050919050565b600080fd5b6000620022c0620022ba8462002275565b62001c90565b90508083825260208201905060208402830185811115620022e657620022e5620022a4565b5b835b818110156200233457803567ffffffffffffffff8111156200230f576200230e62001c10565b5b8086016200231e898262001d3f565b85526020850194505050602081019050620022e8565b5050509392505050565b600082601f83011262002356576200235562001c10565b5b813562002368848260208601620022a9565b91505092915050565b600080600080608085870312156200238e576200238d62001c06565b5b60006200239e878288016200225e565b945050602085013567ffffffffffffffff811115620023c257620023c162001c0b565b5b620023d08782880162001d3f565b935050604085013567ffffffffffffffff811115620023f457620023f362001c0b565b5b620024028782880162001d3f565b925050606085013567ffffffffffffffff81111562002426576200242562001c0b565b5b62002434878288016200233e565b91505092959194509250565b6200244b8162001e17565b82525050565b600060208201905062002468600083018462002440565b92915050565b6000806040838503121562002488576200248762001c06565b5b6000620024988582860162001e45565b9250506020620024ab858286016200225e565b9150509250929050565b60008060008060808587031215620024d257620024d162001c06565b5b600085013567ffffffffffffffff811115620024f357620024f262001c0b565b5b620025018782880162001d3f565b945050602085013567ffffffffffffffff81111562002525576200252462001c0b565b5b620025338782880162001d3f565b935050604085013567ffffffffffffffff81111562002557576200255662001c0b565b5b62002565878288016200233e565b925050606062002578878288016200225e565b91505092959194509250565b60008115159050919050565b6200259b8162002584565b82525050565b6000602082019050620025b8600083018462002590565b92915050565b600060208284031215620025d757620025d662001c06565b5b6000620025e7848285016200225e565b91505092915050565b620025fb8162001e17565b82525050565b600060c083016000830151848203600086015262002620828262001f1d565b915050602083015184820360208601526200263c828262001f1d565b9150506040830151620026536040860182620025f0565b50606083015162002668606086018262001eba565b5060808301516200267d608086018262001eba565b5060a08301516200269260a086018262001eba565b508091505092915050565b60006020820190508181036000830152620026b9818462002601565b905092915050565b60008060408385031215620026db57620026da62001c06565b5b6000620026eb858286016200225e565b9250506020620026fe858286016200225e565b9150509250929050565b600081519050919050565b600082825260208201905092915050565b6000819050602082019050919050565b600060c083016000830151848203600086015262002753828262001f1d565b915050602083015184820360208601526200276f828262001f1d565b9150506040830151620027866040860182620025f0565b5060608301516200279b606086018262001eba565b506080830151620027b0608086018262001eba565b5060a0830151620027c560a086018262001eba565b508091505092915050565b6000620027de838362002734565b905092915050565b6000602082019050919050565b6000620028008262002708565b6200280c818562002713565b935083602082028501620028208562002724565b8060005b85811015620028625784840389528151620028408582620027d0565b94506200284d83620027e6565b925060208a0199505060018101905062002824565b50829750879550505050505092915050565b60006020820190508181036000830152620028908184620027f3565b905092915050565b7f4e487b7100000000000000000000000000000000000000000000000000000000600052601160045260246000fd5b6000620028d48262001bc4565b91507fffffffffffffffffffffffffffffffffffffffffffffffffffffffffffffffff8214156200290a576200290962002898565b5b600182019050919050565b6000620029228262001bc4565b91506200292f8362001bc4565b9250827fffffffffffffffffffffffffffffffffffffffffffffffffffffffffffffffff0382111562002967576200296662002898565b5b828201905092915050565b7f4e487b7100000000000000000000000000000000000000000000000000000000600052603260045260246000fd5b6000620029b8620029b28462001caf565b62001c90565b905082815260208101848484011115620029d757620029d662001c15565b5b620029e484828562001ee7565b509392505050565b600082601f83011262002a045762002a0362001c10565b5b815162002a16848260208601620029a1565b91505092915050565b600062002a3662002a308462002275565b62001c90565b9050808382526020820190506020840283018581111562002a5c5762002a5b620022a4565b5b835b8181101562002aaa57805167ffffffffffffffff81111562002a855762002a8462001c10565b5b80860162002a948982620029ec565b8552602085019450505060208101905062002a5e565b5050509392505050565b600082601f83011262002acc5762002acb62001c10565b5b815162002ade84826020860162002a1f565b91505092915050565b60008151905062002af88162002244565b92915050565b6002811062002b0c57600080fd5b50565b60008151905062002b208162002afe565b92915050565b600080600080600080600060e0888a03121562002b485762002b4762001c06565b5b600088015167ffffffffffffffff81111562002b695762002b6862001c0b565b5b62002b778a828b01620029ec565b975050602088015167ffffffffffffffff81111562002b9b5762002b9a62001c0b565b5b62002ba98a828b01620029ec565b965050604088015167ffffffffffffffff81111562002bcd5762002bcc62001c0b565b5b62002bdb8a828b0162002ab4565b955050606062002bee8a828b0162002ae7565b945050608062002c018a828b0162002b0f565b93505060a062002c148a828b0162002ae7565b92505060c062002c278a828b0162002ae7565b91505092959891949750929550565b600082825260208201905092915050565b7f43616c6c6572206973206e6f742041646d696e00000000000000000000000000600082015250565b600062002c7f60138362002c36565b915062002c8c8262002c47565b602082019050919050565b6000602082019050818103600083015262002cb28162002c70565b9050919050565b600062002cc68262001ecb565b62002cd2818562002c36565b935062002ce481856020860162001ee7565b62002cef8162001c1a565b840191505092915050565b600082825260208201905092915050565b600062002d188262001f5e565b62002d24818562002cfa565b93508360208202850162002d388562001f7a565b8060005b8581101562002d7a578484038952815162002d58858262001f8a565b945062002d658362001fa0565b925060208a0199505060018101905062002d3c565b50829750879550505050505092915050565b6000606082019050818103600083015262002da8818662002cb9565b9050818103602083015262002dbe818562002cb9565b9050818103604083015262002dd4818462002d0b565b9050949350505050565b7f596f7520617265206e6f7420616c6c6f77656400000000000000000000000000600082015250565b600062002e1660138362002c36565b915062002e238262002dde565b602082019050919050565b6000602082019050818103600083015262002e498162002e07565b9050919050565b600060c08201905062002e67600083018962002440565b818103602083015262002e7b818862002cb9565b9050818103604083015262002e91818762002cb9565b9050818103606083015262002ea7818662002d0b565b905062002eb8608083018562001bce565b62002ec760a083018462001bce565b979650505050505050565b7f4e6f7420616c6c6f776564206361757365206e6f74207369676e656420696e00600082015250565b600062002f0a601f8362002c36565b915062002f178262002ed2565b602082019050919050565b6000602082019050818103600083015262002f3d8162002efb565b9050919050565b62002f4f8162002584565b811462002f5b57600080fd5b50565b60008151905062002f6f8162002f44565b92915050565b60006020828403121562002f8e5762002f8d62001c06565b5b600062002f9e8482850162002f5e565b91505092915050565b7f53657373696f6e20697320636c6f7365642e0000000000000000000000000000600082015250565b600062002fdf60128362002c36565b915062002fec8262002fa7565b602082019050919050565b60006020820190508181036000830152620030128162002fd0565b9050919050565b600060408201905062003030600083018562002440565b6200303f602083018462001bce565b9392505050565b7f4e487b7100000000000000000000000000000000000000000000000000000000600052602260045260246000fd5b600060028204905060018216806200308e57607f821691505b60208210811415620030a557620030a462003046565b5b5091905056fe60806040526000600a55604051620023103803806200231083398181016040528101906200002e9190620005c6565b856000806101000a81548173ffffffffffffffffffffffffffffffffffffffff021916908373ffffffffffffffffffffffffffffffffffffffff1602179055506000600c60006101000a81548160ff02191690836001811115620000975762000096620006bf565b5b02179055508460019080519060200190620000b492919062000108565b508360029080519060200190620000cd92919062000108565b50806006819055508260039080519060200190620000ed92919062000199565b50816005819055504260078190555050505050505062000753565b82805462000116906200071d565b90600052602060002090601f0160209004810192826200013a576000855562000186565b82601f106200015557805160ff191683800117855562000186565b8280016001018555821562000186579182015b828111156200018557825182559160200191906001019062000168565b5b50905062000195919062000200565b5090565b828054828255906000526020600020908101928215620001ed579160200282015b82811115620001ec578251829080519060200190620001db92919062000108565b5091602001919060010190620001ba565b5b509050620001fc91906200021f565b5090565b5b808211156200021b57600081600090555060010162000201565b5090565b5b8082111562000243576000818162000239919062000247565b5060010162000220565b5090565b50805462000255906200071d565b6000825580601f106200026957506200028a565b601f01602090049060005260206000209081019062000289919062000200565b5b50565b6000604051905090565b600080fd5b600080fd5b600073ffffffffffffffffffffffffffffffffffffffff82169050919050565b6000620002ce82620002a1565b9050919050565b620002e081620002c1565b8114620002ec57600080fd5b50565b6000815190506200030081620002d5565b92915050565b600080fd5b600080fd5b6000601f19601f8301169050919050565b7f4e487b7100000000000000000000000000000000000000000000000000000000600052604160045260246000fd5b6200035b8262000310565b810181811067ffffffffffffffff821117156200037d576200037c62000321565b5b80604052505050565b6000620003926200028d565b9050620003a0828262000350565b919050565b600067ffffffffffffffff821115620003c357620003c262000321565b5b620003ce8262000310565b9050602081019050919050565b60005b83811015620003fb578082015181840152602081019050620003de565b838111156200040b576000848401525b50505050565b6000620004286200042284620003a5565b62000386565b9050828152602081018484840111156200044757620004466200030b565b5b62000454848285620003db565b509392505050565b600082601f83011262000474576200047362000306565b5b81516200048684826020860162000411565b91505092915050565b600067ffffffffffffffff821115620004ad57620004ac62000321565b5b602082029050602081019050919050565b600080fd5b6000620004da620004d4846200048f565b62000386565b905080838252602082019050602084028301858111156200050057620004ff620004be565b5b835b818110156200054e57805167ffffffffffffffff81111562000529576200052862000306565b5b8086016200053889826200045c565b8552602085019450505060208101905062000502565b5050509392505050565b600082601f83011262000570576200056f62000306565b5b815162000582848260208601620004c3565b91505092915050565b6000819050919050565b620005a0816200058b565b8114620005ac57600080fd5b50565b600081519050620005c08162000595565b92915050565b60008060008060008060c08789031215620005e657620005e562000297565b5b6000620005f689828a01620002ef565b965050602087015167ffffffffffffffff8111156200061a57620006196200029c565b5b6200062889828a016200045c565b955050604087015167ffffffffffffffff8111156200064c576200064b6200029c565b5b6200065a89828a016200045c565b945050606087015167ffffffffffffffff8111156200067e576200067d6200029c565b5b6200068c89828a0162000558565b93505060806200069f89828a01620005af565b92505060a0620006b289828a01620005af565b9150509295509295509295565b7f4e487b7100000000000000000000000000000000000000000000000000000000600052602160045260246000fd5b7f4e487b7100000000000000000000000000000000000000000000000000000000600052602260045260246000fd5b600060028204905060018216806200073657607f821691505b602082108114156200074d576200074c620006ee565b5b50919050565b611bad80620007636000396000f3fe608060405234801561001057600080fd5b506004361061007d5760003560e01c80635a9b0b891161005b5780635a9b0b89146100c45780637a8cf8c7146100e85780637abb441614610119578063c2b6b58c146101355761007d565b80631d7e99c5146100825780633b9af89b1461009e57806343d726d6146100ba575b600080fd5b61009c60048036038101906100979190611182565b610153565b005b6100b860048036038101906100b391906112bd565b61022b565b005b6100c261059c565b005b6100cc61065f565b6040516100df9796959493929190611517565b60405180910390f35b61010260048036038101906100fd919061159b565b61088b565b6040516101109291906115c8565b60405180910390f35b610133600480360381019061012e91906115f1565b610948565b005b61013d610bac565b60405161014a9190611639565b60405180910390f35b60008054906101000a900473ffffffffffffffffffffffffffffffffffffffff1673ffffffffffffffffffffffffffffffffffffffff163373ffffffffffffffffffffffffffffffffffffffff16146101e1576040517f08c379a00000000000000000000000000000000000000000000000000000000081526004016101d8906116a0565b60405180910390fd5b82600190805190602001906101f7929190610ddb565b50816002908051906020019061020e929190610ddb565b508060039080519060200190610225929190610e61565b50505050565b60008054906101000a900473ffffffffffffffffffffffffffffffffffffffff1673ffffffffffffffffffffffffffffffffffffffff163373ffffffffffffffffffffffffffffffffffffffff16146102b9576040517f08c379a00000000000000000000000000000000000000000000000000000000081526004016102b0906116a0565b60405180910390fd5b600073ffffffffffffffffffffffffffffffffffffffff16600b60008473ffffffffffffffffffffffffffffffffffffffff1673ffffffffffffffffffffffffffffffffffffffff16815260200190815260200160002060000160009054906101000a900473ffffffffffffffffffffffffffffffffffffffff1673ffffffffffffffffffffffffffffffffffffffff161461055057600060405180606001604052808473ffffffffffffffffffffffffffffffffffffffff168152602001838152602001600a548152509050806009600a548154811061039d5761039c6116c0565b5b906000526020600020906003020160008201518160000160006101000a81548173ffffffffffffffffffffffffffffffffffffffff021916908373ffffffffffffffffffffffffffffffffffffffff160217905550602082015181600101556040820151816002015590505080600b60008573ffffffffffffffffffffffffffffffffffffffff1673ffffffffffffffffffffffffffffffffffffffff16815260200190815260200160002060008201518160000160006101000a81548173ffffffffffffffffffffffffffffffffffffffff021916908373ffffffffffffffffffffffffffffffffffffffff1602179055506020820151816001015560408201518160020155905050600a60008154809291906104ba9061171e565b919050555060008054906101000a900473ffffffffffffffffffffffffffffffffffffffff1673ffffffffffffffffffffffffffffffffffffffff166351650ecb846040518263ffffffff1660e01b81526004016105189190611776565b600060405180830381600087803b15801561053257600080fd5b505af1158015610546573d6000803e3d6000fd5b5050505050610598565b80600b60008473ffffffffffffffffffffffffffffffffffffffff1673ffffffffffffffffffffffffffffffffffffffff168152602001908152602001600020600101819055505b5050565b60008054906101000a900473ffffffffffffffffffffffffffffffffffffffff1673ffffffffffffffffffffffffffffffffffffffff163373ffffffffffffffffffffffffffffffffffffffff161461062a576040517f08c379a0000000000000000000000000000000000000000000000000000000008152600401610621906116a0565b60405180910390fd5b6001600c60006101000a81548160ff021916908360018111156106505761064f6114a0565b5b021790555061065d610c91565b565b6060806060600080600080600160026003600554600c60009054906101000a900460ff16600454600854868054610695906117c0565b80601f01602080910402602001604051908101604052809291908181526020018280546106c1906117c0565b801561070e5780601f106106e35761010080835404028352916020019161070e565b820191906000526020600020905b8154815290600101906020018083116106f157829003601f168201915b50505050509650858054610721906117c0565b80601f016020809104026020016040519081016040528092919081815260200182805461074d906117c0565b801561079a5780601f1061076f5761010080835404028352916020019161079a565b820191906000526020600020905b81548152906001019060200180831161077d57829003601f168201915b5050505050955084805480602002602001604051908101604052809291908181526020016000905b8282101561086e5783829060005260206000200180546107e1906117c0565b80601f016020809104026020016040519081016040528092919081815260200182805461080d906117c0565b801561085a5780601f1061082f5761010080835404028352916020019161085a565b820191906000526020600020905b81548152906001019060200180831161083d57829003601f168201915b5050505050815260200190600101906107c2565b505050509450965096509650965096509650965090919293949596565b60008060008060009054906101000a900473ffffffffffffffffffffffffffffffffffffffff1673ffffffffffffffffffffffffffffffffffffffff1663d716c549856040518263ffffffff1660e01b81526004016108ea9190611776565b6000604051808303816000875af1158015610909573d6000803e3d6000fd5b505050506040513d6000823e3d601f19601f82011682018060405250810190610932919061196e565b9050806060015181608001519250925050915091565b60008054906101000a900473ffffffffffffffffffffffffffffffffffffffff1673ffffffffffffffffffffffffffffffffffffffff163373ffffffffffffffffffffffffffffffffffffffff16146109d6576040517f08c379a00000000000000000000000000000000000000000000000000000000081526004016109cd906116a0565b60405180910390fd5b8060088190555060005b600a548111610ba8576000600982815481106109ff576109fe6116c0565b5b90600052602060002090600302016040518060600160405290816000820160009054906101000a900473ffffffffffffffffffffffffffffffffffffffff1673ffffffffffffffffffffffffffffffffffffffff1673ffffffffffffffffffffffffffffffffffffffff168152602001600182015481526020016002820154815250509050600081600001519050600080610a998361088b565b915091506000606487610aba87602001518a610ab591906119b7565b610db9565b610ac49190611a1a565b610ace9190611a4b565b90506000600183610adf9190611aa5565b828486610aec9190611a4b565b610af69190611aa5565b610b009190611a1a565b905060008054906101000a900473ffffffffffffffffffffffffffffffffffffffff1673ffffffffffffffffffffffffffffffffffffffff1663937f4a2686836040518363ffffffff1660e01b8152600401610b5d929190611afb565b600060405180830381600087803b158015610b7757600080fd5b505af1158015610b8b573d6000803e3d6000fd5b505050505050505050508080610ba09061171e565b9150506109e0565b5050565b60008060009054906101000a900473ffffffffffffffffffffffffffffffffffffffff1673ffffffffffffffffffffffffffffffffffffffff163373ffffffffffffffffffffffffffffffffffffffff1614610c3d576040517f08c379a0000000000000000000000000000000000000000000000000000000008152600401610c34906116a0565b60405180910390fd5b600180811115610c5057610c4f6114a0565b5b600c60009054906101000a900460ff166001811115610c7257610c716114a0565b5b1480610c8c575042600554600754610c8a9190611aa5565b115b905090565b60008060008092505b600a548311610da257600060098481548110610cb957610cb86116c0565b5b90600052602060002090600302016040518060600160405290816000820160009054906101000a900473ffffffffffffffffffffffffffffffffffffffff1673ffffffffffffffffffffffffffffffffffffffff1673ffffffffffffffffffffffffffffffffffffffff1681526020016001820154815260200160028201548152505090506000816000015190506000610d528261088b565b5090508085610d619190611aa5565b9450806064610d7091906119b7565b8360200151610d7f9190611a4b565b84610d8a9190611aa5565b93505050508280610d9a9061171e565b935050610c9a565b8181610dae9190611a1a565b600481905550505050565b600080821215610dd25781610dcd90611b2e565b610dd4565b815b9050919050565b828054610de7906117c0565b90600052602060002090601f016020900481019282610e095760008555610e50565b82601f10610e2257805160ff1916838001178555610e50565b82800160010185558215610e50579182015b82811115610e4f578251825591602001919060010190610e34565b5b509050610e5d9190610ec1565b5090565b828054828255906000526020600020908101928215610eb0579160200282015b82811115610eaf578251829080519060200190610e9f929190610ddb565b5091602001919060010190610e81565b5b509050610ebd9190610ede565b5090565b5b80821115610eda576000816000905550600101610ec2565b5090565b5b80821115610efe5760008181610ef59190610f02565b50600101610edf565b5090565b508054610f0e906117c0565b6000825580601f10610f205750610f3f565b601f016020900490600052602060002090810190610f3e9190610ec1565b5b50565b6000604051905090565b600080fd5b600080fd5b600080fd5b600080fd5b6000601f19601f8301169050919050565b7f4e487b7100000000000000000000000000000000000000000000000000000000600052604160045260246000fd5b610fa982610f60565b810181811067ffffffffffffffff82111715610fc857610fc7610f71565b5b80604052505050565b6000610fdb610f42565b9050610fe78282610fa0565b919050565b600067ffffffffffffffff82111561100757611006610f71565b5b61101082610f60565b9050602081019050919050565b82818337600083830152505050565b600061103f61103a84610fec565b610fd1565b90508281526020810184848401111561105b5761105a610f5b565b5b61106684828561101d565b509392505050565b600082601f83011261108357611082610f56565b5b813561109384826020860161102c565b91505092915050565b600067ffffffffffffffff8211156110b7576110b6610f71565b5b602082029050602081019050919050565b600080fd5b60006110e06110db8461109c565b610fd1565b90508083825260208201905060208402830185811115611103576111026110c8565b5b835b8181101561114a57803567ffffffffffffffff81111561112857611127610f56565b5b808601611135898261106e565b85526020850194505050602081019050611105565b5050509392505050565b600082601f83011261116957611168610f56565b5b81356111798482602086016110cd565b91505092915050565b60008060006060848603121561119b5761119a610f4c565b5b600084013567ffffffffffffffff8111156111b9576111b8610f51565b5b6111c58682870161106e565b935050602084013567ffffffffffffffff8111156111e6576111e5610f51565b5b6111f28682870161106e565b925050604084013567ffffffffffffffff81111561121357611212610f51565b5b61121f86828701611154565b9150509250925092565b600073ffffffffffffffffffffffffffffffffffffffff82169050919050565b600061125482611229565b9050919050565b61126481611249565b811461126f57600080fd5b50565b6000813590506112818161125b565b92915050565b6000819050919050565b61129a81611287565b81146112a557600080fd5b50565b6000813590506112b781611291565b92915050565b600080604083850312156112d4576112d3610f4c565b5b60006112e285828601611272565b92505060206112f3858286016112a8565b9150509250929050565b600081519050919050565b600082825260208201905092915050565b60005b8381101561133757808201518184015260208101905061131c565b83811115611346576000848401525b50505050565b6000611357826112fd565b6113618185611308565b9350611371818560208601611319565b61137a81610f60565b840191505092915050565b600081519050919050565b600082825260208201905092915050565b6000819050602082019050919050565b600082825260208201905092915050565b60006113cd826112fd565b6113d781856113b1565b93506113e7818560208601611319565b6113f081610f60565b840191505092915050565b600061140783836113c2565b905092915050565b6000602082019050919050565b600061142782611385565b6114318185611390565b935083602082028501611443856113a1565b8060005b8581101561147f578484038952815161146085826113fb565b945061146b8361140f565b925060208a01995050600181019050611447565b50829750879550505050505092915050565b61149a81611287565b82525050565b7f4e487b7100000000000000000000000000000000000000000000000000000000600052602160045260246000fd5b600281106114e0576114df6114a0565b5b50565b60008190506114f1826114cf565b919050565b6000611501826114e3565b9050919050565b611511816114f6565b82525050565b600060e0820190508181036000830152611531818a61134c565b90508181036020830152611545818961134c565b90508181036040830152611559818861141c565b90506115686060830187611491565b6115756080830186611508565b61158260a0830185611491565b61158f60c0830184611491565b98975050505050505050565b6000602082840312156115b1576115b0610f4c565b5b60006115bf84828501611272565b91505092915050565b60006040820190506115dd6000830185611491565b6115ea6020830184611491565b9392505050565b60006020828403121561160757611606610f4c565b5b6000611615848285016112a8565b91505092915050565b60008115159050919050565b6116338161161e565b82525050565b600060208201905061164e600083018461162a565b92915050565b7f4f6e6c7920706172656e7420636f6e747261637420697320616c6c6f77000000600082015250565b600061168a601d83611308565b915061169582611654565b602082019050919050565b600060208201905081810360008301526116b98161167d565b9050919050565b7f4e487b7100000000000000000000000000000000000000000000000000000000600052603260045260246000fd5b7f4e487b7100000000000000000000000000000000000000000000000000000000600052601160045260246000fd5b600061172982611287565b91507fffffffffffffffffffffffffffffffffffffffffffffffffffffffffffffffff82141561175c5761175b6116ef565b5b600182019050919050565b61177081611249565b82525050565b600060208201905061178b6000830184611767565b92915050565b7f4e487b7100000000000000000000000000000000000000000000000000000000600052602260045260246000fd5b600060028204905060018216806117d857607f821691505b602082108114156117ec576117eb611791565b5b50919050565b600080fd5b600080fd5b600061180f61180a84610fec565b610fd1565b90508281526020810184848401111561182b5761182a610f5b565b5b611836848285611319565b509392505050565b600082601f83011261185357611852610f56565b5b81516118638482602086016117fc565b91505092915050565b60008151905061187b8161125b565b92915050565b60008151905061189081611291565b92915050565b600060c082840312156118ac576118ab6117f2565b5b6118b660c0610fd1565b9050600082015167ffffffffffffffff8111156118d6576118d56117f7565b5b6118e28482850161183e565b600083015250602082015167ffffffffffffffff811115611906576119056117f7565b5b6119128482850161183e565b60208301525060406119268482850161186c565b604083015250606061193a84828501611881565b606083015250608061194e84828501611881565b60808301525060a061196284828501611881565b60a08301525092915050565b60006020828403121561198457611983610f4c565b5b600082015167ffffffffffffffff8111156119a2576119a1610f51565b5b6119ae84828501611896565b91505092915050565b60006119c282611287565b91506119cd83611287565b9250828210156119e0576119df6116ef565b5b828203905092915050565b7f4e487b7100000000000000000000000000000000000000000000000000000000600052601260045260246000fd5b6000611a2582611287565b9150611a3083611287565b925082611a4057611a3f6119eb565b5b828204905092915050565b6000611a5682611287565b9150611a6183611287565b9250817fffffffffffffffffffffffffffffffffffffffffffffffffffffffffffffffff0483118215151615611a9a57611a996116ef565b5b828202905092915050565b6000611ab082611287565b9150611abb83611287565b9250827fffffffffffffffffffffffffffffffffffffffffffffffffffffffffffffffff03821115611af057611aef6116ef565b5b828201905092915050565b6000604082019050611b106000830185611767565b611b1d6020830184611491565b9392505050565b6000819050919050565b6000611b3982611b24565b91507f8000000000000000000000000000000000000000000000000000000000000000821415611b6c57611b6b6116ef565b5b81600003905091905056fea2646970667358221220e40ddfe38fcfc1e5af7f8437eb9321bc300e4680e96d2e9f42aeb103d7fe25d764736f6c634300080c0033a26469706673582212207b9534685b3b7eeade851dfb251ad296e2373f3eb8373db54fb842d59b41002e64736f6c634300080c0033",
  "immutableReferences": {},
  "source": "// SPDX-License-Identifier: GPL-3.0\n\npragma solidity >=0.8.0;\n\nimport \"./Session.sol\";\nimport \"./Admin.sol\";\nimport \"./Type.sol\";\n\ncontract Main is Admin {\n    Session[] private sessionList;\n    mapping(uint256 => Session) private sessionMap;\n    uint256 sessionIndex = 0;\n\n    Participant[] private participantList;\n    mapping(address => Participant) private participantMap;\n    uint256 participantIndex = 0;\n\n    modifier isParticipant() {\n        require(isSignIn(msg.sender), \"Not allowed cause not signed in\");\n        _;\n    }\n\n    // modifier isValidSession(uint index) {\n    //     require(sessionMap[index].parentContract == address(this),\"Only valid session can call\");\n    //     _;\n    // }\n\n    constructor() {}\n\n    function initSession(\n        string memory _name,\n        string memory _description,\n        string[] memory _images,\n        uint256 _timeout\n    ) public payable isAdmin {\n        Session session = new Session(\n            address(this),\n            _name,\n            _description,\n            _images,\n            _timeout,\n            msg.value\n        );\n        sessionList.push(session);\n        sessionMap[sessionIndex] = session;\n        sessionIndex++;\n    }\n\n    function closeSession(uint256 _sessionIndex) public isAdmin {\n        sessionList[_sessionIndex].close();\n    }\n\n    function setFinalPrice(uint256 _sessionIndex, uint256 _finalPrice)\n        public\n        isAdmin\n    {\n        sessionList[_sessionIndex].updateFinalPrice(_finalPrice);\n    }\n\n    function getSessions() public view returns (SessionInfo[] memory) {\n        uint256 i;\n        SessionInfo[] memory result = new SessionInfo[](sessionIndex);\n\n        for (i = 0; i < sessionIndex; i++) {\n            Session currentSession = sessionList[i];\n            (\n                string memory name,\n                string memory description,\n                string[] memory images,\n                uint256 timeout,\n                SessionState state,\n                uint256 proposePrice,\n                uint256 finalPrice\n            ) = currentSession.getInfo();\n            SessionInfo memory info = SessionInfo(\n                sessionIndex,\n                name,\n                description,\n                images,\n                timeout,\n                state,\n                proposePrice,\n                finalPrice\n            );\n            result[i] = info;\n        }\n\n        return result;\n    }\n\n    function updateSession(\n        uint256 _sessionIndex,\n        string memory _name,\n        string memory _description,\n        string[] memory _images\n    ) public isAdmin {\n        sessionList[_sessionIndex].update(_name, _description, _images);\n    }\n\n    function submitPrice(uint256 _sessionIndex, uint256 _price)\n        public\n        isParticipant\n    {\n        require(\n            sessionList[_sessionIndex].isClosed() == false,\n            \"Session is closed.\"\n        );\n        //require session is not closed.\n\n        sessionList[_sessionIndex].submitPrice(msg.sender, _price);\n    }\n\n    function getParticipantList() public view returns (Participant[] memory) {\n        return participantList;\n    }\n\n    function register(string memory _email, string memory _name) public {\n        Participant memory participant = Participant(\n            _email,\n            _name,\n            msg.sender,\n            1,\n            0,\n            participantIndex\n        );\n        participantList.push(participant);\n        participantMap[msg.sender] = participant;\n        participantIndex++;\n    }\n\n    function getParticipantDetail(address _account)\n        public\n        view\n        returns (Participant memory)\n    {\n        return participantMap[_account];\n    }\n\n    function getCurrentParticiapntDetail()\n        public\n        view\n        returns (Participant memory)\n    {\n        return getParticipantDetail(msg.sender);\n    }\n\n    function signIn() public view returns (bool) {\n        return isSignIn(msg.sender);\n    }\n\n    function updateParticipantInfo(string memory _email, string memory _name)\n        public\n    {\n        require(\n            participantMap[msg.sender].account == msg.sender,\n            \"You are not allowed\"\n        );\n        participantMap[msg.sender].email = _email;\n        participantMap[msg.sender].name = _name;\n        participantList[participantMap[msg.sender].index].email = _email;\n        participantList[participantMap[msg.sender].index].name = _name;\n    }\n\n    function increaseParticipantSessionCount(address _account) public {\n        uint256 newCount = participantMap[_account].sessionsCount + 1;\n        participantMap[_account].sessionsCount = newCount;\n        participantList[participantMap[_account].index]\n            .sessionsCount = newCount;\n    }\n\n    function updateParticipantDeviation(address _account, uint256 _deviation)\n        public\n    {\n        participantMap[_account].deviation = _deviation;\n        participantList[participantMap[_account].index].deviation = _deviation;\n    }\n\n    function isSignIn(address account) public view returns (bool) {\n        return participantMap[account].account != address(0);\n    }\n\n    function checkRole() public view returns (uint256) {\n        if (checkAdmin() == true) return 1;\n        if (signIn() == true) return 2;\n        return 0;\n    }\n\n    receive() external payable {}\n}\n",
  "sourcePath": "/Users/minh/Projects/Funix/pricing-chain/contracts/Main.sol",
  "compiler": {
    "name": "solc",
    "version": "0.8.12+commit.f00d7308.Emscripten.clang"
  },
  "schemaVersion": "3.4.5",
  "updatedAt": "2022-03-16T13:36:44.781Z",
  "networkType": "ethereum",
  "devdoc": {
    "kind": "dev",
    "methods": {},
    "version": 1
  },
  "userdoc": {
    "kind": "user",
    "methods": {},
    "version": 1
  }
}