{
  "contractName": "Main",
  "abi": [
    {
      "inputs": [],
      "stateMutability": "nonpayable",
      "type": "constructor"
    },
    {
      "anonymous": false,
      "inputs": [
        {
          "indexed": true,
          "internalType": "address",
          "name": "oldAdmin",
          "type": "address"
        },
        {
          "indexed": true,
          "internalType": "address",
          "name": "newAdmin",
          "type": "address"
        }
      ],
      "name": "AdminSet",
      "type": "event"
    },
    {
      "inputs": [
        {
          "internalType": "address",
          "name": "newAdmin",
          "type": "address"
        }
      ],
      "name": "changeAdmin",
      "outputs": [],
      "stateMutability": "nonpayable",
      "type": "function"
    },
    {
      "inputs": [],
      "name": "getAdmin",
      "outputs": [
        {
          "internalType": "address",
          "name": "",
          "type": "address"
        }
      ],
      "stateMutability": "view",
      "type": "function",
      "constant": true
    },
    {
      "stateMutability": "payable",
      "type": "receive",
      "payable": true
    },
    {
      "inputs": [
        {
          "internalType": "string",
          "name": "_name",
          "type": "string"
        },
        {
          "internalType": "string",
          "name": "_description",
          "type": "string"
        },
        {
          "internalType": "string[]",
          "name": "_images",
          "type": "string[]"
        },
        {
          "internalType": "uint256",
          "name": "_timeout",
          "type": "uint256"
        }
      ],
      "name": "initSession",
      "outputs": [],
      "stateMutability": "payable",
      "type": "function",
      "payable": true
    },
    {
      "inputs": [
        {
          "internalType": "uint256",
          "name": "_sessionIndex",
          "type": "uint256"
        }
      ],
      "name": "closeSession",
      "outputs": [],
      "stateMutability": "nonpayable",
      "type": "function"
    },
    {
      "inputs": [
        {
          "internalType": "uint256",
          "name": "_sessionIndex",
          "type": "uint256"
        },
        {
          "internalType": "uint256",
          "name": "_finalPrice",
          "type": "uint256"
        }
      ],
      "name": "setFinalPrice",
      "outputs": [],
      "stateMutability": "nonpayable",
      "type": "function"
    },
    {
      "inputs": [],
      "name": "getSessions",
      "outputs": [
        {
          "components": [
            {
              "internalType": "uint256",
              "name": "id",
              "type": "uint256"
            },
            {
              "internalType": "string",
              "name": "name",
              "type": "string"
            },
            {
              "internalType": "string",
              "name": "description",
              "type": "string"
            },
            {
              "internalType": "string[]",
              "name": "images",
              "type": "string[]"
            },
            {
              "internalType": "uint256",
              "name": "timeout",
              "type": "uint256"
            },
            {
              "internalType": "enum SessionState",
              "name": "state",
              "type": "uint8"
            },
            {
              "internalType": "uint256",
              "name": "proposePrice",
              "type": "uint256"
            },
            {
              "internalType": "uint256",
              "name": "finalPrice",
              "type": "uint256"
            },
            {
              "components": [
                {
                  "internalType": "address",
                  "name": "participantAddress",
                  "type": "address"
                },
                {
                  "internalType": "uint256",
                  "name": "price",
                  "type": "uint256"
                },
                {
                  "internalType": "uint256",
                  "name": "index",
                  "type": "uint256"
                }
              ],
              "internalType": "struct ParticipantPropose[]",
              "name": "proposeList",
              "type": "tuple[]"
            }
          ],
          "internalType": "struct SessionInfo[]",
          "name": "",
          "type": "tuple[]"
        }
      ],
      "stateMutability": "view",
      "type": "function",
      "constant": true
    },
    {
      "inputs": [
        {
          "internalType": "uint256",
          "name": "_sessionIndex",
          "type": "uint256"
        },
        {
          "internalType": "string",
          "name": "_name",
          "type": "string"
        },
        {
          "internalType": "string",
          "name": "_description",
          "type": "string"
        },
        {
          "internalType": "string[]",
          "name": "_images",
          "type": "string[]"
        }
      ],
      "name": "updateSession",
      "outputs": [],
      "stateMutability": "nonpayable",
      "type": "function"
    },
    {
      "inputs": [
        {
          "internalType": "uint256",
          "name": "_sessionIndex",
          "type": "uint256"
        },
        {
          "internalType": "uint256",
          "name": "_price",
          "type": "uint256"
        }
      ],
      "name": "submitPrice",
      "outputs": [],
      "stateMutability": "nonpayable",
      "type": "function"
    },
    {
      "inputs": [
        {
          "internalType": "uint256",
          "name": "_sessionIndex",
          "type": "uint256"
        }
      ],
      "name": "getSessionProposePrice",
      "outputs": [
        {
          "internalType": "uint256",
          "name": "",
          "type": "uint256"
        }
      ],
      "stateMutability": "view",
      "type": "function",
      "constant": true
    },
    {
      "inputs": [],
      "name": "getParticipantList",
      "outputs": [
        {
          "components": [
            {
              "internalType": "string",
              "name": "email",
              "type": "string"
            },
            {
              "internalType": "string",
              "name": "name",
              "type": "string"
            },
            {
              "internalType": "address",
              "name": "account",
              "type": "address"
            },
            {
              "internalType": "uint256",
              "name": "deviation",
              "type": "uint256"
            },
            {
              "internalType": "uint256",
              "name": "sessionsCount",
              "type": "uint256"
            },
            {
              "internalType": "uint256",
              "name": "index",
              "type": "uint256"
            }
          ],
          "internalType": "struct Participant[]",
          "name": "",
          "type": "tuple[]"
        }
      ],
      "stateMutability": "view",
      "type": "function",
      "constant": true
    },
    {
      "inputs": [
        {
          "internalType": "string",
          "name": "_email",
          "type": "string"
        },
        {
          "internalType": "string",
          "name": "_name",
          "type": "string"
        }
      ],
      "name": "register",
      "outputs": [],
      "stateMutability": "nonpayable",
      "type": "function"
    },
    {
      "inputs": [
        {
          "internalType": "address",
          "name": "_participantAddr",
          "type": "address"
        }
      ],
      "name": "getParticipantDetail",
      "outputs": [
        {
          "components": [
            {
              "internalType": "string",
              "name": "email",
              "type": "string"
            },
            {
              "internalType": "string",
              "name": "name",
              "type": "string"
            },
            {
              "internalType": "address",
              "name": "account",
              "type": "address"
            },
            {
              "internalType": "uint256",
              "name": "deviation",
              "type": "uint256"
            },
            {
              "internalType": "uint256",
              "name": "sessionsCount",
              "type": "uint256"
            },
            {
              "internalType": "uint256",
              "name": "index",
              "type": "uint256"
            }
          ],
          "internalType": "struct Participant",
          "name": "",
          "type": "tuple"
        }
      ],
      "stateMutability": "view",
      "type": "function",
      "constant": true
    },
    {
      "inputs": [],
      "name": "getCurrentParticipantDetail",
      "outputs": [
        {
          "components": [
            {
              "internalType": "string",
              "name": "email",
              "type": "string"
            },
            {
              "internalType": "string",
              "name": "name",
              "type": "string"
            },
            {
              "internalType": "address",
              "name": "account",
              "type": "address"
            },
            {
              "internalType": "uint256",
              "name": "deviation",
              "type": "uint256"
            },
            {
              "internalType": "uint256",
              "name": "sessionsCount",
              "type": "uint256"
            },
            {
              "internalType": "uint256",
              "name": "index",
              "type": "uint256"
            }
          ],
          "internalType": "struct Participant",
          "name": "",
          "type": "tuple"
        }
      ],
      "stateMutability": "view",
      "type": "function",
      "constant": true
    },
    {
      "inputs": [
        {
          "internalType": "address",
          "name": "_participantAddr",
          "type": "address"
        },
        {
          "internalType": "string",
          "name": "_email",
          "type": "string"
        },
        {
          "internalType": "string",
          "name": "_name",
          "type": "string"
        }
      ],
      "name": "updateParticipantInfo",
      "outputs": [],
      "stateMutability": "nonpayable",
      "type": "function"
    },
    {
      "inputs": [
        {
          "internalType": "string",
          "name": "_email",
          "type": "string"
        },
        {
          "internalType": "string",
          "name": "_name",
          "type": "string"
        }
      ],
      "name": "updateCurrentParticipantInfo",
      "outputs": [],
      "stateMutability": "nonpayable",
      "type": "function"
    },
    {
      "inputs": [
        {
          "internalType": "address",
          "name": "_account",
          "type": "address"
        }
      ],
      "name": "isSignIn",
      "outputs": [
        {
          "internalType": "bool",
          "name": "",
          "type": "bool"
        }
      ],
      "stateMutability": "view",
      "type": "function",
      "constant": true
    },
    {
      "inputs": [],
      "name": "checkRole",
      "outputs": [
        {
          "internalType": "uint256",
          "name": "",
          "type": "uint256"
        }
      ],
      "stateMutability": "view",
      "type": "function",
      "constant": true
    },
    {
      "inputs": [
        {
          "internalType": "address",
          "name": "_participantAddr",
          "type": "address"
        }
      ],
      "name": "increaseParticipantSessionCount",
      "outputs": [],
      "stateMutability": "nonpayable",
      "type": "function"
    },
    {
      "inputs": [
        {
          "internalType": "address",
          "name": "_participantAddr",
          "type": "address"
        },
        {
          "internalType": "uint256",
          "name": "_deviation",
          "type": "uint256"
        }
      ],
      "name": "updateParticipantDeviation",
      "outputs": [],
      "stateMutability": "nonpayable",
      "type": "function"
    }
  ],
  "bytecode": "0x60806040526000600355600060065534801561001a57600080fd5b50336000806101000a81548173ffffffffffffffffffffffffffffffffffffffff021916908373ffffffffffffffffffffffffffffffffffffffff16021790555060008054906101000a900473ffffffffffffffffffffffffffffffffffffffff1673ffffffffffffffffffffffffffffffffffffffff16600073ffffffffffffffffffffffffffffffffffffffff167fbf265e8326285a2747e33e54d5945f7111f2b5edb826eb8c08d4677779b3ff9760405160405180910390a3615d7c806100e56000396000f3fe608060405260043610620001335760003560e01c8063937f4a2611620000af578063b579bdc7116200006d578063b579bdc714620003ea578063b9e084951462000418578063d716c5491462000446578063e425349e146200048a578063ed214fff14620004b8576200013b565b8063937f4a2614620002fc578063985fddea146200032a578063a3bfdf47146200034a578063a961cb9c1462000378578063b3b548eb14620003bc576200013b565b806351650ecb11620000fd57806351650ecb146200021257806361503e45146200024057806367677ce514620002705780636e9960c3146200029e5780638f28397014620002ce576200013b565b80630482aa821462000140578063051a4b371462000170578063095e6d3614620001a05780633ffbd47f14620001e4576200013b565b366200013b57005b600080fd5b3480156200014d57600080fd5b5062000158620004e8565b60405162000167919062001f6c565b60405180910390f35b3480156200017d57600080fd5b506200018862000532565b6040516200019791906200211f565b60405180910390f35b348015620001ad57600080fd5b50620001cc6004803603810190620001c6919062002188565b6200059f565b604051620001db919062001f6c565b60405180910390f35b348015620001f157600080fd5b506200021060048036038101906200020a91906200230b565b6200065b565b005b3480156200021f57600080fd5b506200023e6004803603810190620002389190620023c1565b6200087c565b005b3480156200024d57600080fd5b50620002586200098b565b60405162000267919062002804565b60405180910390f35b3480156200027d57600080fd5b506200029c600480360381019062000296919062002924565b62000b7b565b005b348015620002ab57600080fd5b50620002b662000c88565b604051620002c5919062002a04565b60405180910390f35b348015620002db57600080fd5b50620002fa6004803603810190620002f49190620023c1565b62000cb1565b005b3480156200030957600080fd5b5062000328600480360381019062000322919062002a21565b62000dc1565b005b62000348600480360381019062000342919062002a68565b62000e7b565b005b3480156200035757600080fd5b5062000376600480360381019062000370919062002188565b62000fed565b005b3480156200038557600080fd5b50620003a460048036038101906200039e9190620023c1565b620010e6565b604051620003b3919062002b54565b60405180910390f35b348015620003c957600080fd5b50620003e86004803603810190620003e2919062002b71565b62001181565b005b348015620003f757600080fd5b5062000416600480360381019062000410919062002bb8565b62001380565b005b3480156200042557600080fd5b506200044460048036038101906200043e91906200230b565b6200158c565b005b3480156200045357600080fd5b506200047260048036038101906200046c9190620023c1565b62001817565b6040516200048191906200211f565b60405180910390f35b3480156200049757600080fd5b50620004b66004803603810190620004b0919062002b71565b62001a1a565b005b348015620004c557600080fd5b50620004d062001b21565b604051620004df919062002dbe565b60405180910390f35b600060011515620004f862001d7d565b1515036200050a57600190506200052f565b600115156200051862001dd4565b1515036200052a57600290506200052f565b600090505b90565b6200053c62001de6565b600015156200054a62001d7d565b1515146200058f576040517f08c379a0000000000000000000000000000000000000000000000000000000008152600401620005869062002e43565b60405180910390fd5b6200059a3362001817565b905090565b600060018281548110620005b857620005b762002e65565b5b9060005260206000200160009054906101000a900473ffffffffffffffffffffffffffffffffffffffff1673ffffffffffffffffffffffffffffffffffffffff16637278f4d86040518163ffffffff1660e01b8152600401602060405180830381865afa1580156200062e573d6000803e3d6000fd5b505050506040513d601f19601f8201168201806040525081019062000654919062002eab565b9050919050565b60006040518060c001604052808481526020018381526020013373ffffffffffffffffffffffffffffffffffffffff1681526020016000815260200160008152602001600654815250905060048190806001815401808255809150506001900390600052602060002090600602016000909190919091506000820151816000019080519060200190620006f092919062001e32565b5060208201518160010190805190602001906200070f92919062001e32565b5060408201518160020160006101000a81548173ffffffffffffffffffffffffffffffffffffffff021916908373ffffffffffffffffffffffffffffffffffffffff160217905550606082015181600301556080820151816004015560a08201518160050155505080600560003373ffffffffffffffffffffffffffffffffffffffff1673ffffffffffffffffffffffffffffffffffffffff1681526020019081526020016000206000820151816000019080519060200190620007d592919062001e32565b506020820151816001019080519060200190620007f492919062001e32565b5060408201518160020160006101000a81548173ffffffffffffffffffffffffffffffffffffffff021916908373ffffffffffffffffffffffffffffffffffffffff160217905550606082015181600301556080820151816004015560a0820151816005015590505060066000815480929190620008729062002f0c565b9190505550505050565b60006001600560008473ffffffffffffffffffffffffffffffffffffffff1673ffffffffffffffffffffffffffffffffffffffff16815260200190815260200160002060040154620008cf919062002f59565b905080600560008473ffffffffffffffffffffffffffffffffffffffff1673ffffffffffffffffffffffffffffffffffffffff16815260200190815260200160002060040181905550806004600560008573ffffffffffffffffffffffffffffffffffffffff1673ffffffffffffffffffffffffffffffffffffffff168152602001908152602001600020600501548154811062000972576200097162002e65565b5b9060005260206000209060060201600401819055505050565b606060008060035467ffffffffffffffff811115620009af57620009ae620021c4565b5b604051908082528060200260200182016040528015620009ec57816020015b620009d862001ec3565b815260200190600190039081620009ce5790505b509050600091505b60035482101562000b735760006001838154811062000a185762000a1762002e65565b5b9060005260206000200160009054906101000a900473ffffffffffffffffffffffffffffffffffffffff1690506000806000806000806000808873ffffffffffffffffffffffffffffffffffffffff16635a9b0b896040518163ffffffff1660e01b8152600401600060405180830381865afa15801562000a9d573d6000803e3d6000fd5b505050506040513d6000823e3d601f19601f8201168201806040525081019062000ac8919062003285565b9750975097509750975097509750975060006040518061012001604052808d81526020018a815260200189815260200188815260200187815260200186600181111562000b1a5762000b19620024ef565b5b8152602001858152602001848152602001838152509050808b8d8151811062000b485762000b4762002e65565b5b602002602001018190525050505050505050505050818062000b6a9062002f0c565b925050620009f4565b809250505090565b6001151562000b8962001d7d565b15151462000bce576040517f08c379a000000000000000000000000000000000000000000000000000000000815260040162000bc5906200341a565b60405180910390fd5b6001848154811062000be55762000be462002e65565b5b9060005260206000200160009054906101000a900473ffffffffffffffffffffffffffffffffffffffff1673ffffffffffffffffffffffffffffffffffffffff16631d7e99c58484846040518463ffffffff1660e01b815260040162000c4e939291906200350f565b600060405180830381600087803b15801562000c6957600080fd5b505af115801562000c7e573d6000803e3d6000fd5b5050505050505050565b60008060009054906101000a900473ffffffffffffffffffffffffffffffffffffffff16905090565b6001151562000cbf62001d7d565b15151462000d04576040517f08c379a000000000000000000000000000000000000000000000000000000000815260040162000cfb906200341a565b60405180910390fd5b8073ffffffffffffffffffffffffffffffffffffffff1660008054906101000a900473ffffffffffffffffffffffffffffffffffffffff1673ffffffffffffffffffffffffffffffffffffffff167fbf265e8326285a2747e33e54d5945f7111f2b5edb826eb8c08d4677779b3ff9760405160405180910390a3806000806101000a81548173ffffffffffffffffffffffffffffffffffffffff021916908373ffffffffffffffffffffffffffffffffffffffff16021790555050565b80600560008473ffffffffffffffffffffffffffffffffffffffff1673ffffffffffffffffffffffffffffffffffffffff16815260200190815260200160002060030181905550806004600560008573ffffffffffffffffffffffffffffffffffffffff1673ffffffffffffffffffffffffffffffffffffffff168152602001908152602001600020600501548154811062000e625762000e6162002e65565b5b9060005260206000209060060201600301819055505050565b6001151562000e8962001d7d565b15151462000ece576040517f08c379a000000000000000000000000000000000000000000000000000000000815260040162000ec5906200341a565b60405180910390fd5b600030858585853460405162000ee49062001f24565b62000ef59695949392919062003561565b604051809103906000f08015801562000f12573d6000803e3d6000fd5b5090506001819080600181540180825580915050600190039060005260206000200160009091909190916101000a81548173ffffffffffffffffffffffffffffffffffffffff021916908373ffffffffffffffffffffffffffffffffffffffff1602179055508060026000600354815260200190815260200160002060006101000a81548173ffffffffffffffffffffffffffffffffffffffff021916908373ffffffffffffffffffffffffffffffffffffffff1602179055506003600081548092919062000fe19062002f0c565b91905055505050505050565b6001151562000ffb62001d7d565b15151462001040576040517f08c379a000000000000000000000000000000000000000000000000000000000815260040162001037906200341a565b60405180910390fd5b6001818154811062001057576200105662002e65565b5b9060005260206000200160009054906101000a900473ffffffffffffffffffffffffffffffffffffffff1673ffffffffffffffffffffffffffffffffffffffff166343d726d66040518163ffffffff1660e01b8152600401600060405180830381600087803b158015620010ca57600080fd5b505af1158015620010df573d6000803e3d6000fd5b5050505050565b60008073ffffffffffffffffffffffffffffffffffffffff16600560008473ffffffffffffffffffffffffffffffffffffffff1673ffffffffffffffffffffffffffffffffffffffff16815260200190815260200160002060020160009054906101000a900473ffffffffffffffffffffffffffffffffffffffff1673ffffffffffffffffffffffffffffffffffffffff1614159050919050565b6200118c33620010e6565b620011ce576040517f08c379a0000000000000000000000000000000000000000000000000000000008152600401620011c59062003633565b60405180910390fd5b6000151560018381548110620011e957620011e862002e65565b5b9060005260206000200160009054906101000a900473ffffffffffffffffffffffffffffffffffffffff1673ffffffffffffffffffffffffffffffffffffffff1663c2b6b58c6040518163ffffffff1660e01b8152600401602060405180830381865afa1580156200125f573d6000803e3d6000fd5b505050506040513d601f19601f8201168201806040525081019062001285919062003686565b151514620012ca576040517f08c379a0000000000000000000000000000000000000000000000000000000008152600401620012c19062003708565b60405180910390fd5b60018281548110620012e157620012e062002e65565b5b9060005260206000200160009054906101000a900473ffffffffffffffffffffffffffffffffffffffff1673ffffffffffffffffffffffffffffffffffffffff16633b9af89b33836040518363ffffffff1660e01b8152600401620013489291906200372a565b600060405180830381600087803b1580156200136357600080fd5b505af115801562001378573d6000803e3d6000fd5b505050505050565b600115156200138e62001d7d565b151514620013d3576040517f08c379a0000000000000000000000000000000000000000000000000000000008152600401620013ca906200341a565b60405180910390fd5b81600560008573ffffffffffffffffffffffffffffffffffffffff1673ffffffffffffffffffffffffffffffffffffffff16815260200190815260200160002060000190805190602001906200142b92919062001e32565b5080600560008573ffffffffffffffffffffffffffffffffffffffff1673ffffffffffffffffffffffffffffffffffffffff16815260200190815260200160002060010190805190602001906200148492919062001e32565b50816004600560008673ffffffffffffffffffffffffffffffffffffffff1673ffffffffffffffffffffffffffffffffffffffff1681526020019081526020016000206005015481548110620014df57620014de62002e65565b5b906000526020600020906006020160000190805190602001906200150592919062001e32565b50806004600560008673ffffffffffffffffffffffffffffffffffffffff1673ffffffffffffffffffffffffffffffffffffffff168152602001908152602001600020600501548154811062001560576200155f62002e65565b5b906000526020600020906006020160010190805190602001906200158692919062001e32565b50505050565b3373ffffffffffffffffffffffffffffffffffffffff16600560003373ffffffffffffffffffffffffffffffffffffffff1673ffffffffffffffffffffffffffffffffffffffff16815260200190815260200160002060020160009054906101000a900473ffffffffffffffffffffffffffffffffffffffff1673ffffffffffffffffffffffffffffffffffffffff16146200165f576040517f08c379a00000000000000000000000000000000000000000000000000000000081526004016200165690620037a7565b60405180910390fd5b81600560003373ffffffffffffffffffffffffffffffffffffffff1673ffffffffffffffffffffffffffffffffffffffff1681526020019081526020016000206000019080519060200190620016b792919062001e32565b5080600560003373ffffffffffffffffffffffffffffffffffffffff1673ffffffffffffffffffffffffffffffffffffffff16815260200190815260200160002060010190805190602001906200171092919062001e32565b50816004600560003373ffffffffffffffffffffffffffffffffffffffff1673ffffffffffffffffffffffffffffffffffffffff16815260200190815260200160002060050154815481106200176b576200176a62002e65565b5b906000526020600020906006020160000190805190602001906200179192919062001e32565b50806004600560003373ffffffffffffffffffffffffffffffffffffffff1673ffffffffffffffffffffffffffffffffffffffff1681526020019081526020016000206005015481548110620017ec57620017eb62002e65565b5b906000526020600020906006020160010190805190602001906200181292919062001e32565b505050565b6200182162001de6565b600560008373ffffffffffffffffffffffffffffffffffffffff1673ffffffffffffffffffffffffffffffffffffffff1681526020019081526020016000206040518060c00160405290816000820180546200187d90620037f8565b80601f0160208091040260200160405190810160405280929190818152602001828054620018ab90620037f8565b8015620018fc5780601f10620018d057610100808354040283529160200191620018fc565b820191906000526020600020905b815481529060010190602001808311620018de57829003601f168201915b505050505081526020016001820180546200191790620037f8565b80601f01602080910402602001604051908101604052809291908181526020018280546200194590620037f8565b8015620019965780601f106200196a5761010080835404028352916020019162001996565b820191906000526020600020905b8154815290600101906020018083116200197857829003601f168201915b505050505081526020016002820160009054906101000a900473ffffffffffffffffffffffffffffffffffffffff1673ffffffffffffffffffffffffffffffffffffffff1673ffffffffffffffffffffffffffffffffffffffff16815260200160038201548152602001600482015481526020016005820154815250509050919050565b6001151562001a2862001d7d565b15151462001a6d576040517f08c379a000000000000000000000000000000000000000000000000000000000815260040162001a64906200341a565b60405180910390fd5b6001828154811062001a845762001a8362002e65565b5b9060005260206000200160009054906101000a900473ffffffffffffffffffffffffffffffffffffffff1673ffffffffffffffffffffffffffffffffffffffff1663bb55f25c826040518263ffffffff1660e01b815260040162001ae9919062001f6c565b600060405180830381600087803b15801562001b0457600080fd5b505af115801562001b19573d6000803e3d6000fd5b505050505050565b60606001151562001b3162001d7d565b15151462001b76576040517f08c379a000000000000000000000000000000000000000000000000000000000815260040162001b6d906200341a565b60405180910390fd5b6004805480602002602001604051908101604052809291908181526020016000905b8282101562001d7457838290600052602060002090600602016040518060c001604052908160008201805462001bce90620037f8565b80601f016020809104026020016040519081016040528092919081815260200182805462001bfc90620037f8565b801562001c4d5780601f1062001c215761010080835404028352916020019162001c4d565b820191906000526020600020905b81548152906001019060200180831162001c2f57829003601f168201915b5050505050815260200160018201805462001c6890620037f8565b80601f016020809104026020016040519081016040528092919081815260200182805462001c9690620037f8565b801562001ce75780601f1062001cbb5761010080835404028352916020019162001ce7565b820191906000526020600020905b81548152906001019060200180831162001cc957829003601f168201915b505050505081526020016002820160009054906101000a900473ffffffffffffffffffffffffffffffffffffffff1673ffffffffffffffffffffffffffffffffffffffff1673ffffffffffffffffffffffffffffffffffffffff16815260200160038201548152602001600482015481526020016005820154815250508152602001906001019062001b98565b50505050905090565b60008060009054906101000a900473ffffffffffffffffffffffffffffffffffffffff1673ffffffffffffffffffffffffffffffffffffffff163373ffffffffffffffffffffffffffffffffffffffff1614905090565b600062001de133620010e6565b905090565b6040518060c001604052806060815260200160608152602001600073ffffffffffffffffffffffffffffffffffffffff1681526020016000815260200160008152602001600081525090565b82805462001e4090620037f8565b90600052602060002090601f01602090048101928262001e64576000855562001eb0565b82601f1062001e7f57805160ff191683800117855562001eb0565b8280016001018555821562001eb0579182015b8281111562001eaf57825182559160200191906001019062001e92565b5b50905062001ebf919062001f32565b5090565b60405180610120016040528060008152602001606081526020016060815260200160608152602001600081526020016000600181111562001f095762001f08620024ef565b5b81526020016000815260200160008152602001606081525090565b612519806200382e83390190565b5b8082111562001f4d57600081600090555060010162001f33565b5090565b6000819050919050565b62001f668162001f51565b82525050565b600060208201905062001f83600083018462001f5b565b92915050565b600081519050919050565b600082825260208201905092915050565b60005b8381101562001fc557808201518184015260208101905062001fa8565b8381111562001fd5576000848401525b50505050565b6000601f19601f8301169050919050565b600062001ff98262001f89565b62002005818562001f94565b93506200201781856020860162001fa5565b620020228162001fdb565b840191505092915050565b600073ffffffffffffffffffffffffffffffffffffffff82169050919050565b60006200205a826200202d565b9050919050565b6200206c816200204d565b82525050565b6200207d8162001f51565b82525050565b600060c0830160008301518482036000860152620020a2828262001fec565b91505060208301518482036020860152620020be828262001fec565b9150506040830151620020d5604086018262002061565b506060830151620020ea606086018262002072565b506080830151620020ff608086018262002072565b5060a08301516200211460a086018262002072565b508091505092915050565b600060208201905081810360008301526200213b818462002083565b905092915050565b6000604051905090565b600080fd5b600080fd5b620021628162001f51565b81146200216e57600080fd5b50565b600081359050620021828162002157565b92915050565b600060208284031215620021a157620021a06200214d565b5b6000620021b18482850162002171565b91505092915050565b600080fd5b600080fd5b7f4e487b7100000000000000000000000000000000000000000000000000000000600052604160045260246000fd5b620021fe8262001fdb565b810181811067ffffffffffffffff8211171562002220576200221f620021c4565b5b80604052505050565b60006200223562002143565b9050620022438282620021f3565b919050565b600067ffffffffffffffff821115620022665762002265620021c4565b5b620022718262001fdb565b9050602081019050919050565b82818337600083830152505050565b6000620022a46200229e8462002248565b62002229565b905082815260208101848484011115620022c357620022c2620021bf565b5b620022d08482856200227e565b509392505050565b600082601f830112620022f057620022ef620021ba565b5b8135620023028482602086016200228d565b91505092915050565b600080604083850312156200232557620023246200214d565b5b600083013567ffffffffffffffff81111562002346576200234562002152565b5b6200235485828601620022d8565b925050602083013567ffffffffffffffff81111562002378576200237762002152565b5b6200238685828601620022d8565b9150509250929050565b6200239b816200204d565b8114620023a757600080fd5b50565b600081359050620023bb8162002390565b92915050565b600060208284031215620023da57620023d96200214d565b5b6000620023ea84828501620023aa565b91505092915050565b600081519050919050565b600082825260208201905092915050565b6000819050602082019050919050565b600081519050919050565b600082825260208201905092915050565b6000819050602082019050919050565b600062002459838362001fec565b905092915050565b6000602082019050919050565b60006200247b826200241f565b6200248781856200242a565b9350836020820285016200249b856200243b565b8060005b85811015620024dd5784840389528151620024bb85826200244b565b9450620024c88362002461565b925060208a019950506001810190506200249f565b50829750879550505050505092915050565b7f4e487b7100000000000000000000000000000000000000000000000000000000600052602160045260246000fd5b60028110620025325762002531620024ef565b5b50565b600081905062002545826200251e565b919050565b6000620025578262002535565b9050919050565b62002569816200254a565b82525050565b600081519050919050565b600082825260208201905092915050565b6000819050602082019050919050565b606082016000820151620025b3600085018262002061565b506020820151620025c8602085018262002072565b506040820151620025dd604085018262002072565b50505050565b6000620025f183836200259b565b60608301905092915050565b6000602082019050919050565b600062002617826200256f565b6200262381856200257a565b935062002630836200258b565b8060005b83811015620026675781516200264b8882620025e3565b97506200265883620025fd565b92505060018101905062002634565b5085935050505092915050565b6000610120830160008301516200268f600086018262002072565b5060208301518482036020860152620026a9828262001fec565b91505060408301518482036040860152620026c5828262001fec565b91505060608301518482036060860152620026e182826200246e565b9150506080830151620026f8608086018262002072565b5060a08301516200270d60a08601826200255e565b5060c08301516200272260c086018262002072565b5060e08301516200273760e086018262002072565b506101008301518482036101008601526200275382826200260a565b9150508091505092915050565b60006200276e838362002674565b905092915050565b6000602082019050919050565b60006200279082620023f3565b6200279c8185620023fe565b935083602082028501620027b0856200240f565b8060005b85811015620027f25784840389528151620027d0858262002760565b9450620027dd8362002776565b925060208a01995050600181019050620027b4565b50829750879550505050505092915050565b6000602082019050818103600083015262002820818462002783565b905092915050565b600067ffffffffffffffff821115620028465762002845620021c4565b5b602082029050602081019050919050565b600080fd5b6000620028736200286d8462002828565b62002229565b9050808382526020820190506020840283018581111562002899576200289862002857565b5b835b81811015620028e757803567ffffffffffffffff811115620028c257620028c1620021ba565b5b808601620028d18982620022d8565b855260208501945050506020810190506200289b565b5050509392505050565b600082601f830112620029095762002908620021ba565b5b81356200291b8482602086016200285c565b91505092915050565b600080600080608085870312156200294157620029406200214d565b5b6000620029518782880162002171565b945050602085013567ffffffffffffffff81111562002975576200297462002152565b5b6200298387828801620022d8565b935050604085013567ffffffffffffffff811115620029a757620029a662002152565b5b620029b587828801620022d8565b925050606085013567ffffffffffffffff811115620029d957620029d862002152565b5b620029e787828801620028f1565b91505092959194509250565b620029fe816200204d565b82525050565b600060208201905062002a1b6000830184620029f3565b92915050565b6000806040838503121562002a3b5762002a3a6200214d565b5b600062002a4b85828601620023aa565b925050602062002a5e8582860162002171565b9150509250929050565b6000806000806080858703121562002a855762002a846200214d565b5b600085013567ffffffffffffffff81111562002aa65762002aa562002152565b5b62002ab487828801620022d8565b945050602085013567ffffffffffffffff81111562002ad85762002ad762002152565b5b62002ae687828801620022d8565b935050604085013567ffffffffffffffff81111562002b0a5762002b0962002152565b5b62002b1887828801620028f1565b925050606062002b2b8782880162002171565b91505092959194509250565b60008115159050919050565b62002b4e8162002b37565b82525050565b600060208201905062002b6b600083018462002b43565b92915050565b6000806040838503121562002b8b5762002b8a6200214d565b5b600062002b9b8582860162002171565b925050602062002bae8582860162002171565b9150509250929050565b60008060006060848603121562002bd45762002bd36200214d565b5b600062002be486828701620023aa565b935050602084013567ffffffffffffffff81111562002c085762002c0762002152565b5b62002c1686828701620022d8565b925050604084013567ffffffffffffffff81111562002c3a5762002c3962002152565b5b62002c4886828701620022d8565b9150509250925092565b600081519050919050565b600082825260208201905092915050565b6000819050602082019050919050565b600060c083016000830151848203600086015262002c9d828262001fec565b9150506020830151848203602086015262002cb9828262001fec565b915050604083015162002cd0604086018262002061565b50606083015162002ce5606086018262002072565b50608083015162002cfa608086018262002072565b5060a083015162002d0f60a086018262002072565b508091505092915050565b600062002d28838362002c7e565b905092915050565b6000602082019050919050565b600062002d4a8262002c52565b62002d56818562002c5d565b93508360208202850162002d6a8562002c6e565b8060005b8581101562002dac578484038952815162002d8a858262002d1a565b945062002d978362002d30565b925060208a0199505060018101905062002d6e565b50829750879550505050505092915050565b6000602082019050818103600083015262002dda818462002d3d565b905092915050565b600082825260208201905092915050565b7f43616c6c65722069732041646d696e0000000000000000000000000000000000600082015250565b600062002e2b600f8362002de2565b915062002e388262002df3565b602082019050919050565b6000602082019050818103600083015262002e5e8162002e1c565b9050919050565b7f4e487b7100000000000000000000000000000000000000000000000000000000600052603260045260246000fd5b60008151905062002ea58162002157565b92915050565b60006020828403121562002ec45762002ec36200214d565b5b600062002ed48482850162002e94565b91505092915050565b7f4e487b7100000000000000000000000000000000000000000000000000000000600052601160045260246000fd5b600062002f198262001f51565b91507fffffffffffffffffffffffffffffffffffffffffffffffffffffffffffffffff820362002f4e5762002f4d62002edd565b5b600182019050919050565b600062002f668262001f51565b915062002f738362001f51565b9250827fffffffffffffffffffffffffffffffffffffffffffffffffffffffffffffffff0382111562002fab5762002faa62002edd565b5b828201905092915050565b600062002fcd62002fc78462002248565b62002229565b90508281526020810184848401111562002fec5762002feb620021bf565b5b62002ff984828562001fa5565b509392505050565b600082601f830112620030195762003018620021ba565b5b81516200302b84826020860162002fb6565b91505092915050565b60006200304b620030458462002828565b62002229565b9050808382526020820190506020840283018581111562003071576200307062002857565b5b835b81811015620030bf57805167ffffffffffffffff8111156200309a5762003099620021ba565b5b808601620030a9898262003001565b8552602085019450505060208101905062003073565b5050509392505050565b600082601f830112620030e157620030e0620021ba565b5b8151620030f384826020860162003034565b91505092915050565b600281106200310a57600080fd5b50565b6000815190506200311e81620030fc565b92915050565b600067ffffffffffffffff821115620031425762003141620021c4565b5b602082029050602081019050919050565b600080fd5b600081519050620031698162002390565b92915050565b60006060828403121562003188576200318762003153565b5b62003194606062002229565b90506000620031a68482850162003158565b6000830152506020620031bc8482850162002e94565b6020830152506040620031d28482850162002e94565b60408301525092915050565b6000620031f5620031ef8462003124565b62002229565b905080838252602082019050606084028301858111156200321b576200321a62002857565b5b835b818110156200324857806200323388826200316f565b8452602084019350506060810190506200321d565b5050509392505050565b600082601f8301126200326a5762003269620021ba565b5b81516200327c848260208601620031de565b91505092915050565b600080600080600080600080610100898b031215620032a957620032a86200214d565b5b600089015167ffffffffffffffff811115620032ca57620032c962002152565b5b620032d88b828c0162003001565b985050602089015167ffffffffffffffff811115620032fc57620032fb62002152565b5b6200330a8b828c0162003001565b975050604089015167ffffffffffffffff8111156200332e576200332d62002152565b5b6200333c8b828c01620030c9565b96505060606200334f8b828c0162002e94565b9550506080620033628b828c016200310d565b94505060a0620033758b828c0162002e94565b93505060c0620033888b828c0162002e94565b92505060e089015167ffffffffffffffff811115620033ac57620033ab62002152565b5b620033ba8b828c0162003252565b9150509295985092959890939650565b7f43616c6c6572206973206e6f742041646d696e00000000000000000000000000600082015250565b60006200340260138362002de2565b91506200340f82620033ca565b602082019050919050565b600060208201905081810360008301526200343581620033f3565b9050919050565b6000620034498262001f89565b62003455818562002de2565b93506200346781856020860162001fa5565b620034728162001fdb565b840191505092915050565b600082825260208201905092915050565b60006200349b826200241f565b620034a781856200347d565b935083602082028501620034bb856200243b565b8060005b85811015620034fd5784840389528151620034db85826200244b565b9450620034e88362002461565b925060208a01995050600181019050620034bf565b50829750879550505050505092915050565b600060608201905081810360008301526200352b81866200343c565b905081810360208301526200354181856200343c565b905081810360408301526200355781846200348e565b9050949350505050565b600060c082019050620035786000830189620029f3565b81810360208301526200358c81886200343c565b90508181036040830152620035a281876200343c565b90508181036060830152620035b881866200348e565b9050620035c9608083018562001f5b565b620035d860a083018462001f5b565b979650505050505050565b7f4e6f7420616c6c6f776564206361757365206e6f74207369676e656420696e00600082015250565b60006200361b601f8362002de2565b91506200362882620035e3565b602082019050919050565b600060208201905081810360008301526200364e816200360c565b9050919050565b620036608162002b37565b81146200366c57600080fd5b50565b600081519050620036808162003655565b92915050565b6000602082840312156200369f576200369e6200214d565b5b6000620036af848285016200366f565b91505092915050565b7f53657373696f6e20697320636c6f7365642e0000000000000000000000000000600082015250565b6000620036f060128362002de2565b9150620036fd82620036b8565b602082019050919050565b600060208201905081810360008301526200372381620036e1565b9050919050565b6000604082019050620037416000830185620029f3565b62003750602083018462001f5b565b9392505050565b7f596f7520617265206e6f7420616c6c6f77656400000000000000000000000000600082015250565b60006200378f60138362002de2565b91506200379c8262003757565b602082019050919050565b60006020820190508181036000830152620037c28162003780565b9050919050565b7f4e487b7100000000000000000000000000000000000000000000000000000000600052602260045260246000fd5b600060028204905060018216806200381157607f821691505b602082108103620038275762003826620037c9565b5b5091905056fe608060405260405162002519380380620025198339818101604052810190620000299190620005c1565b856000806101000a81548173ffffffffffffffffffffffffffffffffffffffff021916908373ffffffffffffffffffffffffffffffffffffffff1602179055506000600c60006101000a81548160ff02191690836001811115620000925762000091620006ba565b5b02179055508460019080519060200190620000af92919062000103565b508360029080519060200190620000c892919062000103565b50806006819055508260039080519060200190620000e892919062000194565b5081600581905550426007819055505050505050506200074d565b828054620001119062000718565b90600052602060002090601f01602090048101928262000135576000855562000181565b82601f106200015057805160ff191683800117855562000181565b8280016001018555821562000181579182015b828111156200018057825182559160200191906001019062000163565b5b509050620001909190620001fb565b5090565b828054828255906000526020600020908101928215620001e8579160200282015b82811115620001e7578251829080519060200190620001d692919062000103565b5091602001919060010190620001b5565b5b509050620001f791906200021a565b5090565b5b8082111562000216576000816000905550600101620001fc565b5090565b5b808211156200023e576000818162000234919062000242565b506001016200021b565b5090565b508054620002509062000718565b6000825580601f1062000264575062000285565b601f016020900490600052602060002090810190620002849190620001fb565b5b50565b6000604051905090565b600080fd5b600080fd5b600073ffffffffffffffffffffffffffffffffffffffff82169050919050565b6000620002c9826200029c565b9050919050565b620002db81620002bc565b8114620002e757600080fd5b50565b600081519050620002fb81620002d0565b92915050565b600080fd5b600080fd5b6000601f19601f8301169050919050565b7f4e487b7100000000000000000000000000000000000000000000000000000000600052604160045260246000fd5b62000356826200030b565b810181811067ffffffffffffffff821117156200037857620003776200031c565b5b80604052505050565b60006200038d62000288565b90506200039b82826200034b565b919050565b600067ffffffffffffffff821115620003be57620003bd6200031c565b5b620003c9826200030b565b9050602081019050919050565b60005b83811015620003f6578082015181840152602081019050620003d9565b8381111562000406576000848401525b50505050565b6000620004236200041d84620003a0565b62000381565b90508281526020810184848401111562000442576200044162000306565b5b6200044f848285620003d6565b509392505050565b600082601f8301126200046f576200046e62000301565b5b8151620004818482602086016200040c565b91505092915050565b600067ffffffffffffffff821115620004a857620004a76200031c565b5b602082029050602081019050919050565b600080fd5b6000620004d5620004cf846200048a565b62000381565b90508083825260208201905060208402830185811115620004fb57620004fa620004b9565b5b835b818110156200054957805167ffffffffffffffff81111562000524576200052362000301565b5b80860162000533898262000457565b85526020850194505050602081019050620004fd565b5050509392505050565b600082601f8301126200056b576200056a62000301565b5b81516200057d848260208601620004be565b91505092915050565b6000819050919050565b6200059b8162000586565b8114620005a757600080fd5b50565b600081519050620005bb8162000590565b92915050565b60008060008060008060c08789031215620005e157620005e062000292565b5b6000620005f189828a01620002ea565b965050602087015167ffffffffffffffff81111562000615576200061462000297565b5b6200062389828a0162000457565b955050604087015167ffffffffffffffff81111562000647576200064662000297565b5b6200065589828a0162000457565b945050606087015167ffffffffffffffff81111562000679576200067862000297565b5b6200068789828a0162000553565b93505060806200069a89828a01620005aa565b92505060a0620006ad89828a01620005aa565b9150509295509295509295565b7f4e487b7100000000000000000000000000000000000000000000000000000000600052602160045260246000fd5b7f4e487b7100000000000000000000000000000000000000000000000000000000600052602260045260246000fd5b600060028204905060018216806200073157607f821691505b602082108103620007475762000746620006e9565b5b50919050565b611dbc806200075d6000396000f3fe608060405234801561001057600080fd5b506004361061007d5760003560e01c80635a9b0b891161005b5780635a9b0b89146100c45780637278f4d8146100e9578063bb55f25c14610107578063c2b6b58c146101235761007d565b80631d7e99c5146100825780633b9af89b1461009e57806343d726d6146100ba575b600080fd5b61009c600480360381019061009791906112fc565b610141565b005b6100b860048036038101906100b39190611437565b610219565b005b6100c26105fc565b005b6100cc6106bf565b6040516100e09897969594939291906117a0565b60405180910390f35b6100f16109b5565b6040516100fe919061183a565b60405180910390f35b610121600480360381019061011c9190611855565b6109bf565b005b61012b610c1a565b604051610138919061189d565b60405180910390f35b60008054906101000a900473ffffffffffffffffffffffffffffffffffffffff1673ffffffffffffffffffffffffffffffffffffffff163373ffffffffffffffffffffffffffffffffffffffff16146101cf576040517f08c379a00000000000000000000000000000000000000000000000000000000081526004016101c690611904565b60405180910390fd5b82600190805190602001906101e5929190610f55565b5081600290805190602001906101fc929190610f55565b508060039080519060200190610213929190610fdb565b50505050565b60008054906101000a900473ffffffffffffffffffffffffffffffffffffffff1673ffffffffffffffffffffffffffffffffffffffff163373ffffffffffffffffffffffffffffffffffffffff16146102a7576040517f08c379a000000000000000000000000000000000000000000000000000000000815260040161029e90611904565b60405180910390fd5b600073ffffffffffffffffffffffffffffffffffffffff16600b60008473ffffffffffffffffffffffffffffffffffffffff1673ffffffffffffffffffffffffffffffffffffffff16815260200190815260200160002060000160009054906101000a900473ffffffffffffffffffffffffffffffffffffffff1673ffffffffffffffffffffffffffffffffffffffff160361054457600060405180606001604052808473ffffffffffffffffffffffffffffffffffffffff168152602001838152602001600a548152509050600981908060018154018082558091505060019003906000526020600020906003020160009091909190915060008201518160000160006101000a81548173ffffffffffffffffffffffffffffffffffffffff021916908373ffffffffffffffffffffffffffffffffffffffff1602179055506020820151816001015560408201518160020155505080600b60008573ffffffffffffffffffffffffffffffffffffffff1673ffffffffffffffffffffffffffffffffffffffff16815260200190815260200160002060008201518160000160006101000a81548173ffffffffffffffffffffffffffffffffffffffff021916908373ffffffffffffffffffffffffffffffffffffffff1602179055506020820151816001015560408201518160020155905050600a60008154809291906104ae90611953565b919050555060008054906101000a900473ffffffffffffffffffffffffffffffffffffffff1673ffffffffffffffffffffffffffffffffffffffff166351650ecb846040518263ffffffff1660e01b815260040161050c91906119aa565b600060405180830381600087803b15801561052657600080fd5b505af115801561053a573d6000803e3d6000fd5b50505050506105f8565b80600b60008473ffffffffffffffffffffffffffffffffffffffff1673ffffffffffffffffffffffffffffffffffffffff16815260200190815260200160002060010181905550806009600b60008573ffffffffffffffffffffffffffffffffffffffff1673ffffffffffffffffffffffffffffffffffffffff16815260200190815260200160002060020154815481106105e2576105e16119c5565b5b9060005260206000209060030201600101819055505b5050565b60008054906101000a900473ffffffffffffffffffffffffffffffffffffffff1673ffffffffffffffffffffffffffffffffffffffff163373ffffffffffffffffffffffffffffffffffffffff161461068a576040517f08c379a000000000000000000000000000000000000000000000000000000000815260040161068190611904565b60405180910390fd5b6001600c60006101000a81548160ff021916908360018111156106b0576106af61161a565b5b02179055506106bd610d0e565b565b60608060606000806000806060600160026003600554600c60009054906101000a900460ff1660045460085460098780546106f990611a23565b80601f016020809104026020016040519081016040528092919081815260200182805461072590611a23565b80156107725780601f1061074757610100808354040283529160200191610772565b820191906000526020600020905b81548152906001019060200180831161075557829003601f168201915b5050505050975086805461078590611a23565b80601f01602080910402602001604051908101604052809291908181526020018280546107b190611a23565b80156107fe5780601f106107d3576101008083540402835291602001916107fe565b820191906000526020600020905b8154815290600101906020018083116107e157829003601f168201915b5050505050965085805480602002602001604051908101604052809291908181526020016000905b828210156108d257838290600052602060002001805461084590611a23565b80601f016020809104026020016040519081016040528092919081815260200182805461087190611a23565b80156108be5780601f10610893576101008083540402835291602001916108be565b820191906000526020600020905b8154815290600101906020018083116108a157829003601f168201915b505050505081526020019060010190610826565b50505050955080805480602002602001604051908101604052809291908181526020016000905b8282101561099557838290600052602060002090600302016040518060600160405290816000820160009054906101000a900473ffffffffffffffffffffffffffffffffffffffff1673ffffffffffffffffffffffffffffffffffffffff1673ffffffffffffffffffffffffffffffffffffffff16815260200160018201548152602001600282015481525050815260200190600101906108f9565b505050509050975097509750975097509750975097509091929394959697565b6000600454905090565b60008054906101000a900473ffffffffffffffffffffffffffffffffffffffff1673ffffffffffffffffffffffffffffffffffffffff163373ffffffffffffffffffffffffffffffffffffffff1614610a4d576040517f08c379a0000000000000000000000000000000000000000000000000000000008152600401610a4490611904565b60405180910390fd5b8060088190555060005b600a54811015610c1657600060098281548110610a7757610a766119c5565b5b90600052602060002090600302016040518060600160405290816000820160009054906101000a900473ffffffffffffffffffffffffffffffffffffffff1673ffffffffffffffffffffffffffffffffffffffff1673ffffffffffffffffffffffffffffffffffffffff168152602001600182015481526020016002820154815250509050600081600001519050600080610b1183610e68565b915091506000866064610b28898860200151610f25565b610b329190611a54565b610b3c9190611add565b90506000600183610b4d9190611b0e565b828486610b5a9190611a54565b610b649190611b0e565b610b6e9190611add565b905060008054906101000a900473ffffffffffffffffffffffffffffffffffffffff1673ffffffffffffffffffffffffffffffffffffffff1663937f4a2686836040518363ffffffff1660e01b8152600401610bcb929190611b64565b600060405180830381600087803b158015610be557600080fd5b505af1158015610bf9573d6000803e3d6000fd5b505050505050505050508080610c0e90611953565b915050610a57565b5050565b60008060009054906101000a900473ffffffffffffffffffffffffffffffffffffffff1673ffffffffffffffffffffffffffffffffffffffff163373ffffffffffffffffffffffffffffffffffffffff1614610cab576040517f08c379a0000000000000000000000000000000000000000000000000000000008152600401610ca290611904565b60405180910390fd5b600060055414158015610d095750600180811115610ccc57610ccb61161a565b5b600c60009054906101000a900460ff166001811115610cee57610ced61161a565b5b1480610d08575042600554600754610d069190611b0e565b115b5b905090565b600080600a5403610d26576000600481905550610e65565b600080600092505b600a54831015610e3757600060098481548110610d4e57610d4d6119c5565b5b90600052602060002090600302016040518060600160405290816000820160009054906101000a900473ffffffffffffffffffffffffffffffffffffffff1673ffffffffffffffffffffffffffffffffffffffff1673ffffffffffffffffffffffffffffffffffffffff1681526020016001820154815260200160028201548152505090506000816000015190506000610de782610e68565b5090508085610df69190611b0e565b9450806064610e059190611b8d565b8360200151610e149190611a54565b84610e1f9190611b0e565b93505050508280610e2f90611953565b935050610d2e565b81600a546064610e479190611a54565b610e519190611b8d565b81610e5c9190611add565b60048190555050505b50565b60008060008060009054906101000a900473ffffffffffffffffffffffffffffffffffffffff1673ffffffffffffffffffffffffffffffffffffffff1663d716c549856040518263ffffffff1660e01b8152600401610ec791906119aa565b6000604051808303816000875af1158015610ee6573d6000803e3d6000fd5b505050506040513d6000823e3d601f19601f82011682018060405250810190610f0f9190611d3d565b9050806060015181608001519250925050915091565b600081831015610f40578282610f3b9190611b8d565b610f4d565b8183610f4c9190611b8d565b5b905092915050565b828054610f6190611a23565b90600052602060002090601f016020900481019282610f835760008555610fca565b82601f10610f9c57805160ff1916838001178555610fca565b82800160010185558215610fca579182015b82811115610fc9578251825591602001919060010190610fae565b5b509050610fd7919061103b565b5090565b82805482825590600052602060002090810192821561102a579160200282015b82811115611029578251829080519060200190611019929190610f55565b5091602001919060010190610ffb565b5b5090506110379190611058565b5090565b5b8082111561105457600081600090555060010161103c565b5090565b5b80821115611078576000818161106f919061107c565b50600101611059565b5090565b50805461108890611a23565b6000825580601f1061109a57506110b9565b601f0160209004906000526020600020908101906110b8919061103b565b5b50565b6000604051905090565b600080fd5b600080fd5b600080fd5b600080fd5b6000601f19601f8301169050919050565b7f4e487b7100000000000000000000000000000000000000000000000000000000600052604160045260246000fd5b611123826110da565b810181811067ffffffffffffffff82111715611142576111416110eb565b5b80604052505050565b60006111556110bc565b9050611161828261111a565b919050565b600067ffffffffffffffff821115611181576111806110eb565b5b61118a826110da565b9050602081019050919050565b82818337600083830152505050565b60006111b96111b484611166565b61114b565b9050828152602081018484840111156111d5576111d46110d5565b5b6111e0848285611197565b509392505050565b600082601f8301126111fd576111fc6110d0565b5b813561120d8482602086016111a6565b91505092915050565b600067ffffffffffffffff821115611231576112306110eb565b5b602082029050602081019050919050565b600080fd5b600061125a61125584611216565b61114b565b9050808382526020820190506020840283018581111561127d5761127c611242565b5b835b818110156112c457803567ffffffffffffffff8111156112a2576112a16110d0565b5b8086016112af89826111e8565b8552602085019450505060208101905061127f565b5050509392505050565b600082601f8301126112e3576112e26110d0565b5b81356112f3848260208601611247565b91505092915050565b600080600060608486031215611315576113146110c6565b5b600084013567ffffffffffffffff811115611333576113326110cb565b5b61133f868287016111e8565b935050602084013567ffffffffffffffff8111156113605761135f6110cb565b5b61136c868287016111e8565b925050604084013567ffffffffffffffff81111561138d5761138c6110cb565b5b611399868287016112ce565b9150509250925092565b600073ffffffffffffffffffffffffffffffffffffffff82169050919050565b60006113ce826113a3565b9050919050565b6113de816113c3565b81146113e957600080fd5b50565b6000813590506113fb816113d5565b92915050565b6000819050919050565b61141481611401565b811461141f57600080fd5b50565b6000813590506114318161140b565b92915050565b6000806040838503121561144e5761144d6110c6565b5b600061145c858286016113ec565b925050602061146d85828601611422565b9150509250929050565b600081519050919050565b600082825260208201905092915050565b60005b838110156114b1578082015181840152602081019050611496565b838111156114c0576000848401525b50505050565b60006114d182611477565b6114db8185611482565b93506114eb818560208601611493565b6114f4816110da565b840191505092915050565b600081519050919050565b600082825260208201905092915050565b6000819050602082019050919050565b600082825260208201905092915050565b600061154782611477565b611551818561152b565b9350611561818560208601611493565b61156a816110da565b840191505092915050565b6000611581838361153c565b905092915050565b6000602082019050919050565b60006115a1826114ff565b6115ab818561150a565b9350836020820285016115bd8561151b565b8060005b858110156115f957848403895281516115da8582611575565b94506115e583611589565b925060208a019950506001810190506115c1565b50829750879550505050505092915050565b61161481611401565b82525050565b7f4e487b7100000000000000000000000000000000000000000000000000000000600052602160045260246000fd5b6002811061165a5761165961161a565b5b50565b600081905061166b82611649565b919050565b600061167b8261165d565b9050919050565b61168b81611670565b82525050565b600081519050919050565b600082825260208201905092915050565b6000819050602082019050919050565b6116c6816113c3565b82525050565b6116d581611401565b82525050565b6060820160008201516116f160008501826116bd565b50602082015161170460208501826116cc565b50604082015161171760408501826116cc565b50505050565b600061172983836116db565b60608301905092915050565b6000602082019050919050565b600061174d82611691565b611757818561169c565b9350611762836116ad565b8060005b8381101561179357815161177a888261171d565b975061178583611735565b925050600181019050611766565b5085935050505092915050565b60006101008201905081810360008301526117bb818b6114c6565b905081810360208301526117cf818a6114c6565b905081810360408301526117e38189611596565b90506117f2606083018861160b565b6117ff6080830187611682565b61180c60a083018661160b565b61181960c083018561160b565b81810360e083015261182b8184611742565b90509998505050505050505050565b600060208201905061184f600083018461160b565b92915050565b60006020828403121561186b5761186a6110c6565b5b600061187984828501611422565b91505092915050565b60008115159050919050565b61189781611882565b82525050565b60006020820190506118b2600083018461188e565b92915050565b7f4f6e6c7920706172656e7420636f6e747261637420697320616c6c6f77000000600082015250565b60006118ee601d83611482565b91506118f9826118b8565b602082019050919050565b6000602082019050818103600083015261191d816118e1565b9050919050565b7f4e487b7100000000000000000000000000000000000000000000000000000000600052601160045260246000fd5b600061195e82611401565b91507fffffffffffffffffffffffffffffffffffffffffffffffffffffffffffffffff82036119905761198f611924565b5b600182019050919050565b6119a4816113c3565b82525050565b60006020820190506119bf600083018461199b565b92915050565b7f4e487b7100000000000000000000000000000000000000000000000000000000600052603260045260246000fd5b7f4e487b7100000000000000000000000000000000000000000000000000000000600052602260045260246000fd5b60006002820490506001821680611a3b57607f821691505b602082108103611a4e57611a4d6119f4565b5b50919050565b6000611a5f82611401565b9150611a6a83611401565b9250817fffffffffffffffffffffffffffffffffffffffffffffffffffffffffffffffff0483118215151615611aa357611aa2611924565b5b828202905092915050565b7f4e487b7100000000000000000000000000000000000000000000000000000000600052601260045260246000fd5b6000611ae882611401565b9150611af383611401565b925082611b0357611b02611aae565b5b828204905092915050565b6000611b1982611401565b9150611b2483611401565b9250827fffffffffffffffffffffffffffffffffffffffffffffffffffffffffffffffff03821115611b5957611b58611924565b5b828201905092915050565b6000604082019050611b79600083018561199b565b611b86602083018461160b565b9392505050565b6000611b9882611401565b9150611ba383611401565b925082821015611bb657611bb5611924565b5b828203905092915050565b600080fd5b600080fd5b6000611bde611bd984611166565b61114b565b905082815260208101848484011115611bfa57611bf96110d5565b5b611c05848285611493565b509392505050565b600082601f830112611c2257611c216110d0565b5b8151611c32848260208601611bcb565b91505092915050565b600081519050611c4a816113d5565b92915050565b600081519050611c5f8161140b565b92915050565b600060c08284031215611c7b57611c7a611bc1565b5b611c8560c061114b565b9050600082015167ffffffffffffffff811115611ca557611ca4611bc6565b5b611cb184828501611c0d565b600083015250602082015167ffffffffffffffff811115611cd557611cd4611bc6565b5b611ce184828501611c0d565b6020830152506040611cf584828501611c3b565b6040830152506060611d0984828501611c50565b6060830152506080611d1d84828501611c50565b60808301525060a0611d3184828501611c50565b60a08301525092915050565b600060208284031215611d5357611d526110c6565b5b600082015167ffffffffffffffff811115611d7157611d706110cb565b5b611d7d84828501611c65565b9150509291505056fea26469706673582212201e306091fa5888a03101acc7adc608e590318ba388932e5ccf3d229fea12e47964736f6c634300080d0033a2646970667358221220e5da96050573eb9f283efc40152df268c2974b368d714f728c62c4892521565664736f6c634300080d0033",
  "immutableReferences": {},
  "source": "// SPDX-License-Identifier: GPL-3.0\n\npragma solidity >=0.8.0;\n\nimport \"./Session.sol\";\nimport \"./Admin.sol\";\nimport \"./Type.sol\";\n\ncontract Main is Admin {\n    Session[] private sessionList;\n    mapping(uint256 => Session) private sessionMap;\n    uint256 sessionIndex = 0;\n\n    Participant[] private participantList;\n    mapping(address => Participant) private participantMap;\n    uint256 participantIndex = 0;\n\n    modifier isParticipant() {\n        require(isSignIn(msg.sender), \"Not allowed cause not signed in\");\n        _;\n    }\n\n    constructor() {}\n\n    function initSession(\n        string memory _name,\n        string memory _description,\n        string[] memory _images,\n        uint256 _timeout\n    ) public payable isAdmin {\n        Session session = new Session(\n            address(this),\n            _name,\n            _description,\n            _images,\n            _timeout,\n            msg.value\n        );\n        sessionList.push(session);\n        sessionMap[sessionIndex] = session;\n        sessionIndex++;\n    }\n\n    function closeSession(uint256 _sessionIndex) public isAdmin {\n        sessionList[_sessionIndex].close();\n    }\n\n    function setFinalPrice(uint256 _sessionIndex, uint256 _finalPrice)\n        public\n        isAdmin\n    {\n        sessionList[_sessionIndex].setFinalPrice(_finalPrice);\n    }\n\n    function getSessions() public view returns (SessionInfo[] memory) {\n        uint256 i;\n        SessionInfo[] memory result = new SessionInfo[](sessionIndex);\n\n        for (i = 0; i < sessionIndex; i++) {\n            Session currentSession = sessionList[i];\n            (\n                string memory name,\n                string memory description,\n                string[] memory images,\n                uint256 timeout,\n                SessionState state,\n                uint256 proposePrice,\n                uint256 finalPrice,\n                ParticipantPropose[] memory proposeList\n            ) = currentSession.getInfo();\n            SessionInfo memory info = SessionInfo(\n                i,\n                name,\n                description,\n                images,\n                timeout,\n                state,\n                proposePrice,\n                finalPrice,\n                proposeList\n            );\n            result[i] = info;\n        }\n\n        return result;\n    }\n\n    function updateSession(\n        uint256 _sessionIndex,\n        string memory _name,\n        string memory _description,\n        string[] memory _images\n    ) public isAdmin {\n        sessionList[_sessionIndex].update(_name, _description, _images);\n    }\n\n    function submitPrice(uint256 _sessionIndex, uint256 _price)\n        public\n        isParticipant\n    {\n        require(\n            sessionList[_sessionIndex].isClosed() == false,\n            \"Session is closed.\"\n        );\n        //require session is not closed.\n\n        sessionList[_sessionIndex].submitPrice(msg.sender, _price);\n    }\n\n    function getSessionProposePrice(uint256 _sessionIndex)\n        public\n        view\n        returns (uint256)\n    {\n        return sessionList[_sessionIndex].getProposePrice();\n    }\n\n    function getParticipantList()\n        public\n        view\n        isAdmin\n        returns (Participant[] memory)\n    {\n        return participantList;\n    }\n\n    function register(string memory _email, string memory _name) public {\n        Participant memory participant = Participant(\n            _email,\n            _name,\n            msg.sender,\n            0,\n            0,\n            participantIndex\n        );\n        participantList.push(participant);\n        participantMap[msg.sender] = participant;\n        participantIndex++;\n    }\n\n    function getParticipantDetail(address _participantAddr)\n        public\n        view\n        returns (Participant memory)\n    {\n        return participantMap[_participantAddr];\n    }\n\n    function getCurrentParticipantDetail()\n        public\n        view\n        isNotAdmin\n        returns (Participant memory)\n    {\n        return getParticipantDetail(msg.sender);\n    }\n\n    function updateParticipantInfo(\n        address _participantAddr,\n        string memory _email,\n        string memory _name\n    ) public isAdmin {\n        participantMap[_participantAddr].email = _email;\n        participantMap[_participantAddr].name = _name;\n        participantList[participantMap[_participantAddr].index].email = _email;\n        participantList[participantMap[_participantAddr].index].name = _name;\n    }\n\n    function updateCurrentParticipantInfo(\n        string memory _email,\n        string memory _name\n    ) public {\n        require(\n            participantMap[msg.sender].account == msg.sender,\n            \"You are not allowed\"\n        );\n        participantMap[msg.sender].email = _email;\n        participantMap[msg.sender].name = _name;\n        participantList[participantMap[msg.sender].index].email = _email;\n        participantList[participantMap[msg.sender].index].name = _name;\n    }\n\n    function isSignIn(address _account) public view returns (bool) {\n        return participantMap[_account].account != address(0);\n    }\n\n    function checkRole() public view returns (uint256) {\n        if (checkAdmin() == true) return 1;\n        if (signIn() == true) return 2;\n        return 0;\n    }\n\n    function signIn() internal view returns (bool) {\n        return isSignIn(msg.sender);\n    }\n\n    function increaseParticipantSessionCount(address _participantAddr)\n        external\n    {\n        uint256 newCount = participantMap[_participantAddr].sessionsCount + 1;\n        participantMap[_participantAddr].sessionsCount = newCount;\n        participantList[participantMap[_participantAddr].index]\n            .sessionsCount = newCount;\n    }\n\n    function updateParticipantDeviation(\n        address _participantAddr,\n        uint256 _deviation\n    ) public {\n        participantMap[_participantAddr].deviation = _deviation;\n        participantList[participantMap[_participantAddr].index]\n            .deviation = _deviation;\n    }\n\n    receive() external payable {}\n}\n",
  "sourcePath": "/Users/minh/Projects/Funix/pricing-chain/contracts/Main.sol",
  "compiler": {
    "name": "solc",
    "version": "0.8.13+commit.abaa5c0e.Emscripten.clang"
  },
  "schemaVersion": "3.4.5",
  "updatedAt": "2022-03-27T15:36:38.295Z",
  "networkType": "ethereum",
  "devdoc": {
    "kind": "dev",
    "methods": {},
    "version": 1
  },
  "userdoc": {
    "kind": "user",
    "methods": {},
    "version": 1
  }
}