{
  "contractName": "Main",
  "abi": [
    {
      "inputs": [],
      "stateMutability": "nonpayable",
      "type": "constructor"
    },
    {
      "anonymous": false,
      "inputs": [
        {
          "indexed": true,
          "internalType": "address",
          "name": "oldAdmin",
          "type": "address"
        },
        {
          "indexed": true,
          "internalType": "address",
          "name": "newAdmin",
          "type": "address"
        }
      ],
      "name": "AdminSet",
      "type": "event"
    },
    {
      "inputs": [
        {
          "internalType": "address",
          "name": "newAdmin",
          "type": "address"
        }
      ],
      "name": "changeAdmin",
      "outputs": [],
      "stateMutability": "nonpayable",
      "type": "function"
    },
    {
      "inputs": [],
      "name": "getAdmin",
      "outputs": [
        {
          "internalType": "address",
          "name": "",
          "type": "address"
        }
      ],
      "stateMutability": "view",
      "type": "function",
      "constant": true
    },
    {
      "stateMutability": "payable",
      "type": "receive",
      "payable": true
    },
    {
      "inputs": [
        {
          "internalType": "string",
          "name": "_name",
          "type": "string"
        },
        {
          "internalType": "string",
          "name": "_description",
          "type": "string"
        },
        {
          "internalType": "string[]",
          "name": "_images",
          "type": "string[]"
        },
        {
          "internalType": "uint256",
          "name": "_timeout",
          "type": "uint256"
        }
      ],
      "name": "initSession",
      "outputs": [],
      "stateMutability": "payable",
      "type": "function",
      "payable": true
    },
    {
      "inputs": [
        {
          "internalType": "uint256",
          "name": "_sessionIndex",
          "type": "uint256"
        }
      ],
      "name": "closeSession",
      "outputs": [],
      "stateMutability": "nonpayable",
      "type": "function"
    },
    {
      "inputs": [
        {
          "internalType": "uint256",
          "name": "_sessionIndex",
          "type": "uint256"
        },
        {
          "internalType": "uint256",
          "name": "_finalPrice",
          "type": "uint256"
        }
      ],
      "name": "setFinalPrice",
      "outputs": [],
      "stateMutability": "nonpayable",
      "type": "function"
    },
    {
      "inputs": [],
      "name": "getSessions",
      "outputs": [
        {
          "components": [
            {
              "internalType": "uint256",
              "name": "id",
              "type": "uint256"
            },
            {
              "internalType": "string",
              "name": "name",
              "type": "string"
            },
            {
              "internalType": "string",
              "name": "description",
              "type": "string"
            },
            {
              "internalType": "string[]",
              "name": "images",
              "type": "string[]"
            },
            {
              "internalType": "uint256",
              "name": "timeout",
              "type": "uint256"
            },
            {
              "internalType": "enum SessionState",
              "name": "state",
              "type": "uint8"
            },
            {
              "internalType": "uint256",
              "name": "proposePrice",
              "type": "uint256"
            },
            {
              "internalType": "uint256",
              "name": "finalPrice",
              "type": "uint256"
            }
          ],
          "internalType": "struct SessionInfo[]",
          "name": "",
          "type": "tuple[]"
        }
      ],
      "stateMutability": "view",
      "type": "function",
      "constant": true
    },
    {
      "inputs": [
        {
          "internalType": "uint256",
          "name": "_sessionIndex",
          "type": "uint256"
        },
        {
          "internalType": "string",
          "name": "_name",
          "type": "string"
        },
        {
          "internalType": "string",
          "name": "_description",
          "type": "string"
        },
        {
          "internalType": "string[]",
          "name": "_images",
          "type": "string[]"
        }
      ],
      "name": "updateSession",
      "outputs": [],
      "stateMutability": "nonpayable",
      "type": "function"
    },
    {
      "inputs": [
        {
          "internalType": "uint256",
          "name": "_sessionIndex",
          "type": "uint256"
        },
        {
          "internalType": "uint256",
          "name": "_price",
          "type": "uint256"
        }
      ],
      "name": "submitPrice",
      "outputs": [],
      "stateMutability": "nonpayable",
      "type": "function"
    },
    {
      "inputs": [
        {
          "internalType": "uint256",
          "name": "_sessionIndex",
          "type": "uint256"
        }
      ],
      "name": "getSessionProposePrice",
      "outputs": [
        {
          "internalType": "uint256",
          "name": "",
          "type": "uint256"
        }
      ],
      "stateMutability": "view",
      "type": "function",
      "constant": true
    },
    {
      "inputs": [],
      "name": "getParticipantList",
      "outputs": [
        {
          "components": [
            {
              "internalType": "string",
              "name": "email",
              "type": "string"
            },
            {
              "internalType": "string",
              "name": "name",
              "type": "string"
            },
            {
              "internalType": "address",
              "name": "account",
              "type": "address"
            },
            {
              "internalType": "uint256",
              "name": "deviation",
              "type": "uint256"
            },
            {
              "internalType": "uint256",
              "name": "sessionsCount",
              "type": "uint256"
            },
            {
              "internalType": "uint256",
              "name": "index",
              "type": "uint256"
            }
          ],
          "internalType": "struct Participant[]",
          "name": "",
          "type": "tuple[]"
        }
      ],
      "stateMutability": "view",
      "type": "function",
      "constant": true
    },
    {
      "inputs": [
        {
          "internalType": "string",
          "name": "_email",
          "type": "string"
        },
        {
          "internalType": "string",
          "name": "_name",
          "type": "string"
        }
      ],
      "name": "register",
      "outputs": [],
      "stateMutability": "nonpayable",
      "type": "function"
    },
    {
      "inputs": [
        {
          "internalType": "address",
          "name": "_participantAddr",
          "type": "address"
        }
      ],
      "name": "getParticipantDetail",
      "outputs": [
        {
          "components": [
            {
              "internalType": "string",
              "name": "email",
              "type": "string"
            },
            {
              "internalType": "string",
              "name": "name",
              "type": "string"
            },
            {
              "internalType": "address",
              "name": "account",
              "type": "address"
            },
            {
              "internalType": "uint256",
              "name": "deviation",
              "type": "uint256"
            },
            {
              "internalType": "uint256",
              "name": "sessionsCount",
              "type": "uint256"
            },
            {
              "internalType": "uint256",
              "name": "index",
              "type": "uint256"
            }
          ],
          "internalType": "struct Participant",
          "name": "",
          "type": "tuple"
        }
      ],
      "stateMutability": "view",
      "type": "function",
      "constant": true
    },
    {
      "inputs": [],
      "name": "getCurrentParticipantDetail",
      "outputs": [
        {
          "components": [
            {
              "internalType": "string",
              "name": "email",
              "type": "string"
            },
            {
              "internalType": "string",
              "name": "name",
              "type": "string"
            },
            {
              "internalType": "address",
              "name": "account",
              "type": "address"
            },
            {
              "internalType": "uint256",
              "name": "deviation",
              "type": "uint256"
            },
            {
              "internalType": "uint256",
              "name": "sessionsCount",
              "type": "uint256"
            },
            {
              "internalType": "uint256",
              "name": "index",
              "type": "uint256"
            }
          ],
          "internalType": "struct Participant",
          "name": "",
          "type": "tuple"
        }
      ],
      "stateMutability": "view",
      "type": "function",
      "constant": true
    },
    {
      "inputs": [
        {
          "internalType": "address",
          "name": "_participantAddr",
          "type": "address"
        },
        {
          "internalType": "string",
          "name": "_email",
          "type": "string"
        },
        {
          "internalType": "string",
          "name": "_name",
          "type": "string"
        }
      ],
      "name": "updateParticipantInfo",
      "outputs": [],
      "stateMutability": "nonpayable",
      "type": "function"
    },
    {
      "inputs": [
        {
          "internalType": "string",
          "name": "_email",
          "type": "string"
        },
        {
          "internalType": "string",
          "name": "_name",
          "type": "string"
        }
      ],
      "name": "updateCurrentParticipantInfo",
      "outputs": [],
      "stateMutability": "nonpayable",
      "type": "function"
    },
    {
      "inputs": [
        {
          "internalType": "address",
          "name": "_account",
          "type": "address"
        }
      ],
      "name": "isSignIn",
      "outputs": [
        {
          "internalType": "bool",
          "name": "",
          "type": "bool"
        }
      ],
      "stateMutability": "view",
      "type": "function",
      "constant": true
    },
    {
      "inputs": [],
      "name": "checkRole",
      "outputs": [
        {
          "internalType": "uint256",
          "name": "",
          "type": "uint256"
        }
      ],
      "stateMutability": "view",
      "type": "function",
      "constant": true
    },
    {
      "inputs": [
        {
          "internalType": "address",
          "name": "_participantAddr",
          "type": "address"
        }
      ],
      "name": "increaseParticipantSessionCount",
      "outputs": [],
      "stateMutability": "nonpayable",
      "type": "function"
    },
    {
      "inputs": [
        {
          "internalType": "address",
          "name": "_participantAddr",
          "type": "address"
        },
        {
          "internalType": "uint256",
          "name": "_deviation",
          "type": "uint256"
        }
      ],
      "name": "updateParticipantDeviation",
      "outputs": [],
      "stateMutability": "nonpayable",
      "type": "function"
    }
  ],
  "bytecode": "0x60806040526000600355600060065534801561001a57600080fd5b50336000806101000a81548173ffffffffffffffffffffffffffffffffffffffff021916908373ffffffffffffffffffffffffffffffffffffffff16021790555060008054906101000a900473ffffffffffffffffffffffffffffffffffffffff1673ffffffffffffffffffffffffffffffffffffffff16600073ffffffffffffffffffffffffffffffffffffffff167fbf265e8326285a2747e33e54d5945f7111f2b5edb826eb8c08d4677779b3ff9760405160405180910390a361593b806100e56000396000f3fe608060405260043610620001335760003560e01c8063937f4a2611620000af578063b579bdc7116200006d578063b579bdc714620003ea578063b9e084951462000418578063d716c5491462000446578063e425349e146200048a578063ed214fff14620004b8576200013b565b8063937f4a2614620002fc578063985fddea146200032a578063a3bfdf47146200034a578063a961cb9c1462000378578063b3b548eb14620003bc576200013b565b806351650ecb11620000fd57806351650ecb146200021257806361503e45146200024057806367677ce514620002705780636e9960c3146200029e5780638f28397014620002ce576200013b565b80630482aa821462000140578063051a4b371462000170578063095e6d3614620001a05780633ffbd47f14620001e4576200013b565b366200013b57005b600080fd5b3480156200014d57600080fd5b5062000158620004e8565b60405162000167919062001f5b565b60405180910390f35b3480156200017d57600080fd5b506200018862000532565b6040516200019791906200210e565b60405180910390f35b348015620001ad57600080fd5b50620001cc6004803603810190620001c6919062002177565b6200059f565b604051620001db919062001f5b565b60405180910390f35b348015620001f157600080fd5b506200021060048036038101906200020a9190620022fa565b6200065b565b005b3480156200021f57600080fd5b506200023e6004803603810190620002389190620023b0565b6200087c565b005b3480156200024d57600080fd5b50620002586200098b565b604051620002679190620026d0565b60405180910390f35b3480156200027d57600080fd5b506200029c6004803603810190620002969190620027f0565b62000b71565b005b348015620002ab57600080fd5b50620002b662000c7e565b604051620002c59190620028d0565b60405180910390f35b348015620002db57600080fd5b50620002fa6004803603810190620002f49190620023b0565b62000ca7565b005b3480156200030957600080fd5b50620003286004803603810190620003229190620028ed565b62000db7565b005b62000348600480360381019062000342919062002934565b62000e71565b005b3480156200035757600080fd5b5062000376600480360381019062000370919062002177565b62000fe3565b005b3480156200038557600080fd5b50620003a460048036038101906200039e9190620023b0565b620010dc565b604051620003b3919062002a20565b60405180910390f35b348015620003c957600080fd5b50620003e86004803603810190620003e2919062002a3d565b62001177565b005b348015620003f757600080fd5b5062000416600480360381019062000410919062002a84565b62001376565b005b3480156200042557600080fd5b506200044460048036038101906200043e9190620022fa565b62001582565b005b3480156200045357600080fd5b506200047260048036038101906200046c9190620023b0565b6200180d565b6040516200048191906200210e565b60405180910390f35b3480156200049757600080fd5b50620004b66004803603810190620004b0919062002a3d565b62001a10565b005b348015620004c557600080fd5b50620004d062001b17565b604051620004df919062002c8a565b60405180910390f35b600060011515620004f862001d73565b1515036200050a57600190506200052f565b600115156200051862001dca565b1515036200052a57600290506200052f565b600090505b90565b6200053c62001ddc565b600015156200054a62001d73565b1515146200058f576040517f08c379a0000000000000000000000000000000000000000000000000000000008152600401620005869062002d0f565b60405180910390fd5b6200059a336200180d565b905090565b600060018281548110620005b857620005b762002d31565b5b9060005260206000200160009054906101000a900473ffffffffffffffffffffffffffffffffffffffff1673ffffffffffffffffffffffffffffffffffffffff16637278f4d86040518163ffffffff1660e01b8152600401602060405180830381865afa1580156200062e573d6000803e3d6000fd5b505050506040513d601f19601f8201168201806040525081019062000654919062002d77565b9050919050565b60006040518060c001604052808481526020018381526020013373ffffffffffffffffffffffffffffffffffffffff1681526020016001815260200160008152602001600654815250905060048190806001815401808255809150506001900390600052602060002090600602016000909190919091506000820151816000019080519060200190620006f092919062001e28565b5060208201518160010190805190602001906200070f92919062001e28565b5060408201518160020160006101000a81548173ffffffffffffffffffffffffffffffffffffffff021916908373ffffffffffffffffffffffffffffffffffffffff160217905550606082015181600301556080820151816004015560a08201518160050155505080600560003373ffffffffffffffffffffffffffffffffffffffff1673ffffffffffffffffffffffffffffffffffffffff1681526020019081526020016000206000820151816000019080519060200190620007d592919062001e28565b506020820151816001019080519060200190620007f492919062001e28565b5060408201518160020160006101000a81548173ffffffffffffffffffffffffffffffffffffffff021916908373ffffffffffffffffffffffffffffffffffffffff160217905550606082015181600301556080820151816004015560a0820151816005015590505060066000815480929190620008729062002dd8565b9190505550505050565b60006001600560008473ffffffffffffffffffffffffffffffffffffffff1673ffffffffffffffffffffffffffffffffffffffff16815260200190815260200160002060040154620008cf919062002e25565b905080600560008473ffffffffffffffffffffffffffffffffffffffff1673ffffffffffffffffffffffffffffffffffffffff16815260200190815260200160002060040181905550806004600560008573ffffffffffffffffffffffffffffffffffffffff1673ffffffffffffffffffffffffffffffffffffffff168152602001908152602001600020600501548154811062000972576200097162002d31565b5b9060005260206000209060060201600401819055505050565b606060008060035467ffffffffffffffff811115620009af57620009ae620021b3565b5b604051908082528060200260200182016040528015620009ec57816020015b620009d862001eb9565b815260200190600190039081620009ce5790505b509050600091505b60035482101562000b695760006001838154811062000a185762000a1762002d31565b5b9060005260206000200160009054906101000a900473ffffffffffffffffffffffffffffffffffffffff16905060008060008060008060008773ffffffffffffffffffffffffffffffffffffffff16635a9b0b896040518163ffffffff1660e01b8152600401600060405180830381865afa15801562000a9c573d6000803e3d6000fd5b505050506040513d6000823e3d601f19601f8201168201806040525081019062000ac7919062002ff0565b965096509650965096509650965060006040518061010001604052808c815260200189815260200188815260200187815260200186815260200185600181111562000b175762000b16620024de565b5b8152602001848152602001838152509050808a8c8151811062000b3f5762000b3e62002d31565b5b6020026020010181905250505050505050505050818062000b609062002dd8565b925050620009f4565b809250505090565b6001151562000b7f62001d73565b15151462000bc4576040517f08c379a000000000000000000000000000000000000000000000000000000000815260040162000bbb9062003150565b60405180910390fd5b6001848154811062000bdb5762000bda62002d31565b5b9060005260206000200160009054906101000a900473ffffffffffffffffffffffffffffffffffffffff1673ffffffffffffffffffffffffffffffffffffffff16631d7e99c58484846040518463ffffffff1660e01b815260040162000c449392919062003245565b600060405180830381600087803b15801562000c5f57600080fd5b505af115801562000c74573d6000803e3d6000fd5b5050505050505050565b60008060009054906101000a900473ffffffffffffffffffffffffffffffffffffffff16905090565b6001151562000cb562001d73565b15151462000cfa576040517f08c379a000000000000000000000000000000000000000000000000000000000815260040162000cf19062003150565b60405180910390fd5b8073ffffffffffffffffffffffffffffffffffffffff1660008054906101000a900473ffffffffffffffffffffffffffffffffffffffff1673ffffffffffffffffffffffffffffffffffffffff167fbf265e8326285a2747e33e54d5945f7111f2b5edb826eb8c08d4677779b3ff9760405160405180910390a3806000806101000a81548173ffffffffffffffffffffffffffffffffffffffff021916908373ffffffffffffffffffffffffffffffffffffffff16021790555050565b80600560008473ffffffffffffffffffffffffffffffffffffffff1673ffffffffffffffffffffffffffffffffffffffff16815260200190815260200160002060030181905550806004600560008573ffffffffffffffffffffffffffffffffffffffff1673ffffffffffffffffffffffffffffffffffffffff168152602001908152602001600020600501548154811062000e585762000e5762002d31565b5b9060005260206000209060060201600301819055505050565b6001151562000e7f62001d73565b15151462000ec4576040517f08c379a000000000000000000000000000000000000000000000000000000000815260040162000ebb9062003150565b60405180910390fd5b600030858585853460405162000eda9062001f13565b62000eeb9695949392919062003297565b604051809103906000f08015801562000f08573d6000803e3d6000fd5b5090506001819080600181540180825580915050600190039060005260206000200160009091909190916101000a81548173ffffffffffffffffffffffffffffffffffffffff021916908373ffffffffffffffffffffffffffffffffffffffff1602179055508060026000600354815260200190815260200160002060006101000a81548173ffffffffffffffffffffffffffffffffffffffff021916908373ffffffffffffffffffffffffffffffffffffffff1602179055506003600081548092919062000fd79062002dd8565b91905055505050505050565b6001151562000ff162001d73565b15151462001036576040517f08c379a00000000000000000000000000000000000000000000000000000000081526004016200102d9062003150565b60405180910390fd5b600181815481106200104d576200104c62002d31565b5b9060005260206000200160009054906101000a900473ffffffffffffffffffffffffffffffffffffffff1673ffffffffffffffffffffffffffffffffffffffff166343d726d66040518163ffffffff1660e01b8152600401600060405180830381600087803b158015620010c057600080fd5b505af1158015620010d5573d6000803e3d6000fd5b5050505050565b60008073ffffffffffffffffffffffffffffffffffffffff16600560008473ffffffffffffffffffffffffffffffffffffffff1673ffffffffffffffffffffffffffffffffffffffff16815260200190815260200160002060020160009054906101000a900473ffffffffffffffffffffffffffffffffffffffff1673ffffffffffffffffffffffffffffffffffffffff1614159050919050565b6200118233620010dc565b620011c4576040517f08c379a0000000000000000000000000000000000000000000000000000000008152600401620011bb9062003369565b60405180910390fd5b6000151560018381548110620011df57620011de62002d31565b5b9060005260206000200160009054906101000a900473ffffffffffffffffffffffffffffffffffffffff1673ffffffffffffffffffffffffffffffffffffffff1663c2b6b58c6040518163ffffffff1660e01b8152600401602060405180830381865afa15801562001255573d6000803e3d6000fd5b505050506040513d601f19601f820116820180604052508101906200127b9190620033bc565b151514620012c0576040517f08c379a0000000000000000000000000000000000000000000000000000000008152600401620012b7906200343e565b60405180910390fd5b60018281548110620012d757620012d662002d31565b5b9060005260206000200160009054906101000a900473ffffffffffffffffffffffffffffffffffffffff1673ffffffffffffffffffffffffffffffffffffffff16633b9af89b33836040518363ffffffff1660e01b81526004016200133e92919062003460565b600060405180830381600087803b1580156200135957600080fd5b505af11580156200136e573d6000803e3d6000fd5b505050505050565b600115156200138462001d73565b151514620013c9576040517f08c379a0000000000000000000000000000000000000000000000000000000008152600401620013c09062003150565b60405180910390fd5b81600560008573ffffffffffffffffffffffffffffffffffffffff1673ffffffffffffffffffffffffffffffffffffffff16815260200190815260200160002060000190805190602001906200142192919062001e28565b5080600560008573ffffffffffffffffffffffffffffffffffffffff1673ffffffffffffffffffffffffffffffffffffffff16815260200190815260200160002060010190805190602001906200147a92919062001e28565b50816004600560008673ffffffffffffffffffffffffffffffffffffffff1673ffffffffffffffffffffffffffffffffffffffff1681526020019081526020016000206005015481548110620014d557620014d462002d31565b5b90600052602060002090600602016000019080519060200190620014fb92919062001e28565b50806004600560008673ffffffffffffffffffffffffffffffffffffffff1673ffffffffffffffffffffffffffffffffffffffff168152602001908152602001600020600501548154811062001556576200155562002d31565b5b906000526020600020906006020160010190805190602001906200157c92919062001e28565b50505050565b3373ffffffffffffffffffffffffffffffffffffffff16600560003373ffffffffffffffffffffffffffffffffffffffff1673ffffffffffffffffffffffffffffffffffffffff16815260200190815260200160002060020160009054906101000a900473ffffffffffffffffffffffffffffffffffffffff1673ffffffffffffffffffffffffffffffffffffffff161462001655576040517f08c379a00000000000000000000000000000000000000000000000000000000081526004016200164c90620034dd565b60405180910390fd5b81600560003373ffffffffffffffffffffffffffffffffffffffff1673ffffffffffffffffffffffffffffffffffffffff1681526020019081526020016000206000019080519060200190620016ad92919062001e28565b5080600560003373ffffffffffffffffffffffffffffffffffffffff1673ffffffffffffffffffffffffffffffffffffffff16815260200190815260200160002060010190805190602001906200170692919062001e28565b50816004600560003373ffffffffffffffffffffffffffffffffffffffff1673ffffffffffffffffffffffffffffffffffffffff168152602001908152602001600020600501548154811062001761576200176062002d31565b5b906000526020600020906006020160000190805190602001906200178792919062001e28565b50806004600560003373ffffffffffffffffffffffffffffffffffffffff1673ffffffffffffffffffffffffffffffffffffffff1681526020019081526020016000206005015481548110620017e257620017e162002d31565b5b906000526020600020906006020160010190805190602001906200180892919062001e28565b505050565b6200181762001ddc565b600560008373ffffffffffffffffffffffffffffffffffffffff1673ffffffffffffffffffffffffffffffffffffffff1681526020019081526020016000206040518060c001604052908160008201805462001873906200352e565b80601f0160208091040260200160405190810160405280929190818152602001828054620018a1906200352e565b8015620018f25780601f10620018c657610100808354040283529160200191620018f2565b820191906000526020600020905b815481529060010190602001808311620018d457829003601f168201915b505050505081526020016001820180546200190d906200352e565b80601f01602080910402602001604051908101604052809291908181526020018280546200193b906200352e565b80156200198c5780601f1062001960576101008083540402835291602001916200198c565b820191906000526020600020905b8154815290600101906020018083116200196e57829003601f168201915b505050505081526020016002820160009054906101000a900473ffffffffffffffffffffffffffffffffffffffff1673ffffffffffffffffffffffffffffffffffffffff1673ffffffffffffffffffffffffffffffffffffffff16815260200160038201548152602001600482015481526020016005820154815250509050919050565b6001151562001a1e62001d73565b15151462001a63576040517f08c379a000000000000000000000000000000000000000000000000000000000815260040162001a5a9062003150565b60405180910390fd5b6001828154811062001a7a5762001a7962002d31565b5b9060005260206000200160009054906101000a900473ffffffffffffffffffffffffffffffffffffffff1673ffffffffffffffffffffffffffffffffffffffff1663bb55f25c826040518263ffffffff1660e01b815260040162001adf919062001f5b565b600060405180830381600087803b15801562001afa57600080fd5b505af115801562001b0f573d6000803e3d6000fd5b505050505050565b60606001151562001b2762001d73565b15151462001b6c576040517f08c379a000000000000000000000000000000000000000000000000000000000815260040162001b639062003150565b60405180910390fd5b6004805480602002602001604051908101604052809291908181526020016000905b8282101562001d6a57838290600052602060002090600602016040518060c001604052908160008201805462001bc4906200352e565b80601f016020809104026020016040519081016040528092919081815260200182805462001bf2906200352e565b801562001c435780601f1062001c175761010080835404028352916020019162001c43565b820191906000526020600020905b81548152906001019060200180831162001c2557829003601f168201915b5050505050815260200160018201805462001c5e906200352e565b80601f016020809104026020016040519081016040528092919081815260200182805462001c8c906200352e565b801562001cdd5780601f1062001cb15761010080835404028352916020019162001cdd565b820191906000526020600020905b81548152906001019060200180831162001cbf57829003601f168201915b505050505081526020016002820160009054906101000a900473ffffffffffffffffffffffffffffffffffffffff1673ffffffffffffffffffffffffffffffffffffffff1673ffffffffffffffffffffffffffffffffffffffff16815260200160038201548152602001600482015481526020016005820154815250508152602001906001019062001b8e565b50505050905090565b60008060009054906101000a900473ffffffffffffffffffffffffffffffffffffffff1673ffffffffffffffffffffffffffffffffffffffff163373ffffffffffffffffffffffffffffffffffffffff1614905090565b600062001dd733620010dc565b905090565b6040518060c001604052806060815260200160608152602001600073ffffffffffffffffffffffffffffffffffffffff1681526020016000815260200160008152602001600081525090565b82805462001e36906200352e565b90600052602060002090601f01602090048101928262001e5a576000855562001ea6565b82601f1062001e7557805160ff191683800117855562001ea6565b8280016001018555821562001ea6579182015b8281111562001ea557825182559160200191906001019062001e88565b5b50905062001eb5919062001f21565b5090565b60405180610100016040528060008152602001606081526020016060815260200160608152602001600081526020016000600181111562001eff5762001efe620024de565b5b815260200160008152602001600081525090565b6123a2806200356483390190565b5b8082111562001f3c57600081600090555060010162001f22565b5090565b6000819050919050565b62001f558162001f40565b82525050565b600060208201905062001f72600083018462001f4a565b92915050565b600081519050919050565b600082825260208201905092915050565b60005b8381101562001fb457808201518184015260208101905062001f97565b8381111562001fc4576000848401525b50505050565b6000601f19601f8301169050919050565b600062001fe88262001f78565b62001ff4818562001f83565b93506200200681856020860162001f94565b620020118162001fca565b840191505092915050565b600073ffffffffffffffffffffffffffffffffffffffff82169050919050565b600062002049826200201c565b9050919050565b6200205b816200203c565b82525050565b6200206c8162001f40565b82525050565b600060c083016000830151848203600086015262002091828262001fdb565b91505060208301518482036020860152620020ad828262001fdb565b9150506040830151620020c4604086018262002050565b506060830151620020d9606086018262002061565b506080830151620020ee608086018262002061565b5060a08301516200210360a086018262002061565b508091505092915050565b600060208201905081810360008301526200212a818462002072565b905092915050565b6000604051905090565b600080fd5b600080fd5b620021518162001f40565b81146200215d57600080fd5b50565b600081359050620021718162002146565b92915050565b60006020828403121562002190576200218f6200213c565b5b6000620021a08482850162002160565b91505092915050565b600080fd5b600080fd5b7f4e487b7100000000000000000000000000000000000000000000000000000000600052604160045260246000fd5b620021ed8262001fca565b810181811067ffffffffffffffff821117156200220f576200220e620021b3565b5b80604052505050565b60006200222462002132565b9050620022328282620021e2565b919050565b600067ffffffffffffffff821115620022555762002254620021b3565b5b620022608262001fca565b9050602081019050919050565b82818337600083830152505050565b6000620022936200228d8462002237565b62002218565b905082815260208101848484011115620022b257620022b1620021ae565b5b620022bf8482856200226d565b509392505050565b600082601f830112620022df57620022de620021a9565b5b8135620022f18482602086016200227c565b91505092915050565b600080604083850312156200231457620023136200213c565b5b600083013567ffffffffffffffff81111562002335576200233462002141565b5b6200234385828601620022c7565b925050602083013567ffffffffffffffff81111562002367576200236662002141565b5b6200237585828601620022c7565b9150509250929050565b6200238a816200203c565b81146200239657600080fd5b50565b600081359050620023aa816200237f565b92915050565b600060208284031215620023c957620023c86200213c565b5b6000620023d98482850162002399565b91505092915050565b600081519050919050565b600082825260208201905092915050565b6000819050602082019050919050565b600081519050919050565b600082825260208201905092915050565b6000819050602082019050919050565b600062002448838362001fdb565b905092915050565b6000602082019050919050565b60006200246a826200240e565b62002476818562002419565b9350836020820285016200248a856200242a565b8060005b85811015620024cc5784840389528151620024aa85826200243a565b9450620024b78362002450565b925060208a019950506001810190506200248e565b50829750879550505050505092915050565b7f4e487b7100000000000000000000000000000000000000000000000000000000600052602160045260246000fd5b60028110620025215762002520620024de565b5b50565b600081905062002534826200250d565b919050565b6000620025468262002524565b9050919050565b620025588162002539565b82525050565b60006101008301600083015162002579600086018262002061565b506020830151848203602086015262002593828262001fdb565b91505060408301518482036040860152620025af828262001fdb565b91505060608301518482036060860152620025cb82826200245d565b9150506080830151620025e2608086018262002061565b5060a0830151620025f760a08601826200254d565b5060c08301516200260c60c086018262002061565b5060e08301516200262160e086018262002061565b508091505092915050565b60006200263a83836200255e565b905092915050565b6000602082019050919050565b60006200265c82620023e2565b620026688185620023ed565b9350836020820285016200267c85620023fe565b8060005b85811015620026be57848403895281516200269c85826200262c565b9450620026a98362002642565b925060208a0199505060018101905062002680565b50829750879550505050505092915050565b60006020820190508181036000830152620026ec81846200264f565b905092915050565b600067ffffffffffffffff821115620027125762002711620021b3565b5b602082029050602081019050919050565b600080fd5b60006200273f6200273984620026f4565b62002218565b9050808382526020820190506020840283018581111562002765576200276462002723565b5b835b81811015620027b357803567ffffffffffffffff8111156200278e576200278d620021a9565b5b8086016200279d8982620022c7565b8552602085019450505060208101905062002767565b5050509392505050565b600082601f830112620027d557620027d4620021a9565b5b8135620027e784826020860162002728565b91505092915050565b600080600080608085870312156200280d576200280c6200213c565b5b60006200281d8782880162002160565b945050602085013567ffffffffffffffff81111562002841576200284062002141565b5b6200284f87828801620022c7565b935050604085013567ffffffffffffffff81111562002873576200287262002141565b5b6200288187828801620022c7565b925050606085013567ffffffffffffffff811115620028a557620028a462002141565b5b620028b387828801620027bd565b91505092959194509250565b620028ca816200203c565b82525050565b6000602082019050620028e76000830184620028bf565b92915050565b600080604083850312156200290757620029066200213c565b5b6000620029178582860162002399565b92505060206200292a8582860162002160565b9150509250929050565b600080600080608085870312156200295157620029506200213c565b5b600085013567ffffffffffffffff81111562002972576200297162002141565b5b6200298087828801620022c7565b945050602085013567ffffffffffffffff811115620029a457620029a362002141565b5b620029b287828801620022c7565b935050604085013567ffffffffffffffff811115620029d657620029d562002141565b5b620029e487828801620027bd565b9250506060620029f78782880162002160565b91505092959194509250565b60008115159050919050565b62002a1a8162002a03565b82525050565b600060208201905062002a37600083018462002a0f565b92915050565b6000806040838503121562002a575762002a566200213c565b5b600062002a678582860162002160565b925050602062002a7a8582860162002160565b9150509250929050565b60008060006060848603121562002aa05762002a9f6200213c565b5b600062002ab08682870162002399565b935050602084013567ffffffffffffffff81111562002ad45762002ad362002141565b5b62002ae286828701620022c7565b925050604084013567ffffffffffffffff81111562002b065762002b0562002141565b5b62002b1486828701620022c7565b9150509250925092565b600081519050919050565b600082825260208201905092915050565b6000819050602082019050919050565b600060c083016000830151848203600086015262002b69828262001fdb565b9150506020830151848203602086015262002b85828262001fdb565b915050604083015162002b9c604086018262002050565b50606083015162002bb1606086018262002061565b50608083015162002bc6608086018262002061565b5060a083015162002bdb60a086018262002061565b508091505092915050565b600062002bf4838362002b4a565b905092915050565b6000602082019050919050565b600062002c168262002b1e565b62002c22818562002b29565b93508360208202850162002c368562002b3a565b8060005b8581101562002c78578484038952815162002c56858262002be6565b945062002c638362002bfc565b925060208a0199505060018101905062002c3a565b50829750879550505050505092915050565b6000602082019050818103600083015262002ca6818462002c09565b905092915050565b600082825260208201905092915050565b7f43616c6c65722069732041646d696e0000000000000000000000000000000000600082015250565b600062002cf7600f8362002cae565b915062002d048262002cbf565b602082019050919050565b6000602082019050818103600083015262002d2a8162002ce8565b9050919050565b7f4e487b7100000000000000000000000000000000000000000000000000000000600052603260045260246000fd5b60008151905062002d718162002146565b92915050565b60006020828403121562002d905762002d8f6200213c565b5b600062002da08482850162002d60565b91505092915050565b7f4e487b7100000000000000000000000000000000000000000000000000000000600052601160045260246000fd5b600062002de58262001f40565b91507fffffffffffffffffffffffffffffffffffffffffffffffffffffffffffffffff820362002e1a5762002e1962002da9565b5b600182019050919050565b600062002e328262001f40565b915062002e3f8362001f40565b9250827fffffffffffffffffffffffffffffffffffffffffffffffffffffffffffffffff0382111562002e775762002e7662002da9565b5b828201905092915050565b600062002e9962002e938462002237565b62002218565b90508281526020810184848401111562002eb85762002eb7620021ae565b5b62002ec584828562001f94565b509392505050565b600082601f83011262002ee55762002ee4620021a9565b5b815162002ef784826020860162002e82565b91505092915050565b600062002f1762002f1184620026f4565b62002218565b9050808382526020820190506020840283018581111562002f3d5762002f3c62002723565b5b835b8181101562002f8b57805167ffffffffffffffff81111562002f665762002f65620021a9565b5b80860162002f75898262002ecd565b8552602085019450505060208101905062002f3f565b5050509392505050565b600082601f83011262002fad5762002fac620021a9565b5b815162002fbf84826020860162002f00565b91505092915050565b6002811062002fd657600080fd5b50565b60008151905062002fea8162002fc8565b92915050565b600080600080600080600060e0888a0312156200301257620030116200213c565b5b600088015167ffffffffffffffff81111562003033576200303262002141565b5b620030418a828b0162002ecd565b975050602088015167ffffffffffffffff81111562003065576200306462002141565b5b620030738a828b0162002ecd565b965050604088015167ffffffffffffffff81111562003097576200309662002141565b5b620030a58a828b0162002f95565b9550506060620030b88a828b0162002d60565b9450506080620030cb8a828b0162002fd9565b93505060a0620030de8a828b0162002d60565b92505060c0620030f18a828b0162002d60565b91505092959891949750929550565b7f43616c6c6572206973206e6f742041646d696e00000000000000000000000000600082015250565b60006200313860138362002cae565b9150620031458262003100565b602082019050919050565b600060208201905081810360008301526200316b8162003129565b9050919050565b60006200317f8262001f78565b6200318b818562002cae565b93506200319d81856020860162001f94565b620031a88162001fca565b840191505092915050565b600082825260208201905092915050565b6000620031d1826200240e565b620031dd8185620031b3565b935083602082028501620031f1856200242a565b8060005b858110156200323357848403895281516200321185826200243a565b94506200321e8362002450565b925060208a01995050600181019050620031f5565b50829750879550505050505092915050565b6000606082019050818103600083015262003261818662003172565b9050818103602083015262003277818562003172565b905081810360408301526200328d8184620031c4565b9050949350505050565b600060c082019050620032ae6000830189620028bf565b8181036020830152620032c2818862003172565b90508181036040830152620032d8818762003172565b90508181036060830152620032ee8186620031c4565b9050620032ff608083018562001f4a565b6200330e60a083018462001f4a565b979650505050505050565b7f4e6f7420616c6c6f776564206361757365206e6f74207369676e656420696e00600082015250565b600062003351601f8362002cae565b91506200335e8262003319565b602082019050919050565b60006020820190508181036000830152620033848162003342565b9050919050565b620033968162002a03565b8114620033a257600080fd5b50565b600081519050620033b6816200338b565b92915050565b600060208284031215620033d557620033d46200213c565b5b6000620033e584828501620033a5565b91505092915050565b7f53657373696f6e20697320636c6f7365642e0000000000000000000000000000600082015250565b60006200342660128362002cae565b91506200343382620033ee565b602082019050919050565b60006020820190508181036000830152620034598162003417565b9050919050565b6000604082019050620034776000830185620028bf565b62003486602083018462001f4a565b9392505050565b7f596f7520617265206e6f7420616c6c6f77656400000000000000000000000000600082015250565b6000620034c560138362002cae565b9150620034d2826200348d565b602082019050919050565b60006020820190508181036000830152620034f881620034b6565b9050919050565b7f4e487b7100000000000000000000000000000000000000000000000000000000600052602260045260246000fd5b600060028204905060018216806200354757607f821691505b6020821081036200355d576200355c620034ff565b5b5091905056fe60806040526000600a55604051620023a2380380620023a283398181016040528101906200002e9190620005c6565b856000806101000a81548173ffffffffffffffffffffffffffffffffffffffff021916908373ffffffffffffffffffffffffffffffffffffffff1602179055506000600c60006101000a81548160ff02191690836001811115620000975762000096620006bf565b5b02179055508460019080519060200190620000b492919062000108565b508360029080519060200190620000cd92919062000108565b50806006819055508260039080519060200190620000ed92919062000199565b50816005819055504260078190555050505050505062000752565b82805462000116906200071d565b90600052602060002090601f0160209004810192826200013a576000855562000186565b82601f106200015557805160ff191683800117855562000186565b8280016001018555821562000186579182015b828111156200018557825182559160200191906001019062000168565b5b50905062000195919062000200565b5090565b828054828255906000526020600020908101928215620001ed579160200282015b82811115620001ec578251829080519060200190620001db92919062000108565b5091602001919060010190620001ba565b5b509050620001fc91906200021f565b5090565b5b808211156200021b57600081600090555060010162000201565b5090565b5b8082111562000243576000818162000239919062000247565b5060010162000220565b5090565b50805462000255906200071d565b6000825580601f106200026957506200028a565b601f01602090049060005260206000209081019062000289919062000200565b5b50565b6000604051905090565b600080fd5b600080fd5b600073ffffffffffffffffffffffffffffffffffffffff82169050919050565b6000620002ce82620002a1565b9050919050565b620002e081620002c1565b8114620002ec57600080fd5b50565b6000815190506200030081620002d5565b92915050565b600080fd5b600080fd5b6000601f19601f8301169050919050565b7f4e487b7100000000000000000000000000000000000000000000000000000000600052604160045260246000fd5b6200035b8262000310565b810181811067ffffffffffffffff821117156200037d576200037c62000321565b5b80604052505050565b6000620003926200028d565b9050620003a0828262000350565b919050565b600067ffffffffffffffff821115620003c357620003c262000321565b5b620003ce8262000310565b9050602081019050919050565b60005b83811015620003fb578082015181840152602081019050620003de565b838111156200040b576000848401525b50505050565b6000620004286200042284620003a5565b62000386565b9050828152602081018484840111156200044757620004466200030b565b5b62000454848285620003db565b509392505050565b600082601f83011262000474576200047362000306565b5b81516200048684826020860162000411565b91505092915050565b600067ffffffffffffffff821115620004ad57620004ac62000321565b5b602082029050602081019050919050565b600080fd5b6000620004da620004d4846200048f565b62000386565b905080838252602082019050602084028301858111156200050057620004ff620004be565b5b835b818110156200054e57805167ffffffffffffffff81111562000529576200052862000306565b5b8086016200053889826200045c565b8552602085019450505060208101905062000502565b5050509392505050565b600082601f83011262000570576200056f62000306565b5b815162000582848260208601620004c3565b91505092915050565b6000819050919050565b620005a0816200058b565b8114620005ac57600080fd5b50565b600081519050620005c08162000595565b92915050565b60008060008060008060c08789031215620005e657620005e562000297565b5b6000620005f689828a01620002ef565b965050602087015167ffffffffffffffff8111156200061a57620006196200029c565b5b6200062889828a016200045c565b955050604087015167ffffffffffffffff8111156200064c576200064b6200029c565b5b6200065a89828a016200045c565b945050606087015167ffffffffffffffff8111156200067e576200067d6200029c565b5b6200068c89828a0162000558565b93505060806200069f89828a01620005af565b92505060a0620006b289828a01620005af565b9150509295509295509295565b7f4e487b7100000000000000000000000000000000000000000000000000000000600052602160045260246000fd5b7f4e487b7100000000000000000000000000000000000000000000000000000000600052602260045260246000fd5b600060028204905060018216806200073657607f821691505b6020821081036200074c576200074b620006ee565b5b50919050565b611c4080620007626000396000f3fe608060405234801561001057600080fd5b50600436106100885760003560e01c80637278f4d81161005b5780637278f4d8146100f35780637a8cf8c714610111578063bb55f25c14610142578063c2b6b58c1461015e57610088565b80631d7e99c51461008d5780633b9af89b146100a957806343d726d6146100c55780635a9b0b89146100cf575b600080fd5b6100a760048036038101906100a291906111fd565b61017c565b005b6100c360048036038101906100be9190611338565b610254565b005b6100cd6105cb565b005b6100d761068e565b6040516100ea9796959493929190611592565b60405180910390f35b6100fb6108ba565b6040516101089190611616565b60405180910390f35b61012b60048036038101906101269190611631565b6108c4565b60405161013992919061165e565b60405180910390f35b61015c60048036038101906101579190611687565b610981565b005b610166610be6565b60405161017391906116cf565b60405180910390f35b60008054906101000a900473ffffffffffffffffffffffffffffffffffffffff1673ffffffffffffffffffffffffffffffffffffffff163373ffffffffffffffffffffffffffffffffffffffff161461020a576040517f08c379a000000000000000000000000000000000000000000000000000000000815260040161020190611736565b60405180910390fd5b8260019080519060200190610220929190610e56565b508160029080519060200190610237929190610e56565b50806003908051906020019061024e929190610edc565b50505050565b60008054906101000a900473ffffffffffffffffffffffffffffffffffffffff1673ffffffffffffffffffffffffffffffffffffffff163373ffffffffffffffffffffffffffffffffffffffff16146102e2576040517f08c379a00000000000000000000000000000000000000000000000000000000081526004016102d990611736565b60405180910390fd5b600073ffffffffffffffffffffffffffffffffffffffff16600b60008473ffffffffffffffffffffffffffffffffffffffff1673ffffffffffffffffffffffffffffffffffffffff16815260200190815260200160002060000160009054906101000a900473ffffffffffffffffffffffffffffffffffffffff1673ffffffffffffffffffffffffffffffffffffffff160361057f57600060405180606001604052808473ffffffffffffffffffffffffffffffffffffffff168152602001838152602001600a548152509050600981908060018154018082558091505060019003906000526020600020906003020160009091909190915060008201518160000160006101000a81548173ffffffffffffffffffffffffffffffffffffffff021916908373ffffffffffffffffffffffffffffffffffffffff1602179055506020820151816001015560408201518160020155505080600b60008573ffffffffffffffffffffffffffffffffffffffff1673ffffffffffffffffffffffffffffffffffffffff16815260200190815260200160002060008201518160000160006101000a81548173ffffffffffffffffffffffffffffffffffffffff021916908373ffffffffffffffffffffffffffffffffffffffff1602179055506020820151816001015560408201518160020155905050600a60008154809291906104e990611785565b919050555060008054906101000a900473ffffffffffffffffffffffffffffffffffffffff1673ffffffffffffffffffffffffffffffffffffffff166351650ecb846040518263ffffffff1660e01b815260040161054791906117dc565b600060405180830381600087803b15801561056157600080fd5b505af1158015610575573d6000803e3d6000fd5b50505050506105c7565b80600b60008473ffffffffffffffffffffffffffffffffffffffff1673ffffffffffffffffffffffffffffffffffffffff168152602001908152602001600020600101819055505b5050565b60008054906101000a900473ffffffffffffffffffffffffffffffffffffffff1673ffffffffffffffffffffffffffffffffffffffff163373ffffffffffffffffffffffffffffffffffffffff1614610659576040517f08c379a000000000000000000000000000000000000000000000000000000000815260040161065090611736565b60405180910390fd5b6001600c60006101000a81548160ff0219169083600181111561067f5761067e61151b565b5b021790555061068c610cda565b565b6060806060600080600080600160026003600554600c60009054906101000a900460ff166004546008548680546106c490611826565b80601f01602080910402602001604051908101604052809291908181526020018280546106f090611826565b801561073d5780601f106107125761010080835404028352916020019161073d565b820191906000526020600020905b81548152906001019060200180831161072057829003601f168201915b5050505050965085805461075090611826565b80601f016020809104026020016040519081016040528092919081815260200182805461077c90611826565b80156107c95780601f1061079e576101008083540402835291602001916107c9565b820191906000526020600020905b8154815290600101906020018083116107ac57829003601f168201915b5050505050955084805480602002602001604051908101604052809291908181526020016000905b8282101561089d57838290600052602060002001805461081090611826565b80601f016020809104026020016040519081016040528092919081815260200182805461083c90611826565b80156108895780601f1061085e57610100808354040283529160200191610889565b820191906000526020600020905b81548152906001019060200180831161086c57829003601f168201915b5050505050815260200190600101906107f1565b505050509450965096509650965096509650965090919293949596565b6000600454905090565b60008060008060009054906101000a900473ffffffffffffffffffffffffffffffffffffffff1673ffffffffffffffffffffffffffffffffffffffff1663d716c549856040518263ffffffff1660e01b815260040161092391906117dc565b6000604051808303816000875af1158015610942573d6000803e3d6000fd5b505050506040513d6000823e3d601f19601f8201168201806040525081019061096b91906119d3565b9050806060015181608001519250925050915091565b60008054906101000a900473ffffffffffffffffffffffffffffffffffffffff1673ffffffffffffffffffffffffffffffffffffffff163373ffffffffffffffffffffffffffffffffffffffff1614610a0f576040517f08c379a0000000000000000000000000000000000000000000000000000000008152600401610a0690611736565b60405180910390fd5b8060088190555060005b600a54811015610be257600060098281548110610a3957610a38611a1c565b5b90600052602060002090600302016040518060600160405290816000820160009054906101000a900473ffffffffffffffffffffffffffffffffffffffff1673ffffffffffffffffffffffffffffffffffffffff1673ffffffffffffffffffffffffffffffffffffffff168152602001600182015481526020016002820154815250509050600081600001519050600080610ad3836108c4565b915091506000606487610af487602001518a610aef9190611a4b565b610e34565b610afe9190611aae565b610b089190611adf565b90506000600183610b199190611b39565b828486610b269190611adf565b610b309190611b39565b610b3a9190611aae565b905060008054906101000a900473ffffffffffffffffffffffffffffffffffffffff1673ffffffffffffffffffffffffffffffffffffffff1663937f4a2686836040518363ffffffff1660e01b8152600401610b97929190611b8f565b600060405180830381600087803b158015610bb157600080fd5b505af1158015610bc5573d6000803e3d6000fd5b505050505050505050508080610bda90611785565b915050610a19565b5050565b60008060009054906101000a900473ffffffffffffffffffffffffffffffffffffffff1673ffffffffffffffffffffffffffffffffffffffff163373ffffffffffffffffffffffffffffffffffffffff1614610c77576040517f08c379a0000000000000000000000000000000000000000000000000000000008152600401610c6e90611736565b60405180910390fd5b600060055414158015610cd55750600180811115610c9857610c9761151b565b5b600c60009054906101000a900460ff166001811115610cba57610cb961151b565b5b1480610cd4575042600554600754610cd29190611b39565b115b5b905090565b600080600a5403610cf2576000600481905550610e31565b600080600092505b600a54831015610e0357600060098481548110610d1a57610d19611a1c565b5b90600052602060002090600302016040518060600160405290816000820160009054906101000a900473ffffffffffffffffffffffffffffffffffffffff1673ffffffffffffffffffffffffffffffffffffffff1673ffffffffffffffffffffffffffffffffffffffff1681526020016001820154815260200160028201548152505090506000816000015190506000610db3826108c4565b5090508085610dc29190611b39565b9450806064610dd19190611a4b565b8360200151610de09190611adf565b84610deb9190611b39565b93505050508280610dfb90611785565b935050610cfa565b81600a546064610e139190611adf565b610e1d9190611a4b565b81610e289190611aae565b60048190555050505b50565b600080821215610e4d5781610e4890611bc2565b610e4f565b815b9050919050565b828054610e6290611826565b90600052602060002090601f016020900481019282610e845760008555610ecb565b82601f10610e9d57805160ff1916838001178555610ecb565b82800160010185558215610ecb579182015b82811115610eca578251825591602001919060010190610eaf565b5b509050610ed89190610f3c565b5090565b828054828255906000526020600020908101928215610f2b579160200282015b82811115610f2a578251829080519060200190610f1a929190610e56565b5091602001919060010190610efc565b5b509050610f389190610f59565b5090565b5b80821115610f55576000816000905550600101610f3d565b5090565b5b80821115610f795760008181610f709190610f7d565b50600101610f5a565b5090565b508054610f8990611826565b6000825580601f10610f9b5750610fba565b601f016020900490600052602060002090810190610fb99190610f3c565b5b50565b6000604051905090565b600080fd5b600080fd5b600080fd5b600080fd5b6000601f19601f8301169050919050565b7f4e487b7100000000000000000000000000000000000000000000000000000000600052604160045260246000fd5b61102482610fdb565b810181811067ffffffffffffffff8211171561104357611042610fec565b5b80604052505050565b6000611056610fbd565b9050611062828261101b565b919050565b600067ffffffffffffffff82111561108257611081610fec565b5b61108b82610fdb565b9050602081019050919050565b82818337600083830152505050565b60006110ba6110b584611067565b61104c565b9050828152602081018484840111156110d6576110d5610fd6565b5b6110e1848285611098565b509392505050565b600082601f8301126110fe576110fd610fd1565b5b813561110e8482602086016110a7565b91505092915050565b600067ffffffffffffffff82111561113257611131610fec565b5b602082029050602081019050919050565b600080fd5b600061115b61115684611117565b61104c565b9050808382526020820190506020840283018581111561117e5761117d611143565b5b835b818110156111c557803567ffffffffffffffff8111156111a3576111a2610fd1565b5b8086016111b089826110e9565b85526020850194505050602081019050611180565b5050509392505050565b600082601f8301126111e4576111e3610fd1565b5b81356111f4848260208601611148565b91505092915050565b60008060006060848603121561121657611215610fc7565b5b600084013567ffffffffffffffff81111561123457611233610fcc565b5b611240868287016110e9565b935050602084013567ffffffffffffffff81111561126157611260610fcc565b5b61126d868287016110e9565b925050604084013567ffffffffffffffff81111561128e5761128d610fcc565b5b61129a868287016111cf565b9150509250925092565b600073ffffffffffffffffffffffffffffffffffffffff82169050919050565b60006112cf826112a4565b9050919050565b6112df816112c4565b81146112ea57600080fd5b50565b6000813590506112fc816112d6565b92915050565b6000819050919050565b61131581611302565b811461132057600080fd5b50565b6000813590506113328161130c565b92915050565b6000806040838503121561134f5761134e610fc7565b5b600061135d858286016112ed565b925050602061136e85828601611323565b9150509250929050565b600081519050919050565b600082825260208201905092915050565b60005b838110156113b2578082015181840152602081019050611397565b838111156113c1576000848401525b50505050565b60006113d282611378565b6113dc8185611383565b93506113ec818560208601611394565b6113f581610fdb565b840191505092915050565b600081519050919050565b600082825260208201905092915050565b6000819050602082019050919050565b600082825260208201905092915050565b600061144882611378565b611452818561142c565b9350611462818560208601611394565b61146b81610fdb565b840191505092915050565b6000611482838361143d565b905092915050565b6000602082019050919050565b60006114a282611400565b6114ac818561140b565b9350836020820285016114be8561141c565b8060005b858110156114fa57848403895281516114db8582611476565b94506114e68361148a565b925060208a019950506001810190506114c2565b50829750879550505050505092915050565b61151581611302565b82525050565b7f4e487b7100000000000000000000000000000000000000000000000000000000600052602160045260246000fd5b6002811061155b5761155a61151b565b5b50565b600081905061156c8261154a565b919050565b600061157c8261155e565b9050919050565b61158c81611571565b82525050565b600060e08201905081810360008301526115ac818a6113c7565b905081810360208301526115c081896113c7565b905081810360408301526115d48188611497565b90506115e3606083018761150c565b6115f06080830186611583565b6115fd60a083018561150c565b61160a60c083018461150c565b98975050505050505050565b600060208201905061162b600083018461150c565b92915050565b60006020828403121561164757611646610fc7565b5b6000611655848285016112ed565b91505092915050565b6000604082019050611673600083018561150c565b611680602083018461150c565b9392505050565b60006020828403121561169d5761169c610fc7565b5b60006116ab84828501611323565b91505092915050565b60008115159050919050565b6116c9816116b4565b82525050565b60006020820190506116e460008301846116c0565b92915050565b7f4f6e6c7920706172656e7420636f6e747261637420697320616c6c6f77000000600082015250565b6000611720601d83611383565b915061172b826116ea565b602082019050919050565b6000602082019050818103600083015261174f81611713565b9050919050565b7f4e487b7100000000000000000000000000000000000000000000000000000000600052601160045260246000fd5b600061179082611302565b91507fffffffffffffffffffffffffffffffffffffffffffffffffffffffffffffffff82036117c2576117c1611756565b5b600182019050919050565b6117d6816112c4565b82525050565b60006020820190506117f160008301846117cd565b92915050565b7f4e487b7100000000000000000000000000000000000000000000000000000000600052602260045260246000fd5b6000600282049050600182168061183e57607f821691505b602082108103611851576118506117f7565b5b50919050565b600080fd5b600080fd5b600061187461186f84611067565b61104c565b9050828152602081018484840111156118905761188f610fd6565b5b61189b848285611394565b509392505050565b600082601f8301126118b8576118b7610fd1565b5b81516118c8848260208601611861565b91505092915050565b6000815190506118e0816112d6565b92915050565b6000815190506118f58161130c565b92915050565b600060c0828403121561191157611910611857565b5b61191b60c061104c565b9050600082015167ffffffffffffffff81111561193b5761193a61185c565b5b611947848285016118a3565b600083015250602082015167ffffffffffffffff81111561196b5761196a61185c565b5b611977848285016118a3565b602083015250604061198b848285016118d1565b604083015250606061199f848285016118e6565b60608301525060806119b3848285016118e6565b60808301525060a06119c7848285016118e6565b60a08301525092915050565b6000602082840312156119e9576119e8610fc7565b5b600082015167ffffffffffffffff811115611a0757611a06610fcc565b5b611a13848285016118fb565b91505092915050565b7f4e487b7100000000000000000000000000000000000000000000000000000000600052603260045260246000fd5b6000611a5682611302565b9150611a6183611302565b925082821015611a7457611a73611756565b5b828203905092915050565b7f4e487b7100000000000000000000000000000000000000000000000000000000600052601260045260246000fd5b6000611ab982611302565b9150611ac483611302565b925082611ad457611ad3611a7f565b5b828204905092915050565b6000611aea82611302565b9150611af583611302565b9250817fffffffffffffffffffffffffffffffffffffffffffffffffffffffffffffffff0483118215151615611b2e57611b2d611756565b5b828202905092915050565b6000611b4482611302565b9150611b4f83611302565b9250827fffffffffffffffffffffffffffffffffffffffffffffffffffffffffffffffff03821115611b8457611b83611756565b5b828201905092915050565b6000604082019050611ba460008301856117cd565b611bb1602083018461150c565b9392505050565b6000819050919050565b6000611bcd82611bb8565b91507f80000000000000000000000000000000000000000000000000000000000000008203611bff57611bfe611756565b5b81600003905091905056fea26469706673582212206a65f7e508dbd4861e1245838fbe3d5bd67d9fcf6fb52bbbf2f3b7cb7068c67964736f6c634300080d0033a26469706673582212206e3290ada7ef1f568a5ee2ee9c9e4e2833e2c0387e6c20a285ede1e9ac12894c64736f6c634300080d0033",
  "immutableReferences": {},
  "source": "// SPDX-License-Identifier: GPL-3.0\n\npragma solidity >=0.8.0;\n\nimport \"./Session.sol\";\nimport \"./Admin.sol\";\nimport \"./Type.sol\";\n\ncontract Main is Admin {\n    Session[] private sessionList;\n    mapping(uint256 => Session) private sessionMap;\n    uint256 sessionIndex = 0;\n\n    Participant[] private participantList;\n    mapping(address => Participant) private participantMap;\n    uint256 participantIndex = 0;\n\n    modifier isParticipant() {\n        require(isSignIn(msg.sender), \"Not allowed cause not signed in\");\n        _;\n    }\n\n    constructor() {}\n\n    function initSession(\n        string memory _name,\n        string memory _description,\n        string[] memory _images,\n        uint256 _timeout\n    ) public payable isAdmin {\n        Session session = new Session(\n            address(this),\n            _name,\n            _description,\n            _images,\n            _timeout,\n            msg.value\n        );\n        sessionList.push(session);\n        sessionMap[sessionIndex] = session;\n        sessionIndex++;\n    }\n\n    function closeSession(uint256 _sessionIndex) public isAdmin {\n        sessionList[_sessionIndex].close();\n    }\n\n    function setFinalPrice(uint256 _sessionIndex, uint256 _finalPrice)\n        public\n        isAdmin\n    {\n        sessionList[_sessionIndex].setFinalPrice(_finalPrice);\n    }\n\n    function getSessions() public view returns (SessionInfo[] memory) {\n        uint256 i;\n        SessionInfo[] memory result = new SessionInfo[](sessionIndex);\n\n        for (i = 0; i < sessionIndex; i++) {\n            Session currentSession = sessionList[i];\n            (\n                string memory name,\n                string memory description,\n                string[] memory images,\n                uint256 timeout,\n                SessionState state,\n                uint256 proposePrice,\n                uint256 finalPrice\n            ) = currentSession.getInfo();\n            SessionInfo memory info = SessionInfo(\n                i,\n                name,\n                description,\n                images,\n                timeout,\n                state,\n                proposePrice,\n                finalPrice\n            );\n            result[i] = info;\n        }\n\n        return result;\n    }\n\n    function updateSession(\n        uint256 _sessionIndex,\n        string memory _name,\n        string memory _description,\n        string[] memory _images\n    ) public isAdmin {\n        sessionList[_sessionIndex].update(_name, _description, _images);\n    }\n\n    function submitPrice(uint256 _sessionIndex, uint256 _price)\n        public\n        isParticipant\n    {\n        require(\n            sessionList[_sessionIndex].isClosed() == false,\n            \"Session is closed.\"\n        );\n        //require session is not closed.\n\n        sessionList[_sessionIndex].submitPrice(msg.sender, _price);\n    }\n\n    function getSessionProposePrice(uint256 _sessionIndex) public view returns (uint256) {\n        return  sessionList[_sessionIndex].getProposePrice();\n    }\n\n    function getParticipantList() public view isAdmin returns (Participant[] memory) {\n        return participantList;\n    }\n\n    function register(string memory _email, string memory _name) public {\n        Participant memory participant = Participant(\n            _email,\n            _name,\n            msg.sender,\n            1,\n            0,\n            participantIndex\n        );\n        participantList.push(participant);\n        participantMap[msg.sender] = participant;\n        participantIndex++;\n    }\n\n    function getParticipantDetail(address _participantAddr)\n        public\n        view\n        returns (Participant memory)\n    {\n        return participantMap[_participantAddr];\n    }\n\n    function getCurrentParticipantDetail()\n        public\n        view\n        isNotAdmin\n        returns (Participant memory)\n    {\n        return getParticipantDetail(msg.sender);\n    }\n\n    function updateParticipantInfo(address _participantAddr,string memory _email, string memory _name)\n        public\n        isAdmin\n    {\n        participantMap[_participantAddr].email = _email;\n        participantMap[_participantAddr].name = _name;\n        participantList[participantMap[_participantAddr].index].email = _email;\n        participantList[participantMap[_participantAddr].index].name = _name;\n    }\n\n    function updateCurrentParticipantInfo(string memory _email, string memory _name)\n        public\n    {\n        require(\n            participantMap[msg.sender].account == msg.sender,\n            \"You are not allowed\"\n        );\n        participantMap[msg.sender].email = _email;\n        participantMap[msg.sender].name = _name;\n        participantList[participantMap[msg.sender].index].email = _email;\n        participantList[participantMap[msg.sender].index].name = _name;\n    }\n\n    function isSignIn(address _account) public view returns (bool) {\n        return participantMap[_account].account != address(0);\n    }\n\n    function checkRole() public view returns (uint256) {\n        if (checkAdmin() == true) return 1;\n        if (signIn() == true) return 2;\n        return 0;\n    }\n\n\n\n    function signIn() internal view returns (bool) {\n        return isSignIn(msg.sender);\n    }\n\n    function increaseParticipantSessionCount(address _participantAddr) external {\n        uint256 newCount = participantMap[_participantAddr].sessionsCount + 1;\n        participantMap[_participantAddr].sessionsCount = newCount;\n        participantList[participantMap[_participantAddr].index]\n            .sessionsCount = newCount;\n    }\n\n    function updateParticipantDeviation(address _participantAddr, uint256 _deviation)\n        external\n    {\n        participantMap[_participantAddr].deviation = _deviation;\n        participantList[participantMap[_participantAddr].index].deviation = _deviation;\n    }\n\n    receive() external payable {}\n}\n",
  "sourcePath": "/Users/minh/Projects/Funix/pricing-chain/contracts/Main.sol",
  "compiler": {
    "name": "solc",
    "version": "0.8.13+commit.abaa5c0e.Emscripten.clang"
  },
  "schemaVersion": "3.4.5",
  "updatedAt": "2022-03-25T12:01:50.560Z",
  "networkType": "ethereum",
  "devdoc": {
    "kind": "dev",
    "methods": {},
    "version": 1
  },
  "userdoc": {
    "kind": "user",
    "methods": {},
    "version": 1
  }
}