{
  "contractName": "Main",
  "abi": [
    {
      "inputs": [],
      "stateMutability": "nonpayable",
      "type": "constructor"
    },
    {
      "anonymous": false,
      "inputs": [
        {
          "indexed": true,
          "internalType": "address",
          "name": "oldAdmin",
          "type": "address"
        },
        {
          "indexed": true,
          "internalType": "address",
          "name": "newAdmin",
          "type": "address"
        }
      ],
      "name": "AdminSet",
      "type": "event"
    },
    {
      "inputs": [
        {
          "internalType": "address",
          "name": "newAdmin",
          "type": "address"
        }
      ],
      "name": "changeAdmin",
      "outputs": [],
      "stateMutability": "nonpayable",
      "type": "function"
    },
    {
      "inputs": [],
      "name": "checkAdmin",
      "outputs": [
        {
          "internalType": "bool",
          "name": "",
          "type": "bool"
        }
      ],
      "stateMutability": "view",
      "type": "function",
      "constant": true
    },
    {
      "inputs": [],
      "name": "getAdmin",
      "outputs": [
        {
          "internalType": "address",
          "name": "",
          "type": "address"
        }
      ],
      "stateMutability": "view",
      "type": "function",
      "constant": true
    },
    {
      "stateMutability": "payable",
      "type": "receive",
      "payable": true
    },
    {
      "inputs": [
        {
          "internalType": "string",
          "name": "_name",
          "type": "string"
        },
        {
          "internalType": "string",
          "name": "_description",
          "type": "string"
        },
        {
          "internalType": "string[]",
          "name": "_images",
          "type": "string[]"
        },
        {
          "internalType": "uint256",
          "name": "_timeout",
          "type": "uint256"
        }
      ],
      "name": "initSession",
      "outputs": [],
      "stateMutability": "payable",
      "type": "function",
      "payable": true
    },
    {
      "inputs": [
        {
          "internalType": "uint256",
          "name": "_sessionIndex",
          "type": "uint256"
        }
      ],
      "name": "closeSession",
      "outputs": [],
      "stateMutability": "nonpayable",
      "type": "function"
    },
    {
      "inputs": [
        {
          "internalType": "uint256",
          "name": "_sessionIndex",
          "type": "uint256"
        },
        {
          "internalType": "uint256",
          "name": "_finalPrice",
          "type": "uint256"
        }
      ],
      "name": "setFinalPrice",
      "outputs": [],
      "stateMutability": "nonpayable",
      "type": "function"
    },
    {
      "inputs": [],
      "name": "getSessions",
      "outputs": [
        {
          "internalType": "contract Session[]",
          "name": "",
          "type": "address[]"
        }
      ],
      "stateMutability": "view",
      "type": "function",
      "constant": true
    },
    {
      "inputs": [
        {
          "internalType": "uint256",
          "name": "_sessionIndex",
          "type": "uint256"
        },
        {
          "internalType": "string",
          "name": "_name",
          "type": "string"
        },
        {
          "internalType": "string",
          "name": "_description",
          "type": "string"
        },
        {
          "internalType": "string[]",
          "name": "_images",
          "type": "string[]"
        }
      ],
      "name": "updateSession",
      "outputs": [],
      "stateMutability": "nonpayable",
      "type": "function"
    },
    {
      "inputs": [
        {
          "internalType": "uint256",
          "name": "_sessionIndex",
          "type": "uint256"
        },
        {
          "internalType": "uint256",
          "name": "_price",
          "type": "uint256"
        }
      ],
      "name": "submitPrice",
      "outputs": [],
      "stateMutability": "nonpayable",
      "type": "function"
    },
    {
      "inputs": [],
      "name": "getParticipantList",
      "outputs": [
        {
          "components": [
            {
              "internalType": "string",
              "name": "email",
              "type": "string"
            },
            {
              "internalType": "string",
              "name": "name",
              "type": "string"
            },
            {
              "internalType": "address",
              "name": "account",
              "type": "address"
            },
            {
              "internalType": "uint256",
              "name": "deviation",
              "type": "uint256"
            },
            {
              "internalType": "uint256",
              "name": "sessionsCount",
              "type": "uint256"
            },
            {
              "internalType": "uint256",
              "name": "index",
              "type": "uint256"
            }
          ],
          "internalType": "struct Participant[]",
          "name": "",
          "type": "tuple[]"
        }
      ],
      "stateMutability": "view",
      "type": "function",
      "constant": true
    },
    {
      "inputs": [
        {
          "internalType": "string",
          "name": "_email",
          "type": "string"
        },
        {
          "internalType": "string",
          "name": "_name",
          "type": "string"
        }
      ],
      "name": "register",
      "outputs": [],
      "stateMutability": "nonpayable",
      "type": "function"
    },
    {
      "inputs": [
        {
          "internalType": "address",
          "name": "_account",
          "type": "address"
        }
      ],
      "name": "getParticipantDetail",
      "outputs": [
        {
          "components": [
            {
              "internalType": "string",
              "name": "email",
              "type": "string"
            },
            {
              "internalType": "string",
              "name": "name",
              "type": "string"
            },
            {
              "internalType": "address",
              "name": "account",
              "type": "address"
            },
            {
              "internalType": "uint256",
              "name": "deviation",
              "type": "uint256"
            },
            {
              "internalType": "uint256",
              "name": "sessionsCount",
              "type": "uint256"
            },
            {
              "internalType": "uint256",
              "name": "index",
              "type": "uint256"
            }
          ],
          "internalType": "struct Participant",
          "name": "",
          "type": "tuple"
        }
      ],
      "stateMutability": "view",
      "type": "function",
      "constant": true
    },
    {
      "inputs": [],
      "name": "getCurrentParticiapntDetail",
      "outputs": [
        {
          "components": [
            {
              "internalType": "string",
              "name": "email",
              "type": "string"
            },
            {
              "internalType": "string",
              "name": "name",
              "type": "string"
            },
            {
              "internalType": "address",
              "name": "account",
              "type": "address"
            },
            {
              "internalType": "uint256",
              "name": "deviation",
              "type": "uint256"
            },
            {
              "internalType": "uint256",
              "name": "sessionsCount",
              "type": "uint256"
            },
            {
              "internalType": "uint256",
              "name": "index",
              "type": "uint256"
            }
          ],
          "internalType": "struct Participant",
          "name": "",
          "type": "tuple"
        }
      ],
      "stateMutability": "view",
      "type": "function",
      "constant": true
    },
    {
      "inputs": [],
      "name": "signIn",
      "outputs": [
        {
          "internalType": "bool",
          "name": "",
          "type": "bool"
        }
      ],
      "stateMutability": "view",
      "type": "function",
      "constant": true
    },
    {
      "inputs": [
        {
          "internalType": "string",
          "name": "_email",
          "type": "string"
        },
        {
          "internalType": "string",
          "name": "_name",
          "type": "string"
        }
      ],
      "name": "updateParticipantInfo",
      "outputs": [],
      "stateMutability": "nonpayable",
      "type": "function"
    },
    {
      "inputs": [
        {
          "internalType": "address",
          "name": "_account",
          "type": "address"
        }
      ],
      "name": "increaseParticipantSessionCount",
      "outputs": [],
      "stateMutability": "nonpayable",
      "type": "function"
    },
    {
      "inputs": [
        {
          "internalType": "address",
          "name": "_account",
          "type": "address"
        },
        {
          "internalType": "uint256",
          "name": "_deviation",
          "type": "uint256"
        }
      ],
      "name": "updateParticipantDeviation",
      "outputs": [],
      "stateMutability": "nonpayable",
      "type": "function"
    },
    {
      "inputs": [
        {
          "internalType": "address",
          "name": "account",
          "type": "address"
        }
      ],
      "name": "isSignIn",
      "outputs": [
        {
          "internalType": "bool",
          "name": "",
          "type": "bool"
        }
      ],
      "stateMutability": "view",
      "type": "function",
      "constant": true
    }
  ],
  "bytecode": "0x60806040526000600355600060065534801561001a57600080fd5b50336000806101000a81548173ffffffffffffffffffffffffffffffffffffffff021916908373ffffffffffffffffffffffffffffffffffffffff16021790555060008054906101000a900473ffffffffffffffffffffffffffffffffffffffff1673ffffffffffffffffffffffffffffffffffffffff16600073ffffffffffffffffffffffffffffffffffffffff167fbf265e8326285a2747e33e54d5945f7111f2b5edb826eb8c08d4677779b3ff9760405160405180910390a3614913806100e56000396000f3fe608060405260043610620001275760003560e01c80639e4cda4311620000a3578063ab150226116200006d578063ab150226146200039a578063b3b548eb14620003ca578063d716c54914620003f8578063e425349e146200043c578063ed214fff146200046a576200012f565b80639e4cda4314620002c8578063a3bfdf4714620002f8578063a79ddddc1462000326578063a961cb9c1462000356576200012f565b80636e9960c311620000f15780636e9960c314620001ee5780638f283970146200021e5780639214613c146200024c578063937f4a26146200027a578063985fddea14620002a8576200012f565b80633ffbd47f146200013457806351650ecb146200016257806361503e45146200019057806367677ce514620001c0576200012f565b366200012f57005b600080fd5b3480156200014157600080fd5b506200016060048036038101906200015a919062001b00565b6200049a565b005b3480156200016f57600080fd5b506200018e600480360381019062000188919062001bea565b620006bb565b005b3480156200019d57600080fd5b50620001a8620007ca565b604051620001b7919062001d44565b60405180910390f35b348015620001cd57600080fd5b50620001ec6004803603810190620001e6919062001e9f565b6200085a565b005b348015620001fb57600080fd5b506200020662000967565b60405162000215919062001f7f565b60405180910390f35b3480156200022b57600080fd5b506200024a600480360381019062000244919062001bea565b62000990565b005b3480156200025957600080fd5b5062000278600480360381019062000272919062001b00565b62000aa0565b005b3480156200028757600080fd5b50620002a66004803603810190620002a0919062001f9c565b62000d2b565b005b620002c66004803603810190620002c0919062001fe3565b62000de5565b005b348015620002d557600080fd5b50620002e062000f57565b604051620002ef9190620020cf565b60405180910390f35b3480156200030557600080fd5b506200032460048036038101906200031e9190620020ec565b62000f69565b005b3480156200033357600080fd5b506200033e62001062565b6040516200034d91906200226f565b60405180910390f35b3480156200036357600080fd5b506200038260048036038101906200037c919062001bea565b6200107c565b604051620003919190620020cf565b60405180910390f35b348015620003a757600080fd5b50620003b262001117565b604051620003c19190620020cf565b60405180910390f35b348015620003d757600080fd5b50620003f66004803603810190620003f0919062002293565b6200116e565b005b3480156200040557600080fd5b506200042460048036038101906200041e919062001bea565b6200136d565b6040516200043391906200226f565b60405180910390f35b3480156200044957600080fd5b5062000468600480360381019062000462919062002293565b62001570565b005b3480156200047757600080fd5b506200048262001677565b60405162000491919062002446565b60405180910390f35b60006040518060c001604052808481526020018381526020013373ffffffffffffffffffffffffffffffffffffffff16815260200160018152602001600081526020016006548152509050600481908060018154018082558091505060019003906000526020600020906006020160009091909190915060008201518160000190805190602001906200052f92919062001880565b5060208201518160010190805190602001906200054e92919062001880565b5060408201518160020160006101000a81548173ffffffffffffffffffffffffffffffffffffffff021916908373ffffffffffffffffffffffffffffffffffffffff160217905550606082015181600301556080820151816004015560a08201518160050155505080600560003373ffffffffffffffffffffffffffffffffffffffff1673ffffffffffffffffffffffffffffffffffffffff16815260200190815260200160002060008201518160000190805190602001906200061492919062001880565b5060208201518160010190805190602001906200063392919062001880565b5060408201518160020160006101000a81548173ffffffffffffffffffffffffffffffffffffffff021916908373ffffffffffffffffffffffffffffffffffffffff160217905550606082015181600301556080820151816004015560a0820151816005015590505060066000815480929190620006b19062002499565b9190505550505050565b60006001600560008473ffffffffffffffffffffffffffffffffffffffff1673ffffffffffffffffffffffffffffffffffffffff168152602001908152602001600020600401546200070e9190620024e7565b905080600560008473ffffffffffffffffffffffffffffffffffffffff1673ffffffffffffffffffffffffffffffffffffffff16815260200190815260200160002060040181905550806004600560008573ffffffffffffffffffffffffffffffffffffffff1673ffffffffffffffffffffffffffffffffffffffff1681526020019081526020016000206005015481548110620007b157620007b062002544565b5b9060005260206000209060060201600401819055505050565b606060018054806020026020016040519081016040528092919081815260200182805480156200085057602002820191906000526020600020905b8160009054906101000a900473ffffffffffffffffffffffffffffffffffffffff1673ffffffffffffffffffffffffffffffffffffffff168152602001906001019080831162000805575b5050505050905090565b600115156200086862001117565b151514620008ad576040517f08c379a0000000000000000000000000000000000000000000000000000000008152600401620008a490620025d4565b60405180910390fd5b60018481548110620008c457620008c362002544565b5b9060005260206000200160009054906101000a900473ffffffffffffffffffffffffffffffffffffffff1673ffffffffffffffffffffffffffffffffffffffff16631d7e99c58484846040518463ffffffff1660e01b81526004016200092d9392919062002707565b600060405180830381600087803b1580156200094857600080fd5b505af11580156200095d573d6000803e3d6000fd5b5050505050505050565b60008060009054906101000a900473ffffffffffffffffffffffffffffffffffffffff16905090565b600115156200099e62001117565b151514620009e3576040517f08c379a0000000000000000000000000000000000000000000000000000000008152600401620009da90620025d4565b60405180910390fd5b8073ffffffffffffffffffffffffffffffffffffffff1660008054906101000a900473ffffffffffffffffffffffffffffffffffffffff1673ffffffffffffffffffffffffffffffffffffffff167fbf265e8326285a2747e33e54d5945f7111f2b5edb826eb8c08d4677779b3ff9760405160405180910390a3806000806101000a81548173ffffffffffffffffffffffffffffffffffffffff021916908373ffffffffffffffffffffffffffffffffffffffff16021790555050565b3373ffffffffffffffffffffffffffffffffffffffff16600560003373ffffffffffffffffffffffffffffffffffffffff1673ffffffffffffffffffffffffffffffffffffffff16815260200190815260200160002060020160009054906101000a900473ffffffffffffffffffffffffffffffffffffffff1673ffffffffffffffffffffffffffffffffffffffff161462000b73576040517f08c379a000000000000000000000000000000000000000000000000000000000815260040162000b6a90620027a9565b60405180910390fd5b81600560003373ffffffffffffffffffffffffffffffffffffffff1673ffffffffffffffffffffffffffffffffffffffff168152602001908152602001600020600001908051906020019062000bcb92919062001880565b5080600560003373ffffffffffffffffffffffffffffffffffffffff1673ffffffffffffffffffffffffffffffffffffffff168152602001908152602001600020600101908051906020019062000c2492919062001880565b50816004600560003373ffffffffffffffffffffffffffffffffffffffff1673ffffffffffffffffffffffffffffffffffffffff168152602001908152602001600020600501548154811062000c7f5762000c7e62002544565b5b9060005260206000209060060201600001908051906020019062000ca592919062001880565b50806004600560003373ffffffffffffffffffffffffffffffffffffffff1673ffffffffffffffffffffffffffffffffffffffff168152602001908152602001600020600501548154811062000d005762000cff62002544565b5b9060005260206000209060060201600101908051906020019062000d2692919062001880565b505050565b80600560008473ffffffffffffffffffffffffffffffffffffffff1673ffffffffffffffffffffffffffffffffffffffff16815260200190815260200160002060030181905550806004600560008573ffffffffffffffffffffffffffffffffffffffff1673ffffffffffffffffffffffffffffffffffffffff168152602001908152602001600020600501548154811062000dcc5762000dcb62002544565b5b9060005260206000209060060201600301819055505050565b6001151562000df362001117565b15151462000e38576040517f08c379a000000000000000000000000000000000000000000000000000000000815260040162000e2f90620025d4565b60405180910390fd5b600030858585853460405162000e4e9062001911565b62000e5f96959493929190620027dc565b604051809103906000f08015801562000e7c573d6000803e3d6000fd5b5090506001819080600181540180825580915050600190039060005260206000200160009091909190916101000a81548173ffffffffffffffffffffffffffffffffffffffff021916908373ffffffffffffffffffffffffffffffffffffffff1602179055508060026000600354815260200190815260200160002060006101000a81548173ffffffffffffffffffffffffffffffffffffffff021916908373ffffffffffffffffffffffffffffffffffffffff1602179055506003600081548092919062000f4b9062002499565b91905055505050505050565b600062000f64336200107c565b905090565b6001151562000f7762001117565b15151462000fbc576040517f08c379a000000000000000000000000000000000000000000000000000000000815260040162000fb390620025d4565b60405180910390fd5b6001818154811062000fd35762000fd262002544565b5b9060005260206000200160009054906101000a900473ffffffffffffffffffffffffffffffffffffffff1673ffffffffffffffffffffffffffffffffffffffff166343d726d66040518163ffffffff1660e01b8152600401600060405180830381600087803b1580156200104657600080fd5b505af11580156200105b573d6000803e3d6000fd5b5050505050565b6200106c6200191f565b62001077336200136d565b905090565b60008073ffffffffffffffffffffffffffffffffffffffff16600560008473ffffffffffffffffffffffffffffffffffffffff1673ffffffffffffffffffffffffffffffffffffffff16815260200190815260200160002060020160009054906101000a900473ffffffffffffffffffffffffffffffffffffffff1673ffffffffffffffffffffffffffffffffffffffff1614159050919050565b60008060009054906101000a900473ffffffffffffffffffffffffffffffffffffffff1673ffffffffffffffffffffffffffffffffffffffff163373ffffffffffffffffffffffffffffffffffffffff1614905090565b62001179336200107c565b620011bb576040517f08c379a0000000000000000000000000000000000000000000000000000000008152600401620011b290620028ae565b60405180910390fd5b6000151560018381548110620011d657620011d562002544565b5b9060005260206000200160009054906101000a900473ffffffffffffffffffffffffffffffffffffffff1673ffffffffffffffffffffffffffffffffffffffff1663c2b6b58c6040518163ffffffff1660e01b8152600401602060405180830381865afa1580156200124c573d6000803e3d6000fd5b505050506040513d601f19601f8201168201806040525081019062001272919062002901565b151514620012b7576040517f08c379a0000000000000000000000000000000000000000000000000000000008152600401620012ae9062002983565b60405180910390fd5b60018281548110620012ce57620012cd62002544565b5b9060005260206000200160009054906101000a900473ffffffffffffffffffffffffffffffffffffffff1673ffffffffffffffffffffffffffffffffffffffff16633b9af89b33836040518363ffffffff1660e01b815260040162001335929190620029a5565b600060405180830381600087803b1580156200135057600080fd5b505af115801562001365573d6000803e3d6000fd5b505050505050565b620013776200191f565b600560008373ffffffffffffffffffffffffffffffffffffffff1673ffffffffffffffffffffffffffffffffffffffff1681526020019081526020016000206040518060c0016040529081600082018054620013d39062002a01565b80601f0160208091040260200160405190810160405280929190818152602001828054620014019062002a01565b8015620014525780601f10620014265761010080835404028352916020019162001452565b820191906000526020600020905b8154815290600101906020018083116200143457829003601f168201915b505050505081526020016001820180546200146d9062002a01565b80601f01602080910402602001604051908101604052809291908181526020018280546200149b9062002a01565b8015620014ec5780601f10620014c057610100808354040283529160200191620014ec565b820191906000526020600020905b815481529060010190602001808311620014ce57829003601f168201915b505050505081526020016002820160009054906101000a900473ffffffffffffffffffffffffffffffffffffffff1673ffffffffffffffffffffffffffffffffffffffff1673ffffffffffffffffffffffffffffffffffffffff16815260200160038201548152602001600482015481526020016005820154815250509050919050565b600115156200157e62001117565b151514620015c3576040517f08c379a0000000000000000000000000000000000000000000000000000000008152600401620015ba90620025d4565b60405180910390fd5b60018281548110620015da57620015d962002544565b5b9060005260206000200160009054906101000a900473ffffffffffffffffffffffffffffffffffffffff1673ffffffffffffffffffffffffffffffffffffffff16637abb4416826040518263ffffffff1660e01b81526004016200163f919062002a37565b600060405180830381600087803b1580156200165a57600080fd5b505af11580156200166f573d6000803e3d6000fd5b505050505050565b60606004805480602002602001604051908101604052809291908181526020016000905b828210156200187757838290600052602060002090600602016040518060c0016040529081600082018054620016d19062002a01565b80601f0160208091040260200160405190810160405280929190818152602001828054620016ff9062002a01565b8015620017505780601f10620017245761010080835404028352916020019162001750565b820191906000526020600020905b8154815290600101906020018083116200173257829003601f168201915b505050505081526020016001820180546200176b9062002a01565b80601f0160208091040260200160405190810160405280929190818152602001828054620017999062002a01565b8015620017ea5780601f10620017be57610100808354040283529160200191620017ea565b820191906000526020600020905b815481529060010190602001808311620017cc57829003601f168201915b505050505081526020016002820160009054906101000a900473ffffffffffffffffffffffffffffffffffffffff1673ffffffffffffffffffffffffffffffffffffffff1673ffffffffffffffffffffffffffffffffffffffff1681526020016003820154815260200160048201548152602001600582015481525050815260200190600101906200169b565b50505050905090565b8280546200188e9062002a01565b90600052602060002090601f016020900481019282620018b25760008555620018fe565b82601f10620018cd57805160ff1916838001178555620018fe565b82800160010185558215620018fe579182015b82811115620018fd578251825591602001919060010190620018e0565b5b5090506200190d91906200196b565b5090565b611e898062002a5583390190565b6040518060c001604052806060815260200160608152602001600073ffffffffffffffffffffffffffffffffffffffff1681526020016000815260200160008152602001600081525090565b5b80821115620019865760008160009055506001016200196c565b5090565b6000604051905090565b600080fd5b600080fd5b600080fd5b600080fd5b6000601f19601f8301169050919050565b7f4e487b7100000000000000000000000000000000000000000000000000000000600052604160045260246000fd5b620019f382620019a8565b810181811067ffffffffffffffff8211171562001a155762001a14620019b9565b5b80604052505050565b600062001a2a6200198a565b905062001a388282620019e8565b919050565b600067ffffffffffffffff82111562001a5b5762001a5a620019b9565b5b62001a6682620019a8565b9050602081019050919050565b82818337600083830152505050565b600062001a9962001a938462001a3d565b62001a1e565b90508281526020810184848401111562001ab85762001ab7620019a3565b5b62001ac584828562001a73565b509392505050565b600082601f83011262001ae55762001ae46200199e565b5b813562001af784826020860162001a82565b91505092915050565b6000806040838503121562001b1a5762001b1962001994565b5b600083013567ffffffffffffffff81111562001b3b5762001b3a62001999565b5b62001b498582860162001acd565b925050602083013567ffffffffffffffff81111562001b6d5762001b6c62001999565b5b62001b7b8582860162001acd565b9150509250929050565b600073ffffffffffffffffffffffffffffffffffffffff82169050919050565b600062001bb28262001b85565b9050919050565b62001bc48162001ba5565b811462001bd057600080fd5b50565b60008135905062001be48162001bb9565b92915050565b60006020828403121562001c035762001c0262001994565b5b600062001c138482850162001bd3565b91505092915050565b600081519050919050565b600082825260208201905092915050565b6000819050602082019050919050565b6000819050919050565b600062001c7362001c6d62001c678462001b85565b62001c48565b62001b85565b9050919050565b600062001c878262001c52565b9050919050565b600062001c9b8262001c7a565b9050919050565b62001cad8162001c8e565b82525050565b600062001cc1838362001ca2565b60208301905092915050565b6000602082019050919050565b600062001ce78262001c1c565b62001cf3818562001c27565b935062001d008362001c38565b8060005b8381101562001d3757815162001d1b888262001cb3565b975062001d288362001ccd565b92505060018101905062001d04565b5085935050505092915050565b6000602082019050818103600083015262001d60818462001cda565b905092915050565b6000819050919050565b62001d7d8162001d68565b811462001d8957600080fd5b50565b60008135905062001d9d8162001d72565b92915050565b600067ffffffffffffffff82111562001dc15762001dc0620019b9565b5b602082029050602081019050919050565b600080fd5b600062001dee62001de88462001da3565b62001a1e565b9050808382526020820190506020840283018581111562001e145762001e1362001dd2565b5b835b8181101562001e6257803567ffffffffffffffff81111562001e3d5762001e3c6200199e565b5b80860162001e4c898262001acd565b8552602085019450505060208101905062001e16565b5050509392505050565b600082601f83011262001e845762001e836200199e565b5b813562001e9684826020860162001dd7565b91505092915050565b6000806000806080858703121562001ebc5762001ebb62001994565b5b600062001ecc8782880162001d8c565b945050602085013567ffffffffffffffff81111562001ef05762001eef62001999565b5b62001efe8782880162001acd565b935050604085013567ffffffffffffffff81111562001f225762001f2162001999565b5b62001f308782880162001acd565b925050606085013567ffffffffffffffff81111562001f545762001f5362001999565b5b62001f628782880162001e6c565b91505092959194509250565b62001f798162001ba5565b82525050565b600060208201905062001f96600083018462001f6e565b92915050565b6000806040838503121562001fb65762001fb562001994565b5b600062001fc68582860162001bd3565b925050602062001fd98582860162001d8c565b9150509250929050565b60008060008060808587031215620020005762001fff62001994565b5b600085013567ffffffffffffffff81111562002021576200202062001999565b5b6200202f8782880162001acd565b945050602085013567ffffffffffffffff81111562002053576200205262001999565b5b620020618782880162001acd565b935050604085013567ffffffffffffffff81111562002085576200208462001999565b5b620020938782880162001e6c565b9250506060620020a68782880162001d8c565b91505092959194509250565b60008115159050919050565b620020c981620020b2565b82525050565b6000602082019050620020e66000830184620020be565b92915050565b60006020828403121562002105576200210462001994565b5b6000620021158482850162001d8c565b91505092915050565b600081519050919050565b600082825260208201905092915050565b60005b838110156200215a5780820151818401526020810190506200213d565b838111156200216a576000848401525b50505050565b60006200217d826200211e565b62002189818562002129565b93506200219b8185602086016200213a565b620021a681620019a8565b840191505092915050565b620021bc8162001ba5565b82525050565b620021cd8162001d68565b82525050565b600060c0830160008301518482036000860152620021f2828262002170565b915050602083015184820360208601526200220e828262002170565b9150506040830151620022256040860182620021b1565b5060608301516200223a6060860182620021c2565b5060808301516200224f6080860182620021c2565b5060a08301516200226460a0860182620021c2565b508091505092915050565b600060208201905081810360008301526200228b8184620021d3565b905092915050565b60008060408385031215620022ad57620022ac62001994565b5b6000620022bd8582860162001d8c565b9250506020620022d08582860162001d8c565b9150509250929050565b600081519050919050565b600082825260208201905092915050565b6000819050602082019050919050565b600060c083016000830151848203600086015262002325828262002170565b9150506020830151848203602086015262002341828262002170565b9150506040830151620023586040860182620021b1565b5060608301516200236d6060860182620021c2565b506080830151620023826080860182620021c2565b5060a08301516200239760a0860182620021c2565b508091505092915050565b6000620023b0838362002306565b905092915050565b6000602082019050919050565b6000620023d282620022da565b620023de8185620022e5565b935083602082028501620023f285620022f6565b8060005b85811015620024345784840389528151620024128582620023a2565b94506200241f83620023b8565b925060208a01995050600181019050620023f6565b50829750879550505050505092915050565b60006020820190508181036000830152620024628184620023c5565b905092915050565b7f4e487b7100000000000000000000000000000000000000000000000000000000600052601160045260246000fd5b6000620024a68262001d68565b91507fffffffffffffffffffffffffffffffffffffffffffffffffffffffffffffffff821415620024dc57620024db6200246a565b5b600182019050919050565b6000620024f48262001d68565b9150620025018362001d68565b9250827fffffffffffffffffffffffffffffffffffffffffffffffffffffffffffffffff038211156200253957620025386200246a565b5b828201905092915050565b7f4e487b7100000000000000000000000000000000000000000000000000000000600052603260045260246000fd5b600082825260208201905092915050565b7f43616c6c6572206973206e6f742041646d696e00000000000000000000000000600082015250565b6000620025bc60138362002573565b9150620025c98262002584565b602082019050919050565b60006020820190508181036000830152620025ef81620025ad565b9050919050565b600062002603826200211e565b6200260f818562002573565b9350620026218185602086016200213a565b6200262c81620019a8565b840191505092915050565b600081519050919050565b600082825260208201905092915050565b6000819050602082019050919050565b600062002671838362002170565b905092915050565b6000602082019050919050565b6000620026938262002637565b6200269f818562002642565b935083602082028501620026b38562002653565b8060005b85811015620026f55784840389528151620026d3858262002663565b9450620026e08362002679565b925060208a01995050600181019050620026b7565b50829750879550505050505092915050565b60006060820190508181036000830152620027238186620025f6565b90508181036020830152620027398185620025f6565b905081810360408301526200274f818462002686565b9050949350505050565b7f596f7520617265206e6f7420616c6c6f77656400000000000000000000000000600082015250565b60006200279160138362002573565b91506200279e8262002759565b602082019050919050565b60006020820190508181036000830152620027c48162002782565b9050919050565b620027d68162001d68565b82525050565b600060c082019050620027f3600083018962001f6e565b8181036020830152620028078188620025f6565b905081810360408301526200281d8187620025f6565b9050818103606083015262002833818662002686565b9050620028446080830185620027cb565b6200285360a0830184620027cb565b979650505050505050565b7f4e6f7420616c6c6f776564206361757365206e6f74207369676e656420696e00600082015250565b600062002896601f8362002573565b9150620028a3826200285e565b602082019050919050565b60006020820190508181036000830152620028c98162002887565b9050919050565b620028db81620020b2565b8114620028e757600080fd5b50565b600081519050620028fb81620028d0565b92915050565b6000602082840312156200291a576200291962001994565b5b60006200292a84828501620028ea565b91505092915050565b7f53657373696f6e20697320636c6f7365642e0000000000000000000000000000600082015250565b60006200296b60128362002573565b9150620029788262002933565b602082019050919050565b600060208201905081810360008301526200299e816200295c565b9050919050565b6000604082019050620029bc600083018562001f6e565b620029cb6020830184620027cb565b9392505050565b7f4e487b7100000000000000000000000000000000000000000000000000000000600052602260045260246000fd5b6000600282049050600182168062002a1a57607f821691505b6020821081141562002a315762002a30620029d2565b5b50919050565b600060208201905062002a4e6000830184620027cb565b9291505056fe60806040526000600a5560405162001e8938038062001e8983398181016040528101906200002e9190620005c6565b856000806101000a81548173ffffffffffffffffffffffffffffffffffffffff021916908373ffffffffffffffffffffffffffffffffffffffff1602179055506000600c60006101000a81548160ff02191690836001811115620000975762000096620006bf565b5b02179055508460019080519060200190620000b492919062000108565b508360029080519060200190620000cd92919062000108565b50806006819055508260039080519060200190620000ed92919062000199565b50816005819055504260078190555050505050505062000753565b82805462000116906200071d565b90600052602060002090601f0160209004810192826200013a576000855562000186565b82601f106200015557805160ff191683800117855562000186565b8280016001018555821562000186579182015b828111156200018557825182559160200191906001019062000168565b5b50905062000195919062000200565b5090565b828054828255906000526020600020908101928215620001ed579160200282015b82811115620001ec578251829080519060200190620001db92919062000108565b5091602001919060010190620001ba565b5b509050620001fc91906200021f565b5090565b5b808211156200021b57600081600090555060010162000201565b5090565b5b8082111562000243576000818162000239919062000247565b5060010162000220565b5090565b50805462000255906200071d565b6000825580601f106200026957506200028a565b601f01602090049060005260206000209081019062000289919062000200565b5b50565b6000604051905090565b600080fd5b600080fd5b600073ffffffffffffffffffffffffffffffffffffffff82169050919050565b6000620002ce82620002a1565b9050919050565b620002e081620002c1565b8114620002ec57600080fd5b50565b6000815190506200030081620002d5565b92915050565b600080fd5b600080fd5b6000601f19601f8301169050919050565b7f4e487b7100000000000000000000000000000000000000000000000000000000600052604160045260246000fd5b6200035b8262000310565b810181811067ffffffffffffffff821117156200037d576200037c62000321565b5b80604052505050565b6000620003926200028d565b9050620003a0828262000350565b919050565b600067ffffffffffffffff821115620003c357620003c262000321565b5b620003ce8262000310565b9050602081019050919050565b60005b83811015620003fb578082015181840152602081019050620003de565b838111156200040b576000848401525b50505050565b6000620004286200042284620003a5565b62000386565b9050828152602081018484840111156200044757620004466200030b565b5b62000454848285620003db565b509392505050565b600082601f83011262000474576200047362000306565b5b81516200048684826020860162000411565b91505092915050565b600067ffffffffffffffff821115620004ad57620004ac62000321565b5b602082029050602081019050919050565b600080fd5b6000620004da620004d4846200048f565b62000386565b905080838252602082019050602084028301858111156200050057620004ff620004be565b5b835b818110156200054e57805167ffffffffffffffff81111562000529576200052862000306565b5b8086016200053889826200045c565b8552602085019450505060208101905062000502565b5050509392505050565b600082601f83011262000570576200056f62000306565b5b815162000582848260208601620004c3565b91505092915050565b6000819050919050565b620005a0816200058b565b8114620005ac57600080fd5b50565b600081519050620005c08162000595565b92915050565b60008060008060008060c08789031215620005e657620005e562000297565b5b6000620005f689828a01620002ef565b965050602087015167ffffffffffffffff8111156200061a57620006196200029c565b5b6200062889828a016200045c565b955050604087015167ffffffffffffffff8111156200064c576200064b6200029c565b5b6200065a89828a016200045c565b945050606087015167ffffffffffffffff8111156200067e576200067d6200029c565b5b6200068c89828a0162000558565b93505060806200069f89828a01620005af565b92505060a0620006b289828a01620005af565b9150509295509295509295565b7f4e487b7100000000000000000000000000000000000000000000000000000000600052602160045260246000fd5b7f4e487b7100000000000000000000000000000000000000000000000000000000600052602260045260246000fd5b600060028204905060018216806200073657607f821691505b602082108114156200074d576200074c620006ee565b5b50919050565b61172680620007636000396000f3fe608060405234801561001057600080fd5b50600436106100625760003560e01c80631d7e99c5146100675780633b9af89b1461008357806343d726d61461009f5780637a8cf8c7146100a95780637abb4416146100da578063c2b6b58c146100f6575b600080fd5b610081600480360381019061007c9190610f17565b610114565b005b61009d60048036038101906100989190611052565b6101ec565b005b6100a761055d565b005b6100c360048036038101906100be9190611092565b610620565b6040516100d19291906110ce565b60405180910390f35b6100f460048036038101906100ef91906110f7565b6106dd565b005b6100fe610941565b60405161010b919061113f565b60405180910390f35b60008054906101000a900473ffffffffffffffffffffffffffffffffffffffff1673ffffffffffffffffffffffffffffffffffffffff163373ffffffffffffffffffffffffffffffffffffffff16146101a2576040517f08c379a0000000000000000000000000000000000000000000000000000000008152600401610199906111b7565b60405180910390fd5b82600190805190602001906101b8929190610b70565b5081600290805190602001906101cf929190610b70565b5080600390805190602001906101e6929190610bf6565b50505050565b60008054906101000a900473ffffffffffffffffffffffffffffffffffffffff1673ffffffffffffffffffffffffffffffffffffffff163373ffffffffffffffffffffffffffffffffffffffff161461027a576040517f08c379a0000000000000000000000000000000000000000000000000000000008152600401610271906111b7565b60405180910390fd5b600073ffffffffffffffffffffffffffffffffffffffff16600b60008473ffffffffffffffffffffffffffffffffffffffff1673ffffffffffffffffffffffffffffffffffffffff16815260200190815260200160002060000160009054906101000a900473ffffffffffffffffffffffffffffffffffffffff1673ffffffffffffffffffffffffffffffffffffffff161461051157600060405180606001604052808473ffffffffffffffffffffffffffffffffffffffff168152602001838152602001600a548152509050806009600a548154811061035e5761035d6111d7565b5b906000526020600020906003020160008201518160000160006101000a81548173ffffffffffffffffffffffffffffffffffffffff021916908373ffffffffffffffffffffffffffffffffffffffff160217905550602082015181600101556040820151816002015590505080600b60008573ffffffffffffffffffffffffffffffffffffffff1673ffffffffffffffffffffffffffffffffffffffff16815260200190815260200160002060008201518160000160006101000a81548173ffffffffffffffffffffffffffffffffffffffff021916908373ffffffffffffffffffffffffffffffffffffffff1602179055506020820151816001015560408201518160020155905050600a600081548092919061047b90611235565b919050555060008054906101000a900473ffffffffffffffffffffffffffffffffffffffff1673ffffffffffffffffffffffffffffffffffffffff166351650ecb846040518263ffffffff1660e01b81526004016104d9919061128d565b600060405180830381600087803b1580156104f357600080fd5b505af1158015610507573d6000803e3d6000fd5b5050505050610559565b80600b60008473ffffffffffffffffffffffffffffffffffffffff1673ffffffffffffffffffffffffffffffffffffffff168152602001908152602001600020600101819055505b5050565b60008054906101000a900473ffffffffffffffffffffffffffffffffffffffff1673ffffffffffffffffffffffffffffffffffffffff163373ffffffffffffffffffffffffffffffffffffffff16146105eb576040517f08c379a00000000000000000000000000000000000000000000000000000000081526004016105e2906111b7565b60405180910390fd5b6001600c60006101000a81548160ff02191690836001811115610611576106106112a8565b5b021790555061061e610a26565b565b60008060008060009054906101000a900473ffffffffffffffffffffffffffffffffffffffff1673ffffffffffffffffffffffffffffffffffffffff1663d716c549856040518263ffffffff1660e01b815260040161067f919061128d565b6000604051808303816000875af115801561069e573d6000803e3d6000fd5b505050506040513d6000823e3d601f19601f820116820180604052508101906106c79190611486565b9050806060015181608001519250925050915091565b60008054906101000a900473ffffffffffffffffffffffffffffffffffffffff1673ffffffffffffffffffffffffffffffffffffffff163373ffffffffffffffffffffffffffffffffffffffff161461076b576040517f08c379a0000000000000000000000000000000000000000000000000000000008152600401610762906111b7565b60405180910390fd5b8060088190555060005b600a54811161093d57600060098281548110610794576107936111d7565b5b90600052602060002090600302016040518060600160405290816000820160009054906101000a900473ffffffffffffffffffffffffffffffffffffffff1673ffffffffffffffffffffffffffffffffffffffff1673ffffffffffffffffffffffffffffffffffffffff16815260200160018201548152602001600282015481525050905060008160000151905060008061082e83610620565b91509150600060648761084f87602001518a61084a91906114cf565b610b4e565b6108599190611532565b6108639190611563565b9050600060018361087491906115bd565b8284866108819190611563565b61088b91906115bd565b6108959190611532565b905060008054906101000a900473ffffffffffffffffffffffffffffffffffffffff1673ffffffffffffffffffffffffffffffffffffffff1663937f4a2686836040518363ffffffff1660e01b81526004016108f2929190611613565b600060405180830381600087803b15801561090c57600080fd5b505af1158015610920573d6000803e3d6000fd5b50505050505050505050808061093590611235565b915050610775565b5050565b60008060009054906101000a900473ffffffffffffffffffffffffffffffffffffffff1673ffffffffffffffffffffffffffffffffffffffff163373ffffffffffffffffffffffffffffffffffffffff16146109d2576040517f08c379a00000000000000000000000000000000000000000000000000000000081526004016109c9906111b7565b60405180910390fd5b6001808111156109e5576109e46112a8565b5b600c60009054906101000a900460ff166001811115610a0757610a066112a8565b5b1480610a21575042600554600754610a1f91906115bd565b115b905090565b60008060008092505b600a548311610b3757600060098481548110610a4e57610a4d6111d7565b5b90600052602060002090600302016040518060600160405290816000820160009054906101000a900473ffffffffffffffffffffffffffffffffffffffff1673ffffffffffffffffffffffffffffffffffffffff1673ffffffffffffffffffffffffffffffffffffffff1681526020016001820154815260200160028201548152505090506000816000015190506000610ae782610620565b5090508085610af691906115bd565b9450806064610b0591906114cf565b8360200151610b149190611563565b84610b1f91906115bd565b93505050508280610b2f90611235565b935050610a2f565b8181610b439190611532565b600481905550505050565b600080821215610b675781610b6290611646565b610b69565b815b9050919050565b828054610b7c906116be565b90600052602060002090601f016020900481019282610b9e5760008555610be5565b82601f10610bb757805160ff1916838001178555610be5565b82800160010185558215610be5579182015b82811115610be4578251825591602001919060010190610bc9565b5b509050610bf29190610c56565b5090565b828054828255906000526020600020908101928215610c45579160200282015b82811115610c44578251829080519060200190610c34929190610b70565b5091602001919060010190610c16565b5b509050610c529190610c73565b5090565b5b80821115610c6f576000816000905550600101610c57565b5090565b5b80821115610c935760008181610c8a9190610c97565b50600101610c74565b5090565b508054610ca3906116be565b6000825580601f10610cb55750610cd4565b601f016020900490600052602060002090810190610cd39190610c56565b5b50565b6000604051905090565b600080fd5b600080fd5b600080fd5b600080fd5b6000601f19601f8301169050919050565b7f4e487b7100000000000000000000000000000000000000000000000000000000600052604160045260246000fd5b610d3e82610cf5565b810181811067ffffffffffffffff82111715610d5d57610d5c610d06565b5b80604052505050565b6000610d70610cd7565b9050610d7c8282610d35565b919050565b600067ffffffffffffffff821115610d9c57610d9b610d06565b5b610da582610cf5565b9050602081019050919050565b82818337600083830152505050565b6000610dd4610dcf84610d81565b610d66565b905082815260208101848484011115610df057610def610cf0565b5b610dfb848285610db2565b509392505050565b600082601f830112610e1857610e17610ceb565b5b8135610e28848260208601610dc1565b91505092915050565b600067ffffffffffffffff821115610e4c57610e4b610d06565b5b602082029050602081019050919050565b600080fd5b6000610e75610e7084610e31565b610d66565b90508083825260208201905060208402830185811115610e9857610e97610e5d565b5b835b81811015610edf57803567ffffffffffffffff811115610ebd57610ebc610ceb565b5b808601610eca8982610e03565b85526020850194505050602081019050610e9a565b5050509392505050565b600082601f830112610efe57610efd610ceb565b5b8135610f0e848260208601610e62565b91505092915050565b600080600060608486031215610f3057610f2f610ce1565b5b600084013567ffffffffffffffff811115610f4e57610f4d610ce6565b5b610f5a86828701610e03565b935050602084013567ffffffffffffffff811115610f7b57610f7a610ce6565b5b610f8786828701610e03565b925050604084013567ffffffffffffffff811115610fa857610fa7610ce6565b5b610fb486828701610ee9565b9150509250925092565b600073ffffffffffffffffffffffffffffffffffffffff82169050919050565b6000610fe982610fbe565b9050919050565b610ff981610fde565b811461100457600080fd5b50565b60008135905061101681610ff0565b92915050565b6000819050919050565b61102f8161101c565b811461103a57600080fd5b50565b60008135905061104c81611026565b92915050565b6000806040838503121561106957611068610ce1565b5b600061107785828601611007565b92505060206110888582860161103d565b9150509250929050565b6000602082840312156110a8576110a7610ce1565b5b60006110b684828501611007565b91505092915050565b6110c88161101c565b82525050565b60006040820190506110e360008301856110bf565b6110f060208301846110bf565b9392505050565b60006020828403121561110d5761110c610ce1565b5b600061111b8482850161103d565b91505092915050565b60008115159050919050565b61113981611124565b82525050565b60006020820190506111546000830184611130565b92915050565b600082825260208201905092915050565b7f4f6e6c7920706172656e7420636f6e747261637420697320616c6c6f77000000600082015250565b60006111a1601d8361115a565b91506111ac8261116b565b602082019050919050565b600060208201905081810360008301526111d081611194565b9050919050565b7f4e487b7100000000000000000000000000000000000000000000000000000000600052603260045260246000fd5b7f4e487b7100000000000000000000000000000000000000000000000000000000600052601160045260246000fd5b60006112408261101c565b91507fffffffffffffffffffffffffffffffffffffffffffffffffffffffffffffffff82141561127357611272611206565b5b600182019050919050565b61128781610fde565b82525050565b60006020820190506112a2600083018461127e565b92915050565b7f4e487b7100000000000000000000000000000000000000000000000000000000600052602160045260246000fd5b600080fd5b600080fd5b60005b838110156112ff5780820151818401526020810190506112e4565b8381111561130e576000848401525b50505050565b600061132761132284610d81565b610d66565b90508281526020810184848401111561134357611342610cf0565b5b61134e8482856112e1565b509392505050565b600082601f83011261136b5761136a610ceb565b5b815161137b848260208601611314565b91505092915050565b60008151905061139381610ff0565b92915050565b6000815190506113a881611026565b92915050565b600060c082840312156113c4576113c36112d7565b5b6113ce60c0610d66565b9050600082015167ffffffffffffffff8111156113ee576113ed6112dc565b5b6113fa84828501611356565b600083015250602082015167ffffffffffffffff81111561141e5761141d6112dc565b5b61142a84828501611356565b602083015250604061143e84828501611384565b604083015250606061145284828501611399565b606083015250608061146684828501611399565b60808301525060a061147a84828501611399565b60a08301525092915050565b60006020828403121561149c5761149b610ce1565b5b600082015167ffffffffffffffff8111156114ba576114b9610ce6565b5b6114c6848285016113ae565b91505092915050565b60006114da8261101c565b91506114e58361101c565b9250828210156114f8576114f7611206565b5b828203905092915050565b7f4e487b7100000000000000000000000000000000000000000000000000000000600052601260045260246000fd5b600061153d8261101c565b91506115488361101c565b92508261155857611557611503565b5b828204905092915050565b600061156e8261101c565b91506115798361101c565b9250817fffffffffffffffffffffffffffffffffffffffffffffffffffffffffffffffff04831182151516156115b2576115b1611206565b5b828202905092915050565b60006115c88261101c565b91506115d38361101c565b9250827fffffffffffffffffffffffffffffffffffffffffffffffffffffffffffffffff0382111561160857611607611206565b5b828201905092915050565b6000604082019050611628600083018561127e565b61163560208301846110bf565b9392505050565b6000819050919050565b60006116518261163c565b91507f800000000000000000000000000000000000000000000000000000000000000082141561168457611683611206565b5b816000039050919050565b7f4e487b7100000000000000000000000000000000000000000000000000000000600052602260045260246000fd5b600060028204905060018216806116d657607f821691505b602082108114156116ea576116e961168f565b5b5091905056fea2646970667358221220feb0718127b1211510b42c420c57f7040c43125a6fa8c951eeb6b1cafead6a6b64736f6c634300080c0033a2646970667358221220fe4464eeb498df768b8a43107ed3e16fb1d0b5a58453a0f7a10eac1f4b2b43a564736f6c634300080c0033",
  "immutableReferences": {},
  "source": "// SPDX-License-Identifier: GPL-3.0\n\npragma solidity >=0.8.0;\n\nimport \"./Session.sol\";\nimport \"./Admin.sol\";\nimport \"./Type.sol\";\n\ncontract Main is Admin {\n    Session[] private sessionList;\n    mapping(uint256 => Session) private sessionMap;\n    uint256 sessionIndex = 0;\n\n    Participant[] private participantList;\n    mapping(address => Participant) private participantMap;\n    uint256 participantIndex = 0;\n\n    modifier isParticipant() {\n        require(isSignIn(msg.sender), \"Not allowed cause not signed in\");\n        _;\n    }\n\n    // modifier isValidSession(uint index) {\n    //     require(sessionMap[index].parentContract == address(this),\"Only valid session can call\");\n    //     _;\n    // }\n\n    constructor() {}\n\n    function initSession(\n        string memory _name,\n        string memory _description,\n        string[] memory _images,\n        uint256 _timeout\n    ) public payable isAdmin {\n        Session session = new Session(\n            address(this),\n            _name,\n            _description,\n            _images,\n            _timeout,\n            msg.value\n        );\n        sessionList.push(session);\n        sessionMap[sessionIndex] = session;\n        sessionIndex++;\n    }\n\n    function closeSession(uint256 _sessionIndex) public isAdmin {\n        sessionList[_sessionIndex].close();\n    }\n\n    function setFinalPrice(uint256 _sessionIndex, uint256 _finalPrice)\n        public\n        isAdmin\n    {\n        sessionList[_sessionIndex].updateFinalPrice(_finalPrice);\n    }\n\n    function getSessions() public view returns (Session[] memory) {\n        return sessionList;\n    }\n\n    function updateSession(\n        uint256 _sessionIndex,\n        string memory _name,\n        string memory _description,\n        string[] memory _images\n    ) public isAdmin {\n        sessionList[_sessionIndex].update(_name, _description, _images);\n    }\n\n    function submitPrice(uint256 _sessionIndex, uint256 _price)\n        public\n        isParticipant\n    {\n        require(\n            sessionList[_sessionIndex].isClosed() == false,\n            \"Session is closed.\"\n        );\n        //require session is not closed.\n\n        sessionList[_sessionIndex].submitPrice(msg.sender, _price);\n    }\n\n    function getParticipantList() public view returns (Participant[] memory) {\n        return participantList;\n    }\n\n    function register(string memory _email, string memory _name) public {\n        Participant memory participant = Participant(\n            _email,\n            _name,\n            msg.sender,\n            1,\n            0,\n            participantIndex\n        );\n        participantList.push(participant);\n        participantMap[msg.sender] = participant;\n        participantIndex++;\n    }\n\n    function getParticipantDetail(address _account)\n        public\n        view\n        returns (Participant memory)\n    {\n        return participantMap[_account];\n    }\n\n    function getCurrentParticiapntDetail()\n        public\n        view\n        returns (Participant memory)\n    {\n        return getParticipantDetail(msg.sender);\n    }\n\n    function signIn() public view returns (bool) {\n        return isSignIn(msg.sender);\n    }\n\n    function updateParticipantInfo(string memory _email, string memory _name)\n        public\n    {\n        require(\n            participantMap[msg.sender].account == msg.sender,\n            \"You are not allowed\"\n        );\n        participantMap[msg.sender].email = _email;\n        participantMap[msg.sender].name = _name;\n        participantList[participantMap[msg.sender].index].email = _email;\n        participantList[participantMap[msg.sender].index].name = _name;\n    }\n\n    function increaseParticipantSessionCount(address _account) public {\n        uint256 newCount = participantMap[_account].sessionsCount + 1;\n        participantMap[_account].sessionsCount = newCount;\n        participantList[participantMap[_account].index]\n            .sessionsCount = newCount;\n    }\n\n    function updateParticipantDeviation(address _account, uint256 _deviation)\n        public\n    {\n        participantMap[_account].deviation = _deviation;\n        participantList[participantMap[_account].index].deviation = _deviation;\n    }\n\n    function isSignIn(address account) public view returns (bool) {\n        return participantMap[account].account != address(0);\n    }\n\n    receive() external payable {}\n}\n",
  "sourcePath": "/Users/minh/Projects/Funix/pricing-chain/contracts/Main.sol",
  "compiler": {
    "name": "solc",
    "version": "0.8.12+commit.f00d7308.Emscripten.clang"
  },
  "schemaVersion": "3.4.5",
  "updatedAt": "2022-03-15T14:34:09.837Z",
  "networkType": "ethereum",
  "devdoc": {
    "kind": "dev",
    "methods": {},
    "version": 1
  },
  "userdoc": {
    "kind": "user",
    "methods": {},
    "version": 1
  }
}