{
  "contractName": "Session",
  "abi": [
    {
      "inputs": [
        {
          "internalType": "address",
          "name": "_parentContract",
          "type": "address"
        },
        {
          "internalType": "string",
          "name": "_name",
          "type": "string"
        },
        {
          "internalType": "string",
          "name": "_description",
          "type": "string"
        },
        {
          "internalType": "string[]",
          "name": "_images",
          "type": "string[]"
        },
        {
          "internalType": "uint256",
          "name": "_timeout",
          "type": "uint256"
        },
        {
          "internalType": "uint256",
          "name": "_reward",
          "type": "uint256"
        }
      ],
      "stateMutability": "payable",
      "type": "constructor"
    },
    {
      "inputs": [],
      "name": "close",
      "outputs": [],
      "stateMutability": "nonpayable",
      "type": "function"
    },
    {
      "inputs": [],
      "name": "isClosed",
      "outputs": [
        {
          "internalType": "bool",
          "name": "",
          "type": "bool"
        }
      ],
      "stateMutability": "view",
      "type": "function"
    },
    {
      "inputs": [
        {
          "internalType": "string",
          "name": "_name",
          "type": "string"
        },
        {
          "internalType": "string",
          "name": "_description",
          "type": "string"
        },
        {
          "internalType": "string[]",
          "name": "_images",
          "type": "string[]"
        }
      ],
      "name": "update",
      "outputs": [],
      "stateMutability": "nonpayable",
      "type": "function"
    },
    {
      "inputs": [
        {
          "internalType": "uint256",
          "name": "_finalPrice",
          "type": "uint256"
        }
      ],
      "name": "setFinalPrice",
      "outputs": [],
      "stateMutability": "nonpayable",
      "type": "function"
    },
    {
      "inputs": [
        {
          "internalType": "address",
          "name": "_participantAddr",
          "type": "address"
        },
        {
          "internalType": "uint256",
          "name": "_price",
          "type": "uint256"
        }
      ],
      "name": "submitPrice",
      "outputs": [],
      "stateMutability": "nonpayable",
      "type": "function"
    },
    {
      "inputs": [],
      "name": "getInfo",
      "outputs": [
        {
          "internalType": "string",
          "name": "",
          "type": "string"
        },
        {
          "internalType": "string",
          "name": "",
          "type": "string"
        },
        {
          "internalType": "string[]",
          "name": "",
          "type": "string[]"
        },
        {
          "internalType": "uint256",
          "name": "",
          "type": "uint256"
        },
        {
          "internalType": "enum SessionState",
          "name": "",
          "type": "uint8"
        },
        {
          "internalType": "uint256",
          "name": "",
          "type": "uint256"
        },
        {
          "internalType": "uint256",
          "name": "",
          "type": "uint256"
        },
        {
          "components": [
            {
              "internalType": "address",
              "name": "participantAddress",
              "type": "address"
            },
            {
              "internalType": "uint256",
              "name": "price",
              "type": "uint256"
            },
            {
              "internalType": "uint256",
              "name": "index",
              "type": "uint256"
            }
          ],
          "internalType": "struct ParticipantPropose[]",
          "name": "",
          "type": "tuple[]"
        }
      ],
      "stateMutability": "view",
      "type": "function"
    },
    {
      "inputs": [],
      "name": "getProposePrice",
      "outputs": [
        {
          "internalType": "uint256",
          "name": "",
          "type": "uint256"
        }
      ],
      "stateMutability": "view",
      "type": "function"
    }
  ],
  "bytecode": "0x608060405260405162002519380380620025198339818101604052810190620000299190620005c1565b856000806101000a81548173ffffffffffffffffffffffffffffffffffffffff021916908373ffffffffffffffffffffffffffffffffffffffff1602179055506000600c60006101000a81548160ff02191690836001811115620000925762000091620006ba565b5b02179055508460019080519060200190620000af92919062000103565b508360029080519060200190620000c892919062000103565b50806006819055508260039080519060200190620000e892919062000194565b5081600581905550426007819055505050505050506200074d565b828054620001119062000718565b90600052602060002090601f01602090048101928262000135576000855562000181565b82601f106200015057805160ff191683800117855562000181565b8280016001018555821562000181579182015b828111156200018057825182559160200191906001019062000163565b5b509050620001909190620001fb565b5090565b828054828255906000526020600020908101928215620001e8579160200282015b82811115620001e7578251829080519060200190620001d692919062000103565b5091602001919060010190620001b5565b5b509050620001f791906200021a565b5090565b5b8082111562000216576000816000905550600101620001fc565b5090565b5b808211156200023e576000818162000234919062000242565b506001016200021b565b5090565b508054620002509062000718565b6000825580601f1062000264575062000285565b601f016020900490600052602060002090810190620002849190620001fb565b5b50565b6000604051905090565b600080fd5b600080fd5b600073ffffffffffffffffffffffffffffffffffffffff82169050919050565b6000620002c9826200029c565b9050919050565b620002db81620002bc565b8114620002e757600080fd5b50565b600081519050620002fb81620002d0565b92915050565b600080fd5b600080fd5b6000601f19601f8301169050919050565b7f4e487b7100000000000000000000000000000000000000000000000000000000600052604160045260246000fd5b62000356826200030b565b810181811067ffffffffffffffff821117156200037857620003776200031c565b5b80604052505050565b60006200038d62000288565b90506200039b82826200034b565b919050565b600067ffffffffffffffff821115620003be57620003bd6200031c565b5b620003c9826200030b565b9050602081019050919050565b60005b83811015620003f6578082015181840152602081019050620003d9565b8381111562000406576000848401525b50505050565b6000620004236200041d84620003a0565b62000381565b90508281526020810184848401111562000442576200044162000306565b5b6200044f848285620003d6565b509392505050565b600082601f8301126200046f576200046e62000301565b5b8151620004818482602086016200040c565b91505092915050565b600067ffffffffffffffff821115620004a857620004a76200031c565b5b602082029050602081019050919050565b600080fd5b6000620004d5620004cf846200048a565b62000381565b90508083825260208201905060208402830185811115620004fb57620004fa620004b9565b5b835b818110156200054957805167ffffffffffffffff81111562000524576200052362000301565b5b80860162000533898262000457565b85526020850194505050602081019050620004fd565b5050509392505050565b600082601f8301126200056b576200056a62000301565b5b81516200057d848260208601620004be565b91505092915050565b6000819050919050565b6200059b8162000586565b8114620005a757600080fd5b50565b600081519050620005bb8162000590565b92915050565b60008060008060008060c08789031215620005e157620005e062000292565b5b6000620005f189828a01620002ea565b965050602087015167ffffffffffffffff81111562000615576200061462000297565b5b6200062389828a0162000457565b955050604087015167ffffffffffffffff81111562000647576200064662000297565b5b6200065589828a0162000457565b945050606087015167ffffffffffffffff81111562000679576200067862000297565b5b6200068789828a0162000553565b93505060806200069a89828a01620005aa565b92505060a0620006ad89828a01620005aa565b9150509295509295509295565b7f4e487b7100000000000000000000000000000000000000000000000000000000600052602160045260246000fd5b7f4e487b7100000000000000000000000000000000000000000000000000000000600052602260045260246000fd5b600060028204905060018216806200073157607f821691505b602082108103620007475762000746620006e9565b5b50919050565b611dbc806200075d6000396000f3fe608060405234801561001057600080fd5b506004361061007d5760003560e01c80635a9b0b891161005b5780635a9b0b89146100c45780637278f4d8146100e9578063bb55f25c14610107578063c2b6b58c146101235761007d565b80631d7e99c5146100825780633b9af89b1461009e57806343d726d6146100ba575b600080fd5b61009c600480360381019061009791906112fc565b610141565b005b6100b860048036038101906100b39190611437565b610219565b005b6100c26105fc565b005b6100cc6106bf565b6040516100e09897969594939291906117a0565b60405180910390f35b6100f16109b5565b6040516100fe919061183a565b60405180910390f35b610121600480360381019061011c9190611855565b6109bf565b005b61012b610c1a565b604051610138919061189d565b60405180910390f35b60008054906101000a900473ffffffffffffffffffffffffffffffffffffffff1673ffffffffffffffffffffffffffffffffffffffff163373ffffffffffffffffffffffffffffffffffffffff16146101cf576040517f08c379a00000000000000000000000000000000000000000000000000000000081526004016101c690611904565b60405180910390fd5b82600190805190602001906101e5929190610f55565b5081600290805190602001906101fc929190610f55565b508060039080519060200190610213929190610fdb565b50505050565b60008054906101000a900473ffffffffffffffffffffffffffffffffffffffff1673ffffffffffffffffffffffffffffffffffffffff163373ffffffffffffffffffffffffffffffffffffffff16146102a7576040517f08c379a000000000000000000000000000000000000000000000000000000000815260040161029e90611904565b60405180910390fd5b600073ffffffffffffffffffffffffffffffffffffffff16600b60008473ffffffffffffffffffffffffffffffffffffffff1673ffffffffffffffffffffffffffffffffffffffff16815260200190815260200160002060000160009054906101000a900473ffffffffffffffffffffffffffffffffffffffff1673ffffffffffffffffffffffffffffffffffffffff160361054457600060405180606001604052808473ffffffffffffffffffffffffffffffffffffffff168152602001838152602001600a548152509050600981908060018154018082558091505060019003906000526020600020906003020160009091909190915060008201518160000160006101000a81548173ffffffffffffffffffffffffffffffffffffffff021916908373ffffffffffffffffffffffffffffffffffffffff1602179055506020820151816001015560408201518160020155505080600b60008573ffffffffffffffffffffffffffffffffffffffff1673ffffffffffffffffffffffffffffffffffffffff16815260200190815260200160002060008201518160000160006101000a81548173ffffffffffffffffffffffffffffffffffffffff021916908373ffffffffffffffffffffffffffffffffffffffff1602179055506020820151816001015560408201518160020155905050600a60008154809291906104ae90611953565b919050555060008054906101000a900473ffffffffffffffffffffffffffffffffffffffff1673ffffffffffffffffffffffffffffffffffffffff166351650ecb846040518263ffffffff1660e01b815260040161050c91906119aa565b600060405180830381600087803b15801561052657600080fd5b505af115801561053a573d6000803e3d6000fd5b50505050506105f8565b80600b60008473ffffffffffffffffffffffffffffffffffffffff1673ffffffffffffffffffffffffffffffffffffffff16815260200190815260200160002060010181905550806009600b60008573ffffffffffffffffffffffffffffffffffffffff1673ffffffffffffffffffffffffffffffffffffffff16815260200190815260200160002060020154815481106105e2576105e16119c5565b5b9060005260206000209060030201600101819055505b5050565b60008054906101000a900473ffffffffffffffffffffffffffffffffffffffff1673ffffffffffffffffffffffffffffffffffffffff163373ffffffffffffffffffffffffffffffffffffffff161461068a576040517f08c379a000000000000000000000000000000000000000000000000000000000815260040161068190611904565b60405180910390fd5b6001600c60006101000a81548160ff021916908360018111156106b0576106af61161a565b5b02179055506106bd610d0e565b565b60608060606000806000806060600160026003600554600c60009054906101000a900460ff1660045460085460098780546106f990611a23565b80601f016020809104026020016040519081016040528092919081815260200182805461072590611a23565b80156107725780601f1061074757610100808354040283529160200191610772565b820191906000526020600020905b81548152906001019060200180831161075557829003601f168201915b5050505050975086805461078590611a23565b80601f01602080910402602001604051908101604052809291908181526020018280546107b190611a23565b80156107fe5780601f106107d3576101008083540402835291602001916107fe565b820191906000526020600020905b8154815290600101906020018083116107e157829003601f168201915b5050505050965085805480602002602001604051908101604052809291908181526020016000905b828210156108d257838290600052602060002001805461084590611a23565b80601f016020809104026020016040519081016040528092919081815260200182805461087190611a23565b80156108be5780601f10610893576101008083540402835291602001916108be565b820191906000526020600020905b8154815290600101906020018083116108a157829003601f168201915b505050505081526020019060010190610826565b50505050955080805480602002602001604051908101604052809291908181526020016000905b8282101561099557838290600052602060002090600302016040518060600160405290816000820160009054906101000a900473ffffffffffffffffffffffffffffffffffffffff1673ffffffffffffffffffffffffffffffffffffffff1673ffffffffffffffffffffffffffffffffffffffff16815260200160018201548152602001600282015481525050815260200190600101906108f9565b505050509050975097509750975097509750975097509091929394959697565b6000600454905090565b60008054906101000a900473ffffffffffffffffffffffffffffffffffffffff1673ffffffffffffffffffffffffffffffffffffffff163373ffffffffffffffffffffffffffffffffffffffff1614610a4d576040517f08c379a0000000000000000000000000000000000000000000000000000000008152600401610a4490611904565b60405180910390fd5b8060088190555060005b600a54811015610c1657600060098281548110610a7757610a766119c5565b5b90600052602060002090600302016040518060600160405290816000820160009054906101000a900473ffffffffffffffffffffffffffffffffffffffff1673ffffffffffffffffffffffffffffffffffffffff1673ffffffffffffffffffffffffffffffffffffffff168152602001600182015481526020016002820154815250509050600081600001519050600080610b1183610e68565b915091506000866064610b28898860200151610f25565b610b329190611a54565b610b3c9190611add565b90506000600183610b4d9190611b0e565b828486610b5a9190611a54565b610b649190611b0e565b610b6e9190611add565b905060008054906101000a900473ffffffffffffffffffffffffffffffffffffffff1673ffffffffffffffffffffffffffffffffffffffff1663937f4a2686836040518363ffffffff1660e01b8152600401610bcb929190611b64565b600060405180830381600087803b158015610be557600080fd5b505af1158015610bf9573d6000803e3d6000fd5b505050505050505050508080610c0e90611953565b915050610a57565b5050565b60008060009054906101000a900473ffffffffffffffffffffffffffffffffffffffff1673ffffffffffffffffffffffffffffffffffffffff163373ffffffffffffffffffffffffffffffffffffffff1614610cab576040517f08c379a0000000000000000000000000000000000000000000000000000000008152600401610ca290611904565b60405180910390fd5b600060055414158015610d095750600180811115610ccc57610ccb61161a565b5b600c60009054906101000a900460ff166001811115610cee57610ced61161a565b5b1480610d08575042600554600754610d069190611b0e565b115b5b905090565b600080600a5403610d26576000600481905550610e65565b600080600092505b600a54831015610e3757600060098481548110610d4e57610d4d6119c5565b5b90600052602060002090600302016040518060600160405290816000820160009054906101000a900473ffffffffffffffffffffffffffffffffffffffff1673ffffffffffffffffffffffffffffffffffffffff1673ffffffffffffffffffffffffffffffffffffffff1681526020016001820154815260200160028201548152505090506000816000015190506000610de782610e68565b5090508085610df69190611b0e565b9450806064610e059190611b8d565b8360200151610e149190611a54565b84610e1f9190611b0e565b93505050508280610e2f90611953565b935050610d2e565b81600a546064610e479190611a54565b610e519190611b8d565b81610e5c9190611add565b60048190555050505b50565b60008060008060009054906101000a900473ffffffffffffffffffffffffffffffffffffffff1673ffffffffffffffffffffffffffffffffffffffff1663d716c549856040518263ffffffff1660e01b8152600401610ec791906119aa565b6000604051808303816000875af1158015610ee6573d6000803e3d6000fd5b505050506040513d6000823e3d601f19601f82011682018060405250810190610f0f9190611d3d565b9050806060015181608001519250925050915091565b600081831015610f40578282610f3b9190611b8d565b610f4d565b8183610f4c9190611b8d565b5b905092915050565b828054610f6190611a23565b90600052602060002090601f016020900481019282610f835760008555610fca565b82601f10610f9c57805160ff1916838001178555610fca565b82800160010185558215610fca579182015b82811115610fc9578251825591602001919060010190610fae565b5b509050610fd7919061103b565b5090565b82805482825590600052602060002090810192821561102a579160200282015b82811115611029578251829080519060200190611019929190610f55565b5091602001919060010190610ffb565b5b5090506110379190611058565b5090565b5b8082111561105457600081600090555060010161103c565b5090565b5b80821115611078576000818161106f919061107c565b50600101611059565b5090565b50805461108890611a23565b6000825580601f1061109a57506110b9565b601f0160209004906000526020600020908101906110b8919061103b565b5b50565b6000604051905090565b600080fd5b600080fd5b600080fd5b600080fd5b6000601f19601f8301169050919050565b7f4e487b7100000000000000000000000000000000000000000000000000000000600052604160045260246000fd5b611123826110da565b810181811067ffffffffffffffff82111715611142576111416110eb565b5b80604052505050565b60006111556110bc565b9050611161828261111a565b919050565b600067ffffffffffffffff821115611181576111806110eb565b5b61118a826110da565b9050602081019050919050565b82818337600083830152505050565b60006111b96111b484611166565b61114b565b9050828152602081018484840111156111d5576111d46110d5565b5b6111e0848285611197565b509392505050565b600082601f8301126111fd576111fc6110d0565b5b813561120d8482602086016111a6565b91505092915050565b600067ffffffffffffffff821115611231576112306110eb565b5b602082029050602081019050919050565b600080fd5b600061125a61125584611216565b61114b565b9050808382526020820190506020840283018581111561127d5761127c611242565b5b835b818110156112c457803567ffffffffffffffff8111156112a2576112a16110d0565b5b8086016112af89826111e8565b8552602085019450505060208101905061127f565b5050509392505050565b600082601f8301126112e3576112e26110d0565b5b81356112f3848260208601611247565b91505092915050565b600080600060608486031215611315576113146110c6565b5b600084013567ffffffffffffffff811115611333576113326110cb565b5b61133f868287016111e8565b935050602084013567ffffffffffffffff8111156113605761135f6110cb565b5b61136c868287016111e8565b925050604084013567ffffffffffffffff81111561138d5761138c6110cb565b5b611399868287016112ce565b9150509250925092565b600073ffffffffffffffffffffffffffffffffffffffff82169050919050565b60006113ce826113a3565b9050919050565b6113de816113c3565b81146113e957600080fd5b50565b6000813590506113fb816113d5565b92915050565b6000819050919050565b61141481611401565b811461141f57600080fd5b50565b6000813590506114318161140b565b92915050565b6000806040838503121561144e5761144d6110c6565b5b600061145c858286016113ec565b925050602061146d85828601611422565b9150509250929050565b600081519050919050565b600082825260208201905092915050565b60005b838110156114b1578082015181840152602081019050611496565b838111156114c0576000848401525b50505050565b60006114d182611477565b6114db8185611482565b93506114eb818560208601611493565b6114f4816110da565b840191505092915050565b600081519050919050565b600082825260208201905092915050565b6000819050602082019050919050565b600082825260208201905092915050565b600061154782611477565b611551818561152b565b9350611561818560208601611493565b61156a816110da565b840191505092915050565b6000611581838361153c565b905092915050565b6000602082019050919050565b60006115a1826114ff565b6115ab818561150a565b9350836020820285016115bd8561151b565b8060005b858110156115f957848403895281516115da8582611575565b94506115e583611589565b925060208a019950506001810190506115c1565b50829750879550505050505092915050565b61161481611401565b82525050565b7f4e487b7100000000000000000000000000000000000000000000000000000000600052602160045260246000fd5b6002811061165a5761165961161a565b5b50565b600081905061166b82611649565b919050565b600061167b8261165d565b9050919050565b61168b81611670565b82525050565b600081519050919050565b600082825260208201905092915050565b6000819050602082019050919050565b6116c6816113c3565b82525050565b6116d581611401565b82525050565b6060820160008201516116f160008501826116bd565b50602082015161170460208501826116cc565b50604082015161171760408501826116cc565b50505050565b600061172983836116db565b60608301905092915050565b6000602082019050919050565b600061174d82611691565b611757818561169c565b9350611762836116ad565b8060005b8381101561179357815161177a888261171d565b975061178583611735565b925050600181019050611766565b5085935050505092915050565b60006101008201905081810360008301526117bb818b6114c6565b905081810360208301526117cf818a6114c6565b905081810360408301526117e38189611596565b90506117f2606083018861160b565b6117ff6080830187611682565b61180c60a083018661160b565b61181960c083018561160b565b81810360e083015261182b8184611742565b90509998505050505050505050565b600060208201905061184f600083018461160b565b92915050565b60006020828403121561186b5761186a6110c6565b5b600061187984828501611422565b91505092915050565b60008115159050919050565b61189781611882565b82525050565b60006020820190506118b2600083018461188e565b92915050565b7f4f6e6c7920706172656e7420636f6e747261637420697320616c6c6f77000000600082015250565b60006118ee601d83611482565b91506118f9826118b8565b602082019050919050565b6000602082019050818103600083015261191d816118e1565b9050919050565b7f4e487b7100000000000000000000000000000000000000000000000000000000600052601160045260246000fd5b600061195e82611401565b91507fffffffffffffffffffffffffffffffffffffffffffffffffffffffffffffffff82036119905761198f611924565b5b600182019050919050565b6119a4816113c3565b82525050565b60006020820190506119bf600083018461199b565b92915050565b7f4e487b7100000000000000000000000000000000000000000000000000000000600052603260045260246000fd5b7f4e487b7100000000000000000000000000000000000000000000000000000000600052602260045260246000fd5b60006002820490506001821680611a3b57607f821691505b602082108103611a4e57611a4d6119f4565b5b50919050565b6000611a5f82611401565b9150611a6a83611401565b9250817fffffffffffffffffffffffffffffffffffffffffffffffffffffffffffffffff0483118215151615611aa357611aa2611924565b5b828202905092915050565b7f4e487b7100000000000000000000000000000000000000000000000000000000600052601260045260246000fd5b6000611ae882611401565b9150611af383611401565b925082611b0357611b02611aae565b5b828204905092915050565b6000611b1982611401565b9150611b2483611401565b9250827fffffffffffffffffffffffffffffffffffffffffffffffffffffffffffffffff03821115611b5957611b58611924565b5b828201905092915050565b6000604082019050611b79600083018561199b565b611b86602083018461160b565b9392505050565b6000611b9882611401565b9150611ba383611401565b925082821015611bb657611bb5611924565b5b828203905092915050565b600080fd5b600080fd5b6000611bde611bd984611166565b61114b565b905082815260208101848484011115611bfa57611bf96110d5565b5b611c05848285611493565b509392505050565b600082601f830112611c2257611c216110d0565b5b8151611c32848260208601611bcb565b91505092915050565b600081519050611c4a816113d5565b92915050565b600081519050611c5f8161140b565b92915050565b600060c08284031215611c7b57611c7a611bc1565b5b611c8560c061114b565b9050600082015167ffffffffffffffff811115611ca557611ca4611bc6565b5b611cb184828501611c0d565b600083015250602082015167ffffffffffffffff811115611cd557611cd4611bc6565b5b611ce184828501611c0d565b6020830152506040611cf584828501611c3b565b6040830152506060611d0984828501611c50565b6060830152506080611d1d84828501611c50565b60808301525060a0611d3184828501611c50565b60a08301525092915050565b600060208284031215611d5357611d526110c6565b5b600082015167ffffffffffffffff811115611d7157611d706110cb565b5b611d7d84828501611c65565b9150509291505056fea26469706673582212201e306091fa5888a03101acc7adc608e590318ba388932e5ccf3d229fea12e47964736f6c634300080d0033",
  "immutableReferences": {},
  "source": "// SPDX-License-Identifier: GPL-3.0\n\npragma solidity >=0.8.0;\n\nimport \"./Type.sol\";\n\ncontract Session {\n    address parentContract;\n    string name;\n    string description;\n    string[] images;\n    uint256 proposePrice;\n    uint256 timeout;\n    uint256 reward;\n    uint256 initTime;\n    uint256 finalPrice;\n\n    ParticipantPropose[] proposeList;\n    uint256 proposeIndex;\n    mapping(address => ParticipantPropose) proposeMap;\n\n    SessionState state;\n\n    modifier onlyParentContract() {\n        require(msg.sender == parentContract, \"Only parent contract is allow\");\n        _;\n    }\n\n    constructor(\n        address _parentContract,\n        string memory _name,\n        string memory _description,\n        string[] memory _images,\n        uint256 _timeout,\n        uint256 _reward\n    ) payable {\n        parentContract = _parentContract;\n        state = SessionState.OnGoing;\n        name = _name;\n        description = _description;\n        reward = _reward;\n        images = _images;\n        timeout = _timeout;\n        initTime = block.timestamp;\n    }\n\n    function close() public onlyParentContract {\n        state = SessionState.Closed;\n        calculateProposePrice();\n    }\n\n    function isClosed() public view onlyParentContract returns (bool) {\n        return\n            timeout != 0 &&\n            ((state == SessionState.Closed) ||\n                (initTime + timeout) > block.timestamp);\n    }\n\n    function update(\n        string memory _name,\n        string memory _description,\n        string[] memory _images\n    ) public onlyParentContract {\n        name = _name;\n        description = _description;\n        images = _images;\n    }\n\n    function setFinalPrice(uint256 _finalPrice) public onlyParentContract {\n        finalPrice = _finalPrice;\n        uint256 i;\n\n        // update deviation of each participant that has join this session.\n        for (i = 0; i < proposeIndex; i++) {\n            ParticipantPropose memory proposeInfo = proposeList[i];\n            address currentParticipant = proposeInfo.participantAddress;\n            (\n                uint256 currentDeviation,\n                uint256 sessionsCount\n            ) = getParticpantInfo(currentParticipant);\n\n            uint256 newDeviation = ((subAbs(_finalPrice, proposeInfo.price) *\n                100) / _finalPrice);\n            uint256 updatedDeviation = ((currentDeviation * sessionsCount) +\n                newDeviation) / (sessionsCount + 1);\n            IMain(parentContract).updateParticipantDeviation(\n                currentParticipant,\n                updatedDeviation\n            );\n        }\n    }\n\n    function submitPrice(address _participantAddr, uint256 _price)\n        public\n        onlyParentContract\n    {\n        if (proposeMap[_participantAddr].participantAddress == address(0)) {\n            // new participant\n            ParticipantPropose memory propose = ParticipantPropose(\n                _participantAddr,\n                _price,\n                proposeIndex\n            );\n            proposeList.push(propose);\n            proposeMap[_participantAddr] = propose;\n            proposeIndex++;\n            IMain(parentContract).increaseParticipantSessionCount(\n                _participantAddr\n            );\n        } else {\n            //  existed participant\n            proposeMap[_participantAddr].price = _price;\n            proposeList[proposeMap[_participantAddr].index].price = _price;\n        }\n    }\n\n    function getParticpantInfo(address _participantAddr)\n        internal\n        returns (uint256, uint256)\n    {\n        Participant memory participant = IMain(parentContract)\n            .getParticipantDetail(_participantAddr);\n        return (participant.deviation, participant.sessionsCount);\n    }\n\n    function getInfo()\n        public\n        view\n        returns (\n            string memory,\n            string memory,\n            string[] memory,\n            uint256,\n            SessionState,\n            uint256,\n            uint256,\n            ParticipantPropose[] memory\n        )\n    {\n        return (\n            name,\n            description,\n            images,\n            timeout,\n            state,\n            proposePrice,\n            finalPrice,\n            proposeList\n        );\n    }\n\n    function getProposePrice() public view returns (uint256) {\n        return proposePrice;\n    }\n\n    // internal function\n\n    function subAbs(uint256 a, uint256 b) internal pure returns (uint256) {\n        return a >= b ? a - b : b - a;\n    }\n\n    function calculateProposePrice() internal {\n        uint256 i;\n\n        if (proposeIndex == 0) {\n            proposePrice = 0;\n        } else {\n            uint256 totalDeviation;\n            uint256 topValue;\n\n            for (i = 0; i < proposeIndex; i++) {\n                ParticipantPropose memory proposeInfo = proposeList[i];\n                address currentParticipant = proposeInfo.participantAddress;\n                (uint256 deviation, ) = getParticpantInfo(currentParticipant);\n                totalDeviation += deviation;\n                topValue += (proposeInfo.price * (100 - deviation));\n            }\n\n            proposePrice = topValue / ((100 * proposeIndex) - totalDeviation);\n        }\n    }\n}\n",
  "sourcePath": "/Users/minh/Projects/Funix/pricing-chain/contracts/Session.sol",
  "compiler": {
    "name": "solc",
    "version": "0.8.13+commit.abaa5c0e.Emscripten.clang"
  },
  "schemaVersion": "3.4.5",
  "updatedAt": "2022-03-27T15:36:29.543Z",
  "devdoc": {
    "kind": "dev",
    "methods": {},
    "version": 1
  },
  "userdoc": {
    "kind": "user",
    "methods": {},
    "version": 1
  }
}