{
  "contractName": "Session",
  "abi": [
    {
      "inputs": [
        {
          "internalType": "address",
          "name": "_parentContract",
          "type": "address"
        },
        {
          "internalType": "string",
          "name": "_name",
          "type": "string"
        },
        {
          "internalType": "string",
          "name": "_description",
          "type": "string"
        },
        {
          "internalType": "string[]",
          "name": "_images",
          "type": "string[]"
        },
        {
          "internalType": "uint256",
          "name": "_timeout",
          "type": "uint256"
        },
        {
          "internalType": "uint256",
          "name": "_reward",
          "type": "uint256"
        }
      ],
      "stateMutability": "payable",
      "type": "constructor"
    },
    {
      "inputs": [],
      "name": "close",
      "outputs": [],
      "stateMutability": "nonpayable",
      "type": "function"
    },
    {
      "inputs": [],
      "name": "isClosed",
      "outputs": [
        {
          "internalType": "bool",
          "name": "",
          "type": "bool"
        }
      ],
      "stateMutability": "view",
      "type": "function"
    },
    {
      "inputs": [
        {
          "internalType": "string",
          "name": "_name",
          "type": "string"
        },
        {
          "internalType": "string",
          "name": "_description",
          "type": "string"
        },
        {
          "internalType": "string[]",
          "name": "_images",
          "type": "string[]"
        }
      ],
      "name": "update",
      "outputs": [],
      "stateMutability": "nonpayable",
      "type": "function"
    },
    {
      "inputs": [
        {
          "internalType": "uint256",
          "name": "_finalPrice",
          "type": "uint256"
        }
      ],
      "name": "updateFinalPrice",
      "outputs": [],
      "stateMutability": "nonpayable",
      "type": "function"
    },
    {
      "inputs": [
        {
          "internalType": "address",
          "name": "_participant",
          "type": "address"
        },
        {
          "internalType": "uint256",
          "name": "_price",
          "type": "uint256"
        }
      ],
      "name": "submitPrice",
      "outputs": [],
      "stateMutability": "nonpayable",
      "type": "function"
    },
    {
      "inputs": [
        {
          "internalType": "address",
          "name": "_account",
          "type": "address"
        }
      ],
      "name": "getParticpantInfo",
      "outputs": [
        {
          "internalType": "uint256",
          "name": "",
          "type": "uint256"
        },
        {
          "internalType": "uint256",
          "name": "",
          "type": "uint256"
        }
      ],
      "stateMutability": "nonpayable",
      "type": "function"
    },
    {
      "inputs": [],
      "name": "getInfo",
      "outputs": [
        {
          "internalType": "string",
          "name": "",
          "type": "string"
        },
        {
          "internalType": "string",
          "name": "",
          "type": "string"
        },
        {
          "internalType": "string[]",
          "name": "",
          "type": "string[]"
        },
        {
          "internalType": "uint256",
          "name": "",
          "type": "uint256"
        },
        {
          "internalType": "enum SessionState",
          "name": "",
          "type": "uint8"
        },
        {
          "internalType": "uint256",
          "name": "",
          "type": "uint256"
        },
        {
          "internalType": "uint256",
          "name": "",
          "type": "uint256"
        }
      ],
      "stateMutability": "view",
      "type": "function"
    }
  ],
  "bytecode": "0x60806040526000600a55604051620023103803806200231083398181016040528101906200002e9190620005c6565b856000806101000a81548173ffffffffffffffffffffffffffffffffffffffff021916908373ffffffffffffffffffffffffffffffffffffffff1602179055506000600c60006101000a81548160ff02191690836001811115620000975762000096620006bf565b5b02179055508460019080519060200190620000b492919062000108565b508360029080519060200190620000cd92919062000108565b50806006819055508260039080519060200190620000ed92919062000199565b50816005819055504260078190555050505050505062000753565b82805462000116906200071d565b90600052602060002090601f0160209004810192826200013a576000855562000186565b82601f106200015557805160ff191683800117855562000186565b8280016001018555821562000186579182015b828111156200018557825182559160200191906001019062000168565b5b50905062000195919062000200565b5090565b828054828255906000526020600020908101928215620001ed579160200282015b82811115620001ec578251829080519060200190620001db92919062000108565b5091602001919060010190620001ba565b5b509050620001fc91906200021f565b5090565b5b808211156200021b57600081600090555060010162000201565b5090565b5b8082111562000243576000818162000239919062000247565b5060010162000220565b5090565b50805462000255906200071d565b6000825580601f106200026957506200028a565b601f01602090049060005260206000209081019062000289919062000200565b5b50565b6000604051905090565b600080fd5b600080fd5b600073ffffffffffffffffffffffffffffffffffffffff82169050919050565b6000620002ce82620002a1565b9050919050565b620002e081620002c1565b8114620002ec57600080fd5b50565b6000815190506200030081620002d5565b92915050565b600080fd5b600080fd5b6000601f19601f8301169050919050565b7f4e487b7100000000000000000000000000000000000000000000000000000000600052604160045260246000fd5b6200035b8262000310565b810181811067ffffffffffffffff821117156200037d576200037c62000321565b5b80604052505050565b6000620003926200028d565b9050620003a0828262000350565b919050565b600067ffffffffffffffff821115620003c357620003c262000321565b5b620003ce8262000310565b9050602081019050919050565b60005b83811015620003fb578082015181840152602081019050620003de565b838111156200040b576000848401525b50505050565b6000620004286200042284620003a5565b62000386565b9050828152602081018484840111156200044757620004466200030b565b5b62000454848285620003db565b509392505050565b600082601f83011262000474576200047362000306565b5b81516200048684826020860162000411565b91505092915050565b600067ffffffffffffffff821115620004ad57620004ac62000321565b5b602082029050602081019050919050565b600080fd5b6000620004da620004d4846200048f565b62000386565b905080838252602082019050602084028301858111156200050057620004ff620004be565b5b835b818110156200054e57805167ffffffffffffffff81111562000529576200052862000306565b5b8086016200053889826200045c565b8552602085019450505060208101905062000502565b5050509392505050565b600082601f83011262000570576200056f62000306565b5b815162000582848260208601620004c3565b91505092915050565b6000819050919050565b620005a0816200058b565b8114620005ac57600080fd5b50565b600081519050620005c08162000595565b92915050565b60008060008060008060c08789031215620005e657620005e562000297565b5b6000620005f689828a01620002ef565b965050602087015167ffffffffffffffff8111156200061a57620006196200029c565b5b6200062889828a016200045c565b955050604087015167ffffffffffffffff8111156200064c576200064b6200029c565b5b6200065a89828a016200045c565b945050606087015167ffffffffffffffff8111156200067e576200067d6200029c565b5b6200068c89828a0162000558565b93505060806200069f89828a01620005af565b92505060a0620006b289828a01620005af565b9150509295509295509295565b7f4e487b7100000000000000000000000000000000000000000000000000000000600052602160045260246000fd5b7f4e487b7100000000000000000000000000000000000000000000000000000000600052602260045260246000fd5b600060028204905060018216806200073657607f821691505b602082108114156200074d576200074c620006ee565b5b50919050565b611bad80620007636000396000f3fe608060405234801561001057600080fd5b506004361061007d5760003560e01c80635a9b0b891161005b5780635a9b0b89146100c45780637a8cf8c7146100e85780637abb441614610119578063c2b6b58c146101355761007d565b80631d7e99c5146100825780633b9af89b1461009e57806343d726d6146100ba575b600080fd5b61009c60048036038101906100979190611182565b610153565b005b6100b860048036038101906100b391906112bd565b61022b565b005b6100c261059c565b005b6100cc61065f565b6040516100df9796959493929190611517565b60405180910390f35b61010260048036038101906100fd919061159b565b61088b565b6040516101109291906115c8565b60405180910390f35b610133600480360381019061012e91906115f1565b610948565b005b61013d610bac565b60405161014a9190611639565b60405180910390f35b60008054906101000a900473ffffffffffffffffffffffffffffffffffffffff1673ffffffffffffffffffffffffffffffffffffffff163373ffffffffffffffffffffffffffffffffffffffff16146101e1576040517f08c379a00000000000000000000000000000000000000000000000000000000081526004016101d8906116a0565b60405180910390fd5b82600190805190602001906101f7929190610ddb565b50816002908051906020019061020e929190610ddb565b508060039080519060200190610225929190610e61565b50505050565b60008054906101000a900473ffffffffffffffffffffffffffffffffffffffff1673ffffffffffffffffffffffffffffffffffffffff163373ffffffffffffffffffffffffffffffffffffffff16146102b9576040517f08c379a00000000000000000000000000000000000000000000000000000000081526004016102b0906116a0565b60405180910390fd5b600073ffffffffffffffffffffffffffffffffffffffff16600b60008473ffffffffffffffffffffffffffffffffffffffff1673ffffffffffffffffffffffffffffffffffffffff16815260200190815260200160002060000160009054906101000a900473ffffffffffffffffffffffffffffffffffffffff1673ffffffffffffffffffffffffffffffffffffffff161461055057600060405180606001604052808473ffffffffffffffffffffffffffffffffffffffff168152602001838152602001600a548152509050806009600a548154811061039d5761039c6116c0565b5b906000526020600020906003020160008201518160000160006101000a81548173ffffffffffffffffffffffffffffffffffffffff021916908373ffffffffffffffffffffffffffffffffffffffff160217905550602082015181600101556040820151816002015590505080600b60008573ffffffffffffffffffffffffffffffffffffffff1673ffffffffffffffffffffffffffffffffffffffff16815260200190815260200160002060008201518160000160006101000a81548173ffffffffffffffffffffffffffffffffffffffff021916908373ffffffffffffffffffffffffffffffffffffffff1602179055506020820151816001015560408201518160020155905050600a60008154809291906104ba9061171e565b919050555060008054906101000a900473ffffffffffffffffffffffffffffffffffffffff1673ffffffffffffffffffffffffffffffffffffffff166351650ecb846040518263ffffffff1660e01b81526004016105189190611776565b600060405180830381600087803b15801561053257600080fd5b505af1158015610546573d6000803e3d6000fd5b5050505050610598565b80600b60008473ffffffffffffffffffffffffffffffffffffffff1673ffffffffffffffffffffffffffffffffffffffff168152602001908152602001600020600101819055505b5050565b60008054906101000a900473ffffffffffffffffffffffffffffffffffffffff1673ffffffffffffffffffffffffffffffffffffffff163373ffffffffffffffffffffffffffffffffffffffff161461062a576040517f08c379a0000000000000000000000000000000000000000000000000000000008152600401610621906116a0565b60405180910390fd5b6001600c60006101000a81548160ff021916908360018111156106505761064f6114a0565b5b021790555061065d610c91565b565b6060806060600080600080600160026003600554600c60009054906101000a900460ff16600454600854868054610695906117c0565b80601f01602080910402602001604051908101604052809291908181526020018280546106c1906117c0565b801561070e5780601f106106e35761010080835404028352916020019161070e565b820191906000526020600020905b8154815290600101906020018083116106f157829003601f168201915b50505050509650858054610721906117c0565b80601f016020809104026020016040519081016040528092919081815260200182805461074d906117c0565b801561079a5780601f1061076f5761010080835404028352916020019161079a565b820191906000526020600020905b81548152906001019060200180831161077d57829003601f168201915b5050505050955084805480602002602001604051908101604052809291908181526020016000905b8282101561086e5783829060005260206000200180546107e1906117c0565b80601f016020809104026020016040519081016040528092919081815260200182805461080d906117c0565b801561085a5780601f1061082f5761010080835404028352916020019161085a565b820191906000526020600020905b81548152906001019060200180831161083d57829003601f168201915b5050505050815260200190600101906107c2565b505050509450965096509650965096509650965090919293949596565b60008060008060009054906101000a900473ffffffffffffffffffffffffffffffffffffffff1673ffffffffffffffffffffffffffffffffffffffff1663d716c549856040518263ffffffff1660e01b81526004016108ea9190611776565b6000604051808303816000875af1158015610909573d6000803e3d6000fd5b505050506040513d6000823e3d601f19601f82011682018060405250810190610932919061196e565b9050806060015181608001519250925050915091565b60008054906101000a900473ffffffffffffffffffffffffffffffffffffffff1673ffffffffffffffffffffffffffffffffffffffff163373ffffffffffffffffffffffffffffffffffffffff16146109d6576040517f08c379a00000000000000000000000000000000000000000000000000000000081526004016109cd906116a0565b60405180910390fd5b8060088190555060005b600a548111610ba8576000600982815481106109ff576109fe6116c0565b5b90600052602060002090600302016040518060600160405290816000820160009054906101000a900473ffffffffffffffffffffffffffffffffffffffff1673ffffffffffffffffffffffffffffffffffffffff1673ffffffffffffffffffffffffffffffffffffffff168152602001600182015481526020016002820154815250509050600081600001519050600080610a998361088b565b915091506000606487610aba87602001518a610ab591906119b7565b610db9565b610ac49190611a1a565b610ace9190611a4b565b90506000600183610adf9190611aa5565b828486610aec9190611a4b565b610af69190611aa5565b610b009190611a1a565b905060008054906101000a900473ffffffffffffffffffffffffffffffffffffffff1673ffffffffffffffffffffffffffffffffffffffff1663937f4a2686836040518363ffffffff1660e01b8152600401610b5d929190611afb565b600060405180830381600087803b158015610b7757600080fd5b505af1158015610b8b573d6000803e3d6000fd5b505050505050505050508080610ba09061171e565b9150506109e0565b5050565b60008060009054906101000a900473ffffffffffffffffffffffffffffffffffffffff1673ffffffffffffffffffffffffffffffffffffffff163373ffffffffffffffffffffffffffffffffffffffff1614610c3d576040517f08c379a0000000000000000000000000000000000000000000000000000000008152600401610c34906116a0565b60405180910390fd5b600180811115610c5057610c4f6114a0565b5b600c60009054906101000a900460ff166001811115610c7257610c716114a0565b5b1480610c8c575042600554600754610c8a9190611aa5565b115b905090565b60008060008092505b600a548311610da257600060098481548110610cb957610cb86116c0565b5b90600052602060002090600302016040518060600160405290816000820160009054906101000a900473ffffffffffffffffffffffffffffffffffffffff1673ffffffffffffffffffffffffffffffffffffffff1673ffffffffffffffffffffffffffffffffffffffff1681526020016001820154815260200160028201548152505090506000816000015190506000610d528261088b565b5090508085610d619190611aa5565b9450806064610d7091906119b7565b8360200151610d7f9190611a4b565b84610d8a9190611aa5565b93505050508280610d9a9061171e565b935050610c9a565b8181610dae9190611a1a565b600481905550505050565b600080821215610dd25781610dcd90611b2e565b610dd4565b815b9050919050565b828054610de7906117c0565b90600052602060002090601f016020900481019282610e095760008555610e50565b82601f10610e2257805160ff1916838001178555610e50565b82800160010185558215610e50579182015b82811115610e4f578251825591602001919060010190610e34565b5b509050610e5d9190610ec1565b5090565b828054828255906000526020600020908101928215610eb0579160200282015b82811115610eaf578251829080519060200190610e9f929190610ddb565b5091602001919060010190610e81565b5b509050610ebd9190610ede565b5090565b5b80821115610eda576000816000905550600101610ec2565b5090565b5b80821115610efe5760008181610ef59190610f02565b50600101610edf565b5090565b508054610f0e906117c0565b6000825580601f10610f205750610f3f565b601f016020900490600052602060002090810190610f3e9190610ec1565b5b50565b6000604051905090565b600080fd5b600080fd5b600080fd5b600080fd5b6000601f19601f8301169050919050565b7f4e487b7100000000000000000000000000000000000000000000000000000000600052604160045260246000fd5b610fa982610f60565b810181811067ffffffffffffffff82111715610fc857610fc7610f71565b5b80604052505050565b6000610fdb610f42565b9050610fe78282610fa0565b919050565b600067ffffffffffffffff82111561100757611006610f71565b5b61101082610f60565b9050602081019050919050565b82818337600083830152505050565b600061103f61103a84610fec565b610fd1565b90508281526020810184848401111561105b5761105a610f5b565b5b61106684828561101d565b509392505050565b600082601f83011261108357611082610f56565b5b813561109384826020860161102c565b91505092915050565b600067ffffffffffffffff8211156110b7576110b6610f71565b5b602082029050602081019050919050565b600080fd5b60006110e06110db8461109c565b610fd1565b90508083825260208201905060208402830185811115611103576111026110c8565b5b835b8181101561114a57803567ffffffffffffffff81111561112857611127610f56565b5b808601611135898261106e565b85526020850194505050602081019050611105565b5050509392505050565b600082601f83011261116957611168610f56565b5b81356111798482602086016110cd565b91505092915050565b60008060006060848603121561119b5761119a610f4c565b5b600084013567ffffffffffffffff8111156111b9576111b8610f51565b5b6111c58682870161106e565b935050602084013567ffffffffffffffff8111156111e6576111e5610f51565b5b6111f28682870161106e565b925050604084013567ffffffffffffffff81111561121357611212610f51565b5b61121f86828701611154565b9150509250925092565b600073ffffffffffffffffffffffffffffffffffffffff82169050919050565b600061125482611229565b9050919050565b61126481611249565b811461126f57600080fd5b50565b6000813590506112818161125b565b92915050565b6000819050919050565b61129a81611287565b81146112a557600080fd5b50565b6000813590506112b781611291565b92915050565b600080604083850312156112d4576112d3610f4c565b5b60006112e285828601611272565b92505060206112f3858286016112a8565b9150509250929050565b600081519050919050565b600082825260208201905092915050565b60005b8381101561133757808201518184015260208101905061131c565b83811115611346576000848401525b50505050565b6000611357826112fd565b6113618185611308565b9350611371818560208601611319565b61137a81610f60565b840191505092915050565b600081519050919050565b600082825260208201905092915050565b6000819050602082019050919050565b600082825260208201905092915050565b60006113cd826112fd565b6113d781856113b1565b93506113e7818560208601611319565b6113f081610f60565b840191505092915050565b600061140783836113c2565b905092915050565b6000602082019050919050565b600061142782611385565b6114318185611390565b935083602082028501611443856113a1565b8060005b8581101561147f578484038952815161146085826113fb565b945061146b8361140f565b925060208a01995050600181019050611447565b50829750879550505050505092915050565b61149a81611287565b82525050565b7f4e487b7100000000000000000000000000000000000000000000000000000000600052602160045260246000fd5b600281106114e0576114df6114a0565b5b50565b60008190506114f1826114cf565b919050565b6000611501826114e3565b9050919050565b611511816114f6565b82525050565b600060e0820190508181036000830152611531818a61134c565b90508181036020830152611545818961134c565b90508181036040830152611559818861141c565b90506115686060830187611491565b6115756080830186611508565b61158260a0830185611491565b61158f60c0830184611491565b98975050505050505050565b6000602082840312156115b1576115b0610f4c565b5b60006115bf84828501611272565b91505092915050565b60006040820190506115dd6000830185611491565b6115ea6020830184611491565b9392505050565b60006020828403121561160757611606610f4c565b5b6000611615848285016112a8565b91505092915050565b60008115159050919050565b6116338161161e565b82525050565b600060208201905061164e600083018461162a565b92915050565b7f4f6e6c7920706172656e7420636f6e747261637420697320616c6c6f77000000600082015250565b600061168a601d83611308565b915061169582611654565b602082019050919050565b600060208201905081810360008301526116b98161167d565b9050919050565b7f4e487b7100000000000000000000000000000000000000000000000000000000600052603260045260246000fd5b7f4e487b7100000000000000000000000000000000000000000000000000000000600052601160045260246000fd5b600061172982611287565b91507fffffffffffffffffffffffffffffffffffffffffffffffffffffffffffffffff82141561175c5761175b6116ef565b5b600182019050919050565b61177081611249565b82525050565b600060208201905061178b6000830184611767565b92915050565b7f4e487b7100000000000000000000000000000000000000000000000000000000600052602260045260246000fd5b600060028204905060018216806117d857607f821691505b602082108114156117ec576117eb611791565b5b50919050565b600080fd5b600080fd5b600061180f61180a84610fec565b610fd1565b90508281526020810184848401111561182b5761182a610f5b565b5b611836848285611319565b509392505050565b600082601f83011261185357611852610f56565b5b81516118638482602086016117fc565b91505092915050565b60008151905061187b8161125b565b92915050565b60008151905061189081611291565b92915050565b600060c082840312156118ac576118ab6117f2565b5b6118b660c0610fd1565b9050600082015167ffffffffffffffff8111156118d6576118d56117f7565b5b6118e28482850161183e565b600083015250602082015167ffffffffffffffff811115611906576119056117f7565b5b6119128482850161183e565b60208301525060406119268482850161186c565b604083015250606061193a84828501611881565b606083015250608061194e84828501611881565b60808301525060a061196284828501611881565b60a08301525092915050565b60006020828403121561198457611983610f4c565b5b600082015167ffffffffffffffff8111156119a2576119a1610f51565b5b6119ae84828501611896565b91505092915050565b60006119c282611287565b91506119cd83611287565b9250828210156119e0576119df6116ef565b5b828203905092915050565b7f4e487b7100000000000000000000000000000000000000000000000000000000600052601260045260246000fd5b6000611a2582611287565b9150611a3083611287565b925082611a4057611a3f6119eb565b5b828204905092915050565b6000611a5682611287565b9150611a6183611287565b9250817fffffffffffffffffffffffffffffffffffffffffffffffffffffffffffffffff0483118215151615611a9a57611a996116ef565b5b828202905092915050565b6000611ab082611287565b9150611abb83611287565b9250827fffffffffffffffffffffffffffffffffffffffffffffffffffffffffffffffff03821115611af057611aef6116ef565b5b828201905092915050565b6000604082019050611b106000830185611767565b611b1d6020830184611491565b9392505050565b6000819050919050565b6000611b3982611b24565b91507f8000000000000000000000000000000000000000000000000000000000000000821415611b6c57611b6b6116ef565b5b81600003905091905056fea2646970667358221220b6c0dfa49a06ded8aeef692acf918fcdf766fcaaf19757bbce1ea6e0671b721764736f6c634300080c0033",
  "immutableReferences": {},
  "source": "// SPDX-License-Identifier: GPL-3.0\n\npragma solidity >=0.8.0;\n\nimport \"./Type.sol\";\n\n// Interface of Main contract to call from Session contract\ninterface IMain {\n    function getParticipantDetail(address _session)\n        external\n        returns (Participant memory);\n\n    function updateParticipantDeviation(address _account, uint256 _deviation)\n        external;\n\n    function increaseParticipantSessionCount(address _account) external;\n}\n\ncontract Session {\n    address parentContract;\n    string name;\n    string description;\n    string[] images;\n    uint256 proposePrice;\n    uint256 timeout;\n    uint256 reward;\n    uint256 initTime;\n    uint256 finalPrice;\n\n    ParticipantPropose[] proposeList;\n    uint256 proposeIndex = 0;\n    mapping(address => ParticipantPropose) proposeMap;\n\n    SessionState state;\n\n    modifier onlyParentContract() {\n        require(msg.sender == parentContract, \"Only parent contract is allow\");\n        _;\n    }\n\n    constructor(\n        address _parentContract,\n        string memory _name,\n        string memory _description,\n        string[] memory _images,\n        uint256 _timeout,\n        uint256 _reward\n    ) payable {\n        parentContract = _parentContract;\n        state = SessionState.OnGoing;\n        name = _name;\n        description = _description;\n        reward = _reward;\n        images = _images;\n        timeout = _timeout;\n        initTime = block.timestamp;\n    }\n\n    function close() public onlyParentContract {\n        state = SessionState.Closed;\n        calculateProposePrice();\n    }\n\n    function isClosed() public view onlyParentContract returns (bool) {\n        return\n            (state == SessionState.Closed) ||\n            (initTime + timeout) > block.timestamp;\n    }\n\n    function update(\n        string memory _name,\n        string memory _description,\n        string[] memory _images\n    ) public onlyParentContract {\n        name = _name;\n        description = _description;\n        images = _images;\n    }\n\n    function updateFinalPrice(uint256 _finalPrice) public onlyParentContract {\n        finalPrice = _finalPrice;\n        uint256 i;\n\n        // update deviation of each participant that has join this session.\n        for (i = 0; i <= proposeIndex; i++) {\n            ParticipantPropose memory proposeInfo = proposeList[i];\n            address currentParticipant = proposeInfo.participantAddress;\n            (\n                uint256 currentDeviation,\n                uint256 sessionsCount\n            ) = getParticpantInfo(currentParticipant);\n\n            uint256 newDeviation = (abs(\n                int256(_finalPrice - proposeInfo.price)\n            ) / _finalPrice) * 100;\n            uint256 updatedDeviation = ((currentDeviation * sessionsCount) +\n                newDeviation) / (sessionsCount + 1);\n            IMain(parentContract).updateParticipantDeviation(\n                currentParticipant,\n                updatedDeviation\n            );\n        }\n    }\n\n    function submitPrice(address _participant, uint256 _price)\n        public\n        onlyParentContract\n    {\n        if (proposeMap[_participant].participantAddress != address(0)) {\n            // new participant\n            ParticipantPropose memory propose = ParticipantPropose(\n                _participant,\n                _price,\n                proposeIndex\n            );\n            proposeList[proposeIndex] = propose;\n            proposeMap[_participant] = propose;\n            proposeIndex++;\n            IMain(parentContract).increaseParticipantSessionCount(_participant);\n        } else {\n            //  existed participant\n            proposeMap[_participant].price = _price;\n        }\n    }\n\n    function calculateProposePrice() internal {\n        uint256 i;\n        uint256 totalDeviation;\n        uint256 topValue;\n\n        for (i = 0; i <= proposeIndex; i++) {\n            ParticipantPropose memory proposeInfo = proposeList[i];\n            address currentParticipant = proposeInfo.participantAddress;\n            (uint256 deviation, ) = getParticpantInfo(currentParticipant);\n            totalDeviation += deviation;\n            topValue += (proposeInfo.price * (100 - deviation));\n        }\n\n        proposePrice = topValue / totalDeviation;\n    }\n\n    function getParticpantInfo(address _account)\n        public\n        returns (uint256, uint256)\n    {\n        Participant memory participant = IMain(parentContract)\n            .getParticipantDetail(_account);\n        return (participant.deviation, participant.sessionsCount);\n    }\n\n    function getInfo()\n        public\n        view\n        returns (\n            string memory,\n            string memory,\n            string[] memory,\n            uint256,\n            SessionState,\n            uint256,\n            uint256\n        )\n    {\n        return (\n            name,\n            description,\n            images,\n            timeout,\n            state,\n            proposePrice,\n            finalPrice\n        );\n    }\n\n    function abs(int256 x) private pure returns (uint256) {\n        return x >= 0 ? uint256(x) : uint256(-x);\n    }\n}\n",
  "sourcePath": "/Users/minh/Projects/Funix/pricing-chain/contracts/Session.sol",
  "compiler": {
    "name": "solc",
    "version": "0.8.12+commit.f00d7308.Emscripten.clang"
  },
  "schemaVersion": "3.4.5",
  "updatedAt": "2022-03-16T12:22:07.976Z",
  "devdoc": {
    "kind": "dev",
    "methods": {},
    "version": 1
  },
  "userdoc": {
    "kind": "user",
    "methods": {},
    "version": 1
  }
}