{
  "contractName": "Session",
  "abi": [
    {
      "inputs": [
        {
          "internalType": "address",
          "name": "_parentContract",
          "type": "address"
        },
        {
          "internalType": "string",
          "name": "_name",
          "type": "string"
        },
        {
          "internalType": "string",
          "name": "_description",
          "type": "string"
        },
        {
          "internalType": "string[]",
          "name": "_images",
          "type": "string[]"
        },
        {
          "internalType": "uint256",
          "name": "_timeout",
          "type": "uint256"
        },
        {
          "internalType": "uint256",
          "name": "_reward",
          "type": "uint256"
        }
      ],
      "stateMutability": "payable",
      "type": "constructor"
    },
    {
      "inputs": [],
      "name": "close",
      "outputs": [],
      "stateMutability": "nonpayable",
      "type": "function"
    },
    {
      "inputs": [],
      "name": "isClosed",
      "outputs": [
        {
          "internalType": "bool",
          "name": "",
          "type": "bool"
        }
      ],
      "stateMutability": "view",
      "type": "function"
    },
    {
      "inputs": [
        {
          "internalType": "string",
          "name": "_name",
          "type": "string"
        },
        {
          "internalType": "string",
          "name": "_description",
          "type": "string"
        },
        {
          "internalType": "string[]",
          "name": "_images",
          "type": "string[]"
        }
      ],
      "name": "update",
      "outputs": [],
      "stateMutability": "nonpayable",
      "type": "function"
    },
    {
      "inputs": [
        {
          "internalType": "uint256",
          "name": "_finalPrice",
          "type": "uint256"
        }
      ],
      "name": "setFinalPrice",
      "outputs": [],
      "stateMutability": "nonpayable",
      "type": "function"
    },
    {
      "inputs": [
        {
          "internalType": "address",
          "name": "_participantAddr",
          "type": "address"
        },
        {
          "internalType": "uint256",
          "name": "_price",
          "type": "uint256"
        }
      ],
      "name": "submitPrice",
      "outputs": [],
      "stateMutability": "nonpayable",
      "type": "function"
    },
    {
      "inputs": [
        {
          "internalType": "address",
          "name": "_participantAddr",
          "type": "address"
        }
      ],
      "name": "getParticpantInfo",
      "outputs": [
        {
          "internalType": "uint256",
          "name": "",
          "type": "uint256"
        },
        {
          "internalType": "uint256",
          "name": "",
          "type": "uint256"
        }
      ],
      "stateMutability": "nonpayable",
      "type": "function"
    },
    {
      "inputs": [],
      "name": "getInfo",
      "outputs": [
        {
          "internalType": "string",
          "name": "",
          "type": "string"
        },
        {
          "internalType": "string",
          "name": "",
          "type": "string"
        },
        {
          "internalType": "string[]",
          "name": "",
          "type": "string[]"
        },
        {
          "internalType": "uint256",
          "name": "",
          "type": "uint256"
        },
        {
          "internalType": "enum SessionState",
          "name": "",
          "type": "uint8"
        },
        {
          "internalType": "uint256",
          "name": "",
          "type": "uint256"
        },
        {
          "internalType": "uint256",
          "name": "",
          "type": "uint256"
        }
      ],
      "stateMutability": "view",
      "type": "function"
    },
    {
      "inputs": [],
      "name": "getProposePrice",
      "outputs": [
        {
          "internalType": "uint256",
          "name": "",
          "type": "uint256"
        }
      ],
      "stateMutability": "view",
      "type": "function"
    }
  ],
  "bytecode": "0x60806040526000600a55604051620023a2380380620023a283398181016040528101906200002e9190620005c6565b856000806101000a81548173ffffffffffffffffffffffffffffffffffffffff021916908373ffffffffffffffffffffffffffffffffffffffff1602179055506000600c60006101000a81548160ff02191690836001811115620000975762000096620006bf565b5b02179055508460019080519060200190620000b492919062000108565b508360029080519060200190620000cd92919062000108565b50806006819055508260039080519060200190620000ed92919062000199565b50816005819055504260078190555050505050505062000752565b82805462000116906200071d565b90600052602060002090601f0160209004810192826200013a576000855562000186565b82601f106200015557805160ff191683800117855562000186565b8280016001018555821562000186579182015b828111156200018557825182559160200191906001019062000168565b5b50905062000195919062000200565b5090565b828054828255906000526020600020908101928215620001ed579160200282015b82811115620001ec578251829080519060200190620001db92919062000108565b5091602001919060010190620001ba565b5b509050620001fc91906200021f565b5090565b5b808211156200021b57600081600090555060010162000201565b5090565b5b8082111562000243576000818162000239919062000247565b5060010162000220565b5090565b50805462000255906200071d565b6000825580601f106200026957506200028a565b601f01602090049060005260206000209081019062000289919062000200565b5b50565b6000604051905090565b600080fd5b600080fd5b600073ffffffffffffffffffffffffffffffffffffffff82169050919050565b6000620002ce82620002a1565b9050919050565b620002e081620002c1565b8114620002ec57600080fd5b50565b6000815190506200030081620002d5565b92915050565b600080fd5b600080fd5b6000601f19601f8301169050919050565b7f4e487b7100000000000000000000000000000000000000000000000000000000600052604160045260246000fd5b6200035b8262000310565b810181811067ffffffffffffffff821117156200037d576200037c62000321565b5b80604052505050565b6000620003926200028d565b9050620003a0828262000350565b919050565b600067ffffffffffffffff821115620003c357620003c262000321565b5b620003ce8262000310565b9050602081019050919050565b60005b83811015620003fb578082015181840152602081019050620003de565b838111156200040b576000848401525b50505050565b6000620004286200042284620003a5565b62000386565b9050828152602081018484840111156200044757620004466200030b565b5b62000454848285620003db565b509392505050565b600082601f83011262000474576200047362000306565b5b81516200048684826020860162000411565b91505092915050565b600067ffffffffffffffff821115620004ad57620004ac62000321565b5b602082029050602081019050919050565b600080fd5b6000620004da620004d4846200048f565b62000386565b905080838252602082019050602084028301858111156200050057620004ff620004be565b5b835b818110156200054e57805167ffffffffffffffff81111562000529576200052862000306565b5b8086016200053889826200045c565b8552602085019450505060208101905062000502565b5050509392505050565b600082601f83011262000570576200056f62000306565b5b815162000582848260208601620004c3565b91505092915050565b6000819050919050565b620005a0816200058b565b8114620005ac57600080fd5b50565b600081519050620005c08162000595565b92915050565b60008060008060008060c08789031215620005e657620005e562000297565b5b6000620005f689828a01620002ef565b965050602087015167ffffffffffffffff8111156200061a57620006196200029c565b5b6200062889828a016200045c565b955050604087015167ffffffffffffffff8111156200064c576200064b6200029c565b5b6200065a89828a016200045c565b945050606087015167ffffffffffffffff8111156200067e576200067d6200029c565b5b6200068c89828a0162000558565b93505060806200069f89828a01620005af565b92505060a0620006b289828a01620005af565b9150509295509295509295565b7f4e487b7100000000000000000000000000000000000000000000000000000000600052602160045260246000fd5b7f4e487b7100000000000000000000000000000000000000000000000000000000600052602260045260246000fd5b600060028204905060018216806200073657607f821691505b6020821081036200074c576200074b620006ee565b5b50919050565b611c4080620007626000396000f3fe608060405234801561001057600080fd5b50600436106100885760003560e01c80637278f4d81161005b5780637278f4d8146100f35780637a8cf8c714610111578063bb55f25c14610142578063c2b6b58c1461015e57610088565b80631d7e99c51461008d5780633b9af89b146100a957806343d726d6146100c55780635a9b0b89146100cf575b600080fd5b6100a760048036038101906100a291906111fd565b61017c565b005b6100c360048036038101906100be9190611338565b610254565b005b6100cd6105cb565b005b6100d761068e565b6040516100ea9796959493929190611592565b60405180910390f35b6100fb6108ba565b6040516101089190611616565b60405180910390f35b61012b60048036038101906101269190611631565b6108c4565b60405161013992919061165e565b60405180910390f35b61015c60048036038101906101579190611687565b610981565b005b610166610be6565b60405161017391906116cf565b60405180910390f35b60008054906101000a900473ffffffffffffffffffffffffffffffffffffffff1673ffffffffffffffffffffffffffffffffffffffff163373ffffffffffffffffffffffffffffffffffffffff161461020a576040517f08c379a000000000000000000000000000000000000000000000000000000000815260040161020190611736565b60405180910390fd5b8260019080519060200190610220929190610e56565b508160029080519060200190610237929190610e56565b50806003908051906020019061024e929190610edc565b50505050565b60008054906101000a900473ffffffffffffffffffffffffffffffffffffffff1673ffffffffffffffffffffffffffffffffffffffff163373ffffffffffffffffffffffffffffffffffffffff16146102e2576040517f08c379a00000000000000000000000000000000000000000000000000000000081526004016102d990611736565b60405180910390fd5b600073ffffffffffffffffffffffffffffffffffffffff16600b60008473ffffffffffffffffffffffffffffffffffffffff1673ffffffffffffffffffffffffffffffffffffffff16815260200190815260200160002060000160009054906101000a900473ffffffffffffffffffffffffffffffffffffffff1673ffffffffffffffffffffffffffffffffffffffff160361057f57600060405180606001604052808473ffffffffffffffffffffffffffffffffffffffff168152602001838152602001600a548152509050600981908060018154018082558091505060019003906000526020600020906003020160009091909190915060008201518160000160006101000a81548173ffffffffffffffffffffffffffffffffffffffff021916908373ffffffffffffffffffffffffffffffffffffffff1602179055506020820151816001015560408201518160020155505080600b60008573ffffffffffffffffffffffffffffffffffffffff1673ffffffffffffffffffffffffffffffffffffffff16815260200190815260200160002060008201518160000160006101000a81548173ffffffffffffffffffffffffffffffffffffffff021916908373ffffffffffffffffffffffffffffffffffffffff1602179055506020820151816001015560408201518160020155905050600a60008154809291906104e990611785565b919050555060008054906101000a900473ffffffffffffffffffffffffffffffffffffffff1673ffffffffffffffffffffffffffffffffffffffff166351650ecb846040518263ffffffff1660e01b815260040161054791906117dc565b600060405180830381600087803b15801561056157600080fd5b505af1158015610575573d6000803e3d6000fd5b50505050506105c7565b80600b60008473ffffffffffffffffffffffffffffffffffffffff1673ffffffffffffffffffffffffffffffffffffffff168152602001908152602001600020600101819055505b5050565b60008054906101000a900473ffffffffffffffffffffffffffffffffffffffff1673ffffffffffffffffffffffffffffffffffffffff163373ffffffffffffffffffffffffffffffffffffffff1614610659576040517f08c379a000000000000000000000000000000000000000000000000000000000815260040161065090611736565b60405180910390fd5b6001600c60006101000a81548160ff0219169083600181111561067f5761067e61151b565b5b021790555061068c610cda565b565b6060806060600080600080600160026003600554600c60009054906101000a900460ff166004546008548680546106c490611826565b80601f01602080910402602001604051908101604052809291908181526020018280546106f090611826565b801561073d5780601f106107125761010080835404028352916020019161073d565b820191906000526020600020905b81548152906001019060200180831161072057829003601f168201915b5050505050965085805461075090611826565b80601f016020809104026020016040519081016040528092919081815260200182805461077c90611826565b80156107c95780601f1061079e576101008083540402835291602001916107c9565b820191906000526020600020905b8154815290600101906020018083116107ac57829003601f168201915b5050505050955084805480602002602001604051908101604052809291908181526020016000905b8282101561089d57838290600052602060002001805461081090611826565b80601f016020809104026020016040519081016040528092919081815260200182805461083c90611826565b80156108895780601f1061085e57610100808354040283529160200191610889565b820191906000526020600020905b81548152906001019060200180831161086c57829003601f168201915b5050505050815260200190600101906107f1565b505050509450965096509650965096509650965090919293949596565b6000600454905090565b60008060008060009054906101000a900473ffffffffffffffffffffffffffffffffffffffff1673ffffffffffffffffffffffffffffffffffffffff1663d716c549856040518263ffffffff1660e01b815260040161092391906117dc565b6000604051808303816000875af1158015610942573d6000803e3d6000fd5b505050506040513d6000823e3d601f19601f8201168201806040525081019061096b91906119d3565b9050806060015181608001519250925050915091565b60008054906101000a900473ffffffffffffffffffffffffffffffffffffffff1673ffffffffffffffffffffffffffffffffffffffff163373ffffffffffffffffffffffffffffffffffffffff1614610a0f576040517f08c379a0000000000000000000000000000000000000000000000000000000008152600401610a0690611736565b60405180910390fd5b8060088190555060005b600a54811015610be257600060098281548110610a3957610a38611a1c565b5b90600052602060002090600302016040518060600160405290816000820160009054906101000a900473ffffffffffffffffffffffffffffffffffffffff1673ffffffffffffffffffffffffffffffffffffffff1673ffffffffffffffffffffffffffffffffffffffff168152602001600182015481526020016002820154815250509050600081600001519050600080610ad3836108c4565b915091506000606487610af487602001518a610aef9190611a4b565b610e34565b610afe9190611aae565b610b089190611adf565b90506000600183610b199190611b39565b828486610b269190611adf565b610b309190611b39565b610b3a9190611aae565b905060008054906101000a900473ffffffffffffffffffffffffffffffffffffffff1673ffffffffffffffffffffffffffffffffffffffff1663937f4a2686836040518363ffffffff1660e01b8152600401610b97929190611b8f565b600060405180830381600087803b158015610bb157600080fd5b505af1158015610bc5573d6000803e3d6000fd5b505050505050505050508080610bda90611785565b915050610a19565b5050565b60008060009054906101000a900473ffffffffffffffffffffffffffffffffffffffff1673ffffffffffffffffffffffffffffffffffffffff163373ffffffffffffffffffffffffffffffffffffffff1614610c77576040517f08c379a0000000000000000000000000000000000000000000000000000000008152600401610c6e90611736565b60405180910390fd5b600060055414158015610cd55750600180811115610c9857610c9761151b565b5b600c60009054906101000a900460ff166001811115610cba57610cb961151b565b5b1480610cd4575042600554600754610cd29190611b39565b115b5b905090565b600080600a5403610cf2576000600481905550610e31565b600080600092505b600a54831015610e0357600060098481548110610d1a57610d19611a1c565b5b90600052602060002090600302016040518060600160405290816000820160009054906101000a900473ffffffffffffffffffffffffffffffffffffffff1673ffffffffffffffffffffffffffffffffffffffff1673ffffffffffffffffffffffffffffffffffffffff1681526020016001820154815260200160028201548152505090506000816000015190506000610db3826108c4565b5090508085610dc29190611b39565b9450806064610dd19190611a4b565b8360200151610de09190611adf565b84610deb9190611b39565b93505050508280610dfb90611785565b935050610cfa565b81600a546064610e139190611adf565b610e1d9190611a4b565b81610e289190611aae565b60048190555050505b50565b600080821215610e4d5781610e4890611bc2565b610e4f565b815b9050919050565b828054610e6290611826565b90600052602060002090601f016020900481019282610e845760008555610ecb565b82601f10610e9d57805160ff1916838001178555610ecb565b82800160010185558215610ecb579182015b82811115610eca578251825591602001919060010190610eaf565b5b509050610ed89190610f3c565b5090565b828054828255906000526020600020908101928215610f2b579160200282015b82811115610f2a578251829080519060200190610f1a929190610e56565b5091602001919060010190610efc565b5b509050610f389190610f59565b5090565b5b80821115610f55576000816000905550600101610f3d565b5090565b5b80821115610f795760008181610f709190610f7d565b50600101610f5a565b5090565b508054610f8990611826565b6000825580601f10610f9b5750610fba565b601f016020900490600052602060002090810190610fb99190610f3c565b5b50565b6000604051905090565b600080fd5b600080fd5b600080fd5b600080fd5b6000601f19601f8301169050919050565b7f4e487b7100000000000000000000000000000000000000000000000000000000600052604160045260246000fd5b61102482610fdb565b810181811067ffffffffffffffff8211171561104357611042610fec565b5b80604052505050565b6000611056610fbd565b9050611062828261101b565b919050565b600067ffffffffffffffff82111561108257611081610fec565b5b61108b82610fdb565b9050602081019050919050565b82818337600083830152505050565b60006110ba6110b584611067565b61104c565b9050828152602081018484840111156110d6576110d5610fd6565b5b6110e1848285611098565b509392505050565b600082601f8301126110fe576110fd610fd1565b5b813561110e8482602086016110a7565b91505092915050565b600067ffffffffffffffff82111561113257611131610fec565b5b602082029050602081019050919050565b600080fd5b600061115b61115684611117565b61104c565b9050808382526020820190506020840283018581111561117e5761117d611143565b5b835b818110156111c557803567ffffffffffffffff8111156111a3576111a2610fd1565b5b8086016111b089826110e9565b85526020850194505050602081019050611180565b5050509392505050565b600082601f8301126111e4576111e3610fd1565b5b81356111f4848260208601611148565b91505092915050565b60008060006060848603121561121657611215610fc7565b5b600084013567ffffffffffffffff81111561123457611233610fcc565b5b611240868287016110e9565b935050602084013567ffffffffffffffff81111561126157611260610fcc565b5b61126d868287016110e9565b925050604084013567ffffffffffffffff81111561128e5761128d610fcc565b5b61129a868287016111cf565b9150509250925092565b600073ffffffffffffffffffffffffffffffffffffffff82169050919050565b60006112cf826112a4565b9050919050565b6112df816112c4565b81146112ea57600080fd5b50565b6000813590506112fc816112d6565b92915050565b6000819050919050565b61131581611302565b811461132057600080fd5b50565b6000813590506113328161130c565b92915050565b6000806040838503121561134f5761134e610fc7565b5b600061135d858286016112ed565b925050602061136e85828601611323565b9150509250929050565b600081519050919050565b600082825260208201905092915050565b60005b838110156113b2578082015181840152602081019050611397565b838111156113c1576000848401525b50505050565b60006113d282611378565b6113dc8185611383565b93506113ec818560208601611394565b6113f581610fdb565b840191505092915050565b600081519050919050565b600082825260208201905092915050565b6000819050602082019050919050565b600082825260208201905092915050565b600061144882611378565b611452818561142c565b9350611462818560208601611394565b61146b81610fdb565b840191505092915050565b6000611482838361143d565b905092915050565b6000602082019050919050565b60006114a282611400565b6114ac818561140b565b9350836020820285016114be8561141c565b8060005b858110156114fa57848403895281516114db8582611476565b94506114e68361148a565b925060208a019950506001810190506114c2565b50829750879550505050505092915050565b61151581611302565b82525050565b7f4e487b7100000000000000000000000000000000000000000000000000000000600052602160045260246000fd5b6002811061155b5761155a61151b565b5b50565b600081905061156c8261154a565b919050565b600061157c8261155e565b9050919050565b61158c81611571565b82525050565b600060e08201905081810360008301526115ac818a6113c7565b905081810360208301526115c081896113c7565b905081810360408301526115d48188611497565b90506115e3606083018761150c565b6115f06080830186611583565b6115fd60a083018561150c565b61160a60c083018461150c565b98975050505050505050565b600060208201905061162b600083018461150c565b92915050565b60006020828403121561164757611646610fc7565b5b6000611655848285016112ed565b91505092915050565b6000604082019050611673600083018561150c565b611680602083018461150c565b9392505050565b60006020828403121561169d5761169c610fc7565b5b60006116ab84828501611323565b91505092915050565b60008115159050919050565b6116c9816116b4565b82525050565b60006020820190506116e460008301846116c0565b92915050565b7f4f6e6c7920706172656e7420636f6e747261637420697320616c6c6f77000000600082015250565b6000611720601d83611383565b915061172b826116ea565b602082019050919050565b6000602082019050818103600083015261174f81611713565b9050919050565b7f4e487b7100000000000000000000000000000000000000000000000000000000600052601160045260246000fd5b600061179082611302565b91507fffffffffffffffffffffffffffffffffffffffffffffffffffffffffffffffff82036117c2576117c1611756565b5b600182019050919050565b6117d6816112c4565b82525050565b60006020820190506117f160008301846117cd565b92915050565b7f4e487b7100000000000000000000000000000000000000000000000000000000600052602260045260246000fd5b6000600282049050600182168061183e57607f821691505b602082108103611851576118506117f7565b5b50919050565b600080fd5b600080fd5b600061187461186f84611067565b61104c565b9050828152602081018484840111156118905761188f610fd6565b5b61189b848285611394565b509392505050565b600082601f8301126118b8576118b7610fd1565b5b81516118c8848260208601611861565b91505092915050565b6000815190506118e0816112d6565b92915050565b6000815190506118f58161130c565b92915050565b600060c0828403121561191157611910611857565b5b61191b60c061104c565b9050600082015167ffffffffffffffff81111561193b5761193a61185c565b5b611947848285016118a3565b600083015250602082015167ffffffffffffffff81111561196b5761196a61185c565b5b611977848285016118a3565b602083015250604061198b848285016118d1565b604083015250606061199f848285016118e6565b60608301525060806119b3848285016118e6565b60808301525060a06119c7848285016118e6565b60a08301525092915050565b6000602082840312156119e9576119e8610fc7565b5b600082015167ffffffffffffffff811115611a0757611a06610fcc565b5b611a13848285016118fb565b91505092915050565b7f4e487b7100000000000000000000000000000000000000000000000000000000600052603260045260246000fd5b6000611a5682611302565b9150611a6183611302565b925082821015611a7457611a73611756565b5b828203905092915050565b7f4e487b7100000000000000000000000000000000000000000000000000000000600052601260045260246000fd5b6000611ab982611302565b9150611ac483611302565b925082611ad457611ad3611a7f565b5b828204905092915050565b6000611aea82611302565b9150611af583611302565b9250817fffffffffffffffffffffffffffffffffffffffffffffffffffffffffffffffff0483118215151615611b2e57611b2d611756565b5b828202905092915050565b6000611b4482611302565b9150611b4f83611302565b9250827fffffffffffffffffffffffffffffffffffffffffffffffffffffffffffffffff03821115611b8457611b83611756565b5b828201905092915050565b6000604082019050611ba460008301856117cd565b611bb1602083018461150c565b9392505050565b6000819050919050565b6000611bcd82611bb8565b91507f80000000000000000000000000000000000000000000000000000000000000008203611bff57611bfe611756565b5b81600003905091905056fea26469706673582212206a65f7e508dbd4861e1245838fbe3d5bd67d9fcf6fb52bbbf2f3b7cb7068c67964736f6c634300080d0033",
  "immutableReferences": {},
  "source": "// SPDX-License-Identifier: GPL-3.0\n\npragma solidity >=0.8.0;\n\nimport \"./Type.sol\";\n\ncontract Session {\n    address parentContract;\n    string name;\n    string description;\n    string[] images;\n    uint256 proposePrice;\n    uint256 timeout;\n    uint256 reward;\n    uint256 initTime;\n    uint256 finalPrice;\n\n    ParticipantPropose[] proposeList;\n    uint256 proposeIndex = 0;\n    mapping(address => ParticipantPropose) proposeMap;\n\n    SessionState state;\n\n    modifier onlyParentContract() {\n        require(msg.sender == parentContract, \"Only parent contract is allow\");\n        _;\n    }\n\n    constructor(\n        address _parentContract,\n        string memory _name,\n        string memory _description,\n        string[] memory _images,\n        uint256 _timeout,\n        uint256 _reward\n    ) payable {\n        parentContract = _parentContract;\n        state = SessionState.OnGoing;\n        name = _name;\n        description = _description;\n        reward = _reward;\n        images = _images;\n        timeout = _timeout;\n        initTime = block.timestamp;\n    }\n\n    function close() public onlyParentContract {\n        state = SessionState.Closed;\n        calculateProposePrice();\n    }\n\n    function isClosed() public view onlyParentContract returns (bool) {\n        return\n            timeout != 0 &&\n            ((state == SessionState.Closed) ||\n                (initTime + timeout) > block.timestamp);\n    }\n\n    function update(\n        string memory _name,\n        string memory _description,\n        string[] memory _images\n    ) public onlyParentContract {\n        name = _name;\n        description = _description;\n        images = _images;\n    }\n\n    function setFinalPrice(uint256 _finalPrice) public onlyParentContract {\n        finalPrice = _finalPrice;\n        uint256 i;\n\n        // update deviation of each participant that has join this session.\n        for (i = 0; i < proposeIndex; i++) {\n            ParticipantPropose memory proposeInfo = proposeList[i];\n            address currentParticipant = proposeInfo.participantAddress;\n            (\n                uint256 currentDeviation,\n                uint256 sessionsCount\n            ) = getParticpantInfo(currentParticipant);\n\n            uint256 newDeviation = (abs(\n                int256(_finalPrice - proposeInfo.price)\n            ) / _finalPrice) * 100;\n            uint256 updatedDeviation = ((currentDeviation * sessionsCount) +\n                newDeviation) / (sessionsCount + 1);\n            IMain(parentContract).updateParticipantDeviation(\n                currentParticipant,\n                updatedDeviation\n            );\n        }\n    }\n\n    function submitPrice(address _participantAddr, uint256 _price)\n        public\n        onlyParentContract\n    {\n        if (proposeMap[_participantAddr].participantAddress == address(0)) {\n            // new participant\n            ParticipantPropose memory propose = ParticipantPropose(\n                _participantAddr,\n                _price,\n                proposeIndex\n            );\n            proposeList.push(propose);\n            proposeMap[_participantAddr] = propose;\n            proposeIndex++;\n            IMain(parentContract).increaseParticipantSessionCount(\n                _participantAddr\n            );\n        } else {\n            //  existed participant\n            proposeMap[_participantAddr].price = _price;\n        }\n    }\n\n    function getParticpantInfo(address _participantAddr)\n        public\n        returns (uint256, uint256)\n    {\n        Participant memory participant = IMain(parentContract)\n            .getParticipantDetail(_participantAddr);\n        return (participant.deviation, participant.sessionsCount);\n    }\n\n    function getInfo()\n        public\n        view\n        returns (\n            string memory,\n            string memory,\n            string[] memory,\n            uint256,\n            SessionState,\n            uint256,\n            uint256\n        )\n    {\n        return (\n            name,\n            description,\n            images,\n            timeout,\n            state,\n            proposePrice,\n            finalPrice\n        );\n    }\n\n    function getProposePrice() public view returns (uint256) {\n        return proposePrice;\n    }\n\n    // internal function\n\n    function abs(int256 x) internal pure returns (uint256) {\n        return x >= 0 ? uint256(x) : uint256(-x);\n    }\n\n    function calculateProposePrice() internal {\n        uint256 i;\n\n        if (proposeIndex == 0) {\n            proposePrice = 0;\n        } else {\n            uint256 totalDeviation;\n            uint256 topValue;\n\n            for (i = 0; i < proposeIndex; i++) {\n                ParticipantPropose memory proposeInfo = proposeList[i];\n                address currentParticipant = proposeInfo.participantAddress;\n                (uint256 deviation, ) = getParticpantInfo(currentParticipant);\n                totalDeviation += deviation;\n                topValue += (proposeInfo.price * (100 - deviation));\n            }\n\n            // proposePrice = 1;\n            proposePrice = topValue / ((100 * proposeIndex) - totalDeviation);\n        }\n    }\n}\n",
  "sourcePath": "/Users/minh/Projects/Funix/pricing-chain/contracts/Session.sol",
  "compiler": {
    "name": "solc",
    "version": "0.8.13+commit.abaa5c0e.Emscripten.clang"
  },
  "schemaVersion": "3.4.5",
  "updatedAt": "2022-03-25T08:56:51.156Z",
  "devdoc": {
    "kind": "dev",
    "methods": {},
    "version": 1
  },
  "userdoc": {
    "kind": "user",
    "methods": {},
    "version": 1
  }
}