{
  "contractName": "Session",
  "abi": [
    {
      "inputs": [
        {
          "internalType": "address",
          "name": "_parentContract",
          "type": "address"
        },
        {
          "internalType": "string",
          "name": "_name",
          "type": "string"
        },
        {
          "internalType": "string",
          "name": "_description",
          "type": "string"
        },
        {
          "internalType": "string[]",
          "name": "_images",
          "type": "string[]"
        },
        {
          "internalType": "uint256",
          "name": "_timeout",
          "type": "uint256"
        },
        {
          "internalType": "uint256",
          "name": "_reward",
          "type": "uint256"
        }
      ],
      "stateMutability": "payable",
      "type": "constructor"
    },
    {
      "inputs": [],
      "name": "close",
      "outputs": [],
      "stateMutability": "nonpayable",
      "type": "function"
    },
    {
      "inputs": [],
      "name": "isClosed",
      "outputs": [
        {
          "internalType": "bool",
          "name": "",
          "type": "bool"
        }
      ],
      "stateMutability": "view",
      "type": "function"
    },
    {
      "inputs": [
        {
          "internalType": "string",
          "name": "_name",
          "type": "string"
        },
        {
          "internalType": "string",
          "name": "_description",
          "type": "string"
        },
        {
          "internalType": "string[]",
          "name": "_images",
          "type": "string[]"
        }
      ],
      "name": "update",
      "outputs": [],
      "stateMutability": "nonpayable",
      "type": "function"
    },
    {
      "inputs": [
        {
          "internalType": "uint256",
          "name": "_finalPrice",
          "type": "uint256"
        }
      ],
      "name": "updateFinalPrice",
      "outputs": [],
      "stateMutability": "nonpayable",
      "type": "function"
    },
    {
      "inputs": [
        {
          "internalType": "address",
          "name": "_participant",
          "type": "address"
        },
        {
          "internalType": "uint256",
          "name": "_price",
          "type": "uint256"
        }
      ],
      "name": "submitPrice",
      "outputs": [],
      "stateMutability": "nonpayable",
      "type": "function"
    },
    {
      "inputs": [
        {
          "internalType": "address",
          "name": "_account",
          "type": "address"
        }
      ],
      "name": "getParticpantInfo",
      "outputs": [
        {
          "internalType": "uint256",
          "name": "",
          "type": "uint256"
        },
        {
          "internalType": "uint256",
          "name": "",
          "type": "uint256"
        }
      ],
      "stateMutability": "nonpayable",
      "type": "function"
    }
  ],
  "bytecode": "0x60806040526000600a5560405162001e8938038062001e8983398181016040528101906200002e9190620005c6565b856000806101000a81548173ffffffffffffffffffffffffffffffffffffffff021916908373ffffffffffffffffffffffffffffffffffffffff1602179055506000600c60006101000a81548160ff02191690836001811115620000975762000096620006bf565b5b02179055508460019080519060200190620000b492919062000108565b508360029080519060200190620000cd92919062000108565b50806006819055508260039080519060200190620000ed92919062000199565b50816005819055504260078190555050505050505062000753565b82805462000116906200071d565b90600052602060002090601f0160209004810192826200013a576000855562000186565b82601f106200015557805160ff191683800117855562000186565b8280016001018555821562000186579182015b828111156200018557825182559160200191906001019062000168565b5b50905062000195919062000200565b5090565b828054828255906000526020600020908101928215620001ed579160200282015b82811115620001ec578251829080519060200190620001db92919062000108565b5091602001919060010190620001ba565b5b509050620001fc91906200021f565b5090565b5b808211156200021b57600081600090555060010162000201565b5090565b5b8082111562000243576000818162000239919062000247565b5060010162000220565b5090565b50805462000255906200071d565b6000825580601f106200026957506200028a565b601f01602090049060005260206000209081019062000289919062000200565b5b50565b6000604051905090565b600080fd5b600080fd5b600073ffffffffffffffffffffffffffffffffffffffff82169050919050565b6000620002ce82620002a1565b9050919050565b620002e081620002c1565b8114620002ec57600080fd5b50565b6000815190506200030081620002d5565b92915050565b600080fd5b600080fd5b6000601f19601f8301169050919050565b7f4e487b7100000000000000000000000000000000000000000000000000000000600052604160045260246000fd5b6200035b8262000310565b810181811067ffffffffffffffff821117156200037d576200037c62000321565b5b80604052505050565b6000620003926200028d565b9050620003a0828262000350565b919050565b600067ffffffffffffffff821115620003c357620003c262000321565b5b620003ce8262000310565b9050602081019050919050565b60005b83811015620003fb578082015181840152602081019050620003de565b838111156200040b576000848401525b50505050565b6000620004286200042284620003a5565b62000386565b9050828152602081018484840111156200044757620004466200030b565b5b62000454848285620003db565b509392505050565b600082601f83011262000474576200047362000306565b5b81516200048684826020860162000411565b91505092915050565b600067ffffffffffffffff821115620004ad57620004ac62000321565b5b602082029050602081019050919050565b600080fd5b6000620004da620004d4846200048f565b62000386565b905080838252602082019050602084028301858111156200050057620004ff620004be565b5b835b818110156200054e57805167ffffffffffffffff81111562000529576200052862000306565b5b8086016200053889826200045c565b8552602085019450505060208101905062000502565b5050509392505050565b600082601f83011262000570576200056f62000306565b5b815162000582848260208601620004c3565b91505092915050565b6000819050919050565b620005a0816200058b565b8114620005ac57600080fd5b50565b600081519050620005c08162000595565b92915050565b60008060008060008060c08789031215620005e657620005e562000297565b5b6000620005f689828a01620002ef565b965050602087015167ffffffffffffffff8111156200061a57620006196200029c565b5b6200062889828a016200045c565b955050604087015167ffffffffffffffff8111156200064c576200064b6200029c565b5b6200065a89828a016200045c565b945050606087015167ffffffffffffffff8111156200067e576200067d6200029c565b5b6200068c89828a0162000558565b93505060806200069f89828a01620005af565b92505060a0620006b289828a01620005af565b9150509295509295509295565b7f4e487b7100000000000000000000000000000000000000000000000000000000600052602160045260246000fd5b7f4e487b7100000000000000000000000000000000000000000000000000000000600052602260045260246000fd5b600060028204905060018216806200073657607f821691505b602082108114156200074d576200074c620006ee565b5b50919050565b61172680620007636000396000f3fe608060405234801561001057600080fd5b50600436106100625760003560e01c80631d7e99c5146100675780633b9af89b1461008357806343d726d61461009f5780637a8cf8c7146100a95780637abb4416146100da578063c2b6b58c146100f6575b600080fd5b610081600480360381019061007c9190610f17565b610114565b005b61009d60048036038101906100989190611052565b6101ec565b005b6100a761055d565b005b6100c360048036038101906100be9190611092565b610620565b6040516100d19291906110ce565b60405180910390f35b6100f460048036038101906100ef91906110f7565b6106dd565b005b6100fe610941565b60405161010b919061113f565b60405180910390f35b60008054906101000a900473ffffffffffffffffffffffffffffffffffffffff1673ffffffffffffffffffffffffffffffffffffffff163373ffffffffffffffffffffffffffffffffffffffff16146101a2576040517f08c379a0000000000000000000000000000000000000000000000000000000008152600401610199906111b7565b60405180910390fd5b82600190805190602001906101b8929190610b70565b5081600290805190602001906101cf929190610b70565b5080600390805190602001906101e6929190610bf6565b50505050565b60008054906101000a900473ffffffffffffffffffffffffffffffffffffffff1673ffffffffffffffffffffffffffffffffffffffff163373ffffffffffffffffffffffffffffffffffffffff161461027a576040517f08c379a0000000000000000000000000000000000000000000000000000000008152600401610271906111b7565b60405180910390fd5b600073ffffffffffffffffffffffffffffffffffffffff16600b60008473ffffffffffffffffffffffffffffffffffffffff1673ffffffffffffffffffffffffffffffffffffffff16815260200190815260200160002060000160009054906101000a900473ffffffffffffffffffffffffffffffffffffffff1673ffffffffffffffffffffffffffffffffffffffff161461051157600060405180606001604052808473ffffffffffffffffffffffffffffffffffffffff168152602001838152602001600a548152509050806009600a548154811061035e5761035d6111d7565b5b906000526020600020906003020160008201518160000160006101000a81548173ffffffffffffffffffffffffffffffffffffffff021916908373ffffffffffffffffffffffffffffffffffffffff160217905550602082015181600101556040820151816002015590505080600b60008573ffffffffffffffffffffffffffffffffffffffff1673ffffffffffffffffffffffffffffffffffffffff16815260200190815260200160002060008201518160000160006101000a81548173ffffffffffffffffffffffffffffffffffffffff021916908373ffffffffffffffffffffffffffffffffffffffff1602179055506020820151816001015560408201518160020155905050600a600081548092919061047b90611235565b919050555060008054906101000a900473ffffffffffffffffffffffffffffffffffffffff1673ffffffffffffffffffffffffffffffffffffffff166351650ecb846040518263ffffffff1660e01b81526004016104d9919061128d565b600060405180830381600087803b1580156104f357600080fd5b505af1158015610507573d6000803e3d6000fd5b5050505050610559565b80600b60008473ffffffffffffffffffffffffffffffffffffffff1673ffffffffffffffffffffffffffffffffffffffff168152602001908152602001600020600101819055505b5050565b60008054906101000a900473ffffffffffffffffffffffffffffffffffffffff1673ffffffffffffffffffffffffffffffffffffffff163373ffffffffffffffffffffffffffffffffffffffff16146105eb576040517f08c379a00000000000000000000000000000000000000000000000000000000081526004016105e2906111b7565b60405180910390fd5b6001600c60006101000a81548160ff02191690836001811115610611576106106112a8565b5b021790555061061e610a26565b565b60008060008060009054906101000a900473ffffffffffffffffffffffffffffffffffffffff1673ffffffffffffffffffffffffffffffffffffffff1663d716c549856040518263ffffffff1660e01b815260040161067f919061128d565b6000604051808303816000875af115801561069e573d6000803e3d6000fd5b505050506040513d6000823e3d601f19601f820116820180604052508101906106c79190611486565b9050806060015181608001519250925050915091565b60008054906101000a900473ffffffffffffffffffffffffffffffffffffffff1673ffffffffffffffffffffffffffffffffffffffff163373ffffffffffffffffffffffffffffffffffffffff161461076b576040517f08c379a0000000000000000000000000000000000000000000000000000000008152600401610762906111b7565b60405180910390fd5b8060088190555060005b600a54811161093d57600060098281548110610794576107936111d7565b5b90600052602060002090600302016040518060600160405290816000820160009054906101000a900473ffffffffffffffffffffffffffffffffffffffff1673ffffffffffffffffffffffffffffffffffffffff1673ffffffffffffffffffffffffffffffffffffffff16815260200160018201548152602001600282015481525050905060008160000151905060008061082e83610620565b91509150600060648761084f87602001518a61084a91906114cf565b610b4e565b6108599190611532565b6108639190611563565b9050600060018361087491906115bd565b8284866108819190611563565b61088b91906115bd565b6108959190611532565b905060008054906101000a900473ffffffffffffffffffffffffffffffffffffffff1673ffffffffffffffffffffffffffffffffffffffff1663937f4a2686836040518363ffffffff1660e01b81526004016108f2929190611613565b600060405180830381600087803b15801561090c57600080fd5b505af1158015610920573d6000803e3d6000fd5b50505050505050505050808061093590611235565b915050610775565b5050565b60008060009054906101000a900473ffffffffffffffffffffffffffffffffffffffff1673ffffffffffffffffffffffffffffffffffffffff163373ffffffffffffffffffffffffffffffffffffffff16146109d2576040517f08c379a00000000000000000000000000000000000000000000000000000000081526004016109c9906111b7565b60405180910390fd5b6001808111156109e5576109e46112a8565b5b600c60009054906101000a900460ff166001811115610a0757610a066112a8565b5b1480610a21575042600554600754610a1f91906115bd565b115b905090565b60008060008092505b600a548311610b3757600060098481548110610a4e57610a4d6111d7565b5b90600052602060002090600302016040518060600160405290816000820160009054906101000a900473ffffffffffffffffffffffffffffffffffffffff1673ffffffffffffffffffffffffffffffffffffffff1673ffffffffffffffffffffffffffffffffffffffff1681526020016001820154815260200160028201548152505090506000816000015190506000610ae782610620565b5090508085610af691906115bd565b9450806064610b0591906114cf565b8360200151610b149190611563565b84610b1f91906115bd565b93505050508280610b2f90611235565b935050610a2f565b8181610b439190611532565b600481905550505050565b600080821215610b675781610b6290611646565b610b69565b815b9050919050565b828054610b7c906116be565b90600052602060002090601f016020900481019282610b9e5760008555610be5565b82601f10610bb757805160ff1916838001178555610be5565b82800160010185558215610be5579182015b82811115610be4578251825591602001919060010190610bc9565b5b509050610bf29190610c56565b5090565b828054828255906000526020600020908101928215610c45579160200282015b82811115610c44578251829080519060200190610c34929190610b70565b5091602001919060010190610c16565b5b509050610c529190610c73565b5090565b5b80821115610c6f576000816000905550600101610c57565b5090565b5b80821115610c935760008181610c8a9190610c97565b50600101610c74565b5090565b508054610ca3906116be565b6000825580601f10610cb55750610cd4565b601f016020900490600052602060002090810190610cd39190610c56565b5b50565b6000604051905090565b600080fd5b600080fd5b600080fd5b600080fd5b6000601f19601f8301169050919050565b7f4e487b7100000000000000000000000000000000000000000000000000000000600052604160045260246000fd5b610d3e82610cf5565b810181811067ffffffffffffffff82111715610d5d57610d5c610d06565b5b80604052505050565b6000610d70610cd7565b9050610d7c8282610d35565b919050565b600067ffffffffffffffff821115610d9c57610d9b610d06565b5b610da582610cf5565b9050602081019050919050565b82818337600083830152505050565b6000610dd4610dcf84610d81565b610d66565b905082815260208101848484011115610df057610def610cf0565b5b610dfb848285610db2565b509392505050565b600082601f830112610e1857610e17610ceb565b5b8135610e28848260208601610dc1565b91505092915050565b600067ffffffffffffffff821115610e4c57610e4b610d06565b5b602082029050602081019050919050565b600080fd5b6000610e75610e7084610e31565b610d66565b90508083825260208201905060208402830185811115610e9857610e97610e5d565b5b835b81811015610edf57803567ffffffffffffffff811115610ebd57610ebc610ceb565b5b808601610eca8982610e03565b85526020850194505050602081019050610e9a565b5050509392505050565b600082601f830112610efe57610efd610ceb565b5b8135610f0e848260208601610e62565b91505092915050565b600080600060608486031215610f3057610f2f610ce1565b5b600084013567ffffffffffffffff811115610f4e57610f4d610ce6565b5b610f5a86828701610e03565b935050602084013567ffffffffffffffff811115610f7b57610f7a610ce6565b5b610f8786828701610e03565b925050604084013567ffffffffffffffff811115610fa857610fa7610ce6565b5b610fb486828701610ee9565b9150509250925092565b600073ffffffffffffffffffffffffffffffffffffffff82169050919050565b6000610fe982610fbe565b9050919050565b610ff981610fde565b811461100457600080fd5b50565b60008135905061101681610ff0565b92915050565b6000819050919050565b61102f8161101c565b811461103a57600080fd5b50565b60008135905061104c81611026565b92915050565b6000806040838503121561106957611068610ce1565b5b600061107785828601611007565b92505060206110888582860161103d565b9150509250929050565b6000602082840312156110a8576110a7610ce1565b5b60006110b684828501611007565b91505092915050565b6110c88161101c565b82525050565b60006040820190506110e360008301856110bf565b6110f060208301846110bf565b9392505050565b60006020828403121561110d5761110c610ce1565b5b600061111b8482850161103d565b91505092915050565b60008115159050919050565b61113981611124565b82525050565b60006020820190506111546000830184611130565b92915050565b600082825260208201905092915050565b7f4f6e6c7920706172656e7420636f6e747261637420697320616c6c6f77000000600082015250565b60006111a1601d8361115a565b91506111ac8261116b565b602082019050919050565b600060208201905081810360008301526111d081611194565b9050919050565b7f4e487b7100000000000000000000000000000000000000000000000000000000600052603260045260246000fd5b7f4e487b7100000000000000000000000000000000000000000000000000000000600052601160045260246000fd5b60006112408261101c565b91507fffffffffffffffffffffffffffffffffffffffffffffffffffffffffffffffff82141561127357611272611206565b5b600182019050919050565b61128781610fde565b82525050565b60006020820190506112a2600083018461127e565b92915050565b7f4e487b7100000000000000000000000000000000000000000000000000000000600052602160045260246000fd5b600080fd5b600080fd5b60005b838110156112ff5780820151818401526020810190506112e4565b8381111561130e576000848401525b50505050565b600061132761132284610d81565b610d66565b90508281526020810184848401111561134357611342610cf0565b5b61134e8482856112e1565b509392505050565b600082601f83011261136b5761136a610ceb565b5b815161137b848260208601611314565b91505092915050565b60008151905061139381610ff0565b92915050565b6000815190506113a881611026565b92915050565b600060c082840312156113c4576113c36112d7565b5b6113ce60c0610d66565b9050600082015167ffffffffffffffff8111156113ee576113ed6112dc565b5b6113fa84828501611356565b600083015250602082015167ffffffffffffffff81111561141e5761141d6112dc565b5b61142a84828501611356565b602083015250604061143e84828501611384565b604083015250606061145284828501611399565b606083015250608061146684828501611399565b60808301525060a061147a84828501611399565b60a08301525092915050565b60006020828403121561149c5761149b610ce1565b5b600082015167ffffffffffffffff8111156114ba576114b9610ce6565b5b6114c6848285016113ae565b91505092915050565b60006114da8261101c565b91506114e58361101c565b9250828210156114f8576114f7611206565b5b828203905092915050565b7f4e487b7100000000000000000000000000000000000000000000000000000000600052601260045260246000fd5b600061153d8261101c565b91506115488361101c565b92508261155857611557611503565b5b828204905092915050565b600061156e8261101c565b91506115798361101c565b9250817fffffffffffffffffffffffffffffffffffffffffffffffffffffffffffffffff04831182151516156115b2576115b1611206565b5b828202905092915050565b60006115c88261101c565b91506115d38361101c565b9250827fffffffffffffffffffffffffffffffffffffffffffffffffffffffffffffffff0382111561160857611607611206565b5b828201905092915050565b6000604082019050611628600083018561127e565b61163560208301846110bf565b9392505050565b6000819050919050565b60006116518261163c565b91507f800000000000000000000000000000000000000000000000000000000000000082141561168457611683611206565b5b816000039050919050565b7f4e487b7100000000000000000000000000000000000000000000000000000000600052602260045260246000fd5b600060028204905060018216806116d657607f821691505b602082108114156116ea576116e961168f565b5b5091905056fea2646970667358221220feb0718127b1211510b42c420c57f7040c43125a6fa8c951eeb6b1cafead6a6b64736f6c634300080c0033",
  "immutableReferences": {},
  "source": "// SPDX-License-Identifier: GPL-3.0\n\npragma solidity >=0.8.0;\n\nimport \"./Type.sol\";\n\n// Interface of Main contract to call from Session contract\ninterface IMain {\n    function getParticipantDetail(address _session)\n        external\n        returns (Participant memory);\n\n    function updateParticipantDeviation(address _account, uint256 _deviation)\n        external;\n\n    function increaseParticipantSessionCount(address _account) external;\n}\n\ncontract Session {\n    enum SessionState {\n        OnGoing,\n        Closed\n    }\n\n    address parentContract;\n    string name;\n    string description;\n    string[] images;\n    uint256 proposePrice;\n    uint256 timeout;\n    uint256 reward;\n    uint256 initTime;\n    uint256 finalPrice;\n\n    ParticipantPropose[] proposeList;\n    uint256 proposeIndex = 0;\n    mapping(address => ParticipantPropose) proposeMap;\n\n    SessionState state;\n\n    modifier onlyParentContract() {\n        require(msg.sender == parentContract, \"Only parent contract is allow\");\n        _;\n    }\n\n    constructor(\n        address _parentContract,\n        string memory _name,\n        string memory _description,\n        string[] memory _images,\n        uint256 _timeout,\n        uint256 _reward\n    ) payable {\n        parentContract = _parentContract;\n        state = SessionState.OnGoing;\n        name = _name;\n        description = _description;\n        reward = _reward;\n        images = _images;\n        timeout = _timeout;\n        initTime = block.timestamp;\n    }\n\n    function close() public onlyParentContract {\n        state = SessionState.Closed;\n        calculateProposePrice();\n    }\n\n    function isClosed() public view onlyParentContract returns (bool) {\n        return\n            (state == SessionState.Closed) ||\n            (initTime + timeout) > block.timestamp;\n    }\n\n    function update(\n        string memory _name,\n        string memory _description,\n        string[] memory _images\n    ) public onlyParentContract {\n        name = _name;\n        description = _description;\n        images = _images;\n    }\n\n    function updateFinalPrice(uint256 _finalPrice) public onlyParentContract {\n        finalPrice = _finalPrice;\n        uint256 i;\n\n        // update deviation of each participant that has join this session.\n        for (i = 0; i <= proposeIndex; i++) {\n            ParticipantPropose memory proposeInfo = proposeList[i];\n            address currentParticipant = proposeInfo.participantAddress;\n            (\n                uint256 currentDeviation,\n                uint256 sessionsCount\n            ) = getParticpantInfo(currentParticipant);\n\n            uint256 newDeviation = (abs(\n                int256(_finalPrice - proposeInfo.price)\n            ) / _finalPrice) * 100;\n            uint256 updatedDeviation = ((currentDeviation * sessionsCount) +\n                newDeviation) / (sessionsCount + 1);\n            IMain(parentContract).updateParticipantDeviation(\n                currentParticipant,\n                updatedDeviation\n            );\n        }\n    }\n\n    function submitPrice(address _participant, uint256 _price)\n        public\n        onlyParentContract\n    {\n        if (proposeMap[_participant].participantAddress != address(0)) {\n            // new participant\n            ParticipantPropose memory propose = ParticipantPropose(\n                _participant,\n                _price,\n                proposeIndex\n            );\n            proposeList[proposeIndex] = propose;\n            proposeMap[_participant] = propose;\n            proposeIndex++;\n            IMain(parentContract).increaseParticipantSessionCount(_participant);\n        } else {\n            //  existed participant\n            proposeMap[_participant].price = _price;\n        }\n    }\n\n    function calculateProposePrice() internal {\n        uint256 i;\n        uint256 totalDeviation;\n        uint256 topValue;\n\n        for (i = 0; i <= proposeIndex; i++) {\n            ParticipantPropose memory proposeInfo = proposeList[i];\n            address currentParticipant = proposeInfo.participantAddress;\n            (uint256 deviation, ) = getParticpantInfo(currentParticipant);\n            totalDeviation += deviation;\n            topValue += (proposeInfo.price * (100 - deviation));\n        }\n\n        proposePrice = topValue / totalDeviation;\n    }\n\n    function getParticpantInfo(address _account)\n        public\n        returns (uint256, uint256)\n    {\n        Participant memory participant = IMain(parentContract)\n            .getParticipantDetail(_account);\n        return (participant.deviation, participant.sessionsCount);\n    }\n\n    function abs(int256 x) private pure returns (uint256) {\n        return x >= 0 ? uint256(x) : uint256(-x);\n    }\n}\n",
  "sourcePath": "/Users/minh/Projects/Funix/pricing-chain/contracts/Session.sol",
  "compiler": {
    "name": "solc",
    "version": "0.8.12+commit.f00d7308.Emscripten.clang"
  },
  "schemaVersion": "3.4.5",
  "updatedAt": "2022-03-16T10:48:14.231Z",
  "devdoc": {
    "kind": "dev",
    "methods": {},
    "version": 1
  },
  "userdoc": {
    "kind": "user",
    "methods": {},
    "version": 1
  }
}