{
  "contractName": "Session",
  "abi": [
    {
      "inputs": [
        {
          "internalType": "address",
          "name": "_parentContract",
          "type": "address"
        },
        {
          "internalType": "string",
          "name": "_name",
          "type": "string"
        },
        {
          "internalType": "string",
          "name": "_description",
          "type": "string"
        },
        {
          "internalType": "string[]",
          "name": "_images",
          "type": "string[]"
        },
        {
          "internalType": "uint256",
          "name": "_timeout",
          "type": "uint256"
        },
        {
          "internalType": "uint256",
          "name": "_reward",
          "type": "uint256"
        }
      ],
      "stateMutability": "payable",
      "type": "constructor"
    },
    {
      "inputs": [],
      "name": "close",
      "outputs": [],
      "stateMutability": "nonpayable",
      "type": "function"
    },
    {
      "inputs": [],
      "name": "isClosed",
      "outputs": [
        {
          "internalType": "bool",
          "name": "",
          "type": "bool"
        }
      ],
      "stateMutability": "view",
      "type": "function"
    },
    {
      "inputs": [
        {
          "internalType": "string",
          "name": "_name",
          "type": "string"
        },
        {
          "internalType": "string",
          "name": "_description",
          "type": "string"
        },
        {
          "internalType": "string[]",
          "name": "_images",
          "type": "string[]"
        }
      ],
      "name": "update",
      "outputs": [],
      "stateMutability": "nonpayable",
      "type": "function"
    },
    {
      "inputs": [
        {
          "internalType": "uint256",
          "name": "_finalPrice",
          "type": "uint256"
        }
      ],
      "name": "setFinalPrice",
      "outputs": [],
      "stateMutability": "nonpayable",
      "type": "function"
    },
    {
      "inputs": [
        {
          "internalType": "address",
          "name": "_participantAddr",
          "type": "address"
        },
        {
          "internalType": "uint256",
          "name": "_price",
          "type": "uint256"
        }
      ],
      "name": "submitPrice",
      "outputs": [],
      "stateMutability": "nonpayable",
      "type": "function"
    },
    {
      "inputs": [],
      "name": "getInfo",
      "outputs": [
        {
          "internalType": "string",
          "name": "",
          "type": "string"
        },
        {
          "internalType": "string",
          "name": "",
          "type": "string"
        },
        {
          "internalType": "string[]",
          "name": "",
          "type": "string[]"
        },
        {
          "internalType": "uint256",
          "name": "",
          "type": "uint256"
        },
        {
          "internalType": "enum SessionState",
          "name": "",
          "type": "uint8"
        },
        {
          "internalType": "uint256",
          "name": "",
          "type": "uint256"
        },
        {
          "internalType": "uint256",
          "name": "",
          "type": "uint256"
        }
      ],
      "stateMutability": "view",
      "type": "function"
    },
    {
      "inputs": [],
      "name": "getProposePrice",
      "outputs": [
        {
          "internalType": "uint256",
          "name": "",
          "type": "uint256"
        }
      ],
      "stateMutability": "view",
      "type": "function"
    }
  ],
  "bytecode": "0x6080604052604051620022bd380380620022bd8339818101604052810190620000299190620005c1565b856000806101000a81548173ffffffffffffffffffffffffffffffffffffffff021916908373ffffffffffffffffffffffffffffffffffffffff1602179055506000600c60006101000a81548160ff02191690836001811115620000925762000091620006ba565b5b02179055508460019080519060200190620000af92919062000103565b508360029080519060200190620000c892919062000103565b50806006819055508260039080519060200190620000e892919062000194565b5081600581905550426007819055505050505050506200074d565b828054620001119062000718565b90600052602060002090601f01602090048101928262000135576000855562000181565b82601f106200015057805160ff191683800117855562000181565b8280016001018555821562000181579182015b828111156200018057825182559160200191906001019062000163565b5b509050620001909190620001fb565b5090565b828054828255906000526020600020908101928215620001e8579160200282015b82811115620001e7578251829080519060200190620001d692919062000103565b5091602001919060010190620001b5565b5b509050620001f791906200021a565b5090565b5b8082111562000216576000816000905550600101620001fc565b5090565b5b808211156200023e576000818162000234919062000242565b506001016200021b565b5090565b508054620002509062000718565b6000825580601f1062000264575062000285565b601f016020900490600052602060002090810190620002849190620001fb565b5b50565b6000604051905090565b600080fd5b600080fd5b600073ffffffffffffffffffffffffffffffffffffffff82169050919050565b6000620002c9826200029c565b9050919050565b620002db81620002bc565b8114620002e757600080fd5b50565b600081519050620002fb81620002d0565b92915050565b600080fd5b600080fd5b6000601f19601f8301169050919050565b7f4e487b7100000000000000000000000000000000000000000000000000000000600052604160045260246000fd5b62000356826200030b565b810181811067ffffffffffffffff821117156200037857620003776200031c565b5b80604052505050565b60006200038d62000288565b90506200039b82826200034b565b919050565b600067ffffffffffffffff821115620003be57620003bd6200031c565b5b620003c9826200030b565b9050602081019050919050565b60005b83811015620003f6578082015181840152602081019050620003d9565b8381111562000406576000848401525b50505050565b6000620004236200041d84620003a0565b62000381565b90508281526020810184848401111562000442576200044162000306565b5b6200044f848285620003d6565b509392505050565b600082601f8301126200046f576200046e62000301565b5b8151620004818482602086016200040c565b91505092915050565b600067ffffffffffffffff821115620004a857620004a76200031c565b5b602082029050602081019050919050565b600080fd5b6000620004d5620004cf846200048a565b62000381565b90508083825260208201905060208402830185811115620004fb57620004fa620004b9565b5b835b818110156200054957805167ffffffffffffffff81111562000524576200052362000301565b5b80860162000533898262000457565b85526020850194505050602081019050620004fd565b5050509392505050565b600082601f8301126200056b576200056a62000301565b5b81516200057d848260208601620004be565b91505092915050565b6000819050919050565b6200059b8162000586565b8114620005a757600080fd5b50565b600081519050620005bb8162000590565b92915050565b60008060008060008060c08789031215620005e157620005e062000292565b5b6000620005f189828a01620002ea565b965050602087015167ffffffffffffffff81111562000615576200061462000297565b5b6200062389828a0162000457565b955050604087015167ffffffffffffffff81111562000647576200064662000297565b5b6200065589828a0162000457565b945050606087015167ffffffffffffffff81111562000679576200067862000297565b5b6200068789828a0162000553565b93505060806200069a89828a01620005aa565b92505060a0620006ad89828a01620005aa565b9150509295509295509295565b7f4e487b7100000000000000000000000000000000000000000000000000000000600052602160045260246000fd5b7f4e487b7100000000000000000000000000000000000000000000000000000000600052602260045260246000fd5b600060028204905060018216806200073157607f821691505b602082108103620007475762000746620006e9565b5b50919050565b611b60806200075d6000396000f3fe608060405234801561001057600080fd5b506004361061007d5760003560e01c80635a9b0b891161005b5780635a9b0b89146100c45780637278f4d8146100e8578063bb55f25c14610106578063c2b6b58c146101225761007d565b80631d7e99c5146100825780633b9af89b1461009e57806343d726d6146100ba575b600080fd5b61009c600480360381019061009791906111c5565b610140565b005b6100b860048036038101906100b39190611300565b610218565b005b6100c261058f565b005b6100cc610652565b6040516100df979695949392919061155a565b60405180910390f35b6100f061087e565b6040516100fd91906115de565b60405180910390f35b610120600480360381019061011b91906115f9565b610888565b005b61012a610ae3565b6040516101379190611641565b60405180910390f35b60008054906101000a900473ffffffffffffffffffffffffffffffffffffffff1673ffffffffffffffffffffffffffffffffffffffff163373ffffffffffffffffffffffffffffffffffffffff16146101ce576040517f08c379a00000000000000000000000000000000000000000000000000000000081526004016101c5906116a8565b60405180910390fd5b82600190805190602001906101e4929190610e1e565b5081600290805190602001906101fb929190610e1e565b508060039080519060200190610212929190610ea4565b50505050565b60008054906101000a900473ffffffffffffffffffffffffffffffffffffffff1673ffffffffffffffffffffffffffffffffffffffff163373ffffffffffffffffffffffffffffffffffffffff16146102a6576040517f08c379a000000000000000000000000000000000000000000000000000000000815260040161029d906116a8565b60405180910390fd5b600073ffffffffffffffffffffffffffffffffffffffff16600b60008473ffffffffffffffffffffffffffffffffffffffff1673ffffffffffffffffffffffffffffffffffffffff16815260200190815260200160002060000160009054906101000a900473ffffffffffffffffffffffffffffffffffffffff1673ffffffffffffffffffffffffffffffffffffffff160361054357600060405180606001604052808473ffffffffffffffffffffffffffffffffffffffff168152602001838152602001600a548152509050600981908060018154018082558091505060019003906000526020600020906003020160009091909190915060008201518160000160006101000a81548173ffffffffffffffffffffffffffffffffffffffff021916908373ffffffffffffffffffffffffffffffffffffffff1602179055506020820151816001015560408201518160020155505080600b60008573ffffffffffffffffffffffffffffffffffffffff1673ffffffffffffffffffffffffffffffffffffffff16815260200190815260200160002060008201518160000160006101000a81548173ffffffffffffffffffffffffffffffffffffffff021916908373ffffffffffffffffffffffffffffffffffffffff1602179055506020820151816001015560408201518160020155905050600a60008154809291906104ad906116f7565b919050555060008054906101000a900473ffffffffffffffffffffffffffffffffffffffff1673ffffffffffffffffffffffffffffffffffffffff166351650ecb846040518263ffffffff1660e01b815260040161050b919061174e565b600060405180830381600087803b15801561052557600080fd5b505af1158015610539573d6000803e3d6000fd5b505050505061058b565b80600b60008473ffffffffffffffffffffffffffffffffffffffff1673ffffffffffffffffffffffffffffffffffffffff168152602001908152602001600020600101819055505b5050565b60008054906101000a900473ffffffffffffffffffffffffffffffffffffffff1673ffffffffffffffffffffffffffffffffffffffff163373ffffffffffffffffffffffffffffffffffffffff161461061d576040517f08c379a0000000000000000000000000000000000000000000000000000000008152600401610614906116a8565b60405180910390fd5b6001600c60006101000a81548160ff02191690836001811115610643576106426114e3565b5b0217905550610650610bd7565b565b6060806060600080600080600160026003600554600c60009054906101000a900460ff1660045460085486805461068890611798565b80601f01602080910402602001604051908101604052809291908181526020018280546106b490611798565b80156107015780601f106106d657610100808354040283529160200191610701565b820191906000526020600020905b8154815290600101906020018083116106e457829003601f168201915b5050505050965085805461071490611798565b80601f016020809104026020016040519081016040528092919081815260200182805461074090611798565b801561078d5780601f106107625761010080835404028352916020019161078d565b820191906000526020600020905b81548152906001019060200180831161077057829003601f168201915b5050505050955084805480602002602001604051908101604052809291908181526020016000905b828210156108615783829060005260206000200180546107d490611798565b80601f016020809104026020016040519081016040528092919081815260200182805461080090611798565b801561084d5780601f106108225761010080835404028352916020019161084d565b820191906000526020600020905b81548152906001019060200180831161083057829003601f168201915b5050505050815260200190600101906107b5565b505050509450965096509650965096509650965090919293949596565b6000600454905090565b60008054906101000a900473ffffffffffffffffffffffffffffffffffffffff1673ffffffffffffffffffffffffffffffffffffffff163373ffffffffffffffffffffffffffffffffffffffff1614610916576040517f08c379a000000000000000000000000000000000000000000000000000000000815260040161090d906116a8565b60405180910390fd5b8060088190555060005b600a54811015610adf576000600982815481106109405761093f6117c9565b5b90600052602060002090600302016040518060600160405290816000820160009054906101000a900473ffffffffffffffffffffffffffffffffffffffff1673ffffffffffffffffffffffffffffffffffffffff1673ffffffffffffffffffffffffffffffffffffffff1681526020016001820154815260200160028201548152505090506000816000015190506000806109da83610d31565b9150915060008660646109f1898860200151610dee565b6109fb91906117f8565b610a059190611881565b90506000600183610a1691906118b2565b828486610a2391906117f8565b610a2d91906118b2565b610a379190611881565b905060008054906101000a900473ffffffffffffffffffffffffffffffffffffffff1673ffffffffffffffffffffffffffffffffffffffff1663937f4a2686836040518363ffffffff1660e01b8152600401610a94929190611908565b600060405180830381600087803b158015610aae57600080fd5b505af1158015610ac2573d6000803e3d6000fd5b505050505050505050508080610ad7906116f7565b915050610920565b5050565b60008060009054906101000a900473ffffffffffffffffffffffffffffffffffffffff1673ffffffffffffffffffffffffffffffffffffffff163373ffffffffffffffffffffffffffffffffffffffff1614610b74576040517f08c379a0000000000000000000000000000000000000000000000000000000008152600401610b6b906116a8565b60405180910390fd5b600060055414158015610bd25750600180811115610b9557610b946114e3565b5b600c60009054906101000a900460ff166001811115610bb757610bb66114e3565b5b1480610bd1575042600554600754610bcf91906118b2565b115b5b905090565b600080600a5403610bef576000600481905550610d2e565b600080600092505b600a54831015610d0057600060098481548110610c1757610c166117c9565b5b90600052602060002090600302016040518060600160405290816000820160009054906101000a900473ffffffffffffffffffffffffffffffffffffffff1673ffffffffffffffffffffffffffffffffffffffff1673ffffffffffffffffffffffffffffffffffffffff1681526020016001820154815260200160028201548152505090506000816000015190506000610cb082610d31565b5090508085610cbf91906118b2565b9450806064610cce9190611931565b8360200151610cdd91906117f8565b84610ce891906118b2565b93505050508280610cf8906116f7565b935050610bf7565b81600a546064610d1091906117f8565b610d1a9190611931565b81610d259190611881565b60048190555050505b50565b60008060008060009054906101000a900473ffffffffffffffffffffffffffffffffffffffff1673ffffffffffffffffffffffffffffffffffffffff1663d716c549856040518263ffffffff1660e01b8152600401610d90919061174e565b6000604051808303816000875af1158015610daf573d6000803e3d6000fd5b505050506040513d6000823e3d601f19601f82011682018060405250810190610dd89190611ae1565b9050806060015181608001519250925050915091565b600081831015610e09578282610e049190611931565b610e16565b8183610e159190611931565b5b905092915050565b828054610e2a90611798565b90600052602060002090601f016020900481019282610e4c5760008555610e93565b82601f10610e6557805160ff1916838001178555610e93565b82800160010185558215610e93579182015b82811115610e92578251825591602001919060010190610e77565b5b509050610ea09190610f04565b5090565b828054828255906000526020600020908101928215610ef3579160200282015b82811115610ef2578251829080519060200190610ee2929190610e1e565b5091602001919060010190610ec4565b5b509050610f009190610f21565b5090565b5b80821115610f1d576000816000905550600101610f05565b5090565b5b80821115610f415760008181610f389190610f45565b50600101610f22565b5090565b508054610f5190611798565b6000825580601f10610f635750610f82565b601f016020900490600052602060002090810190610f819190610f04565b5b50565b6000604051905090565b600080fd5b600080fd5b600080fd5b600080fd5b6000601f19601f8301169050919050565b7f4e487b7100000000000000000000000000000000000000000000000000000000600052604160045260246000fd5b610fec82610fa3565b810181811067ffffffffffffffff8211171561100b5761100a610fb4565b5b80604052505050565b600061101e610f85565b905061102a8282610fe3565b919050565b600067ffffffffffffffff82111561104a57611049610fb4565b5b61105382610fa3565b9050602081019050919050565b82818337600083830152505050565b600061108261107d8461102f565b611014565b90508281526020810184848401111561109e5761109d610f9e565b5b6110a9848285611060565b509392505050565b600082601f8301126110c6576110c5610f99565b5b81356110d684826020860161106f565b91505092915050565b600067ffffffffffffffff8211156110fa576110f9610fb4565b5b602082029050602081019050919050565b600080fd5b600061112361111e846110df565b611014565b905080838252602082019050602084028301858111156111465761114561110b565b5b835b8181101561118d57803567ffffffffffffffff81111561116b5761116a610f99565b5b80860161117889826110b1565b85526020850194505050602081019050611148565b5050509392505050565b600082601f8301126111ac576111ab610f99565b5b81356111bc848260208601611110565b91505092915050565b6000806000606084860312156111de576111dd610f8f565b5b600084013567ffffffffffffffff8111156111fc576111fb610f94565b5b611208868287016110b1565b935050602084013567ffffffffffffffff81111561122957611228610f94565b5b611235868287016110b1565b925050604084013567ffffffffffffffff81111561125657611255610f94565b5b61126286828701611197565b9150509250925092565b600073ffffffffffffffffffffffffffffffffffffffff82169050919050565b60006112978261126c565b9050919050565b6112a78161128c565b81146112b257600080fd5b50565b6000813590506112c48161129e565b92915050565b6000819050919050565b6112dd816112ca565b81146112e857600080fd5b50565b6000813590506112fa816112d4565b92915050565b6000806040838503121561131757611316610f8f565b5b6000611325858286016112b5565b9250506020611336858286016112eb565b9150509250929050565b600081519050919050565b600082825260208201905092915050565b60005b8381101561137a57808201518184015260208101905061135f565b83811115611389576000848401525b50505050565b600061139a82611340565b6113a4818561134b565b93506113b481856020860161135c565b6113bd81610fa3565b840191505092915050565b600081519050919050565b600082825260208201905092915050565b6000819050602082019050919050565b600082825260208201905092915050565b600061141082611340565b61141a81856113f4565b935061142a81856020860161135c565b61143381610fa3565b840191505092915050565b600061144a8383611405565b905092915050565b6000602082019050919050565b600061146a826113c8565b61147481856113d3565b935083602082028501611486856113e4565b8060005b858110156114c257848403895281516114a3858261143e565b94506114ae83611452565b925060208a0199505060018101905061148a565b50829750879550505050505092915050565b6114dd816112ca565b82525050565b7f4e487b7100000000000000000000000000000000000000000000000000000000600052602160045260246000fd5b60028110611523576115226114e3565b5b50565b600081905061153482611512565b919050565b600061154482611526565b9050919050565b61155481611539565b82525050565b600060e0820190508181036000830152611574818a61138f565b90508181036020830152611588818961138f565b9050818103604083015261159c818861145f565b90506115ab60608301876114d4565b6115b8608083018661154b565b6115c560a08301856114d4565b6115d260c08301846114d4565b98975050505050505050565b60006020820190506115f360008301846114d4565b92915050565b60006020828403121561160f5761160e610f8f565b5b600061161d848285016112eb565b91505092915050565b60008115159050919050565b61163b81611626565b82525050565b60006020820190506116566000830184611632565b92915050565b7f4f6e6c7920706172656e7420636f6e747261637420697320616c6c6f77000000600082015250565b6000611692601d8361134b565b915061169d8261165c565b602082019050919050565b600060208201905081810360008301526116c181611685565b9050919050565b7f4e487b7100000000000000000000000000000000000000000000000000000000600052601160045260246000fd5b6000611702826112ca565b91507fffffffffffffffffffffffffffffffffffffffffffffffffffffffffffffffff8203611734576117336116c8565b5b600182019050919050565b6117488161128c565b82525050565b6000602082019050611763600083018461173f565b92915050565b7f4e487b7100000000000000000000000000000000000000000000000000000000600052602260045260246000fd5b600060028204905060018216806117b057607f821691505b6020821081036117c3576117c2611769565b5b50919050565b7f4e487b7100000000000000000000000000000000000000000000000000000000600052603260045260246000fd5b6000611803826112ca565b915061180e836112ca565b9250817fffffffffffffffffffffffffffffffffffffffffffffffffffffffffffffffff0483118215151615611847576118466116c8565b5b828202905092915050565b7f4e487b7100000000000000000000000000000000000000000000000000000000600052601260045260246000fd5b600061188c826112ca565b9150611897836112ca565b9250826118a7576118a6611852565b5b828204905092915050565b60006118bd826112ca565b91506118c8836112ca565b9250827fffffffffffffffffffffffffffffffffffffffffffffffffffffffffffffffff038211156118fd576118fc6116c8565b5b828201905092915050565b600060408201905061191d600083018561173f565b61192a60208301846114d4565b9392505050565b600061193c826112ca565b9150611947836112ca565b92508282101561195a576119596116c8565b5b828203905092915050565b600080fd5b600080fd5b600061198261197d8461102f565b611014565b90508281526020810184848401111561199e5761199d610f9e565b5b6119a984828561135c565b509392505050565b600082601f8301126119c6576119c5610f99565b5b81516119d684826020860161196f565b91505092915050565b6000815190506119ee8161129e565b92915050565b600081519050611a03816112d4565b92915050565b600060c08284031215611a1f57611a1e611965565b5b611a2960c0611014565b9050600082015167ffffffffffffffff811115611a4957611a4861196a565b5b611a55848285016119b1565b600083015250602082015167ffffffffffffffff811115611a7957611a7861196a565b5b611a85848285016119b1565b6020830152506040611a99848285016119df565b6040830152506060611aad848285016119f4565b6060830152506080611ac1848285016119f4565b60808301525060a0611ad5848285016119f4565b60a08301525092915050565b600060208284031215611af757611af6610f8f565b5b600082015167ffffffffffffffff811115611b1557611b14610f94565b5b611b2184828501611a09565b9150509291505056fea264697066735822122004f45c22b94a86e11e66d2f5b5618bc2fe0946f535820156ebb4e428aa0fd50b64736f6c634300080d0033",
  "immutableReferences": {},
  "source": "// SPDX-License-Identifier: GPL-3.0\n\npragma solidity >=0.8.0;\n\nimport \"./Type.sol\";\n\ncontract Session {\n    address parentContract;\n    string name;\n    string description;\n    string[] images;\n    uint256 proposePrice;\n    uint256 timeout;\n    uint256 reward;\n    uint256 initTime;\n    uint256 finalPrice;\n\n    ParticipantPropose[] proposeList;\n    uint256 proposeIndex;\n    mapping(address => ParticipantPropose) proposeMap;\n\n    SessionState state;\n\n    modifier onlyParentContract() {\n        require(msg.sender == parentContract, \"Only parent contract is allow\");\n        _;\n    }\n\n    constructor(\n        address _parentContract,\n        string memory _name,\n        string memory _description,\n        string[] memory _images,\n        uint256 _timeout,\n        uint256 _reward\n    ) payable {\n        parentContract = _parentContract;\n        state = SessionState.OnGoing;\n        name = _name;\n        description = _description;\n        reward = _reward;\n        images = _images;\n        timeout = _timeout;\n        initTime = block.timestamp;\n    }\n\n    function close() public onlyParentContract {\n        state = SessionState.Closed;\n        calculateProposePrice();\n    }\n\n    function isClosed() public view onlyParentContract returns (bool) {\n        return\n            timeout != 0 &&\n            ((state == SessionState.Closed) ||\n                (initTime + timeout) > block.timestamp);\n    }\n\n    function update(\n        string memory _name,\n        string memory _description,\n        string[] memory _images\n    ) public onlyParentContract {\n        name = _name;\n        description = _description;\n        images = _images;\n    }\n\n    function setFinalPrice(uint256 _finalPrice) public onlyParentContract {\n        finalPrice = _finalPrice;\n        uint256 i;\n\n        // update deviation of each participant that has join this session.\n        for (i = 0; i < proposeIndex; i++) {\n            ParticipantPropose memory proposeInfo = proposeList[i];\n            address currentParticipant = proposeInfo.participantAddress;\n            (\n                uint256 currentDeviation,\n                uint256 sessionsCount\n            ) = getParticpantInfo(currentParticipant);\n\n            uint256 newDeviation = ((subAbs(_finalPrice, proposeInfo.price) *\n                100) / _finalPrice);\n            uint256 updatedDeviation = ((currentDeviation * sessionsCount) +\n                newDeviation) / (sessionsCount + 1);\n            IMain(parentContract).updateParticipantDeviation(\n                currentParticipant,\n                updatedDeviation\n            );\n        }\n    }\n\n    function submitPrice(address _participantAddr, uint256 _price)\n        public\n        onlyParentContract\n    {\n        if (proposeMap[_participantAddr].participantAddress == address(0)) {\n            // new participant\n            ParticipantPropose memory propose = ParticipantPropose(\n                _participantAddr,\n                _price,\n                proposeIndex\n            );\n            proposeList.push(propose);\n            proposeMap[_participantAddr] = propose;\n            proposeIndex++;\n            IMain(parentContract).increaseParticipantSessionCount(\n                _participantAddr\n            );\n        } else {\n            //  existed participant\n            proposeMap[_participantAddr].price = _price;\n        }\n    }\n\n    function getParticpantInfo(address _participantAddr)\n        internal\n        returns (uint256, uint256)\n    {\n        Participant memory participant = IMain(parentContract)\n            .getParticipantDetail(_participantAddr);\n        return (participant.deviation, participant.sessionsCount);\n    }\n\n    function getInfo()\n        public\n        view\n        returns (\n            string memory,\n            string memory,\n            string[] memory,\n            uint256,\n            SessionState,\n            uint256,\n            uint256\n        )\n    {\n        return (\n            name,\n            description,\n            images,\n            timeout,\n            state,\n            proposePrice,\n            finalPrice\n        );\n    }\n\n    function getProposePrice() public view returns (uint256) {\n        return proposePrice;\n    }\n\n    // internal function\n\n    function subAbs(uint256 a, uint256 b) internal pure returns (uint256) {\n        return a >= b ? a - b : b - a;\n    }\n\n    function calculateProposePrice() internal {\n        uint256 i;\n\n        if (proposeIndex == 0) {\n            proposePrice = 0;\n        } else {\n            uint256 totalDeviation;\n            uint256 topValue;\n\n            for (i = 0; i < proposeIndex; i++) {\n                ParticipantPropose memory proposeInfo = proposeList[i];\n                address currentParticipant = proposeInfo.participantAddress;\n                (uint256 deviation, ) = getParticpantInfo(currentParticipant);\n                totalDeviation += deviation;\n                topValue += (proposeInfo.price * (100 - deviation));\n            }\n\n            proposePrice = topValue / ((100 * proposeIndex) - totalDeviation);\n        }\n    }\n}\n",
  "sourcePath": "/Users/minh/Projects/Funix/pricing-chain/contracts/Session.sol",
  "compiler": {
    "name": "solc",
    "version": "0.8.13+commit.abaa5c0e.Emscripten.clang"
  },
  "schemaVersion": "3.4.5",
  "updatedAt": "2022-03-27T04:35:53.285Z",
  "devdoc": {
    "kind": "dev",
    "methods": {},
    "version": 1
  },
  "userdoc": {
    "kind": "user",
    "methods": {},
    "version": 1
  }
}